{
  "address": "0x80c72bbf49aFeAeD03b6C5E56AA42A08FE075F12",
  "abi": [
    {
      "inputs": [
        {
          "internalType": "uint256",
          "name": "_maxBatchMintSize",
          "type": "uint256"
        },
        {
          "internalType": "address",
          "name": "_ores",
          "type": "address"
        },
        {
          "internalType": "address",
          "name": "_mnaNFT",
          "type": "address"
        }
      ],
      "stateMutability": "nonpayable",
      "type": "constructor"
    },
    {
      "anonymous": false,
      "inputs": [
        {
          "indexed": true,
          "internalType": "address",
          "name": "owner",
          "type": "address"
        },
        {
          "indexed": true,
          "internalType": "address",
          "name": "approved",
          "type": "address"
        },
        {
          "indexed": true,
          "internalType": "uint256",
          "name": "tokenId",
          "type": "uint256"
        }
      ],
      "name": "Approval",
      "type": "event"
    },
    {
      "anonymous": false,
      "inputs": [
        {
          "indexed": true,
          "internalType": "address",
          "name": "owner",
          "type": "address"
        },
        {
          "indexed": true,
          "internalType": "address",
          "name": "operator",
          "type": "address"
        },
        {
          "indexed": false,
          "internalType": "bool",
          "name": "approved",
          "type": "bool"
        }
      ],
      "name": "ApprovalForAll",
      "type": "event"
    },
    {
      "anonymous": false,
      "inputs": [
        {
          "indexed": true,
          "internalType": "address",
          "name": "previousOwner",
          "type": "address"
        },
        {
          "indexed": true,
          "internalType": "address",
          "name": "newOwner",
          "type": "address"
        }
      ],
      "name": "OwnershipTransferred",
      "type": "event"
    },
    {
      "anonymous": false,
      "inputs": [
        {
          "indexed": true,
          "internalType": "address",
          "name": "from",
          "type": "address"
        },
        {
          "indexed": true,
          "internalType": "address",
          "name": "to",
          "type": "address"
        },
        {
          "indexed": true,
          "internalType": "uint256",
          "name": "tokenId",
          "type": "uint256"
        }
      ],
      "name": "Transfer",
      "type": "event"
    },
    {
      "inputs": [],
      "name": "BURN_ADDRESS",
      "outputs": [
        {
          "internalType": "address",
          "name": "",
          "type": "address"
        }
      ],
      "stateMutability": "view",
      "type": "function"
    },
    {
      "inputs": [],
      "name": "MAX_MINT",
      "outputs": [
        {
          "internalType": "uint256",
          "name": "",
          "type": "uint256"
        }
      ],
      "stateMutability": "view",
      "type": "function"
    },
    {
      "inputs": [
        {
          "internalType": "address",
          "name": "to",
          "type": "address"
        },
        {
          "internalType": "uint256",
          "name": "tokenId",
          "type": "uint256"
        }
      ],
      "name": "approve",
      "outputs": [],
      "stateMutability": "nonpayable",
      "type": "function"
    },
    {
      "inputs": [
        {
          "internalType": "address",
          "name": "owner",
          "type": "address"
        }
      ],
      "name": "balanceOf",
      "outputs": [
        {
          "internalType": "uint256",
          "name": "",
          "type": "uint256"
        }
      ],
      "stateMutability": "view",
      "type": "function"
    },
    {
      "inputs": [
        {
          "internalType": "address",
          "name": "",
          "type": "address"
        }
      ],
      "name": "claimed",
      "outputs": [
        {
          "internalType": "bool",
          "name": "",
          "type": "bool"
        }
      ],
      "stateMutability": "view",
      "type": "function"
    },
    {
      "inputs": [
        {
          "internalType": "uint256",
          "name": "_numToMint",
          "type": "uint256"
        }
      ],
      "name": "costForMint",
      "outputs": [
        {
          "internalType": "uint256",
          "name": "",
          "type": "uint256"
        }
      ],
      "stateMutability": "view",
      "type": "function"
    },
    {
      "inputs": [
        {
          "internalType": "uint256",
          "name": "tokenId",
          "type": "uint256"
        }
      ],
      "name": "getApproved",
      "outputs": [
        {
          "internalType": "address",
          "name": "",
          "type": "address"
        }
      ],
      "stateMutability": "view",
      "type": "function"
    },
    {
      "inputs": [
        {
          "internalType": "address",
          "name": "owner",
          "type": "address"
        },
        {
          "internalType": "address",
          "name": "operator",
          "type": "address"
        }
      ],
      "name": "isApprovedForAll",
      "outputs": [
        {
          "internalType": "bool",
          "name": "",
          "type": "bool"
        }
      ],
      "stateMutability": "view",
      "type": "function"
    },
    {
      "inputs": [],
      "name": "maxCountPerClaim",
      "outputs": [
        {
          "internalType": "uint256",
          "name": "",
          "type": "uint256"
        }
      ],
      "stateMutability": "view",
      "type": "function"
    },
    {
      "inputs": [
        {
          "internalType": "uint256",
          "name": "numberOfTokens",
          "type": "uint256"
        },
        {
          "internalType": "uint256",
          "name": "tokenId",
          "type": "uint256"
        }
      ],
      "name": "mint",
      "outputs": [],
      "stateMutability": "payable",
      "type": "function"
    },
    {
      "inputs": [],
      "name": "mintCost",
      "outputs": [
        {
          "internalType": "uint256",
          "name": "",
          "type": "uint256"
        }
      ],
      "stateMutability": "view",
      "type": "function"
    },
    {
      "inputs": [],
      "name": "mnaNFT",
      "outputs": [
        {
          "internalType": "contract IMnA",
          "name": "",
          "type": "address"
        }
      ],
      "stateMutability": "view",
      "type": "function"
    },
    {
      "inputs": [],
      "name": "name",
      "outputs": [
        {
          "internalType": "string",
          "name": "",
          "type": "string"
        }
      ],
      "stateMutability": "view",
      "type": "function"
    },
    {
      "inputs": [],
      "name": "nextOwnerToExplicitlySet",
      "outputs": [
        {
          "internalType": "uint256",
          "name": "",
          "type": "uint256"
        }
      ],
      "stateMutability": "view",
      "type": "function"
    },
    {
      "inputs": [],
      "name": "ores",
      "outputs": [
        {
          "internalType": "address",
          "name": "",
          "type": "address"
        }
      ],
      "stateMutability": "view",
      "type": "function"
    },
    {
      "inputs": [],
      "name": "owner",
      "outputs": [
        {
          "internalType": "address",
          "name": "",
          "type": "address"
        }
      ],
      "stateMutability": "view",
      "type": "function"
    },
    {
      "inputs": [
        {
          "internalType": "uint256",
          "name": "tokenId",
          "type": "uint256"
        }
      ],
      "name": "ownerOf",
      "outputs": [
        {
          "internalType": "address",
          "name": "",
          "type": "address"
        }
      ],
      "stateMutability": "view",
      "type": "function"
    },
    {
      "inputs": [],
      "name": "renounceOwnership",
      "outputs": [],
      "stateMutability": "nonpayable",
      "type": "function"
    },
    {
      "inputs": [
        {
          "internalType": "address",
          "name": "from",
          "type": "address"
        },
        {
          "internalType": "address",
          "name": "to",
          "type": "address"
        },
        {
          "internalType": "uint256",
          "name": "tokenId",
          "type": "uint256"
        }
      ],
      "name": "safeTransferFrom",
      "outputs": [],
      "stateMutability": "nonpayable",
      "type": "function"
    },
    {
      "inputs": [
        {
          "internalType": "address",
          "name": "from",
          "type": "address"
        },
        {
          "internalType": "address",
          "name": "to",
          "type": "address"
        },
        {
          "internalType": "uint256",
          "name": "tokenId",
          "type": "uint256"
        },
        {
          "internalType": "bytes",
          "name": "_data",
          "type": "bytes"
        }
      ],
      "name": "safeTransferFrom",
      "outputs": [],
      "stateMutability": "nonpayable",
      "type": "function"
    },
    {
      "inputs": [
        {
          "internalType": "bool",
          "name": "isActive",
          "type": "bool"
        }
      ],
      "name": "setActive",
      "outputs": [],
      "stateMutability": "nonpayable",
      "type": "function"
    },
    {
      "inputs": [
        {
          "internalType": "address",
          "name": "operator",
          "type": "address"
        },
        {
          "internalType": "bool",
          "name": "approved",
          "type": "bool"
        }
      ],
      "name": "setApprovalForAll",
      "outputs": [],
      "stateMutability": "nonpayable",
      "type": "function"
    },
    {
      "inputs": [
        {
          "internalType": "uint256",
          "name": "_maxMint",
          "type": "uint256"
        }
      ],
      "name": "setMaxMint",
      "outputs": [],
      "stateMutability": "nonpayable",
      "type": "function"
    },
    {
      "inputs": [
        {
          "internalType": "uint256",
          "name": "_mintCost",
          "type": "uint256"
        }
      ],
      "name": "setMintCost",
      "outputs": [],
      "stateMutability": "nonpayable",
      "type": "function"
    },
    {
      "inputs": [
        {
          "internalType": "string",
          "name": "URI",
          "type": "string"
        }
      ],
      "name": "setTokenBaseURI",
      "outputs": [],
      "stateMutability": "nonpayable",
      "type": "function"
    },
    {
      "inputs": [
        {
          "internalType": "bytes4",
          "name": "interfaceId",
          "type": "bytes4"
        }
      ],
      "name": "supportsInterface",
      "outputs": [
        {
          "internalType": "bool",
          "name": "",
          "type": "bool"
        }
      ],
      "stateMutability": "view",
      "type": "function"
    },
    {
      "inputs": [],
      "name": "symbol",
      "outputs": [
        {
          "internalType": "string",
          "name": "",
          "type": "string"
        }
      ],
      "stateMutability": "view",
      "type": "function"
    },
    {
      "inputs": [
        {
          "internalType": "uint256",
          "name": "index",
          "type": "uint256"
        }
      ],
      "name": "tokenByIndex",
      "outputs": [
        {
          "internalType": "uint256",
          "name": "",
          "type": "uint256"
        }
      ],
      "stateMutability": "view",
      "type": "function"
    },
    {
      "inputs": [
        {
          "internalType": "address",
          "name": "owner",
          "type": "address"
        },
        {
          "internalType": "uint256",
          "name": "index",
          "type": "uint256"
        }
      ],
      "name": "tokenOfOwnerByIndex",
      "outputs": [
        {
          "internalType": "uint256",
          "name": "",
          "type": "uint256"
        }
      ],
      "stateMutability": "view",
      "type": "function"
    },
    {
      "inputs": [
        {
          "internalType": "uint256",
          "name": "tokenId",
          "type": "uint256"
        }
      ],
      "name": "tokenURI",
      "outputs": [
        {
          "internalType": "string",
          "name": "",
          "type": "string"
        }
      ],
      "stateMutability": "view",
      "type": "function"
    },
    {
      "inputs": [],
      "name": "totalMinted",
      "outputs": [
        {
          "internalType": "uint256",
          "name": "",
          "type": "uint256"
        }
      ],
      "stateMutability": "view",
      "type": "function"
    },
    {
      "inputs": [],
      "name": "totalSupply",
      "outputs": [
        {
          "internalType": "uint256",
          "name": "",
          "type": "uint256"
        }
      ],
      "stateMutability": "view",
      "type": "function"
    },
    {
      "inputs": [
        {
          "internalType": "address",
          "name": "from",
          "type": "address"
        },
        {
          "internalType": "address",
          "name": "to",
          "type": "address"
        },
        {
          "internalType": "uint256",
          "name": "tokenId",
          "type": "uint256"
        }
      ],
      "name": "transferFrom",
      "outputs": [],
      "stateMutability": "nonpayable",
      "type": "function"
    },
    {
      "inputs": [
        {
          "internalType": "address",
          "name": "newOwner",
          "type": "address"
        }
      ],
      "name": "transferOwnership",
      "outputs": [],
      "stateMutability": "nonpayable",
      "type": "function"
    },
    {
      "stateMutability": "payable",
      "type": "receive"
    }
  ],
  "transactionHash": "0xff8643e6ae662a5c1b300025bf1a66cf05f9b860ae092e8d74e92e86b239e0d4",
  "args": [
    10,
    "0xE47a7eBF8eC907854CCabead79a5E720a329Bd31",
    "0xdbe147fc80b49871e2a8D60cc89D51b11bc88b35"
  ],
  "numDeployments": 1,
  "solcInputHash": "12356df2daca6e8ac6abf97e229d7ce0",
  "bytecode": "0x600180805560006008819055600a805460ff19169055600b80546001600160a01b03191661dead1790556037600c55600d91909155690cb49b44ba602d800000600e55600f81905560c0604081905260a082905262000062916010919062000224565b503480156200007057600080fd5b5060405162002bc938038062002bc98339810160408190526200009391620002e7565b6040518060400160405280600c81526020016b4461726b6e6573732045676760a01b8152506040518060400160405280600c81526020016b4461726b6e6573732045676760a01b81525084620000f8620000f2620001d060201b60201c565b620001d4565b600081116200015d5760405162461bcd60e51b815260206004820152602760248201527f455243373231413a206d61782062617463682073697a65206d757374206265206044820152666e6f6e7a65726f60c81b606482015260840160405180910390fd5b82516200017290600290602086019062000224565b5081516200018890600390602085019062000224565b5060805250506001600955600a8054610100600160a81b0319166101006001600160a01b0394851602179055601180546001600160a01b031916919092161790555062000364565b3390565b600080546001600160a01b038381166001600160a01b0319831681178455604051919092169283917f8be0079c531659141344cd1fd0a4f28419497f9722a3daafe3b4186f6b6457e09190a35050565b828054620002329062000327565b90600052602060002090601f016020900481019282620002565760008555620002a1565b82601f106200027157805160ff1916838001178555620002a1565b82800160010185558215620002a1579182015b82811115620002a157825182559160200191906001019062000284565b50620002af929150620002b3565b5090565b5b80821115620002af5760008155600101620002b4565b80516001600160a01b0381168114620002e257600080fd5b919050565b600080600060608486031215620002fc578283fd5b835192506200030e60208501620002ca565b91506200031e60408501620002ca565b90509250925092565b6002810460018216806200033c57607f821691505b602082108114156200035e57634e487b7160e01b600052602260045260246000fd5b50919050565b60805161283b6200038e60003960008181611807015281816118310152611cea015261283b6000f3fe6080604052600436106101fd5760003560e01c80638da5cb5b1161010d578063c87b56dd116100a0578063e985e9c51161006f578063e985e9c51461059c578063ecc5fe30146105e5578063f0292a031461060a578063f2fde38b14610620578063fccc28131461064057610204565b8063c87b56dd14610520578063c884ef8314610540578063d7224ba014610570578063d8fee6bf1461058657610204565b8063a2309ff8116100dc578063a2309ff8146104b4578063acec338a146104ca578063b88d4fde146104ea578063bdb4b8481461050a57610204565b80638da5cb5b146104415780638ef79e911461045f57806395d89b411461047f578063a22cb4651461049457610204565b80632f745c5911610190578063547520fe1161015f578063547520fe146103ac5780636352211e146103cc57806370a08231146103ec578063715018a61461040c5780638545f4ea1461042157610204565b80632f745c591461032c578063357bad8c1461034c57806342842e0e1461036c5780634f6ccce71461038c57610204565b806318160ddd116101cc57806318160ddd146102ba5780631b2ef1ca146102d957806323b872dd146102ec57806327ed69d21461030c57610204565b806301ffc9a71461020957806306fdde031461023e578063081812fc14610260578063095ea7b31461029857610204565b3661020457005b600080fd5b34801561021557600080fd5b5061022961022436600461242b565b610660565b60405190151581526020015b60405180910390f35b34801561024a57600080fd5b506102536106cf565b6040516102359190612596565b34801561026c57600080fd5b5061028061027b3660046124a9565b610761565b6040516001600160a01b039091168152602001610235565b3480156102a457600080fd5b506102b86102b33660046123c8565b6107f1565b005b3480156102c657600080fd5b506001545b604051908152602001610235565b6102b86102e73660046124c1565b610909565b3480156102f857600080fd5b506102b86103073660046122de565b610d58565b34801561031857600080fd5b506102cb6103273660046124a9565b610d63565b34801561033857600080fd5b506102cb6103473660046123c8565b610d73565b34801561035857600080fd5b50601154610280906001600160a01b031681565b34801561037857600080fd5b506102b86103873660046122de565b610ef2565b34801561039857600080fd5b506102cb6103a73660046124a9565b610f0d565b3480156103b857600080fd5b506102b86103c73660046124a9565b610f76565b3480156103d857600080fd5b506102806103e73660046124a9565b610fa5565b3480156103f857600080fd5b506102cb61040736600461226e565b610fb7565b34801561041857600080fd5b506102b8611048565b34801561042d57600080fd5b506102b861043c3660046124a9565b61107e565b34801561044d57600080fd5b506000546001600160a01b0316610280565b34801561046b57600080fd5b506102b861047a366004612463565b6110ad565b34801561048b57600080fd5b506102536110ee565b3480156104a057600080fd5b506102b86104af36600461239b565b6110fd565b3480156104c057600080fd5b506102cb600f5481565b3480156104d657600080fd5b506102b86104e53660046123f3565b6111cf565b3480156104f657600080fd5b506102b861050536600461231e565b61120c565b34801561051657600080fd5b506102cb600e5481565b34801561052c57600080fd5b5061025361053b3660046124a9565b611245565b34801561054c57600080fd5b5061022961055b36600461226e565b60126020526000908152604090205460ff1681565b34801561057c57600080fd5b506102cb60085481565b34801561059257600080fd5b506102cb600d5481565b3480156105a857600080fd5b506102296105b73660046122a6565b6001600160a01b03918216600090815260076020908152604080832093909416825291909152205460ff1690565b3480156105f157600080fd5b50600a546102809061010090046001600160a01b031681565b34801561061657600080fd5b506102cb600c5481565b34801561062c57600080fd5b506102b861063b36600461226e565b611250565b34801561064c57600080fd5b50600b54610280906001600160a01b031681565b60006001600160e01b031982166380ac58cd60e01b148061069157506001600160e01b03198216635b5e139f60e01b145b806106ac57506001600160e01b0319821663780e9d6360e01b145b806106c757506301ffc9a760e01b6001600160e01b03198316145b90505b919050565b6060600280546106de90612720565b80601f016020809104026020016040519081016040528092919081815260200182805461070a90612720565b80156107575780601f1061072c57610100808354040283529160200191610757565b820191906000526020600020905b81548152906001019060200180831161073a57829003601f168201915b5050505050905090565b600061076e826001541190565b6107d55760405162461bcd60e51b815260206004820152602d60248201527f455243373231413a20617070726f76656420717565727920666f72206e6f6e6560448201526c3c34b9ba32b73a103a37b5b2b760991b60648201526084015b60405180910390fd5b506000908152600660205260409020546001600160a01b031690565b60006107fc82610fa5565b9050806001600160a01b0316836001600160a01b0316141561086b5760405162461bcd60e51b815260206004820152602260248201527f455243373231413a20617070726f76616c20746f2063757272656e74206f776e60448201526132b960f11b60648201526084016107cc565b336001600160a01b0382161480610887575061088781336105b7565b6108f95760405162461bcd60e51b815260206004820152603960248201527f455243373231413a20617070726f76652063616c6c6572206973206e6f74206f60448201527f776e6572206e6f7220617070726f76656420666f7220616c6c0000000000000060648201526084016107cc565b6109048383836112eb565b505050565b600a5460ff16801561091e5750600c54600f54105b6109575760405162461bcd60e51b815260206004820152600a6024820152696e6f742061637469766560b01b60448201526064016107cc565b600260095414156109aa5760405162461bcd60e51b815260206004820152601f60248201527f5265656e7472616e637947756172643a207265656e7472616e742063616c6c0060448201526064016107cc565b6002600955816109e95760405162461bcd60e51b815260206004820152600a6024820152691e995c9bc818dbdd5b9d60b21b60448201526064016107cc565b600d54821115610a3b5760405162461bcd60e51b815260206004820152601c60248201527f6578636565646564206d6178206c696d69742070657220636c61696d0000000060448201526064016107cc565b600f54600c54610a4a91611347565b821115610a8b5760405162461bcd60e51b815260206004820152600f60248201526e6e6f7420656e6f756768206e66747360881b60448201526064016107cc565b3360009081526012602052604090205460ff1615610add5760405162461bcd60e51b815260206004820152600f60248201526e105b1c9958591e4818db185a5b5959608a1b60448201526064016107cc565b6011546040516331a9108f60e11b81526004810183905233916001600160a01b031690636352211e9060240160206040518083038186803b158015610b2157600080fd5b505afa158015610b35573d6000803e3d6000fd5b505050506040513d601f19601f82011682018060405250810190610b59919061228a565b6001600160a01b031614610baf5760405162461bcd60e51b815260206004820152601860248201527f596f7520646f6e2774206f776e207468697320746f6b656e000000000000000060448201526064016107cc565b601154604051634019bfc760e01b8152600481018390526001600160a01b0390911690634019bfc79060240160206040518083038186803b158015610bf357600080fd5b505afa158015610c07573d6000803e3d6000fd5b505050506040513d601f19601f82011682018060405250810190610c2b919061240f565b15610c785760405162461bcd60e51b815260206004820152601a60248201527f596f752063616e206d696e74207769746820616e20616c69656e00000000000060448201526064016107cc565b601154600b546040516323b872dd60e01b81523360048201526001600160a01b039182166024820152604481018490529116906323b872dd90606401600060405180830381600087803b158015610cce57600080fd5b505af1158015610ce2573d6000803e3d6000fd5b505050506000610cf183610d63565b600b54600a54919250610d189161010090046001600160a01b03908116913391168461135a565b610d2233846113b4565b82600f54610d309190612653565b600f555050336000908152601260205260409020805460ff1916600190811790915560095550565b6109048383836113ce565b600e546000906106c79083611779565b6000610d7e83610fb7565b8210610dd75760405162461bcd60e51b815260206004820152602260248201527f455243373231413a206f776e657220696e646578206f7574206f6620626f756e604482015261647360f01b60648201526084016107cc565b6000610de260015490565b905060008060005b83811015610e8c576000818152600460209081526040918290208251808401909352546001600160a01b038116808452600160a01b90910467ffffffffffffffff169183019190915215610e3d57805192505b876001600160a01b0316836001600160a01b03161415610e795786841415610e6b57509350610eec92505050565b83610e758161275b565b9450505b5080610e848161275b565b915050610dea565b5060405162461bcd60e51b815260206004820152602e60248201527f455243373231413a20756e61626c6520746f2067657420746f6b656e206f662060448201526d0deeedccae440c4f240d2dcc8caf60931b60648201526084016107cc565b92915050565b6109048383836040518060200160405280600081525061120c565b6000610f1860015490565b8210610f725760405162461bcd60e51b815260206004820152602360248201527f455243373231413a20676c6f62616c20696e646578206f7574206f6620626f756044820152626e647360e81b60648201526084016107cc565b5090565b6000546001600160a01b03163314610fa05760405162461bcd60e51b81526004016107cc906125a9565b600c55565b6000610fb082611785565b5192915050565b60006001600160a01b0382166110235760405162461bcd60e51b815260206004820152602b60248201527f455243373231413a2062616c616e636520717565727920666f7220746865207a60448201526a65726f206164647265737360a81b60648201526084016107cc565b506001600160a01b03166000908152600560205260409020546001600160801b031690565b6000546001600160a01b031633146110725760405162461bcd60e51b81526004016107cc906125a9565b61107c6000611931565b565b6000546001600160a01b031633146110a85760405162461bcd60e51b81526004016107cc906125a9565b600e55565b6000546001600160a01b031633146110d75760405162461bcd60e51b81526004016107cc906125a9565b80516110ea906010906020840190612168565b5050565b6060600380546106de90612720565b6001600160a01b0382163314156111565760405162461bcd60e51b815260206004820152601a60248201527f455243373231413a20617070726f766520746f2063616c6c657200000000000060448201526064016107cc565b3360008181526007602090815260408083206001600160a01b0387168085529252909120805460ff1916841515179055906001600160a01b03167f17307eab39ab6107e8899845ad3d59bd9653f200f220920489ca2b5937696c31836040516111c3911515815260200190565b60405180910390a35050565b6000546001600160a01b031633146111f95760405162461bcd60e51b81526004016107cc906125a9565b600a805460ff1916911515919091179055565b6112178484846113ce565b61122384848484611981565b61123f5760405162461bcd60e51b81526004016107cc906125de565b50505050565b60606106c782611a8f565b6000546001600160a01b0316331461127a5760405162461bcd60e51b81526004016107cc906125a9565b6001600160a01b0381166112df5760405162461bcd60e51b815260206004820152602660248201527f4f776e61626c653a206e6577206f776e657220697320746865207a65726f206160448201526564647265737360d01b60648201526084016107cc565b6112e881611931565b50565b60008281526006602052604080822080546001600160a01b0319166001600160a01b0387811691821790925591518593918516917f8c5be1e5ebec7d5bd14f71427d1e84f3dd0314c0f7b2291e5b200ac8c7c3b92591a4505050565b600061135382846126c6565b9392505050565b604080516001600160a01b0385811660248301528416604482015260648082018490528251808303909101815260849091019091526020810180516001600160e01b03166323b872dd60e01b17905261123f908590611b5b565b6110ea828260405180602001604052806000815250611c2d565b60006113d982611785565b80519091506000906001600160a01b0316336001600160a01b0316148061141057503361140584610761565b6001600160a01b0316145b806114225750815161142290336105b7565b90508061148c5760405162461bcd60e51b815260206004820152603260248201527f455243373231413a207472616e736665722063616c6c6572206973206e6f74206044820152711bdddb995c881b9bdc88185c1c1c9bdd995960721b60648201526084016107cc565b846001600160a01b031682600001516001600160a01b0316146115005760405162461bcd60e51b815260206004820152602660248201527f455243373231413a207472616e736665722066726f6d20696e636f72726563746044820152651037bbb732b960d11b60648201526084016107cc565b6001600160a01b0384166115645760405162461bcd60e51b815260206004820152602560248201527f455243373231413a207472616e7366657220746f20746865207a65726f206164604482015264647265737360d81b60648201526084016107cc565b61157460008484600001516112eb565b6001600160a01b03851660009081526005602052604081208054600192906115a69084906001600160801b031661269e565b82546101009290920a6001600160801b038181021990931691831602179091556001600160a01b038616600090815260056020526040812080546001945090926115f291859116612631565b82546001600160801b039182166101009390930a9283029190920219909116179055506040805180820182526001600160a01b03808716825267ffffffffffffffff428116602080850191825260008981526004909152948520935184549151909216600160a01b0267ffffffffffffffff60a01b19929093166001600160a01b03199091161716179055611688846001612653565b6000818152600460205260409020549091506001600160a01b031661172f576116b2816001541190565b1561172f5760408051808201825284516001600160a01b03908116825260208087015167ffffffffffffffff90811682850190815260008781526004909352949091209251835494516001600160a01b031990951692169190911767ffffffffffffffff60a01b1916600160a01b93909116929092029190911790555b83856001600160a01b0316876001600160a01b03167fddf252ad1be2c89b69c2b068fc378daa952ba7f163c4a11628f55a4df523b3ef60405160405180910390a45b505050505050565b6000611353828461267f565b60408051808201909152600080825260208201526117a4826001541190565b6118035760405162461bcd60e51b815260206004820152602a60248201527f455243373231413a206f776e657220717565727920666f72206e6f6e657869736044820152693a32b73a103a37b5b2b760b11b60648201526084016107cc565b60007f00000000000000000000000000000000000000000000000000000000000000008310611864576118567f0000000000000000000000000000000000000000000000000000000000000000846126c6565b611861906001612653565b90505b825b8181106118d0576000818152600460209081526040918290208251808401909352546001600160a01b038116808452600160a01b90910467ffffffffffffffff1691830191909152156118bd5792506106ca915050565b50806118c881612709565b915050611866565b5060405162461bcd60e51b815260206004820152602f60248201527f455243373231413a20756e61626c6520746f2064657465726d696e652074686560448201526e1037bbb732b91037b3103a37b5b2b760891b60648201526084016107cc565b600080546001600160a01b038381166001600160a01b0319831681178455604051919092169283917f8be0079c531659141344cd1fd0a4f28419497f9722a3daafe3b4186f6b6457e09190a35050565b60006001600160a01b0384163b15611a8357604051630a85bd0160e11b81526001600160a01b0385169063150b7a02906119c5903390899088908890600401612559565b602060405180830381600087803b1580156119df57600080fd5b505af1925050508015611a0f575060408051601f3d908101601f19168201909252611a0c91810190612447565b60015b611a69573d808015611a3d576040519150601f19603f3d011682016040523d82523d6000602084013e611a42565b606091505b508051611a615760405162461bcd60e51b81526004016107cc906125de565b805181602001fd5b6001600160e01b031916630a85bd0160e11b149050611a87565b5060015b949350505050565b6060611a9c826001541190565b611b005760405162461bcd60e51b815260206004820152602f60248201527f4552433732314d657461646174613a2055524920717565727920666f72206e6f60448201526e3732bc34b9ba32b73a103a37b5b2b760891b60648201526084016107cc565b6000611b0a611f33565b90506000815111611b2a5760405180602001604052806000815250611353565b80611b3484611f42565b604051602001611b4592919061252a565b6040516020818303038152906040529392505050565b6000611bb0826040518060400160405280602081526020017f5361666545524332303a206c6f772d6c6576656c2063616c6c206661696c6564815250856001600160a01b031661205d9092919063ffffffff16565b8051909150156109045780806020019051810190611bce919061240f565b6109045760405162461bcd60e51b815260206004820152602a60248201527f5361666545524332303a204552433230206f7065726174696f6e20646964206e6044820152691bdd081cdd58d8d9595960b21b60648201526084016107cc565b6001546001600160a01b038416611c905760405162461bcd60e51b815260206004820152602160248201527f455243373231413a206d696e7420746f20746865207a65726f206164647265736044820152607360f81b60648201526084016107cc565b611c9b816001541190565b15611ce85760405162461bcd60e51b815260206004820152601d60248201527f455243373231413a20746f6b656e20616c7265616479206d696e74656400000060448201526064016107cc565b7f0000000000000000000000000000000000000000000000000000000000000000831115611d635760405162461bcd60e51b815260206004820152602260248201527f455243373231413a207175616e7469747920746f206d696e7420746f6f2068696044820152610ced60f31b60648201526084016107cc565b6001600160a01b0384166000908152600560209081526040918290208251808401845290546001600160801b038082168352600160801b9091041691810191909152815180830190925280519091908190611dbf908790612631565b6001600160801b03168152602001858360200151611ddd9190612631565b6001600160801b039081169091526001600160a01b03808816600081815260056020908152604080832087518154988401518816600160801b029088166fffffffffffffffffffffffffffffffff1990991698909817909616969096179094558451808601865291825267ffffffffffffffff4281168386019081528883526004909552948120915182549451909516600160a01b0267ffffffffffffffff60a01b19959093166001600160a01b031990941693909317939093161790915582905b85811015611f285760405182906001600160a01b038916906000907fddf252ad1be2c89b69c2b068fc378daa952ba7f163c4a11628f55a4df523b3ef908290a4611eec6000888488611981565b611f085760405162461bcd60e51b81526004016107cc906125de565b81611f128161275b565b9250508080611f209061275b565b915050611e9f565b506001819055611771565b6060601080546106de90612720565b606081611f6757506040805180820190915260018152600360fc1b60208201526106ca565b8160005b8115611f915780611f7b8161275b565b9150611f8a9050600a8361266b565b9150611f6b565b60008167ffffffffffffffff811115611fba57634e487b7160e01b600052604160045260246000fd5b6040519080825280601f01601f191660200182016040528015611fe4576020820181803683370190505b5090505b8415611a8757611ff96001836126c6565b9150612006600a86612776565b612011906030612653565b60f81b81838151811061203457634e487b7160e01b600052603260045260246000fd5b60200101906001600160f81b031916908160001a905350612056600a8661266b565b9450611fe8565b6060611a87848460008585843b6120b65760405162461bcd60e51b815260206004820152601d60248201527f416464726573733a2063616c6c20746f206e6f6e2d636f6e747261637400000060448201526064016107cc565b600080866001600160a01b031685876040516120d2919061250e565b60006040518083038185875af1925050503d806000811461210f576040519150601f19603f3d011682016040523d82523d6000602084013e612114565b606091505b509150915061212482828661212f565b979650505050505050565b6060831561213e575081611353565b82511561214e5782518084602001fd5b8160405162461bcd60e51b81526004016107cc9190612596565b82805461217490612720565b90600052602060002090601f01602090048101928261219657600085556121dc565b82601f106121af57805160ff19168380011785556121dc565b828001600101855582156121dc579182015b828111156121dc5782518255916020019190600101906121c1565b50610f729291505b80821115610f7257600081556001016121e4565b600067ffffffffffffffff80841115612213576122136127b6565b604051601f8501601f19908116603f0116810190828211818310171561223b5761223b6127b6565b8160405280935085815286868601111561225457600080fd5b858560208301376000602087830101525050509392505050565b60006020828403121561227f578081fd5b8135611353816127cc565b60006020828403121561229b578081fd5b8151611353816127cc565b600080604083850312156122b8578081fd5b82356122c3816127cc565b915060208301356122d3816127cc565b809150509250929050565b6000806000606084860312156122f2578081fd5b83356122fd816127cc565b9250602084013561230d816127cc565b929592945050506040919091013590565b60008060008060808587031215612333578081fd5b843561233e816127cc565b9350602085013561234e816127cc565b925060408501359150606085013567ffffffffffffffff811115612370578182fd5b8501601f81018713612380578182fd5b61238f878235602084016121f8565b91505092959194509250565b600080604083850312156123ad578182fd5b82356123b8816127cc565b915060208301356122d3816127e1565b600080604083850312156123da578182fd5b82356123e5816127cc565b946020939093013593505050565b600060208284031215612404578081fd5b8135611353816127e1565b600060208284031215612420578081fd5b8151611353816127e1565b60006020828403121561243c578081fd5b8135611353816127ef565b600060208284031215612458578081fd5b8151611353816127ef565b600060208284031215612474578081fd5b813567ffffffffffffffff81111561248a578182fd5b8201601f8101841361249a578182fd5b611a87848235602084016121f8565b6000602082840312156124ba578081fd5b5035919050565b600080604083850312156124d3578182fd5b50508035926020909101359150565b600081518084526124fa8160208601602086016126dd565b601f01601f19169290920160200192915050565b600082516125208184602087016126dd565b9190910192915050565b6000835161253c8184602088016126dd565b8351908301906125508183602088016126dd565b01949350505050565b6001600160a01b038581168252841660208201526040810183905260806060820181905260009061258c908301846124e2565b9695505050505050565b60006020825261135360208301846124e2565b6020808252818101527f4f776e61626c653a2063616c6c6572206973206e6f7420746865206f776e6572604082015260600190565b60208082526033908201527f455243373231413a207472616e7366657220746f206e6f6e204552433732315260408201527232b1b2b4bb32b91034b6b83632b6b2b73a32b960691b606082015260800190565b60006001600160801b038083168185168083038211156125505761255061278a565b600082198211156126665761266661278a565b500190565b60008261267a5761267a6127a0565b500490565b60008160001904831182151516156126995761269961278a565b500290565b60006001600160801b03838116908316818110156126be576126be61278a565b039392505050565b6000828210156126d8576126d861278a565b500390565b60005b838110156126f85781810151838201526020016126e0565b8381111561123f5750506000910152565b6000816127185761271861278a565b506000190190565b60028104600182168061273457607f821691505b6020821081141561275557634e487b7160e01b600052602260045260246000fd5b50919050565b600060001982141561276f5761276f61278a565b5060010190565b600082612785576127856127a0565b500690565b634e487b7160e01b600052601160045260246000fd5b634e487b7160e01b600052601260045260246000fd5b634e487b7160e01b600052604160045260246000fd5b6001600160a01b03811681146112e857600080fd5b80151581146112e857600080fd5b6001600160e01b0319811681146112e857600080fdfea2646970667358221220bca3e1b5c68904d479b8b4788bf71044eef8ceb6226f6a924282ad4f9d5b9bec64736f6c63430008020033",
  "devdoc": {
    "kind": "dev",
    "methods": {
      "approve(address,uint256)": {
        "details": "See {IERC721-approve}."
      },
      "balanceOf(address)": {
        "details": "See {IERC721-balanceOf}."
      },
      "getApproved(uint256)": {
        "details": "See {IERC721-getApproved}."
      },
      "isApprovedForAll(address,address)": {
        "details": "See {IERC721-isApprovedForAll}."
      },
      "name()": {
        "details": "See {IERC721Metadata-name}."
      },
      "owner()": {
        "details": "Returns the address of the current owner."
      },
      "ownerOf(uint256)": {
        "details": "See {IERC721-ownerOf}."
      },
      "renounceOwnership()": {
        "details": "Leaves the contract without owner. It will not be possible to call `onlyOwner` functions anymore. Can only be called by the current owner. NOTE: Renouncing ownership will leave the contract without an owner, thereby removing any functionality that is only available to the owner."
      },
      "safeTransferFrom(address,address,uint256)": {
        "details": "See {IERC721-safeTransferFrom}."
      },
      "safeTransferFrom(address,address,uint256,bytes)": {
        "details": "See {IERC721-safeTransferFrom}."
      },
      "setApprovalForAll(address,bool)": {
        "details": "See {IERC721-setApprovalForAll}."
      },
      "supportsInterface(bytes4)": {
        "details": "See {IERC165-supportsInterface}."
      },
      "symbol()": {
        "details": "See {IERC721Metadata-symbol}."
      },
      "tokenByIndex(uint256)": {
        "details": "See {IERC721Enumerable-tokenByIndex}."
      },
      "tokenOfOwnerByIndex(address,uint256)": {
        "details": "See {IERC721Enumerable-tokenOfOwnerByIndex}. This read function is O(totalSupply). If calling from a separate contract, be sure to test gas first. It may also degrade with extremely large collection sizes (e.g >> 10000), test for your use case."
      },
      "tokenURI(uint256)": {
        "details": "See {IERC721Metadata-tokenURI}."
      },
      "totalSupply()": {
        "details": "See {IERC721Enumerable-totalSupply}."
      },
      "transferFrom(address,address,uint256)": {
        "details": "See {IERC721-transferFrom}."
      },
      "transferOwnership(address)": {
        "details": "Transfers ownership of the contract to a new account (`newOwner`). Can only be called by the current owner."
      }
    },
    "version": 1
  },
  "userdoc": {
    "kind": "user",
    "methods": {},
    "version": 1
  },
  "storageLayout": {
    "storage": [
      {
        "astId": 1512,
        "contract": "contracts/DarknessEgg.sol:DarknessEgg",
        "label": "_owner",
        "offset": 0,
        "slot": "0",
        "type": "t_address"
      },
      {
        "astId": 13173,
        "contract": "contracts/DarknessEgg.sol:DarknessEgg",
        "label": "currentIndex",
        "offset": 0,
        "slot": "1",
        "type": "t_uint256"
      },
      {
        "astId": 13177,
        "contract": "contracts/DarknessEgg.sol:DarknessEgg",
        "label": "_name",
        "offset": 0,
        "slot": "2",
        "type": "t_string_storage"
      },
      {
        "astId": 13179,
        "contract": "contracts/DarknessEgg.sol:DarknessEgg",
        "label": "_symbol",
        "offset": 0,
        "slot": "3",
        "type": "t_string_storage"
      },
      {
        "astId": 13184,
        "contract": "contracts/DarknessEgg.sol:DarknessEgg",
        "label": "_ownerships",
        "offset": 0,
        "slot": "4",
        "type": "t_mapping(t_uint256,t_struct(TokenOwnership)13165_storage)"
      },
      {
        "astId": 13189,
        "contract": "contracts/DarknessEgg.sol:DarknessEgg",
        "label": "_addressData",
        "offset": 0,
        "slot": "5",
        "type": "t_mapping(t_address,t_struct(AddressData)13170_storage)"
      },
      {
        "astId": 13193,
        "contract": "contracts/DarknessEgg.sol:DarknessEgg",
        "label": "_tokenApprovals",
        "offset": 0,
        "slot": "6",
        "type": "t_mapping(t_uint256,t_address)"
      },
      {
        "astId": 13199,
        "contract": "contracts/DarknessEgg.sol:DarknessEgg",
        "label": "_operatorApprovals",
        "offset": 0,
        "slot": "7",
        "type": "t_mapping(t_address,t_mapping(t_address,t_bool))"
      },
      {
        "astId": 14129,
        "contract": "contracts/DarknessEgg.sol:DarknessEgg",
        "label": "nextOwnerToExplicitlySet",
        "offset": 0,
        "slot": "8",
        "type": "t_uint256"
      },
      {
        "astId": 1712,
        "contract": "contracts/DarknessEgg.sol:DarknessEgg",
        "label": "_status",
        "offset": 0,
        "slot": "9",
        "type": "t_uint256"
      },
      {
        "astId": 4964,
        "contract": "contracts/DarknessEgg.sol:DarknessEgg",
        "label": "_isActive",
        "offset": 0,
        "slot": "10",
        "type": "t_bool"
      },
      {
        "astId": 4966,
        "contract": "contracts/DarknessEgg.sol:DarknessEgg",
        "label": "ores",
        "offset": 1,
        "slot": "10",
        "type": "t_address"
      },
      {
        "astId": 4969,
        "contract": "contracts/DarknessEgg.sol:DarknessEgg",
        "label": "BURN_ADDRESS",
        "offset": 0,
        "slot": "11",
        "type": "t_address"
      },
      {
        "astId": 4972,
        "contract": "contracts/DarknessEgg.sol:DarknessEgg",
        "label": "MAX_MINT",
        "offset": 0,
        "slot": "12",
        "type": "t_uint256"
      },
      {
        "astId": 4975,
        "contract": "contracts/DarknessEgg.sol:DarknessEgg",
        "label": "maxCountPerClaim",
        "offset": 0,
        "slot": "13",
        "type": "t_uint256"
      },
      {
        "astId": 4978,
        "contract": "contracts/DarknessEgg.sol:DarknessEgg",
        "label": "mintCost",
        "offset": 0,
        "slot": "14",
        "type": "t_uint256"
      },
      {
        "astId": 4981,
        "contract": "contracts/DarknessEgg.sol:DarknessEgg",
        "label": "totalMinted",
        "offset": 0,
        "slot": "15",
        "type": "t_uint256"
      },
      {
        "astId": 4984,
        "contract": "contracts/DarknessEgg.sol:DarknessEgg",
        "label": "_tokenBaseURI",
        "offset": 0,
        "slot": "16",
        "type": "t_string_storage"
      },
      {
        "astId": 4987,
        "contract": "contracts/DarknessEgg.sol:DarknessEgg",
        "label": "mnaNFT",
        "offset": 0,
        "slot": "17",
        "type": "t_contract(IMnA)13048"
      },
      {
        "astId": 4991,
        "contract": "contracts/DarknessEgg.sol:DarknessEgg",
        "label": "claimed",
        "offset": 0,
        "slot": "18",
        "type": "t_mapping(t_address,t_bool)"
      }
    ],
    "types": {
      "t_address": {
        "encoding": "inplace",
        "label": "address",
        "numberOfBytes": "20"
      },
      "t_bool": {
        "encoding": "inplace",
        "label": "bool",
        "numberOfBytes": "1"
      },
      "t_contract(IMnA)13048": {
        "encoding": "inplace",
        "label": "contract IMnA",
        "numberOfBytes": "20"
      },
      "t_mapping(t_address,t_bool)": {
        "encoding": "mapping",
        "key": "t_address",
        "label": "mapping(address => bool)",
        "numberOfBytes": "32",
        "value": "t_bool"
      },
      "t_mapping(t_address,t_mapping(t_address,t_bool))": {
        "encoding": "mapping",
        "key": "t_address",
        "label": "mapping(address => mapping(address => bool))",
        "numberOfBytes": "32",
        "value": "t_mapping(t_address,t_bool)"
      },
      "t_mapping(t_address,t_struct(AddressData)13170_storage)": {
        "encoding": "mapping",
        "key": "t_address",
        "label": "mapping(address => struct ERC721A.AddressData)",
        "numberOfBytes": "32",
        "value": "t_struct(AddressData)13170_storage"
      },
      "t_mapping(t_uint256,t_address)": {
        "encoding": "mapping",
        "key": "t_uint256",
        "label": "mapping(uint256 => address)",
        "numberOfBytes": "32",
        "value": "t_address"
      },
      "t_mapping(t_uint256,t_struct(TokenOwnership)13165_storage)": {
        "encoding": "mapping",
        "key": "t_uint256",
        "label": "mapping(uint256 => struct ERC721A.TokenOwnership)",
        "numberOfBytes": "32",
        "value": "t_struct(TokenOwnership)13165_storage"
      },
      "t_string_storage": {
        "encoding": "bytes",
        "label": "string",
        "numberOfBytes": "32"
      },
      "t_struct(AddressData)13170_storage": {
        "encoding": "inplace",
        "label": "struct ERC721A.AddressData",
        "members": [
          {
            "astId": 13167,
            "contract": "contracts/DarknessEgg.sol:DarknessEgg",
            "label": "balance",
            "offset": 0,
            "slot": "0",
            "type": "t_uint128"
          },
          {
            "astId": 13169,
            "contract": "contracts/DarknessEgg.sol:DarknessEgg",
            "label": "numberMinted",
            "offset": 16,
            "slot": "0",
            "type": "t_uint128"
          }
        ],
        "numberOfBytes": "32"
      },
      "t_struct(TokenOwnership)13165_storage": {
        "encoding": "inplace",
        "label": "struct ERC721A.TokenOwnership",
        "members": [
          {
            "astId": 13162,
            "contract": "contracts/DarknessEgg.sol:DarknessEgg",
            "label": "addr",
            "offset": 0,
            "slot": "0",
            "type": "t_address"
          },
          {
            "astId": 13164,
            "contract": "contracts/DarknessEgg.sol:DarknessEgg",
            "label": "startTimestamp",
            "offset": 20,
            "slot": "0",
            "type": "t_uint64"
          }
        ],
        "numberOfBytes": "32"
      },
      "t_uint128": {
        "encoding": "inplace",
        "label": "uint128",
        "numberOfBytes": "16"
      },
      "t_uint256": {
        "encoding": "inplace",
        "label": "uint256",
        "numberOfBytes": "32"
      },
      "t_uint64": {
        "encoding": "inplace",
        "label": "uint64",
        "numberOfBytes": "8"
      }
    }
  }
}