{
  "address": "0x24700a82a3EDD08C410f8D9099db684FfDc1Ab10",
  "abi": [
    {
      "inputs": [],
      "stateMutability": "nonpayable",
      "type": "constructor"
    },
    {
      "anonymous": false,
      "inputs": [
        {
          "indexed": true,
          "internalType": "address",
          "name": "owner",
          "type": "address"
        },
        {
          "indexed": true,
          "internalType": "address",
          "name": "spender",
          "type": "address"
        },
        {
          "indexed": false,
          "internalType": "uint256",
          "name": "value",
          "type": "uint256"
        }
      ],
      "name": "Approval",
      "type": "event"
    },
    {
      "anonymous": false,
      "inputs": [
        {
          "indexed": true,
          "internalType": "address",
          "name": "previousOwner",
          "type": "address"
        },
        {
          "indexed": true,
          "internalType": "address",
          "name": "newOwner",
          "type": "address"
        }
      ],
      "name": "OwnershipTransferred",
      "type": "event"
    },
    {
      "anonymous": false,
      "inputs": [
        {
          "indexed": true,
          "internalType": "address",
          "name": "from",
          "type": "address"
        },
        {
          "indexed": true,
          "internalType": "address",
          "name": "to",
          "type": "address"
        },
        {
          "indexed": false,
          "internalType": "uint256",
          "name": "value",
          "type": "uint256"
        }
      ],
      "name": "Transfer",
      "type": "event"
    },
    {
      "inputs": [
        {
          "internalType": "address",
          "name": "addr",
          "type": "address"
        }
      ],
      "name": "addAdmin",
      "outputs": [],
      "stateMutability": "nonpayable",
      "type": "function"
    },
    {
      "inputs": [
        {
          "internalType": "address",
          "name": "owner",
          "type": "address"
        },
        {
          "internalType": "address",
          "name": "spender",
          "type": "address"
        }
      ],
      "name": "allowance",
      "outputs": [
        {
          "internalType": "uint256",
          "name": "",
          "type": "uint256"
        }
      ],
      "stateMutability": "view",
      "type": "function"
    },
    {
      "inputs": [
        {
          "internalType": "address",
          "name": "spender",
          "type": "address"
        },
        {
          "internalType": "uint256",
          "name": "amount",
          "type": "uint256"
        }
      ],
      "name": "approve",
      "outputs": [
        {
          "internalType": "bool",
          "name": "",
          "type": "bool"
        }
      ],
      "stateMutability": "nonpayable",
      "type": "function"
    },
    {
      "inputs": [
        {
          "internalType": "address",
          "name": "account",
          "type": "address"
        }
      ],
      "name": "balanceOf",
      "outputs": [
        {
          "internalType": "uint256",
          "name": "",
          "type": "uint256"
        }
      ],
      "stateMutability": "view",
      "type": "function"
    },
    {
      "inputs": [
        {
          "internalType": "address",
          "name": "from",
          "type": "address"
        },
        {
          "internalType": "uint256",
          "name": "amount",
          "type": "uint256"
        }
      ],
      "name": "burn",
      "outputs": [],
      "stateMutability": "nonpayable",
      "type": "function"
    },
    {
      "inputs": [],
      "name": "decimals",
      "outputs": [
        {
          "internalType": "uint8",
          "name": "",
          "type": "uint8"
        }
      ],
      "stateMutability": "view",
      "type": "function"
    },
    {
      "inputs": [
        {
          "internalType": "address",
          "name": "spender",
          "type": "address"
        },
        {
          "internalType": "uint256",
          "name": "subtractedValue",
          "type": "uint256"
        }
      ],
      "name": "decreaseAllowance",
      "outputs": [
        {
          "internalType": "bool",
          "name": "",
          "type": "bool"
        }
      ],
      "stateMutability": "nonpayable",
      "type": "function"
    },
    {
      "inputs": [
        {
          "internalType": "address",
          "name": "spender",
          "type": "address"
        },
        {
          "internalType": "uint256",
          "name": "addedValue",
          "type": "uint256"
        }
      ],
      "name": "increaseAllowance",
      "outputs": [
        {
          "internalType": "bool",
          "name": "",
          "type": "bool"
        }
      ],
      "stateMutability": "nonpayable",
      "type": "function"
    },
    {
      "inputs": [
        {
          "internalType": "address",
          "name": "to",
          "type": "address"
        },
        {
          "internalType": "uint256",
          "name": "amount",
          "type": "uint256"
        }
      ],
      "name": "mint",
      "outputs": [],
      "stateMutability": "nonpayable",
      "type": "function"
    },
    {
      "inputs": [],
      "name": "name",
      "outputs": [
        {
          "internalType": "string",
          "name": "",
          "type": "string"
        }
      ],
      "stateMutability": "view",
      "type": "function"
    },
    {
      "inputs": [],
      "name": "owner",
      "outputs": [
        {
          "internalType": "address",
          "name": "",
          "type": "address"
        }
      ],
      "stateMutability": "view",
      "type": "function"
    },
    {
      "inputs": [
        {
          "internalType": "address",
          "name": "addr",
          "type": "address"
        }
      ],
      "name": "removeAdmin",
      "outputs": [],
      "stateMutability": "nonpayable",
      "type": "function"
    },
    {
      "inputs": [],
      "name": "renounceOwnership",
      "outputs": [],
      "stateMutability": "nonpayable",
      "type": "function"
    },
    {
      "inputs": [],
      "name": "symbol",
      "outputs": [
        {
          "internalType": "string",
          "name": "",
          "type": "string"
        }
      ],
      "stateMutability": "view",
      "type": "function"
    },
    {
      "inputs": [],
      "name": "totalSupply",
      "outputs": [
        {
          "internalType": "uint256",
          "name": "",
          "type": "uint256"
        }
      ],
      "stateMutability": "view",
      "type": "function"
    },
    {
      "inputs": [
        {
          "internalType": "address",
          "name": "recipient",
          "type": "address"
        },
        {
          "internalType": "uint256",
          "name": "amount",
          "type": "uint256"
        }
      ],
      "name": "transfer",
      "outputs": [
        {
          "internalType": "bool",
          "name": "",
          "type": "bool"
        }
      ],
      "stateMutability": "nonpayable",
      "type": "function"
    },
    {
      "inputs": [
        {
          "internalType": "address",
          "name": "sender",
          "type": "address"
        },
        {
          "internalType": "address",
          "name": "recipient",
          "type": "address"
        },
        {
          "internalType": "uint256",
          "name": "amount",
          "type": "uint256"
        }
      ],
      "name": "transferFrom",
      "outputs": [
        {
          "internalType": "bool",
          "name": "",
          "type": "bool"
        }
      ],
      "stateMutability": "nonpayable",
      "type": "function"
    },
    {
      "inputs": [
        {
          "internalType": "address",
          "name": "newOwner",
          "type": "address"
        }
      ],
      "name": "transferOwnership",
      "outputs": [],
      "stateMutability": "nonpayable",
      "type": "function"
    },
    {
      "inputs": [],
      "name": "updateOriginAccess",
      "outputs": [],
      "stateMutability": "nonpayable",
      "type": "function"
    }
  ],
  "transactionHash": "0xf4a896bc5829d74e32c507ecb448febd36559e2ad2adf3eccafc6613cb9c9657",
  "args": [],
  "numDeployments": 1,
  "solcInputHash": "fb03553b676fe9e8a8f0650bb1f56f7a",
  "bytecode": "0x60806040523480156200001157600080fd5b50604080518082018252600680825265244b4c41594560d01b6020808401828152855180870190965292855284015281519192916200005391600391620000fc565b50805162000069906004906020840190620000fc565b5050506200008662000080620000a660201b60201c565b620000aa565b336000908152600760205260409020805460ff19166001179055620001df565b3390565b600580546001600160a01b038381166001600160a01b0319831681179093556040519116919082907f8be0079c531659141344cd1fd0a4f28419497f9722a3daafe3b4186f6b6457e090600090a35050565b8280546200010a90620001a2565b90600052602060002090601f0160209004810192826200012e576000855562000179565b82601f106200014957805160ff191683800117855562000179565b8280016001018555821562000179579182015b82811115620001795782518255916020019190600101906200015c565b50620001879291506200018b565b5090565b5b808211156200018757600081556001016200018c565b600281046001821680620001b757607f821691505b60208210811415620001d957634e487b7160e01b600052602260045260246000fd5b50919050565b61119980620001ef6000396000f3fe608060405234801561001057600080fd5b50600436106101215760003560e01c806370a08231116100ad5780639dc29fac116100715780639dc29fac1461022f578063a457c2d714610242578063a9059cbb14610255578063dd62ed3e14610268578063f2fde38b1461027b57610121565b806370a08231146101e9578063715018a6146101fc5780638da5cb5b1461020457806395d89b411461021f5780639c47ee3b1461022757610121565b806323b872dd116100f457806323b872dd1461018e578063313ce567146101a157806339509351146101b057806340c10f19146101c357806370480275146101d657610121565b806306fdde0314610126578063095ea7b3146101445780631785f53c1461016757806318160ddd1461017c575b600080fd5b61012e61028e565b60405161013b9190611030565b60405180910390f35b610157610152366004611007565b610320565b604051901515815260200161013b565b61017a610175366004610f80565b610333565b005b6002545b60405190815260200161013b565b61015761019c366004610fcc565b610387565b6040516012815260200161013b565b6101576101be366004611007565b61045e565b61017a6101d1366004611007565b61046a565b61017a6101e4366004610f80565b6104ce565b6101806101f7366004610f80565b61051c565b61017a6105d5565b6005546040516001600160a01b03909116815260200161013b565b61012e61060b565b61017a61061a565b61017a61023d366004611007565b61068d565b610157610250366004611007565b6106ed565b610157610263366004611007565b6106f9565b610180610276366004610f9a565b610793565b61017a610289366004610f80565b6107c0565b60606003805461029d90611112565b80601f01602080910402602001604051908101604052809291908181526020018280546102c990611112565b80156103165780601f106102eb57610100808354040283529160200191610316565b820191906000526020600020905b8154815290600101906020018083116102f957829003601f168201915b5050505050905090565b600061032c838361085b565b9392505050565b6005546001600160a01b031633146103665760405162461bcd60e51b815260040161035d906110ae565b60405180910390fd5b6001600160a01b03166000908152600760205260409020805460ff19169055565b3360009081526007602052604081205460ff16806103b357503260009081526006602052604090205443115b6103cf5760405162461bcd60e51b815260040161035d90611083565b3360009081526007602052604090205460ff168061040457506001600160a01b03841660009081526006602052604090205443115b6104205760405162461bcd60e51b815260040161035d90611083565b3360009081526007602052604090205460ff161561044b57610443848484610871565b50600161032c565b610456848484610a40565b949350505050565b600061032c8383610aea565b3360009081526007602052604090205460ff166104c05760405162461bcd60e51b815260206004820152601460248201527313db9b1e4818591b5a5b9cc818d85b881b5a5b9d60621b604482015260640161035d565b6104ca8282610b26565b5050565b6005546001600160a01b031633146104f85760405162461bcd60e51b815260040161035d906110ae565b6001600160a01b03166000908152600760205260409020805460ff19166001179055565b3360009081526007602052604081205460ff168061054857503260009081526006602052604090205443115b6105645760405162461bcd60e51b815260040161035d90611083565b3360009081526007602052604090205460ff168061059957506001600160a01b03821660009081526006602052604090205443115b6105b55760405162461bcd60e51b815260040161035d90611083565b506001600160a01b0381166000908152602081905260409020545b919050565b6005546001600160a01b031633146105ff5760405162461bcd60e51b815260040161035d906110ae565b6106096000610c06565b565b60606004805461029d90611112565b3360009081526007602052604090205460ff166106795760405162461bcd60e51b815260206004820152601960248201527f4f6e6c792061646d696e732063616e2063616c6c207468697300000000000000604482015260640161035d565b326000908152600660205260409020439055565b3360009081526007602052604090205460ff166106e35760405162461bcd60e51b815260206004820152601460248201527327b7363c9030b236b4b7399031b0b710313ab93760611b604482015260640161035d565b6104ca8282610c58565b600061032c8383610da7565b3360009081526007602052604081205460ff168061072557503260009081526006602052604090205443115b6107415760405162461bcd60e51b815260040161035d90611083565b3360009081526007602052604090205460ff168061076d57503360009081526006602052604090205443115b6107895760405162461bcd60e51b815260040161035d90611083565b61032c8383610e40565b6001600160a01b03808316600090815260016020908152604080832093851683529290529081205461032c565b6005546001600160a01b031633146107ea5760405162461bcd60e51b815260040161035d906110ae565b6001600160a01b03811661084f5760405162461bcd60e51b815260206004820152602660248201527f4f776e61626c653a206e6577206f776e657220697320746865207a65726f206160448201526564647265737360d01b606482015260840161035d565b61085881610c06565b50565b6000610868338484610e4d565b50600192915050565b6001600160a01b0383166108d55760405162461bcd60e51b815260206004820152602560248201527f45524332303a207472616e736665722066726f6d20746865207a65726f206164604482015264647265737360d81b606482015260840161035d565b6001600160a01b0382166109375760405162461bcd60e51b815260206004820152602360248201527f45524332303a207472616e7366657220746f20746865207a65726f206164647260448201526265737360e81b606482015260840161035d565b6001600160a01b038316600090815260208190526040902054818110156109af5760405162461bcd60e51b815260206004820152602660248201527f45524332303a207472616e7366657220616d6f756e7420657863656564732062604482015265616c616e636560d01b606482015260840161035d565b6001600160a01b038085166000908152602081905260408082208585039055918516815290812080548492906109e69084906110e3565b92505081905550826001600160a01b0316846001600160a01b03167fddf252ad1be2c89b69c2b068fc378daa952ba7f163c4a11628f55a4df523b3ef84604051610a3291815260200190565b60405180910390a350505050565b6000610a4d848484610871565b6001600160a01b038416600090815260016020908152604080832033845290915290205482811015610ad25760405162461bcd60e51b815260206004820152602860248201527f45524332303a207472616e7366657220616d6f756e74206578636565647320616044820152676c6c6f77616e636560c01b606482015260840161035d565b610adf8533858403610e4d565b506001949350505050565b3360008181526001602090815260408083206001600160a01b03871684529091528120549091610868918590610b219086906110e3565b610e4d565b6001600160a01b038216610b7c5760405162461bcd60e51b815260206004820152601f60248201527f45524332303a206d696e7420746f20746865207a65726f206164647265737300604482015260640161035d565b8060026000828254610b8e91906110e3565b90915550506001600160a01b03821660009081526020819052604081208054839290610bbb9084906110e3565b90915550506040518181526001600160a01b038316906000907fddf252ad1be2c89b69c2b068fc378daa952ba7f163c4a11628f55a4df523b3ef9060200160405180910390a36104ca565b600580546001600160a01b038381166001600160a01b0319831681179093556040519116919082907f8be0079c531659141344cd1fd0a4f28419497f9722a3daafe3b4186f6b6457e090600090a35050565b6001600160a01b038216610cb85760405162461bcd60e51b815260206004820152602160248201527f45524332303a206275726e2066726f6d20746865207a65726f206164647265736044820152607360f81b606482015260840161035d565b6001600160a01b03821660009081526020819052604090205481811015610d2c5760405162461bcd60e51b815260206004820152602260248201527f45524332303a206275726e20616d6f756e7420657863656564732062616c616e604482015261636560f01b606482015260840161035d565b6001600160a01b0383166000908152602081905260408120838303905560028054849290610d5b9084906110fb565b90915550506040518281526000906001600160a01b038516907fddf252ad1be2c89b69c2b068fc378daa952ba7f163c4a11628f55a4df523b3ef906020015b60405180910390a3505050565b3360009081526001602090815260408083206001600160a01b038616845290915281205482811015610e295760405162461bcd60e51b815260206004820152602560248201527f45524332303a2064656372656173656420616c6c6f77616e63652062656c6f77604482015264207a65726f60d81b606482015260840161035d565b610e363385858403610e4d565b5060019392505050565b6000610868338484610871565b6001600160a01b038316610eaf5760405162461bcd60e51b8152602060048201526024808201527f45524332303a20617070726f76652066726f6d20746865207a65726f206164646044820152637265737360e01b606482015260840161035d565b6001600160a01b038216610f105760405162461bcd60e51b815260206004820152602260248201527f45524332303a20617070726f766520746f20746865207a65726f206164647265604482015261737360f01b606482015260840161035d565b6001600160a01b0383811660008181526001602090815260408083209487168084529482529182902085905590518481527f8c5be1e5ebec7d5bd14f71427d1e84f3dd0314c0f7b2291e5b200ac8c7c3b9259101610d9a565b80356001600160a01b03811681146105d057600080fd5b600060208284031215610f91578081fd5b61032c82610f69565b60008060408385031215610fac578081fd5b610fb583610f69565b9150610fc360208401610f69565b90509250929050565b600080600060608486031215610fe0578081fd5b610fe984610f69565b9250610ff760208501610f69565b9150604084013590509250925092565b60008060408385031215611019578182fd5b61102283610f69565b946020939093013593505050565b6000602080835283518082850152825b8181101561105c57858101830151858201604001528201611040565b8181111561106d5783604083870101525b50601f01601f1916929092016040019392505050565b602080825260119082015270686d6d6d6d207768617420646f696e673f60781b604082015260600190565b6020808252818101527f4f776e61626c653a2063616c6c6572206973206e6f7420746865206f776e6572604082015260600190565b600082198211156110f6576110f661114d565b500190565b60008282101561110d5761110d61114d565b500390565b60028104600182168061112657607f821691505b6020821081141561114757634e487b7160e01b600052602260045260246000fd5b50919050565b634e487b7160e01b600052601160045260246000fdfea2646970667358221220a4c6e117d995f6770515b60e2521f9934f5e8e5bd1f3112521c74e0ee651ff0964736f6c63430008020033",
  "devdoc": {
    "kind": "dev",
    "methods": {
      "addAdmin(address)": {
        "params": {
          "addr": "the address to enable"
        }
      },
      "allowance(address,address)": {
        "details": "See {IERC20-allowance}."
      },
      "approve(address,uint256)": {
        "details": "See {IERC20-approve}. Requirements: - `spender` cannot be the zero address."
      },
      "balanceOf(address)": {
        "details": "See {IERC20-balanceOf}."
      },
      "burn(address,uint256)": {
        "params": {
          "amount": "the amount of $KLAYE to burn",
          "from": "the holder of the $KLAYE"
        }
      },
      "decimals()": {
        "details": "Returns the number of decimals used to get its user representation. For example, if `decimals` equals `2`, a balance of `505` tokens should be displayed to a user as `5.05` (`505 / 10 ** 2`). Tokens usually opt for a value of 18, imitating the relationship between Ether and Wei. This is the value {ERC20} uses, unless this function is overridden; NOTE: This information is only used for _display_ purposes: it in no way affects any of the arithmetic of the contract, including {IERC20-balanceOf} and {IERC20-transfer}."
      },
      "decreaseAllowance(address,uint256)": {
        "details": "Atomically decreases the allowance granted to `spender` by the caller. This is an alternative to {approve} that can be used as a mitigation for problems described in {IERC20-approve}. Emits an {Approval} event indicating the updated allowance. Requirements: - `spender` cannot be the zero address. - `spender` must have allowance for the caller of at least `subtractedValue`."
      },
      "increaseAllowance(address,uint256)": {
        "details": "Atomically increases the allowance granted to `spender` by the caller. This is an alternative to {approve} that can be used as a mitigation for problems described in {IERC20-approve}. Emits an {Approval} event indicating the updated allowance. Requirements: - `spender` cannot be the zero address."
      },
      "mint(address,uint256)": {
        "params": {
          "amount": "the amount of $KLAYE to mint",
          "to": "the recipient of the $KLAYE"
        }
      },
      "name()": {
        "details": "Returns the name of the token."
      },
      "owner()": {
        "details": "Returns the address of the current owner."
      },
      "removeAdmin(address)": {
        "params": {
          "addr": "the address to disbale"
        }
      },
      "renounceOwnership()": {
        "details": "Leaves the contract without owner. It will not be possible to call `onlyOwner` functions anymore. Can only be called by the current owner. NOTE: Renouncing ownership will leave the contract without an owner, thereby removing any functionality that is only available to the owner."
      },
      "symbol()": {
        "details": "Returns the symbol of the token, usually a shorter version of the name."
      },
      "totalSupply()": {
        "details": "See {IERC20-totalSupply}."
      },
      "transfer(address,uint256)": {
        "details": "See {IERC20-transfer}. Requirements: - `recipient` cannot be the zero address. - the caller must have a balance of at least `amount`."
      },
      "transferFrom(address,address,uint256)": {
        "details": "See {IERC20-transferFrom}. Emits an {Approval} event indicating the updated allowance. This is not required by the EIP. See the note at the beginning of {ERC20}. Requirements: - `sender` and `recipient` cannot be the zero address. - `sender` must have a balance of at least `amount`. - the caller must have allowance for ``sender``'s tokens of at least `amount`."
      },
      "transferOwnership(address)": {
        "details": "Transfers ownership of the contract to a new account (`newOwner`). Can only be called by the current owner."
      }
    },
    "version": 1
  },
  "userdoc": {
    "kind": "user",
    "methods": {
      "addAdmin(address)": {
        "notice": "enables an address to mint / burn"
      },
      "burn(address,uint256)": {
        "notice": "burns $KLAYE from a holder"
      },
      "mint(address,uint256)": {
        "notice": "mints $KLAYE to a recipient"
      },
      "removeAdmin(address)": {
        "notice": "disables an address from minting / burning"
      }
    },
    "version": 1
  },
  "storageLayout": {
    "storage": [
      {
        "astId": 2521,
        "contract": "contracts/KLAYE.sol:KLAYE",
        "label": "_balances",
        "offset": 0,
        "slot": "0",
        "type": "t_mapping(t_address,t_uint256)"
      },
      {
        "astId": 2527,
        "contract": "contracts/KLAYE.sol:KLAYE",
        "label": "_allowances",
        "offset": 0,
        "slot": "1",
        "type": "t_mapping(t_address,t_mapping(t_address,t_uint256))"
      },
      {
        "astId": 2529,
        "contract": "contracts/KLAYE.sol:KLAYE",
        "label": "_totalSupply",
        "offset": 0,
        "slot": "2",
        "type": "t_uint256"
      },
      {
        "astId": 2531,
        "contract": "contracts/KLAYE.sol:KLAYE",
        "label": "_name",
        "offset": 0,
        "slot": "3",
        "type": "t_string_storage"
      },
      {
        "astId": 2533,
        "contract": "contracts/KLAYE.sol:KLAYE",
        "label": "_symbol",
        "offset": 0,
        "slot": "4",
        "type": "t_string_storage"
      },
      {
        "astId": 1512,
        "contract": "contracts/KLAYE.sol:KLAYE",
        "label": "_owner",
        "offset": 0,
        "slot": "5",
        "type": "t_address"
      },
      {
        "astId": 6819,
        "contract": "contracts/KLAYE.sol:KLAYE",
        "label": "lastWrite",
        "offset": 0,
        "slot": "6",
        "type": "t_mapping(t_address,t_uint256)"
      },
      {
        "astId": 6823,
        "contract": "contracts/KLAYE.sol:KLAYE",
        "label": "admins",
        "offset": 0,
        "slot": "7",
        "type": "t_mapping(t_address,t_bool)"
      }
    ],
    "types": {
      "t_address": {
        "encoding": "inplace",
        "label": "address",
        "numberOfBytes": "20"
      },
      "t_bool": {
        "encoding": "inplace",
        "label": "bool",
        "numberOfBytes": "1"
      },
      "t_mapping(t_address,t_bool)": {
        "encoding": "mapping",
        "key": "t_address",
        "label": "mapping(address => bool)",
        "numberOfBytes": "32",
        "value": "t_bool"
      },
      "t_mapping(t_address,t_mapping(t_address,t_uint256))": {
        "encoding": "mapping",
        "key": "t_address",
        "label": "mapping(address => mapping(address => uint256))",
        "numberOfBytes": "32",
        "value": "t_mapping(t_address,t_uint256)"
      },
      "t_mapping(t_address,t_uint256)": {
        "encoding": "mapping",
        "key": "t_address",
        "label": "mapping(address => uint256)",
        "numberOfBytes": "32",
        "value": "t_uint256"
      },
      "t_string_storage": {
        "encoding": "bytes",
        "label": "string",
        "numberOfBytes": "32"
      },
      "t_uint256": {
        "encoding": "inplace",
        "label": "uint256",
        "numberOfBytes": "32"
      }
    }
  }
}