{
  "address": "0x8Ab109589A2f378e89b2b46f599Fda9a58F9B2fA",
  "abi": [
    {
      "inputs": [
        {
          "internalType": "uint256",
          "name": "maxLevel",
          "type": "uint256"
        }
      ],
      "stateMutability": "nonpayable",
      "type": "constructor"
    },
    {
      "inputs": [],
      "name": "MAX_LEVEL",
      "outputs": [
        {
          "internalType": "uint256",
          "name": "",
          "type": "uint256"
        }
      ],
      "stateMutability": "view",
      "type": "function"
    },
    {
      "inputs": [
        {
          "internalType": "uint256",
          "name": "level",
          "type": "uint256"
        }
      ],
      "name": "getLevelEpoch",
      "outputs": [
        {
          "components": [
            {
              "internalType": "uint256",
              "name": "oresToken",
              "type": "uint256"
            },
            {
              "internalType": "uint256",
              "name": "coolDownTime",
              "type": "uint256"
            },
            {
              "internalType": "uint256",
              "name": "klayeToSkip",
              "type": "uint256"
            },
            {
              "internalType": "uint256",
              "name": "klayePerDay",
              "type": "uint256"
            },
            {
              "internalType": "uint256",
              "name": "maxRewardDuration",
              "type": "uint256"
            }
          ],
          "internalType": "struct ILevelMath.LevelEpoch",
          "name": "",
          "type": "tuple"
        }
      ],
      "stateMutability": "view",
      "type": "function"
    }
  ],
  "transactionHash": "0x83718a2e742aaf0dcae8590bcf7f72b2bc5bc67b42dabede3bee36479a5df46e",
  "args": [
    69
  ],
  "numDeployments": 1,
  "solcInputHash": "fb03553b676fe9e8a8f0650bb1f56f7a",
  "bytecode": "0x60a060405234801561001057600080fd5b5060405161038138038061038183398101604081905261002f91610037565b60805261004f565b600060208284031215610048578081fd5b5051919050565b60805161031261006f600039600081816040015260fe01526103126000f3fe608060405234801561001057600080fd5b50600436106100365760003560e01c8063a49062d41461003b578063d7dd9aa814610075575b600080fd5b6100627f000000000000000000000000000000000000000000000000000000000000000081565b6040519081526020015b60405180910390f35b610088610083366004610277565b6100ca565b60405161006c9190600060a082019050825182526020830151602083015260408301516040830152606083015160608301526080830151608083015292915050565b6100fc6040518060a0016040528060008152602001600081526020016000815260200160008152602001600081525090565b7f00000000000000000000000000000000000000000000000000000000000000008211156101615760405162461bcd60e51b815260206004820152600e60248201526d085a5b9d985b1a59081b195d995b60921b604482015260640160405180910390fd5b600061017683685150ae84a8cdf000006102a7565b61018990681b1ae4d6e2ef50000061028f565b9050600061019884600161028f565b6101a490610e106102a7565b905060006101ba85670214e8348c4f00006102a7565b6101cc906702c68af0bb14000061028f565b905060006101e2866703782dace9d900006102a7565b6101f490670de0b6b3a764000061028f565b90506000600b87101561020b57506206978061024b565b601f87101561021e57506205460061024b565b602d87101561023157506203f48061024b565b604587101561024457506202a30061024b565b5063337e46805b6040805160a0810182529586526020860194909452928401919091526060830152608082015292915050565b600060208284031215610288578081fd5b5035919050565b600082198211156102a2576102a26102c6565b500190565b60008160001904831182151516156102c1576102c16102c6565b500290565b634e487b7160e01b600052601160045260246000fdfea264697066735822122084388e3c4ad80e95b08ec40c6567ade7183734e9550e2f8356bc4da3cc2107a464736f6c63430008020033",
  "devdoc": {
    "kind": "dev",
    "methods": {},
    "version": 1
  },
  "userdoc": {
    "kind": "user",
    "methods": {},
    "version": 1
  },
  "storageLayout": {
    "storage": [],
    "types": null
  }
}