{
  "address": "0x017bd8887521444ff8Fbce992A37a2FE53057149",
  "abi": [
    {
      "inputs": [],
      "stateMutability": "nonpayable",
      "type": "constructor"
    },
    {
      "anonymous": false,
      "inputs": [
        {
          "indexed": true,
          "internalType": "uint256",
          "name": "tokenId",
          "type": "uint256"
        }
      ],
      "name": "AlienBurned",
      "type": "event"
    },
    {
      "anonymous": false,
      "inputs": [
        {
          "indexed": true,
          "internalType": "address",
          "name": "owner",
          "type": "address"
        },
        {
          "indexed": true,
          "internalType": "address",
          "name": "approved",
          "type": "address"
        },
        {
          "indexed": true,
          "internalType": "uint256",
          "name": "tokenId",
          "type": "uint256"
        }
      ],
      "name": "Approval",
      "type": "event"
    },
    {
      "anonymous": false,
      "inputs": [
        {
          "indexed": true,
          "internalType": "address",
          "name": "owner",
          "type": "address"
        },
        {
          "indexed": true,
          "internalType": "address",
          "name": "operator",
          "type": "address"
        },
        {
          "indexed": false,
          "internalType": "bool",
          "name": "approved",
          "type": "bool"
        }
      ],
      "name": "ApprovalForAll",
      "type": "event"
    },
    {
      "anonymous": false,
      "inputs": [
        {
          "indexed": true,
          "internalType": "uint256",
          "name": "tokenId",
          "type": "uint256"
        }
      ],
      "name": "MarineBurned",
      "type": "event"
    },
    {
      "anonymous": false,
      "inputs": [
        {
          "indexed": true,
          "internalType": "address",
          "name": "previousOwner",
          "type": "address"
        },
        {
          "indexed": true,
          "internalType": "address",
          "name": "newOwner",
          "type": "address"
        }
      ],
      "name": "OwnershipTransferred",
      "type": "event"
    },
    {
      "anonymous": false,
      "inputs": [
        {
          "indexed": false,
          "internalType": "address",
          "name": "account",
          "type": "address"
        }
      ],
      "name": "Paused",
      "type": "event"
    },
    {
      "anonymous": false,
      "inputs": [
        {
          "indexed": true,
          "internalType": "address",
          "name": "from",
          "type": "address"
        },
        {
          "indexed": true,
          "internalType": "address",
          "name": "to",
          "type": "address"
        },
        {
          "indexed": true,
          "internalType": "uint256",
          "name": "tokenId",
          "type": "uint256"
        }
      ],
      "name": "Transfer",
      "type": "event"
    },
    {
      "anonymous": false,
      "inputs": [
        {
          "indexed": false,
          "internalType": "address",
          "name": "account",
          "type": "address"
        }
      ],
      "name": "Unpaused",
      "type": "event"
    },
    {
      "inputs": [],
      "name": "DEAD_ADDRESS",
      "outputs": [
        {
          "internalType": "address",
          "name": "",
          "type": "address"
        }
      ],
      "stateMutability": "view",
      "type": "function"
    },
    {
      "inputs": [],
      "name": "MAX_LEVEL",
      "outputs": [
        {
          "internalType": "uint256",
          "name": "",
          "type": "uint256"
        }
      ],
      "stateMutability": "view",
      "type": "function"
    },
    {
      "inputs": [
        {
          "internalType": "address",
          "name": "addr",
          "type": "address"
        }
      ],
      "name": "addAdmin",
      "outputs": [],
      "stateMutability": "nonpayable",
      "type": "function"
    },
    {
      "inputs": [
        {
          "internalType": "address",
          "name": "to",
          "type": "address"
        },
        {
          "internalType": "uint256",
          "name": "tokenId",
          "type": "uint256"
        }
      ],
      "name": "approve",
      "outputs": [],
      "stateMutability": "nonpayable",
      "type": "function"
    },
    {
      "inputs": [
        {
          "internalType": "address",
          "name": "owner",
          "type": "address"
        }
      ],
      "name": "balanceOf",
      "outputs": [
        {
          "internalType": "uint256",
          "name": "",
          "type": "uint256"
        }
      ],
      "stateMutability": "view",
      "type": "function"
    },
    {
      "inputs": [
        {
          "internalType": "uint256",
          "name": "tokenId",
          "type": "uint256"
        }
      ],
      "name": "burn",
      "outputs": [],
      "stateMutability": "nonpayable",
      "type": "function"
    },
    {
      "inputs": [
        {
          "internalType": "uint256[]",
          "name": "tokenIds",
          "type": "uint256[]"
        }
      ],
      "name": "claimTokens",
      "outputs": [],
      "stateMutability": "nonpayable",
      "type": "function"
    },
    {
      "inputs": [
        {
          "internalType": "uint256",
          "name": "",
          "type": "uint256"
        }
      ],
      "name": "existingCombinations",
      "outputs": [
        {
          "internalType": "uint256",
          "name": "",
          "type": "uint256"
        }
      ],
      "stateMutability": "view",
      "type": "function"
    },
    {
      "inputs": [
        {
          "internalType": "uint256",
          "name": "tokenId",
          "type": "uint256"
        }
      ],
      "name": "getApproved",
      "outputs": [
        {
          "internalType": "address",
          "name": "",
          "type": "address"
        }
      ],
      "stateMutability": "view",
      "type": "function"
    },
    {
      "inputs": [
        {
          "internalType": "uint256",
          "name": "tokenId",
          "type": "uint256"
        }
      ],
      "name": "getTokenLevel",
      "outputs": [
        {
          "internalType": "uint256",
          "name": "",
          "type": "uint256"
        }
      ],
      "stateMutability": "view",
      "type": "function"
    },
    {
      "inputs": [
        {
          "internalType": "uint256",
          "name": "tokenId",
          "type": "uint256"
        }
      ],
      "name": "getTokenTraits",
      "outputs": [
        {
          "components": [
            {
              "internalType": "bool",
              "name": "isMarine",
              "type": "bool"
            },
            {
              "internalType": "uint8",
              "name": "M_Weapon",
              "type": "uint8"
            },
            {
              "internalType": "uint8",
              "name": "M_Back",
              "type": "uint8"
            },
            {
              "internalType": "uint8",
              "name": "M_Headgear",
              "type": "uint8"
            },
            {
              "internalType": "uint8",
              "name": "M_Eyes",
              "type": "uint8"
            },
            {
              "internalType": "uint8",
              "name": "M_Emblem",
              "type": "uint8"
            },
            {
              "internalType": "uint8",
              "name": "M_Body",
              "type": "uint8"
            },
            {
              "internalType": "uint8",
              "name": "A_Headgear",
              "type": "uint8"
            },
            {
              "internalType": "uint8",
              "name": "A_Eye",
              "type": "uint8"
            },
            {
              "internalType": "uint8",
              "name": "A_Back",
              "type": "uint8"
            },
            {
              "internalType": "uint8",
              "name": "A_Mouth",
              "type": "uint8"
            },
            {
              "internalType": "uint8",
              "name": "A_Body",
              "type": "uint8"
            },
            {
              "internalType": "uint8",
              "name": "rankIndex",
              "type": "uint8"
            }
          ],
          "internalType": "struct IMnA.MarineAlien",
          "name": "",
          "type": "tuple"
        }
      ],
      "stateMutability": "view",
      "type": "function"
    },
    {
      "inputs": [
        {
          "internalType": "uint256",
          "name": "tokenId",
          "type": "uint256"
        }
      ],
      "name": "getTokenWriteBlock",
      "outputs": [
        {
          "internalType": "uint64",
          "name": "",
          "type": "uint64"
        }
      ],
      "stateMutability": "view",
      "type": "function"
    },
    {
      "inputs": [
        {
          "internalType": "address",
          "name": "owner",
          "type": "address"
        },
        {
          "internalType": "address",
          "name": "operator",
          "type": "address"
        }
      ],
      "name": "isApprovedForAll",
      "outputs": [
        {
          "internalType": "bool",
          "name": "",
          "type": "bool"
        }
      ],
      "stateMutability": "view",
      "type": "function"
    },
    {
      "inputs": [
        {
          "internalType": "uint256",
          "name": "tokenId",
          "type": "uint256"
        }
      ],
      "name": "isMarine",
      "outputs": [
        {
          "internalType": "bool",
          "name": "",
          "type": "bool"
        }
      ],
      "stateMutability": "view",
      "type": "function"
    },
    {
      "inputs": [],
      "name": "klaye",
      "outputs": [
        {
          "internalType": "contract IERC20",
          "name": "",
          "type": "address"
        }
      ],
      "stateMutability": "view",
      "type": "function"
    },
    {
      "inputs": [
        {
          "internalType": "uint256",
          "name": "level",
          "type": "uint256"
        }
      ],
      "name": "klayeTokenForCoolDown",
      "outputs": [
        {
          "internalType": "uint256",
          "name": "",
          "type": "uint256"
        }
      ],
      "stateMutability": "view",
      "type": "function"
    },
    {
      "inputs": [],
      "name": "levelMath",
      "outputs": [
        {
          "internalType": "contract ILevelMath",
          "name": "",
          "type": "address"
        }
      ],
      "stateMutability": "view",
      "type": "function"
    },
    {
      "inputs": [],
      "name": "minted",
      "outputs": [
        {
          "internalType": "uint16",
          "name": "",
          "type": "uint16"
        }
      ],
      "stateMutability": "view",
      "type": "function"
    },
    {
      "inputs": [],
      "name": "mnaV1",
      "outputs": [
        {
          "internalType": "contract IMnA",
          "name": "",
          "type": "address"
        }
      ],
      "stateMutability": "view",
      "type": "function"
    },
    {
      "inputs": [],
      "name": "name",
      "outputs": [
        {
          "internalType": "string",
          "name": "",
          "type": "string"
        }
      ],
      "stateMutability": "view",
      "type": "function"
    },
    {
      "inputs": [
        {
          "internalType": "address",
          "name": "",
          "type": "address"
        },
        {
          "internalType": "address",
          "name": "from",
          "type": "address"
        },
        {
          "internalType": "uint256",
          "name": "",
          "type": "uint256"
        },
        {
          "internalType": "bytes",
          "name": "",
          "type": "bytes"
        }
      ],
      "name": "onERC721Received",
      "outputs": [
        {
          "internalType": "bytes4",
          "name": "",
          "type": "bytes4"
        }
      ],
      "stateMutability": "pure",
      "type": "function"
    },
    {
      "inputs": [],
      "name": "ores",
      "outputs": [
        {
          "internalType": "contract IORES",
          "name": "",
          "type": "address"
        }
      ],
      "stateMutability": "view",
      "type": "function"
    },
    {
      "inputs": [
        {
          "internalType": "uint256",
          "name": "level",
          "type": "uint256"
        }
      ],
      "name": "oresTokenForLevel",
      "outputs": [
        {
          "internalType": "uint256",
          "name": "",
          "type": "uint256"
        }
      ],
      "stateMutability": "view",
      "type": "function"
    },
    {
      "inputs": [],
      "name": "owner",
      "outputs": [
        {
          "internalType": "address",
          "name": "",
          "type": "address"
        }
      ],
      "stateMutability": "view",
      "type": "function"
    },
    {
      "inputs": [
        {
          "internalType": "uint256",
          "name": "tokenId",
          "type": "uint256"
        }
      ],
      "name": "ownerOf",
      "outputs": [
        {
          "internalType": "address",
          "name": "",
          "type": "address"
        }
      ],
      "stateMutability": "view",
      "type": "function"
    },
    {
      "inputs": [],
      "name": "paused",
      "outputs": [
        {
          "internalType": "bool",
          "name": "",
          "type": "bool"
        }
      ],
      "stateMutability": "view",
      "type": "function"
    },
    {
      "inputs": [
        {
          "internalType": "address",
          "name": "addr",
          "type": "address"
        }
      ],
      "name": "removeAdmin",
      "outputs": [],
      "stateMutability": "nonpayable",
      "type": "function"
    },
    {
      "inputs": [],
      "name": "renounceOwnership",
      "outputs": [],
      "stateMutability": "nonpayable",
      "type": "function"
    },
    {
      "inputs": [
        {
          "internalType": "uint256[]",
          "name": "tokenIds",
          "type": "uint256[]"
        }
      ],
      "name": "resetCoolDown",
      "outputs": [],
      "stateMutability": "nonpayable",
      "type": "function"
    },
    {
      "inputs": [
        {
          "internalType": "address",
          "name": "from",
          "type": "address"
        },
        {
          "internalType": "address",
          "name": "to",
          "type": "address"
        },
        {
          "internalType": "uint256",
          "name": "tokenId",
          "type": "uint256"
        }
      ],
      "name": "safeTransferFrom",
      "outputs": [],
      "stateMutability": "nonpayable",
      "type": "function"
    },
    {
      "inputs": [
        {
          "internalType": "address",
          "name": "from",
          "type": "address"
        },
        {
          "internalType": "address",
          "name": "to",
          "type": "address"
        },
        {
          "internalType": "uint256",
          "name": "tokenId",
          "type": "uint256"
        },
        {
          "internalType": "bytes",
          "name": "_data",
          "type": "bytes"
        }
      ],
      "name": "safeTransferFrom",
      "outputs": [],
      "stateMutability": "nonpayable",
      "type": "function"
    },
    {
      "inputs": [
        {
          "internalType": "address",
          "name": "operator",
          "type": "address"
        },
        {
          "internalType": "bool",
          "name": "approved",
          "type": "bool"
        }
      ],
      "name": "setApprovalForAll",
      "outputs": [],
      "stateMutability": "nonpayable",
      "type": "function"
    },
    {
      "inputs": [
        {
          "internalType": "address",
          "name": "_mnaV1",
          "type": "address"
        },
        {
          "internalType": "address",
          "name": "_traits",
          "type": "address"
        },
        {
          "internalType": "address",
          "name": "_ores",
          "type": "address"
        },
        {
          "internalType": "address",
          "name": "_klaye",
          "type": "address"
        },
        {
          "internalType": "address",
          "name": "_levelMath",
          "type": "address"
        }
      ],
      "name": "setContracts",
      "outputs": [],
      "stateMutability": "nonpayable",
      "type": "function"
    },
    {
      "inputs": [
        {
          "internalType": "bool",
          "name": "_paused",
          "type": "bool"
        }
      ],
      "name": "setPaused",
      "outputs": [],
      "stateMutability": "nonpayable",
      "type": "function"
    },
    {
      "inputs": [
        {
          "internalType": "bytes4",
          "name": "interfaceId",
          "type": "bytes4"
        }
      ],
      "name": "supportsInterface",
      "outputs": [
        {
          "internalType": "bool",
          "name": "",
          "type": "bool"
        }
      ],
      "stateMutability": "view",
      "type": "function"
    },
    {
      "inputs": [],
      "name": "symbol",
      "outputs": [
        {
          "internalType": "string",
          "name": "",
          "type": "string"
        }
      ],
      "stateMutability": "view",
      "type": "function"
    },
    {
      "inputs": [
        {
          "internalType": "uint256",
          "name": "index",
          "type": "uint256"
        }
      ],
      "name": "tokenByIndex",
      "outputs": [
        {
          "internalType": "uint256",
          "name": "",
          "type": "uint256"
        }
      ],
      "stateMutability": "view",
      "type": "function"
    },
    {
      "inputs": [
        {
          "internalType": "address",
          "name": "owner",
          "type": "address"
        },
        {
          "internalType": "uint256",
          "name": "index",
          "type": "uint256"
        }
      ],
      "name": "tokenOfOwnerByIndex",
      "outputs": [
        {
          "internalType": "uint256",
          "name": "",
          "type": "uint256"
        }
      ],
      "stateMutability": "view",
      "type": "function"
    },
    {
      "inputs": [
        {
          "internalType": "uint256",
          "name": "tokenId",
          "type": "uint256"
        }
      ],
      "name": "tokenURI",
      "outputs": [
        {
          "internalType": "string",
          "name": "",
          "type": "string"
        }
      ],
      "stateMutability": "view",
      "type": "function"
    },
    {
      "inputs": [],
      "name": "totalSupply",
      "outputs": [
        {
          "internalType": "uint256",
          "name": "",
          "type": "uint256"
        }
      ],
      "stateMutability": "view",
      "type": "function"
    },
    {
      "inputs": [],
      "name": "traits",
      "outputs": [
        {
          "internalType": "contract ITraits",
          "name": "",
          "type": "address"
        }
      ],
      "stateMutability": "view",
      "type": "function"
    },
    {
      "inputs": [
        {
          "internalType": "address",
          "name": "from",
          "type": "address"
        },
        {
          "internalType": "address",
          "name": "to",
          "type": "address"
        },
        {
          "internalType": "uint256",
          "name": "tokenId",
          "type": "uint256"
        }
      ],
      "name": "transferFrom",
      "outputs": [],
      "stateMutability": "nonpayable",
      "type": "function"
    },
    {
      "inputs": [
        {
          "internalType": "address",
          "name": "newOwner",
          "type": "address"
        }
      ],
      "name": "transferOwnership",
      "outputs": [],
      "stateMutability": "nonpayable",
      "type": "function"
    },
    {
      "inputs": [
        {
          "internalType": "uint16[]",
          "name": "tokenIds",
          "type": "uint16[]"
        }
      ],
      "name": "updateOriginAccess",
      "outputs": [],
      "stateMutability": "nonpayable",
      "type": "function"
    },
    {
      "inputs": [
        {
          "internalType": "uint256",
          "name": "",
          "type": "uint256"
        }
      ],
      "name": "upgradeEpoches",
      "outputs": [
        {
          "internalType": "bool",
          "name": "skipped",
          "type": "bool"
        },
        {
          "internalType": "uint256",
          "name": "lastUpdate",
          "type": "uint256"
        }
      ],
      "stateMutability": "view",
      "type": "function"
    },
    {
      "inputs": [
        {
          "internalType": "uint256[]",
          "name": "tokenIds",
          "type": "uint256[]"
        }
      ],
      "name": "upgradeLevel",
      "outputs": [],
      "stateMutability": "nonpayable",
      "type": "function"
    }
  ],
  "transactionHash": "0x2fccdf7f90d8ef798e4ee25ad510dbd58ef622076f432c5d821de237359e2111",
  "args": [],
  "numDeployments": 1,
  "solcInputHash": "fb03553b676fe9e8a8f0650bb1f56f7a",
  "bytecode": "0x60806040526045600b55601280546001600160a01b03191661dead1790553480156200002a57600080fd5b50604080518082018252601881527f4d6172696e6573202620416c69656e732047616d65207632000000000000000060208083019182528351808501909452600584526426b720bb1960d91b9084015281519192916200008d91600091620001e5565b508051620000a3906001906020840190620001e5565b505050620000c0620000ba620000dd60201b60201c565b620000e1565b600a805460ff60a01b19169055620000d762000133565b620002c8565b3390565b600a80546001600160a01b038381166001600160a01b0319831681179093556040519116919082907f8be0079c531659141344cd1fd0a4f28419497f9722a3daafe3b4186f6b6457e090600090a35050565b62000147600a54600160a01b900460ff1690565b156200018c5760405162461bcd60e51b815260206004820152601060248201526f14185d5cd8589b194e881c185d5cd95960821b604482015260640160405180910390fd5b600a805460ff60a01b1916600160a01b1790557f62e78cea01bee320cd4e420270b5ea74000d11b0c9f74754ebdbfc544b05a258620001c83390565b6040516001600160a01b03909116815260200160405180910390a1565b828054620001f3906200028b565b90600052602060002090601f01602090048101928262000217576000855562000262565b82601f106200023257805160ff191683800117855562000262565b8280016001018555821562000262579182015b828111156200026257825182559160200191906001019062000245565b506200027092915062000274565b5090565b5b8082111562000270576000815560010162000275565b600281046001821680620002a057607f821691505b60208210811415620002c257634e487b7160e01b600052602260045260246000fd5b50919050565b613ef780620002d86000396000f3fe608060405234801561001057600080fd5b506004361061028a5760003560e01c8063704802751161015c578063b077227b116100ce578063e1fc334f11610087578063e1fc334f1461060c578063e985e9c51461061f578063ebd1736814610632578063ecc5fe301461065d578063f2fde38b14610670578063f63bf8bd146106835761028a565b8063b077227b14610569578063b88d4fde1461057c578063bb7789fc1461058f578063c87b56dd146105a2578063d011645c146105b5578063d1ed7fc4146105c85761028a565b806394e568471161012057806394e56847146104f257806395d89b411461051257806396ffb9241461051a578063a1b8f3741461052d578063a22cb4651461054d578063a49062d4146105605761028a565b806370480275146104a057806370a08231146104b3578063715018a6146104c6578063797e7ed9146104ce5780638da5cb5b146104e15761028a565b80632d08265a116102005780634e6fd6c4116101b95780634e6fd6c4146104195780634f02c4201461042c5780634f6ccce7146104545780635c975abb146104675780636352211e1461047a5780636cbbd5da1461048d5761028a565b80632d08265a146103a75780632f745c59146103ba57806335ca838b146103cd5780634019bfc7146103e057806342842e0e146103f357806342966c68146104065761028a565b806312dcfba41161025257806312dcfba41461028f578063150b7a021461032e57806316c38b3c146103665780631785f53c1461037957806318160ddd1461038c57806323b872dd146103945761028a565b806301641d1e1461028f57806301ffc9a7146102b657806306fdde03146102d9578063081812fc146102ee578063095ea7b314610319575b600080fd5b6102a361029d366004613a55565b50600090565b6040519081526020015b60405180910390f35b6102c96102c4366004613859565b610696565b60405190151581526020016102ad565b6102e16106c3565b6040516102ad9190613ad6565b6103016102fc366004613a55565b610755565b6040516001600160a01b0390911681526020016102ad565b61032c6103273660046136d0565b6107ca565b005b61034d61033c366004613564565b630a85bd0160e11b95945050505050565b6040516001600160e01b031990911681526020016102ad565b61032c610374366004613821565b610833565b61032c610387366004613444565b610921565b6008546102a3565b61032c6103a2366004613524565b61096c565b61032c6103b53660046137b3565b610a15565b6102a36103c83660046136d0565b610e50565b61032c6103db3660046136fb565b610f79565b6102c96103ee366004613a55565b6110da565b61032c610401366004613524565b611218565b61032c610414366004613a55565b61127d565b601254610301906001600160a01b031681565b600a5461044190600160a81b900461ffff1681565b60405161ffff90911681526020016102ad565b6102a3610462366004613a55565b6113b8565b6102c9600a54600160a01b900460ff1690565b610301610488366004613a55565b61141f565b601754610301906001600160a01b031681565b61032c6104ae366004613444565b611542565b6102a36104c1366004613444565b611590565b61032c611654565b601654610301906001600160a01b031681565b600a546001600160a01b0316610301565b610505610500366004613a55565b61168a565b6040516102ad9190613c4d565b6102e1611885565b601454610301906001600160a01b031681565b6102a361053b366004613a55565b600f6020526000908152604090205481565b61032c61055b3660046136a3565b611894565b6102a3600b5481565b61032c6105773660046137b3565b6118fb565b61032c61058a3660046135fd565b611be7565b61032c61059d3660046137b3565b611c54565b6102e16105b0366004613a55565b611f83565b6102a36105c3366004613a55565b61211d565b6105f56105d6366004613a55565b600d602052600090815260409020805460019091015460ff9091169082565b6040805192151583526020830191909152016102ad565b601354610301906001600160a01b031681565b6102c961062d36600461347c565b6121e4565b610645610640366004613a55565b61226b565b6040516001600160401b0390911681526020016102ad565b601554610301906001600160a01b031681565b61032c61067e366004613444565b6122bd565b61032c6106913660046134b4565b612355565b60006001600160e01b0319821663780e9d6360e01b14806106bb57506106bb826123de565b90505b919050565b6060600080546106d290613dea565b80601f01602080910402602001604051908101604052809291908181526020018280546106fe90613dea565b801561074b5780601f106107205761010080835404028352916020019161074b565b820191906000526020600020905b81548152906001019060200180831161072e57829003601f168201915b5050505050905090565b33600090815260186020526040812054829060ff1680610793575060008181526011602052604090205443600160401b9091046001600160401b0316105b6107b85760405162461bcd60e51b81526004016107af90613b72565b60405180910390fd5b6107c18361242e565b91505b50919050565b33600090815260186020526040902054819060ff1680610808575060008181526011602052604090205443600160401b9091046001600160401b0316105b6108245760405162461bcd60e51b81526004016107af90613b72565b61082e83836124c3565b505050565b6013546001600160a01b03161580159061085757506014546001600160a01b031615155b801561086d57506015546001600160a01b031615155b801561088357506017546001600160a01b031615155b801561089957506016546001600160a01b031615155b6108d95760405162461bcd60e51b815260206004820152601160248201527010dbdb9d1c9858dd1cc81b9bdd081cd95d607a1b60448201526064016107af565b600a546001600160a01b031633146109035760405162461bcd60e51b81526004016107af90613bc7565b8015610916576109116125d4565b61091e565b61091e61265c565b50565b600a546001600160a01b0316331461094b5760405162461bcd60e51b81526004016107af90613bc7565b6001600160a01b03166000908152601860205260409020805460ff19169055565b33600090815260186020526040902054819060ff16806109aa575060008181526011602052604090205443600160401b9091046001600160401b0316105b6109c65760405162461bcd60e51b81526004016107af90613b72565b3360009081526018602052604090205460ff16610a04576109e8335b836126e6565b610a045760405162461bcd60e51b81526004016107af90613bfc565b610a0f8484846127bd565b50505050565b610a28600a54600160a01b900460ff1690565b15610a455760405162461bcd60e51b81526004016107af90613b9d565b60005b8181101561082e576000838383818110610a7257634e487b7160e01b600052603260045260246000fd5b6014546040516331a9108f60e11b8152602092909202939093013560048201819052935033926001600160a01b03169150636352211e9060240160206040518083038186803b158015610ac457600080fd5b505afa158015610ad8573d6000803e3d6000fd5b505050506040513d601f19601f82011682018060405250810190610afc9190613460565b6001600160a01b031614610b3e5760405162461bcd60e51b81526020600482015260096024820152683737ba1037bbb732b960b91b60448201526064016107af565b6014546040516394e5684760e01b8152600481018390526000916001600160a01b0316906394e56847906024016101a06040518083038186803b158015610b8457600080fd5b505afa158015610b98573d6000803e3d6000fd5b505050506040513d601f19601f82011682018060405250810190610bbc9190613954565b905080600e600084815260200190815260200160002060008201518160000160006101000a81548160ff02191690831515021790555060208201518160000160016101000a81548160ff021916908360ff16021790555060408201518160000160026101000a81548160ff021916908360ff16021790555060608201518160000160036101000a81548160ff021916908360ff16021790555060808201518160000160046101000a81548160ff021916908360ff16021790555060a08201518160000160056101000a81548160ff021916908360ff16021790555060c08201518160000160066101000a81548160ff021916908360ff16021790555060e08201518160000160076101000a81548160ff021916908360ff1602179055506101008201518160000160086101000a81548160ff021916908360ff1602179055506101208201518160000160096101000a81548160ff021916908360ff16021790555061014082015181600001600a6101000a81548160ff021916908360ff16021790555061016082015181600001600b6101000a81548160ff021916908360ff16021790555061018082015181600001600c6101000a81548160ff021916908360ff160217905550905050601460009054906101000a90046001600160a01b03166001600160a01b03166342842e0e33601260009054906101000a90046001600160a01b0316856040518463ffffffff1660e01b8152600401610dff939291906001600160a01b039384168152919092166020820152604081019190915260600190565b600060405180830381600087803b158015610e1957600080fd5b505af1158015610e2d573d6000803e3d6000fd5b50505050610e3b3383612968565b50508080610e4890613e41565b915050610a48565b3360009081526018602052604081205460ff1680610e8d57503260009081526010602052604090205443600160401b9091046001600160401b0316105b610ea95760405162461bcd60e51b81526004016107af90613b72565b3360009081526018602052604090205460ff1680610eef57506001600160a01b03831660009081526010602052604090205443600160401b9091046001600160401b0316105b610f0b5760405162461bcd60e51b81526004016107af90613b72565b6000610f178484612a14565b3360009081526018602052604090205490915060ff1680610f56575060008181526011602052604090205443600160401b9091046001600160401b0316105b610f725760405162461bcd60e51b81526004016107af90613b72565b9392505050565b3360009081526018602052604090205460ff16610fa85760405162461bcd60e51b81526004016107af90613b3b565b604080518082018252426001600160401b038181168352438082166020808601918252326000908152601090915295862094518554915167ffffffffffffffff199092169084161767ffffffffffffffff60401b1916600160401b91909316029190911790925590915b8351811015610a0f576040518060400160405280836001600160401b03168152602001846001600160401b03168152506011600086848151811061106657634e487b7160e01b600052603260045260246000fd5b60209081029190910181015161ffff168252818101929092526040016000208251815493909201516001600160401b03908116600160401b0267ffffffffffffffff60401b199190931667ffffffffffffffff199094169390931792909216179055806110d281613e41565b915050611012565b33600090815260186020526040812054829060ff1680611118575060008181526011602052604090205443600160401b9091046001600160401b0316105b6111345760405162461bcd60e51b81526004016107af90613b72565b50506000908152600e602090815260409182902082516101a081018452905460ff80821615158084526101008084048316958501959095526201000083048216958401959095526301000000820481166060840152640100000000820481166080840152650100000000008204811660a084015266010000000000008204811660c0840152600160381b8204811660e0840152600160401b8204811693830193909352600160481b81048316610120830152600160501b81048316610140830152600160581b81048316610160830152600160601b90049091166101809091015290565b33600090815260186020526040902054819060ff1680611256575060008181526011602052604090205443600160401b9091046001600160401b0316105b6112725760405162461bcd60e51b81526004016107af90613b72565b610a0f848484612aaa565b611290600a54600160a01b900460ff1690565b156112ad5760405162461bcd60e51b81526004016107af90613b9d565b3360009081526018602052604090205460ff166112dc5760405162461bcd60e51b81526004016107af90613b3b565b326112e68261141f565b6001600160a01b03161461133c5760405162461bcd60e51b815260206004820152601760248201527f4f6f707320796f7520646f6e2774206f776e207468617400000000000000000060448201526064016107af565b6000818152600e602052604090205460ff16156113835760405181907f86f8109fc1014c667ee2be6fb0b2b1d54dc3677ab2235dd38d9ea7d6419ff73890600090a26113af565b60405181907f53a25ae4217fbc3bc27383ae359a946f20812eb9b2cb7c25142d40c433acb65890600090a25b61091e81612ac5565b6000806113c483612b6c565b3360009081526018602052604090205490915060ff1680611403575060008181526011602052604090205443600160401b9091046001600160401b0316105b6106bb5760405162461bcd60e51b81526004016107af90613b72565b3360009081526018602052604081205460ff168061145c57503260009081526010602052604090205443600160401b9091046001600160401b0316105b6114785760405162461bcd60e51b81526004016107af90613b72565b33600090815260186020526040902054829060ff16806114b6575060008181526011602052604090205443600160401b9091046001600160401b0316105b6114d25760405162461bcd60e51b81526004016107af90613b72565b60006114dd84612c0d565b3360009081526018602052604090205490915060ff168061152657506001600160a01b03811660009081526010602052604090205443600160401b9091046001600160401b0316105b6107c15760405162461bcd60e51b81526004016107af90613b72565b600a546001600160a01b0316331461156c5760405162461bcd60e51b81526004016107af90613bc7565b6001600160a01b03166000908152601860205260409020805460ff19166001179055565b3360009081526018602052604081205460ff16806115cd57503260009081526010602052604090205443600160401b9091046001600160401b0316105b6115e95760405162461bcd60e51b81526004016107af90613b72565b3360009081526018602052604090205460ff168061162f57506001600160a01b03821660009081526010602052604090205443600160401b9091046001600160401b0316105b61164b5760405162461bcd60e51b81526004016107af90613b72565b6106bb82612c84565b600a546001600160a01b0316331461167e5760405162461bcd60e51b81526004016107af90613bc7565b6116886000612d0b565b565b604080516101a08101825260008082526020808301829052828401829052606083018290526080830182905260a0830182905260c0830182905260e083018290526101008301829052610120830182905261014083018290526101608301829052610180830182905233825260189052919091205460ff168061172c57503260009081526010602052604090205443600160401b9091046001600160401b0316105b6117485760405162461bcd60e51b81526004016107af90613b72565b33600090815260186020526040902054829060ff1680611786575060008181526011602052604090205443600160401b9091046001600160401b0316105b6117a25760405162461bcd60e51b81526004016107af90613b72565b50506000908152600e602090815260409182902082516101a081018452905460ff808216151583526101008083048216948401949094526201000082048116948301949094526301000000810484166060830152640100000000810484166080830152650100000000008104841660a083015266010000000000008104841660c0830152600160381b8104841660e0830152600160401b8104841692820192909252600160481b82048316610120820152600160501b82048316610140820152600160581b82048316610160820152600160601b90910490911661018082015290565b6060600180546106d290613dea565b3360009081526018602052604090205460ff16806118d157503260009081526010602052604090205443600160401b9091046001600160401b0316105b6118ed5760405162461bcd60e51b81526004016107af90613b72565b6118f78282612d5d565b5050565b61190e600a54600160a01b900460ff1690565b1561192b5760405162461bcd60e51b81526004016107af90613b9d565b806119685760405162461bcd60e51b815260206004820152600d60248201526c696e76616c696420706172616d60981b60448201526064016107af565b6000805b82811015611b4e57600084848381811061199657634e487b7160e01b600052603260045260246000fd5b9050602002013590506000600c6000838152602001908152602001600020549050600b548111156119fd5760405162461bcd60e51b8152602060048201526011602482015270185b1c9958591e481b585e081b195d995b607a1b60448201526064016107af565b6000828152600d6020908152604080832081518083018352815460ff1615158152600190910154928101929092526017549051631afbb35560e31b8152600481018590529192916001600160a01b039091169063d7dd9aa89060240160a06040518083038186803b158015611a7157600080fd5b505afa158015611a85573d6000803e3d6000fd5b505050506040513d601f19601f82011682018060405250810190611aa99190613903565b825190915015611aeb5760405162461bcd60e51b815260206004820152600d60248201526c185b1c9958591e481c995cd95d609a1b60448201526064016107af565b6040810151611afa9087613d8f565b60408051808201825260018082524260208084019182526000998a52600d9052929097209051815460ff1916901515178155905195019490945550919350829150611b46905081613e41565b91505061196c565b506016546012546040516323b872dd60e01b81523360048201526001600160a01b039182166024820152604481018490529116906323b872dd906064015b602060405180830381600087803b158015611ba657600080fd5b505af1158015611bba573d6000803e3d6000fd5b505050506040513d601f19601f82011682018060405250810190611bde919061383d565b61082e57600080fd5b33600090815260186020526040902054829060ff1680611c25575060008181526011602052604090205443600160401b9091046001600160401b0316105b611c415760405162461bcd60e51b81526004016107af90613b72565b611c4d85858585612d68565b5050505050565b611c67600a54600160a01b900460ff1690565b15611c845760405162461bcd60e51b81526004016107af90613b9d565b80611cc15760405162461bcd60e51b815260206004820152600d60248201526c696e76616c696420706172616d60981b60448201526064016107af565b6000805b82811015611f41576000848483818110611cef57634e487b7160e01b600052603260045260246000fd5b602090810292909201356000818152600c909352604090922054919250339050611d188361141f565b6001600160a01b031614611d5a5760405162461bcd60e51b81526020600482015260096024820152683737ba1037bbb732b960b91b60448201526064016107af565b600b54811115611da05760405162461bcd60e51b8152602060048201526011602482015270105b1c9958591e481b585e081b195d995b607a1b60448201526064016107af565b6000828152600d6020908152604080832081518083018352815460ff1615158152600190910154928101929092526017549051631afbb35560e31b8152600481018590529192916001600160a01b039091169063d7dd9aa89060240160a06040518083038186803b158015611e1457600080fd5b505afa158015611e28573d6000803e3d6000fd5b505050506040513d601f19601f82011682018060405250810190611e4c9190613903565b8251909150611ec7574281602001518360200151611e6a9190613d8f565b10611ec75760405162461bcd60e51b815260206004820152602760248201527f6e6565647320746f207761697420666f722074686520636f6f6c646f776e20646044820152663ab930ba34b7b760c91b60648201526084016107af565b8051611ed39087613d8f565b9550611ee0836001613d8f565b6000858152600c60209081526040808320939093558251808401845282815242818301908152978352600d9091529190209051815460ff1916901515178155935160019094019390935550829150611f39905081613e41565b915050611cc5565b506015546012546040516323b872dd60e01b81523360048201526001600160a01b039182166024820152604481018490529116906323b872dd90606401611b8c565b3360009081526018602052604090205460609060ff1680611fc357503260009081526010602052604090205443600160401b9091046001600160401b0316105b611fdf5760405162461bcd60e51b81526004016107af90613b72565b33600090815260186020526040902054829060ff168061201d575060008181526011602052604090205443600160401b9091046001600160401b0316105b6120395760405162461bcd60e51b81526004016107af90613b72565b6000838152600260205260409020546001600160a01b031661209d5760405162461bcd60e51b815260206004820152601760248201527f546f6b656e20494420646f6573206e6f7420657869737400000000000000000060448201526064016107af565b60135460405163c87b56dd60e01b8152600481018590526001600160a01b039091169063c87b56dd9060240160006040518083038186803b1580156120e157600080fd5b505afa1580156120f5573d6000803e3d6000fd5b505050506040513d6000823e601f3d908101601f191682016040526107c19190810190613891565b3360009081526018602052604081205460ff168061215a57503260009081526010602052604090205443600160401b9091046001600160401b0316105b6121765760405162461bcd60e51b81526004016107af90613b72565b33600090815260186020526040902054829060ff16806121b4575060008181526011602052604090205443600160401b9091046001600160401b0316105b6121d05760405162461bcd60e51b81526004016107af90613b72565b50506000908152600c602052604090205490565b3360009081526018602052604081205460ff168061222157503260009081526010602052604090205443600160401b9091046001600160401b0316105b61223d5760405162461bcd60e51b81526004016107af90613b72565b6001600160a01b0380841660009081526005602090815260408083209386168352929052205460ff16610f72565b3360009081526018602052604081205460ff1661229a5760405162461bcd60e51b81526004016107af90613b3b565b50600090815260116020526040902054600160401b90046001600160401b031690565b600a546001600160a01b031633146122e75760405162461bcd60e51b81526004016107af90613bc7565b6001600160a01b03811661234c5760405162461bcd60e51b815260206004820152602660248201527f4f776e61626c653a206e6577206f776e657220697320746865207a65726f206160448201526564647265737360d01b60648201526084016107af565b61091e81612d0b565b600a546001600160a01b0316331461237f5760405162461bcd60e51b81526004016107af90613bc7565b601480546001600160a01b03199081166001600160a01b03978816179091556013805482169587169590951790945560158054851693861693909317909255601680548416918516919091179055601780549092169216919091179055565b60006001600160e01b031982166380ac58cd60e01b148061240f57506001600160e01b03198216635b5e139f60e01b145b806106bb57506301ffc9a760e01b6001600160e01b03198316146106bb565b6000818152600260205260408120546001600160a01b03166124a75760405162461bcd60e51b815260206004820152602c60248201527f4552433732313a20617070726f76656420717565727920666f72206e6f6e657860448201526b34b9ba32b73a103a37b5b2b760a11b60648201526084016107af565b506000908152600460205260409020546001600160a01b031690565b60006124ce82612c0d565b9050806001600160a01b0316836001600160a01b0316141561253c5760405162461bcd60e51b815260206004820152602160248201527f4552433732313a20617070726f76616c20746f2063757272656e74206f776e656044820152603960f91b60648201526084016107af565b336001600160a01b03821614806125585750612558813361062d565b6125ca5760405162461bcd60e51b815260206004820152603860248201527f4552433732313a20617070726f76652063616c6c6572206973206e6f74206f7760448201527f6e6572206e6f7220617070726f76656420666f7220616c6c000000000000000060648201526084016107af565b61082e8383612d99565b6125e7600a54600160a01b900460ff1690565b156126045760405162461bcd60e51b81526004016107af90613b9d565b600a805460ff60a01b1916600160a01b1790557f62e78cea01bee320cd4e420270b5ea74000d11b0c9f74754ebdbfc544b05a25861263f3390565b6040516001600160a01b03909116815260200160405180910390a1565b61266f600a54600160a01b900460ff1690565b6126b25760405162461bcd60e51b815260206004820152601460248201527314185d5cd8589b194e881b9bdd081c185d5cd95960621b60448201526064016107af565b600a805460ff60a01b191690557f5db9ee0a495bf2e6ff9c91a7834c1ba4fdd244a5e8aa4e537bd38aeae4b073aa3361263f565b6000818152600260205260408120546001600160a01b031661275f5760405162461bcd60e51b815260206004820152602c60248201527f4552433732313a206f70657261746f7220717565727920666f72206e6f6e657860448201526b34b9ba32b73a103a37b5b2b760a11b60648201526084016107af565b600061276a83612c0d565b9050806001600160a01b0316846001600160a01b031614806127a55750836001600160a01b031661279a84610755565b6001600160a01b0316145b806127b557506127b581856121e4565b949350505050565b826001600160a01b03166127d082612c0d565b6001600160a01b0316146128385760405162461bcd60e51b815260206004820152602960248201527f4552433732313a207472616e73666572206f6620746f6b656e2074686174206960448201526839903737ba1037bbb760b91b60648201526084016107af565b6001600160a01b03821661289a5760405162461bcd60e51b8152602060048201526024808201527f4552433732313a207472616e7366657220746f20746865207a65726f206164646044820152637265737360e01b60648201526084016107af565b6128a5838383612e07565b6128b0600082612d99565b6001600160a01b03831660009081526003602052604081208054600192906128d9908490613da7565b90915550506001600160a01b0382166000908152600360205260408120805460019290612907908490613d8f565b909155505060008181526002602052604080822080546001600160a01b0319166001600160a01b0386811691821790925591518493918716917fddf252ad1be2c89b69c2b068fc378daa952ba7f163c4a11628f55a4df523b3ef91a4505050565b61297b600a54600160a01b900460ff1690565b156129985760405162461bcd60e51b81526004016107af90613b9d565b600a8054600160a81b900461ffff169060156129b383613e1f565b82546101009290920a61ffff818102199093169190921691909102179055506040805180820182526000808252426020808401918252858352600d90529290209051815460ff19169015151781559051600191909101556118f78282612ec4565b6000612a1f83612c84565b8210612a815760405162461bcd60e51b815260206004820152602b60248201527f455243373231456e756d657261626c653a206f776e657220696e646578206f7560448201526a74206f6620626f756e647360a81b60648201526084016107af565b506001600160a01b03919091166000908152600660209081526040808320938352929052205490565b61082e83838360405180602001604052806000815250611be7565b6000612ad082612c0d565b9050612ade81600084612e07565b612ae9600083612d99565b6001600160a01b0381166000908152600360205260408120805460019290612b12908490613da7565b909155505060008281526002602052604080822080546001600160a01b0319169055518391906001600160a01b038416907fddf252ad1be2c89b69c2b068fc378daa952ba7f163c4a11628f55a4df523b3ef908390a45050565b6000612b7760085490565b8210612bda5760405162461bcd60e51b815260206004820152602c60248201527f455243373231456e756d657261626c653a20676c6f62616c20696e646578206f60448201526b7574206f6620626f756e647360a01b60648201526084016107af565b60088281548110612bfb57634e487b7160e01b600052603260045260246000fd5b90600052602060002001549050919050565b6000818152600260205260408120546001600160a01b0316806106bb5760405162461bcd60e51b815260206004820152602960248201527f4552433732313a206f776e657220717565727920666f72206e6f6e657869737460448201526832b73a103a37b5b2b760b91b60648201526084016107af565b60006001600160a01b038216612cef5760405162461bcd60e51b815260206004820152602a60248201527f4552433732313a2062616c616e636520717565727920666f7220746865207a65604482015269726f206164647265737360b01b60648201526084016107af565b506001600160a01b031660009081526003602052604090205490565b600a80546001600160a01b038381166001600160a01b0319831681179093556040519116919082907f8be0079c531659141344cd1fd0a4f28419497f9722a3daafe3b4186f6b6457e090600090a35050565b6118f7338383612ede565b612d71336109e2565b612d8d5760405162461bcd60e51b81526004016107af90613bfc565b610a0f84848484612fad565b600081815260046020526040902080546001600160a01b0319166001600160a01b0384169081179091558190612dce82612c0d565b6001600160a01b03167f8c5be1e5ebec7d5bd14f71427d1e84f3dd0314c0f7b2291e5b200ac8c7c3b92560405160405180910390a45050565b6001600160a01b038316612e6257612e5d81600880546000838152600960205260408120829055600182018355919091527ff3f7a9fe364faab93b216da50a3214154f22a0a2b415b23a84c8169e8b636ee30155565b612e85565b816001600160a01b0316836001600160a01b031614612e8557612e858382612fe0565b6001600160a01b038216612ea157612e9c8161307d565b61082e565b826001600160a01b0316826001600160a01b03161461082e5761082e8282613156565b6118f782826040518060200160405280600081525061319a565b816001600160a01b0316836001600160a01b03161415612f405760405162461bcd60e51b815260206004820152601960248201527f4552433732313a20617070726f766520746f2063616c6c65720000000000000060448201526064016107af565b6001600160a01b03838116600081815260056020908152604080832094871680845294825291829020805460ff191686151590811790915591519182527f17307eab39ab6107e8899845ad3d59bd9653f200f220920489ca2b5937696c31910160405180910390a3505050565b612fb88484846127bd565b612fc4848484846131cd565b610a0f5760405162461bcd60e51b81526004016107af90613ae9565b60006001612fed84612c84565b612ff79190613da7565b60008381526007602052604090205490915080821461304a576001600160a01b03841660009081526006602090815260408083208584528252808320548484528184208190558352600790915290208190555b5060009182526007602090815260408084208490556001600160a01b039094168352600681528383209183525290812055565b60085460009061308f90600190613da7565b600083815260096020526040812054600880549394509092849081106130c557634e487b7160e01b600052603260045260246000fd5b9060005260206000200154905080600883815481106130f457634e487b7160e01b600052603260045260246000fd5b600091825260208083209091019290925582815260099091526040808220849055858252812055600880548061313a57634e487b7160e01b600052603160045260246000fd5b6001900381819060005260206000200160009055905550505050565b600061316183612c84565b6001600160a01b039093166000908152600660209081526040808320868452825280832085905593825260079052919091209190915550565b6131a483836132da565b6131b160008484846131cd565b61082e5760405162461bcd60e51b81526004016107af90613ae9565b60006001600160a01b0384163b156132cf57604051630a85bd0160e11b81526001600160a01b0385169063150b7a0290613211903390899088908890600401613a99565b602060405180830381600087803b15801561322b57600080fd5b505af192505050801561325b575060408051601f3d908101601f1916820190925261325891810190613875565b60015b6132b5573d808015613289576040519150601f19603f3d011682016040523d82523d6000602084013e61328e565b606091505b5080516132ad5760405162461bcd60e51b81526004016107af90613ae9565b805181602001fd5b6001600160e01b031916630a85bd0160e11b1490506127b5565b506001949350505050565b6001600160a01b0382166133305760405162461bcd60e51b815260206004820181905260248201527f4552433732313a206d696e7420746f20746865207a65726f206164647265737360448201526064016107af565b6000818152600260205260409020546001600160a01b0316156133955760405162461bcd60e51b815260206004820152601c60248201527f4552433732313a20746f6b656e20616c7265616479206d696e7465640000000060448201526064016107af565b6133a160008383612e07565b6001600160a01b03821660009081526003602052604081208054600192906133ca908490613d8f565b909155505060008181526002602052604080822080546001600160a01b0319166001600160a01b03861690811790915590518392907fddf252ad1be2c89b69c2b068fc378daa952ba7f163c4a11628f55a4df523b3ef908290a45050565b80516106be81613e9d565b805160ff811681146106be57600080fd5b600060208284031215613455578081fd5b8135610f7281613e88565b600060208284031215613471578081fd5b8151610f7281613e88565b6000806040838503121561348e578081fd5b823561349981613e88565b915060208301356134a981613e88565b809150509250929050565b600080600080600060a086880312156134cb578081fd5b85356134d681613e88565b945060208601356134e681613e88565b935060408601356134f681613e88565b9250606086013561350681613e88565b9150608086013561351681613e88565b809150509295509295909350565b600080600060608486031215613538578081fd5b833561354381613e88565b9250602084013561355381613e88565b929592945050506040919091013590565b60008060008060006080868803121561357b578283fd5b853561358681613e88565b9450602086013561359681613e88565b93506040860135925060608601356001600160401b03808211156135b8578283fd5b818801915088601f8301126135cb578283fd5b8135818111156135d9578384fd5b8960208285010111156135ea578384fd5b9699959850939650602001949392505050565b60008060008060808587031215613612578182fd5b843561361d81613e88565b9350602085013561362d81613e88565b92506040850135915060608501356001600160401b0381111561364e578182fd5b8501601f8101871361365e578182fd5b803561367161366c82613d68565b613d38565b818152886020838501011115613685578384fd5b81602084016020830137908101602001929092525092959194509250565b600080604083850312156136b5578182fd5b82356136c081613e88565b915060208301356134a981613e9d565b600080604083850312156136e2578182fd5b82356136ed81613e88565b946020939093013593505050565b6000602080838503121561370d578182fd5b82356001600160401b0380821115613723578384fd5b818501915085601f830112613736578384fd5b81358181111561374857613748613e72565b8381029150613758848301613d38565b8181528481019084860184860187018a1015613772578788fd5b8795505b838610156137a6578035945061ffff85168514613791578788fd5b84835260019590950194918601918601613776565b5098975050505050505050565b600080602083850312156137c5578182fd5b82356001600160401b03808211156137db578384fd5b818501915085601f8301126137ee578384fd5b8135818111156137fc578485fd5b866020808302850101111561380f578485fd5b60209290920196919550909350505050565b600060208284031215613832578081fd5b8135610f7281613e9d565b60006020828403121561384e578081fd5b8151610f7281613e9d565b60006020828403121561386a578081fd5b8135610f7281613eab565b600060208284031215613886578081fd5b8151610f7281613eab565b6000602082840312156138a2578081fd5b81516001600160401b038111156138b7578182fd5b8201601f810184136138c7578182fd5b80516138d561366c82613d68565b8181528560208385010111156138e9578384fd5b6138fa826020830160208601613dbe565b95945050505050565b600060a08284031215613914578081fd5b61391e60a0613d38565b82518152602083015160208201526040830151604082015260608301516060820152608083015160808201528091505092915050565b60006101a0808385031215613967578182fd5b61397081613d38565b905061397b83613428565b815261398960208401613433565b602082015261399a60408401613433565b60408201526139ab60608401613433565b60608201526139bc60808401613433565b60808201526139cd60a08401613433565b60a08201526139de60c08401613433565b60c08201526139ef60e08401613433565b60e0820152610100613a02818501613433565b90820152610120613a14848201613433565b90820152610140613a26848201613433565b90820152610160613a38848201613433565b90820152610180613a4a848201613433565b908201529392505050565b600060208284031215613a66578081fd5b5035919050565b60008151808452613a85816020860160208601613dbe565b601f01601f19169290920160200192915050565b6001600160a01b0385811682528416602082015260408101839052608060608201819052600090613acc90830184613a6d565b9695505050505050565b600060208252610f726020830184613a6d565b60208082526032908201527f4552433732313a207472616e7366657220746f206e6f6e20455243373231526560408201527131b2b4bb32b91034b6b83632b6b2b73a32b960711b606082015260800190565b60208082526019908201527f4f6e6c792061646d696e732063616e2063616c6c207468697300000000000000604082015260600190565b602080825260119082015270686d6d6d6d207768617420646f696e673f60781b604082015260600190565b60208082526010908201526f14185d5cd8589b194e881c185d5cd95960821b604082015260600190565b6020808252818101527f4f776e61626c653a2063616c6c6572206973206e6f7420746865206f776e6572604082015260600190565b60208082526031908201527f4552433732313a207472616e736665722063616c6c6572206973206e6f74206f6040820152701ddb995c881b9bdc88185c1c1c9bdd9959607a1b606082015260800190565b8151151581526101a081016020830151613c6c602084018260ff169052565b506040830151613c81604084018260ff169052565b506060830151613c96606084018260ff169052565b506080830151613cab608084018260ff169052565b5060a0830151613cc060a084018260ff169052565b5060c0830151613cd560c084018260ff169052565b5060e0830151613cea60e084018260ff169052565b506101008381015160ff908116918401919091526101208085015182169084015261014080850151821690840152610160808501518216908401526101809384015116929091019190915290565b604051601f8201601f191681016001600160401b0381118282101715613d6057613d60613e72565b604052919050565b60006001600160401b03821115613d8157613d81613e72565b50601f01601f191660200190565b60008219821115613da257613da2613e5c565b500190565b600082821015613db957613db9613e5c565b500390565b60005b83811015613dd9578181015183820152602001613dc1565b83811115610a0f5750506000910152565b600281046001821680613dfe57607f821691505b602082108114156107c457634e487b7160e01b600052602260045260246000fd5b600061ffff80831681811415613e3757613e37613e5c565b6001019392505050565b6000600019821415613e5557613e55613e5c565b5060010190565b634e487b7160e01b600052601160045260246000fd5b634e487b7160e01b600052604160045260246000fd5b6001600160a01b038116811461091e57600080fd5b801515811461091e57600080fd5b6001600160e01b03198116811461091e57600080fdfea2646970667358221220d3c9e753068bccfc51d15a5fafcaa361d26f3be54136aeba3d2fc618624d227364736f6c63430008020033",
  "devdoc": {
    "kind": "dev",
    "methods": {
      "addAdmin(address)": {
        "params": {
          "addr": "the address to enable"
        }
      },
      "isMarine(uint256)": {
        "params": {
          "tokenId": "the ID of the token to check"
        },
        "returns": {
          "_0": "marine - whether or not a token is a Marines"
        }
      },
      "name()": {
        "details": "See {IERC721Metadata-name}."
      },
      "owner()": {
        "details": "Returns the address of the current owner."
      },
      "paused()": {
        "details": "Returns true if the contract is paused, and false otherwise."
      },
      "removeAdmin(address)": {
        "params": {
          "addr": "the address to disbale"
        }
      },
      "renounceOwnership()": {
        "details": "Leaves the contract without owner. It will not be possible to call `onlyOwner` functions anymore. Can only be called by the current owner. NOTE: Renouncing ownership will leave the contract without an owner, thereby removing any functionality that is only available to the owner."
      },
      "resetCoolDown(uint256[])": {
        "params": {
          "tokenIds": "- The token ids what you're going to reset"
        }
      },
      "supportsInterface(bytes4)": {
        "details": "See {IERC165-supportsInterface}."
      },
      "symbol()": {
        "details": "See {IERC721Metadata-symbol}."
      },
      "tokenURI(uint256)": {
        "details": "See {IERC721Metadata-tokenURI}."
      },
      "totalSupply()": {
        "details": "See {IERC721Enumerable-totalSupply}."
      },
      "transferOwnership(address)": {
        "details": "Transfers ownership of the contract to a new account (`newOwner`). Can only be called by the current owner."
      },
      "upgradeLevel(uint256[])": {
        "params": {
          "tokenIds": "- The token ids what you're going to upgrade"
        }
      }
    },
    "version": 1
  },
  "userdoc": {
    "kind": "user",
    "methods": {
      "addAdmin(address)": {
        "notice": "enables an address to mint / burn"
      },
      "burn(uint256)": {
        "notice": "Burn a token - any game logic should be handled before this function."
      },
      "claimTokens(uint256[])": {
        "notice": "Claims the MnAv2 tokens by burning some MnAv2 tokens. Used to avoid estimateGas failure"
      },
      "isMarine(uint256)": {
        "notice": "checks if a token is a Marines"
      },
      "klayeTokenForCoolDown(uint256)": {
        "notice": "Gets the number of $KLAYE tokens for the specific level"
      },
      "oresTokenForLevel(uint256)": {
        "notice": "Gets the number of $ORES tokens for the specific level"
      },
      "removeAdmin(address)": {
        "notice": "disables an address from minting / burning"
      },
      "resetCoolDown(uint256[])": {
        "notice": "Resets cooldown time to upgrade immediately."
      },
      "setPaused(bool)": {
        "notice": "enables owner to pause / unpause minting"
      },
      "upgradeLevel(uint256[])": {
        "notice": "Upgrades current level upto next one. $ORES token is required to do."
      }
    },
    "version": 1
  },
  "storageLayout": {
    "storage": [
      {
        "astId": 3404,
        "contract": "contracts/MnAv2.sol:MnAv2",
        "label": "_name",
        "offset": 0,
        "slot": "0",
        "type": "t_string_storage"
      },
      {
        "astId": 3406,
        "contract": "contracts/MnAv2.sol:MnAv2",
        "label": "_symbol",
        "offset": 0,
        "slot": "1",
        "type": "t_string_storage"
      },
      {
        "astId": 3410,
        "contract": "contracts/MnAv2.sol:MnAv2",
        "label": "_owners",
        "offset": 0,
        "slot": "2",
        "type": "t_mapping(t_uint256,t_address)"
      },
      {
        "astId": 3414,
        "contract": "contracts/MnAv2.sol:MnAv2",
        "label": "_balances",
        "offset": 0,
        "slot": "3",
        "type": "t_mapping(t_address,t_uint256)"
      },
      {
        "astId": 3418,
        "contract": "contracts/MnAv2.sol:MnAv2",
        "label": "_tokenApprovals",
        "offset": 0,
        "slot": "4",
        "type": "t_mapping(t_uint256,t_address)"
      },
      {
        "astId": 3424,
        "contract": "contracts/MnAv2.sol:MnAv2",
        "label": "_operatorApprovals",
        "offset": 0,
        "slot": "5",
        "type": "t_mapping(t_address,t_mapping(t_address,t_bool))"
      },
      {
        "astId": 4358,
        "contract": "contracts/MnAv2.sol:MnAv2",
        "label": "_ownedTokens",
        "offset": 0,
        "slot": "6",
        "type": "t_mapping(t_address,t_mapping(t_uint256,t_uint256))"
      },
      {
        "astId": 4362,
        "contract": "contracts/MnAv2.sol:MnAv2",
        "label": "_ownedTokensIndex",
        "offset": 0,
        "slot": "7",
        "type": "t_mapping(t_uint256,t_uint256)"
      },
      {
        "astId": 4365,
        "contract": "contracts/MnAv2.sol:MnAv2",
        "label": "_allTokens",
        "offset": 0,
        "slot": "8",
        "type": "t_array(t_uint256)dyn_storage"
      },
      {
        "astId": 4369,
        "contract": "contracts/MnAv2.sol:MnAv2",
        "label": "_allTokensIndex",
        "offset": 0,
        "slot": "9",
        "type": "t_mapping(t_uint256,t_uint256)"
      },
      {
        "astId": 1512,
        "contract": "contracts/MnAv2.sol:MnAv2",
        "label": "_owner",
        "offset": 0,
        "slot": "10",
        "type": "t_address"
      },
      {
        "astId": 2391,
        "contract": "contracts/MnAv2.sol:MnAv2",
        "label": "_paused",
        "offset": 20,
        "slot": "10",
        "type": "t_bool"
      },
      {
        "astId": 10444,
        "contract": "contracts/MnAv2.sol:MnAv2",
        "label": "minted",
        "offset": 21,
        "slot": "10",
        "type": "t_uint16"
      },
      {
        "astId": 10447,
        "contract": "contracts/MnAv2.sol:MnAv2",
        "label": "MAX_LEVEL",
        "offset": 0,
        "slot": "11",
        "type": "t_uint256"
      },
      {
        "astId": 10451,
        "contract": "contracts/MnAv2.sol:MnAv2",
        "label": "tokenLevels",
        "offset": 0,
        "slot": "12",
        "type": "t_mapping(t_uint256,t_uint256)"
      },
      {
        "astId": 10456,
        "contract": "contracts/MnAv2.sol:MnAv2",
        "label": "upgradeEpoches",
        "offset": 0,
        "slot": "13",
        "type": "t_mapping(t_uint256,t_struct(UpgradeEpoch)10433_storage)"
      },
      {
        "astId": 10461,
        "contract": "contracts/MnAv2.sol:MnAv2",
        "label": "tokenTraits",
        "offset": 0,
        "slot": "14",
        "type": "t_mapping(t_uint256,t_struct(MarineAlien)17740_storage)"
      },
      {
        "astId": 10465,
        "contract": "contracts/MnAv2.sol:MnAv2",
        "label": "existingCombinations",
        "offset": 0,
        "slot": "15",
        "type": "t_mapping(t_uint256,t_uint256)"
      },
      {
        "astId": 10470,
        "contract": "contracts/MnAv2.sol:MnAv2",
        "label": "lastWriteAddress",
        "offset": 0,
        "slot": "16",
        "type": "t_mapping(t_address,t_struct(LastWrite)10428_storage)"
      },
      {
        "astId": 10475,
        "contract": "contracts/MnAv2.sol:MnAv2",
        "label": "lastWriteToken",
        "offset": 0,
        "slot": "17",
        "type": "t_mapping(t_uint256,t_struct(LastWrite)10428_storage)"
      },
      {
        "astId": 10478,
        "contract": "contracts/MnAv2.sol:MnAv2",
        "label": "DEAD_ADDRESS",
        "offset": 0,
        "slot": "18",
        "type": "t_address"
      },
      {
        "astId": 10481,
        "contract": "contracts/MnAv2.sol:MnAv2",
        "label": "traits",
        "offset": 0,
        "slot": "19",
        "type": "t_contract(ITraits)17940"
      },
      {
        "astId": 10484,
        "contract": "contracts/MnAv2.sol:MnAv2",
        "label": "mnaV1",
        "offset": 0,
        "slot": "20",
        "type": "t_contract(IMnA)17796"
      },
      {
        "astId": 10487,
        "contract": "contracts/MnAv2.sol:MnAv2",
        "label": "ores",
        "offset": 0,
        "slot": "21",
        "type": "t_contract(IORES)17889"
      },
      {
        "astId": 10490,
        "contract": "contracts/MnAv2.sol:MnAv2",
        "label": "klaye",
        "offset": 0,
        "slot": "22",
        "type": "t_contract(IERC20)3129"
      },
      {
        "astId": 10493,
        "contract": "contracts/MnAv2.sol:MnAv2",
        "label": "levelMath",
        "offset": 0,
        "slot": "23",
        "type": "t_contract(ILevelMath)17708"
      },
      {
        "astId": 10497,
        "contract": "contracts/MnAv2.sol:MnAv2",
        "label": "admins",
        "offset": 0,
        "slot": "24",
        "type": "t_mapping(t_address,t_bool)"
      }
    ],
    "types": {
      "t_address": {
        "encoding": "inplace",
        "label": "address",
        "numberOfBytes": "20"
      },
      "t_array(t_uint256)dyn_storage": {
        "base": "t_uint256",
        "encoding": "dynamic_array",
        "label": "uint256[]",
        "numberOfBytes": "32"
      },
      "t_bool": {
        "encoding": "inplace",
        "label": "bool",
        "numberOfBytes": "1"
      },
      "t_contract(IERC20)3129": {
        "encoding": "inplace",
        "label": "contract IERC20",
        "numberOfBytes": "20"
      },
      "t_contract(ILevelMath)17708": {
        "encoding": "inplace",
        "label": "contract ILevelMath",
        "numberOfBytes": "20"
      },
      "t_contract(IMnA)17796": {
        "encoding": "inplace",
        "label": "contract IMnA",
        "numberOfBytes": "20"
      },
      "t_contract(IORES)17889": {
        "encoding": "inplace",
        "label": "contract IORES",
        "numberOfBytes": "20"
      },
      "t_contract(ITraits)17940": {
        "encoding": "inplace",
        "label": "contract ITraits",
        "numberOfBytes": "20"
      },
      "t_mapping(t_address,t_bool)": {
        "encoding": "mapping",
        "key": "t_address",
        "label": "mapping(address => bool)",
        "numberOfBytes": "32",
        "value": "t_bool"
      },
      "t_mapping(t_address,t_mapping(t_address,t_bool))": {
        "encoding": "mapping",
        "key": "t_address",
        "label": "mapping(address => mapping(address => bool))",
        "numberOfBytes": "32",
        "value": "t_mapping(t_address,t_bool)"
      },
      "t_mapping(t_address,t_mapping(t_uint256,t_uint256))": {
        "encoding": "mapping",
        "key": "t_address",
        "label": "mapping(address => mapping(uint256 => uint256))",
        "numberOfBytes": "32",
        "value": "t_mapping(t_uint256,t_uint256)"
      },
      "t_mapping(t_address,t_struct(LastWrite)10428_storage)": {
        "encoding": "mapping",
        "key": "t_address",
        "label": "mapping(address => struct MnAv2.LastWrite)",
        "numberOfBytes": "32",
        "value": "t_struct(LastWrite)10428_storage"
      },
      "t_mapping(t_address,t_uint256)": {
        "encoding": "mapping",
        "key": "t_address",
        "label": "mapping(address => uint256)",
        "numberOfBytes": "32",
        "value": "t_uint256"
      },
      "t_mapping(t_uint256,t_address)": {
        "encoding": "mapping",
        "key": "t_uint256",
        "label": "mapping(uint256 => address)",
        "numberOfBytes": "32",
        "value": "t_address"
      },
      "t_mapping(t_uint256,t_struct(LastWrite)10428_storage)": {
        "encoding": "mapping",
        "key": "t_uint256",
        "label": "mapping(uint256 => struct MnAv2.LastWrite)",
        "numberOfBytes": "32",
        "value": "t_struct(LastWrite)10428_storage"
      },
      "t_mapping(t_uint256,t_struct(MarineAlien)17740_storage)": {
        "encoding": "mapping",
        "key": "t_uint256",
        "label": "mapping(uint256 => struct IMnA.MarineAlien)",
        "numberOfBytes": "32",
        "value": "t_struct(MarineAlien)17740_storage"
      },
      "t_mapping(t_uint256,t_struct(UpgradeEpoch)10433_storage)": {
        "encoding": "mapping",
        "key": "t_uint256",
        "label": "mapping(uint256 => struct MnAv2.UpgradeEpoch)",
        "numberOfBytes": "32",
        "value": "t_struct(UpgradeEpoch)10433_storage"
      },
      "t_mapping(t_uint256,t_uint256)": {
        "encoding": "mapping",
        "key": "t_uint256",
        "label": "mapping(uint256 => uint256)",
        "numberOfBytes": "32",
        "value": "t_uint256"
      },
      "t_string_storage": {
        "encoding": "bytes",
        "label": "string",
        "numberOfBytes": "32"
      },
      "t_struct(LastWrite)10428_storage": {
        "encoding": "inplace",
        "label": "struct MnAv2.LastWrite",
        "members": [
          {
            "astId": 10425,
            "contract": "contracts/MnAv2.sol:MnAv2",
            "label": "time",
            "offset": 0,
            "slot": "0",
            "type": "t_uint64"
          },
          {
            "astId": 10427,
            "contract": "contracts/MnAv2.sol:MnAv2",
            "label": "blockNum",
            "offset": 8,
            "slot": "0",
            "type": "t_uint64"
          }
        ],
        "numberOfBytes": "32"
      },
      "t_struct(MarineAlien)17740_storage": {
        "encoding": "inplace",
        "label": "struct IMnA.MarineAlien",
        "members": [
          {
            "astId": 17715,
            "contract": "contracts/MnAv2.sol:MnAv2",
            "label": "isMarine",
            "offset": 0,
            "slot": "0",
            "type": "t_bool"
          },
          {
            "astId": 17717,
            "contract": "contracts/MnAv2.sol:MnAv2",
            "label": "M_Weapon",
            "offset": 1,
            "slot": "0",
            "type": "t_uint8"
          },
          {
            "astId": 17719,
            "contract": "contracts/MnAv2.sol:MnAv2",
            "label": "M_Back",
            "offset": 2,
            "slot": "0",
            "type": "t_uint8"
          },
          {
            "astId": 17721,
            "contract": "contracts/MnAv2.sol:MnAv2",
            "label": "M_Headgear",
            "offset": 3,
            "slot": "0",
            "type": "t_uint8"
          },
          {
            "astId": 17723,
            "contract": "contracts/MnAv2.sol:MnAv2",
            "label": "M_Eyes",
            "offset": 4,
            "slot": "0",
            "type": "t_uint8"
          },
          {
            "astId": 17725,
            "contract": "contracts/MnAv2.sol:MnAv2",
            "label": "M_Emblem",
            "offset": 5,
            "slot": "0",
            "type": "t_uint8"
          },
          {
            "astId": 17727,
            "contract": "contracts/MnAv2.sol:MnAv2",
            "label": "M_Body",
            "offset": 6,
            "slot": "0",
            "type": "t_uint8"
          },
          {
            "astId": 17729,
            "contract": "contracts/MnAv2.sol:MnAv2",
            "label": "A_Headgear",
            "offset": 7,
            "slot": "0",
            "type": "t_uint8"
          },
          {
            "astId": 17731,
            "contract": "contracts/MnAv2.sol:MnAv2",
            "label": "A_Eye",
            "offset": 8,
            "slot": "0",
            "type": "t_uint8"
          },
          {
            "astId": 17733,
            "contract": "contracts/MnAv2.sol:MnAv2",
            "label": "A_Back",
            "offset": 9,
            "slot": "0",
            "type": "t_uint8"
          },
          {
            "astId": 17735,
            "contract": "contracts/MnAv2.sol:MnAv2",
            "label": "A_Mouth",
            "offset": 10,
            "slot": "0",
            "type": "t_uint8"
          },
          {
            "astId": 17737,
            "contract": "contracts/MnAv2.sol:MnAv2",
            "label": "A_Body",
            "offset": 11,
            "slot": "0",
            "type": "t_uint8"
          },
          {
            "astId": 17739,
            "contract": "contracts/MnAv2.sol:MnAv2",
            "label": "rankIndex",
            "offset": 12,
            "slot": "0",
            "type": "t_uint8"
          }
        ],
        "numberOfBytes": "32"
      },
      "t_struct(UpgradeEpoch)10433_storage": {
        "encoding": "inplace",
        "label": "struct MnAv2.UpgradeEpoch",
        "members": [
          {
            "astId": 10430,
            "contract": "contracts/MnAv2.sol:MnAv2",
            "label": "skipped",
            "offset": 0,
            "slot": "0",
            "type": "t_bool"
          },
          {
            "astId": 10432,
            "contract": "contracts/MnAv2.sol:MnAv2",
            "label": "lastUpdate",
            "offset": 0,
            "slot": "1",
            "type": "t_uint256"
          }
        ],
        "numberOfBytes": "64"
      },
      "t_uint16": {
        "encoding": "inplace",
        "label": "uint16",
        "numberOfBytes": "2"
      },
      "t_uint256": {
        "encoding": "inplace",
        "label": "uint256",
        "numberOfBytes": "32"
      },
      "t_uint64": {
        "encoding": "inplace",
        "label": "uint64",
        "numberOfBytes": "8"
      },
      "t_uint8": {
        "encoding": "inplace",
        "label": "uint8",
        "numberOfBytes": "1"
      }
    }
  }
}