{
  "address": "0x9C0DFAeb1fA23cBB657e0D4e499214933BDAf2d2",
  "abi": [
    {
      "inputs": [
        {
          "internalType": "address",
          "name": "_vrfCoordinator",
          "type": "address"
        },
        {
          "internalType": "address",
          "name": "_linkToken",
          "type": "address"
        },
        {
          "internalType": "bytes32",
          "name": "_keyHash",
          "type": "bytes32"
        },
        {
          "internalType": "uint256",
          "name": "_fee",
          "type": "uint256"
        }
      ],
      "stateMutability": "nonpayable",
      "type": "constructor"
    },
    {
      "anonymous": false,
      "inputs": [
        {
          "indexed": true,
          "internalType": "address",
          "name": "previousOwner",
          "type": "address"
        },
        {
          "indexed": true,
          "internalType": "address",
          "name": "newOwner",
          "type": "address"
        }
      ],
      "name": "OwnershipTransferred",
      "type": "event"
    },
    {
      "inputs": [
        {
          "internalType": "address",
          "name": "",
          "type": "address"
        }
      ],
      "name": "admins",
      "outputs": [
        {
          "internalType": "bool",
          "name": "",
          "type": "bool"
        }
      ],
      "stateMutability": "view",
      "type": "function"
    },
    {
      "inputs": [],
      "name": "getRandomNumber",
      "outputs": [
        {
          "internalType": "bytes32",
          "name": "requestId",
          "type": "bytes32"
        }
      ],
      "stateMutability": "nonpayable",
      "type": "function"
    },
    {
      "inputs": [],
      "name": "owner",
      "outputs": [
        {
          "internalType": "address",
          "name": "",
          "type": "address"
        }
      ],
      "stateMutability": "view",
      "type": "function"
    },
    {
      "inputs": [],
      "name": "random",
      "outputs": [
        {
          "internalType": "uint256",
          "name": "",
          "type": "uint256"
        }
      ],
      "stateMutability": "view",
      "type": "function"
    },
    {
      "inputs": [],
      "name": "randomSeed",
      "outputs": [
        {
          "internalType": "uint256",
          "name": "",
          "type": "uint256"
        }
      ],
      "stateMutability": "view",
      "type": "function"
    },
    {
      "inputs": [
        {
          "internalType": "bytes32",
          "name": "requestId",
          "type": "bytes32"
        },
        {
          "internalType": "uint256",
          "name": "randomness",
          "type": "uint256"
        }
      ],
      "name": "rawFulfillRandomness",
      "outputs": [],
      "stateMutability": "nonpayable",
      "type": "function"
    },
    {
      "inputs": [],
      "name": "renounceOwnership",
      "outputs": [],
      "stateMutability": "nonpayable",
      "type": "function"
    },
    {
      "inputs": [
        {
          "internalType": "address",
          "name": "_account",
          "type": "address"
        },
        {
          "internalType": "bool",
          "name": "_isAdmin",
          "type": "bool"
        }
      ],
      "name": "setAdmin",
      "outputs": [],
      "stateMutability": "nonpayable",
      "type": "function"
    },
    {
      "inputs": [
        {
          "internalType": "address",
          "name": "newOwner",
          "type": "address"
        }
      ],
      "name": "transferOwnership",
      "outputs": [],
      "stateMutability": "nonpayable",
      "type": "function"
    },
    {
      "inputs": [
        {
          "internalType": "address",
          "name": "recipient",
          "type": "address"
        },
        {
          "internalType": "address",
          "name": "token",
          "type": "address"
        }
      ],
      "name": "withdrawToken",
      "outputs": [],
      "stateMutability": "nonpayable",
      "type": "function"
    }
  ],
  "transactionHash": "0xcc9c6481ade2ed31d050a8a883c66e576d78dbc40c2c032c8333a00a8bbc7d93",
  "args": [
    "0x3d2341ADb2D31f1c5530cDC622016af293177AE0",
    "0xb0897686c545045aFc77CF20eC7A532E3120E0F1",
    "0xf86195cf7690c55907b2b611ebb7343a6f649bff128701cc542f0569e2c549da",
    "100000000000000"
  ],
  "numDeployments": 1,
  "solcInputHash": "7354d954f29f47ad766df9276eaec7fa",
  "bytecode": "0x60c060405234801561001057600080fd5b50604051610b76380380610b7683398101604081905261002f916100f0565b6001600160601b0319606085811b821660a05284901b166080526100586100533390565b610082565b6002919091556003555050336000908152600560205260409020805460ff19166001179055610132565b600180546001600160a01b038381166001600160a01b0319831681179093556040519116919082907f8be0079c531659141344cd1fd0a4f28419497f9722a3daafe3b4186f6b6457e090600090a35050565b80516001600160a01b03811681146100eb57600080fd5b919050565b60008060008060808587031215610105578384fd5b61010e856100d4565b935061011c602086016100d4565b6040860151606090960151949790965092505050565b60805160601c60a05160601c610a0b61016b600039600081816103b301526106b401526000818161049d01526106850152610a0b6000f3fe608060405234801561001057600080fd5b506004361061009e5760003560e01c8063715018a611610066578063715018a6146101225780638da5cb5b1461012a57806394985ddd14610145578063dbdff2c114610158578063f2fde38b146101605761009e565b80630b747d91146100a35780633aeac4e1146100bf578063429b62e5146100d45780634b0bddd2146101075780635ec01e4d1461011a575b600080fd5b6100ac60045481565b6040519081526020015b60405180910390f35b6100d26100cd366004610847565b610173565b005b6100f76100e2366004610826565b60056020526000908152604090205460ff1681565b60405190151581526020016100b6565b6100d2610115366004610879565b6102aa565b6100ac6102ff565b6100d2610372565b6001546040516001600160a01b0390911681526020016100b6565b6100d26101533660046108cb565b6103a8565b6100ac610426565b6100d261016e366004610826565b610594565b6001546001600160a01b031633146101a65760405162461bcd60e51b815260040161019d9061096e565b60405180910390fd5b6040516370a0823160e01b81523060048201526001600160a01b0382169063a9059cbb90849083906370a082319060240160206040518083038186803b1580156101ef57600080fd5b505afa158015610203573d6000803e3d6000fd5b505050506040513d601f19601f8201168201806040525081019061022791906108ec565b6040516001600160e01b031960e085901b1681526001600160a01b0390921660048301526024820152604401602060405180830381600087803b15801561026d57600080fd5b505af1158015610281573d6000803e3d6000fd5b505050506040513d601f19601f820116820180604052508101906102a591906108af565b505050565b6001546001600160a01b031633146102d45760405162461bcd60e51b815260040161019d9061096e565b6001600160a01b03919091166000908152600560205260409020805460ff1916911515919091179055565b6000600454600014156103435760405162461bcd60e51b815260206004820152600c60248201526b125b9d985b1a59081cd9595960a21b604482015260640161019d565b506004546040805160208082019390935242818301528151808203830181526060909101909152805191012090565b6001546001600160a01b0316331461039c5760405162461bcd60e51b815260040161019d9061096e565b6103a6600061062f565b565b336001600160a01b037f000000000000000000000000000000000000000000000000000000000000000016146104205760405162461bcd60e51b815260206004820152601f60248201527f4f6e6c7920565246436f6f7264696e61746f722063616e2066756c66696c6c00604482015260640161019d565b60045550565b3360009081526005602052604081205460ff166104855760405162461bcd60e51b815260206004820152601960248201527f6d73672e73656e6465722069736e277420616e2061646d696e00000000000000604482015260640161019d565b6003546040516370a0823160e01b81523060048201527f00000000000000000000000000000000000000000000000000000000000000006001600160a01b0316906370a082319060240160206040518083038186803b1580156104e757600080fd5b505afa1580156104fb573d6000803e3d6000fd5b505050506040513d601f19601f8201168201806040525081019061051f91906108ec565b10156105815760405162461bcd60e51b815260206004820152602b60248201527f4e6f7420656e6f756768204c494e4b202d2066696c6c20636f6e74726163742060448201526a1dda5d1a0819985d58d95d60aa1b606482015260840161019d565b61058f600254600354610681565b905090565b6001546001600160a01b031633146105be5760405162461bcd60e51b815260040161019d9061096e565b6001600160a01b0381166106235760405162461bcd60e51b815260206004820152602660248201527f4f776e61626c653a206e6577206f776e657220697320746865207a65726f206160448201526564647265737360d01b606482015260840161019d565b61062c8161062f565b50565b600180546001600160a01b038381166001600160a01b0319831681179093556040519116919082907f8be0079c531659141344cd1fd0a4f28419497f9722a3daafe3b4186f6b6457e090600090a35050565b60007f00000000000000000000000000000000000000000000000000000000000000006001600160a01b0316634000aea07f0000000000000000000000000000000000000000000000000000000000000000848660006040516020016106f1929190918252602082015260400190565b6040516020818303038152906040526040518463ffffffff1660e01b815260040161071e93929190610904565b602060405180830381600087803b15801561073857600080fd5b505af115801561074c573d6000803e3d6000fd5b505050506040513d601f19601f8201168201806040525081019061077091906108af565b5060008381526020818152604080832054815180840188905280830185905230606082015260808082018390528351808303909101815260a0909101909252815191830191909120868452929091526107ca9060016109a3565b6000858152602081815260409182902092909255805180830187905280820184905281518082038301815260609091019091528051910120949350505050565b80356001600160a01b038116811461082157600080fd5b919050565b600060208284031215610837578081fd5b6108408261080a565b9392505050565b60008060408385031215610859578081fd5b6108628361080a565b91506108706020840161080a565b90509250929050565b6000806040838503121561088b578182fd5b6108948361080a565b915060208301356108a4816109c7565b809150509250929050565b6000602082840312156108c0578081fd5b8151610840816109c7565b600080604083850312156108dd578182fd5b50508035926020909101359150565b6000602082840312156108fd578081fd5b5051919050565b600060018060a01b038516825260208481840152606060408401528351806060850152825b8181101561094557858101830151858201608001528201610929565b818111156109565783608083870101525b50601f01601f19169290920160800195945050505050565b6020808252818101527f4f776e61626c653a2063616c6c6572206973206e6f7420746865206f776e6572604082015260600190565b600082198211156109c257634e487b7160e01b81526011600452602481fd5b500190565b801515811461062c57600080fdfea2646970667358221220fed9d4b2ae6310981dd79b7a114c322795de375ac41653d3a1ff8382f9478dba64736f6c63430008020033",
  "devdoc": {
    "kind": "dev",
    "methods": {
      "owner()": {
        "details": "Returns the address of the current owner."
      },
      "renounceOwnership()": {
        "details": "Leaves the contract without owner. It will not be possible to call `onlyOwner` functions anymore. Can only be called by the current owner. NOTE: Renouncing ownership will leave the contract without an owner, thereby removing any functionality that is only available to the owner."
      },
      "transferOwnership(address)": {
        "details": "Transfers ownership of the contract to a new account (`newOwner`). Can only be called by the current owner."
      }
    },
    "version": 1
  },
  "userdoc": {
    "kind": "user",
    "methods": {
      "getRandomNumber()": {
        "notice": "Requests randomness "
      }
    },
    "version": 1
  },
  "storageLayout": {
    "storage": [
      {
        "astId": 79,
        "contract": "contracts/RandomSeedGenerator.sol:RandomSeedGenerator",
        "label": "nonces",
        "offset": 0,
        "slot": "0",
        "type": "t_mapping(t_bytes32,t_uint256)"
      },
      {
        "astId": 1512,
        "contract": "contracts/RandomSeedGenerator.sol:RandomSeedGenerator",
        "label": "_owner",
        "offset": 0,
        "slot": "1",
        "type": "t_address"
      },
      {
        "astId": 8966,
        "contract": "contracts/RandomSeedGenerator.sol:RandomSeedGenerator",
        "label": "keyHash",
        "offset": 0,
        "slot": "2",
        "type": "t_bytes32"
      },
      {
        "astId": 8968,
        "contract": "contracts/RandomSeedGenerator.sol:RandomSeedGenerator",
        "label": "fee",
        "offset": 0,
        "slot": "3",
        "type": "t_uint256"
      },
      {
        "astId": 8970,
        "contract": "contracts/RandomSeedGenerator.sol:RandomSeedGenerator",
        "label": "randomSeed",
        "offset": 0,
        "slot": "4",
        "type": "t_uint256"
      },
      {
        "astId": 8974,
        "contract": "contracts/RandomSeedGenerator.sol:RandomSeedGenerator",
        "label": "admins",
        "offset": 0,
        "slot": "5",
        "type": "t_mapping(t_address,t_bool)"
      }
    ],
    "types": {
      "t_address": {
        "encoding": "inplace",
        "label": "address",
        "numberOfBytes": "20"
      },
      "t_bool": {
        "encoding": "inplace",
        "label": "bool",
        "numberOfBytes": "1"
      },
      "t_bytes32": {
        "encoding": "inplace",
        "label": "bytes32",
        "numberOfBytes": "32"
      },
      "t_mapping(t_address,t_bool)": {
        "encoding": "mapping",
        "key": "t_address",
        "label": "mapping(address => bool)",
        "numberOfBytes": "32",
        "value": "t_bool"
      },
      "t_mapping(t_bytes32,t_uint256)": {
        "encoding": "mapping",
        "key": "t_bytes32",
        "label": "mapping(bytes32 => uint256)",
        "numberOfBytes": "32",
        "value": "t_uint256"
      },
      "t_uint256": {
        "encoding": "inplace",
        "label": "uint256",
        "numberOfBytes": "32"
      }
    }
  }
}