{
  "address": "0x3912c25f9030f17aCbB2525F7D9245d5EE3C60D8",
  "abi": [
    {
      "anonymous": false,
      "inputs": [
        {
          "indexed": false,
          "internalType": "address",
          "name": "previousAdmin",
          "type": "address"
        },
        {
          "indexed": false,
          "internalType": "address",
          "name": "newAdmin",
          "type": "address"
        }
      ],
      "name": "AdminChanged",
      "type": "event"
    },
    {
      "anonymous": false,
      "inputs": [
        {
          "indexed": true,
          "internalType": "uint256",
          "name": "tokenId",
          "type": "uint256"
        },
        {
          "indexed": true,
          "internalType": "bool",
          "name": "unstaked",
          "type": "bool"
        },
        {
          "indexed": false,
          "internalType": "uint256",
          "name": "earned",
          "type": "uint256"
        }
      ],
      "name": "AlienClaimed",
      "type": "event"
    },
    {
      "anonymous": false,
      "inputs": [
        {
          "indexed": true,
          "internalType": "address",
          "name": "beacon",
          "type": "address"
        }
      ],
      "name": "BeaconUpgraded",
      "type": "event"
    },
    {
      "anonymous": false,
      "inputs": [
        {
          "indexed": true,
          "internalType": "uint256",
          "name": "tokenId",
          "type": "uint256"
        },
        {
          "indexed": true,
          "internalType": "bool",
          "name": "unstaked",
          "type": "bool"
        },
        {
          "indexed": false,
          "internalType": "uint256",
          "name": "earned",
          "type": "uint256"
        }
      ],
      "name": "MarineClaimed",
      "type": "event"
    },
    {
      "anonymous": false,
      "inputs": [
        {
          "indexed": true,
          "internalType": "address",
          "name": "previousOwner",
          "type": "address"
        },
        {
          "indexed": true,
          "internalType": "address",
          "name": "newOwner",
          "type": "address"
        }
      ],
      "name": "OwnershipTransferred",
      "type": "event"
    },
    {
      "anonymous": false,
      "inputs": [
        {
          "indexed": false,
          "internalType": "address",
          "name": "account",
          "type": "address"
        }
      ],
      "name": "Paused",
      "type": "event"
    },
    {
      "anonymous": false,
      "inputs": [
        {
          "indexed": true,
          "internalType": "address",
          "name": "owner",
          "type": "address"
        },
        {
          "indexed": true,
          "internalType": "uint256",
          "name": "tokenId",
          "type": "uint256"
        },
        {
          "indexed": true,
          "internalType": "bool",
          "name": "isMarine",
          "type": "bool"
        },
        {
          "indexed": false,
          "internalType": "uint256",
          "name": "value",
          "type": "uint256"
        }
      ],
      "name": "TokenStaked",
      "type": "event"
    },
    {
      "anonymous": false,
      "inputs": [
        {
          "indexed": false,
          "internalType": "address",
          "name": "account",
          "type": "address"
        }
      ],
      "name": "Unpaused",
      "type": "event"
    },
    {
      "anonymous": false,
      "inputs": [
        {
          "indexed": true,
          "internalType": "address",
          "name": "implementation",
          "type": "address"
        }
      ],
      "name": "Upgraded",
      "type": "event"
    },
    {
      "inputs": [],
      "name": "DAILY_ORES_RATE",
      "outputs": [
        {
          "internalType": "uint256",
          "name": "",
          "type": "uint256"
        }
      ],
      "stateMutability": "view",
      "type": "function"
    },
    {
      "inputs": [],
      "name": "MAXIMUM_GLOBAL_ORES",
      "outputs": [
        {
          "internalType": "uint256",
          "name": "",
          "type": "uint256"
        }
      ],
      "stateMutability": "view",
      "type": "function"
    },
    {
      "inputs": [],
      "name": "MAX_RANK",
      "outputs": [
        {
          "internalType": "uint8",
          "name": "",
          "type": "uint8"
        }
      ],
      "stateMutability": "view",
      "type": "function"
    },
    {
      "inputs": [],
      "name": "MINIMUM_TO_EXIT",
      "outputs": [
        {
          "internalType": "uint256",
          "name": "",
          "type": "uint256"
        }
      ],
      "stateMutability": "view",
      "type": "function"
    },
    {
      "inputs": [],
      "name": "ORES_CLAIM_TAX_PERCENTAGE",
      "outputs": [
        {
          "internalType": "uint256",
          "name": "",
          "type": "uint256"
        }
      ],
      "stateMutability": "view",
      "type": "function"
    },
    {
      "inputs": [
        {
          "internalType": "address",
          "name": "account",
          "type": "address"
        },
        {
          "internalType": "uint16[]",
          "name": "tokenIds",
          "type": "uint16[]"
        }
      ],
      "name": "addManyToMarinePoolAndAlienPool",
      "outputs": [],
      "stateMutability": "nonpayable",
      "type": "function"
    },
    {
      "inputs": [
        {
          "internalType": "uint256",
          "name": "tokenId",
          "type": "uint256"
        }
      ],
      "name": "calculateRewards",
      "outputs": [
        {
          "internalType": "uint256",
          "name": "owed",
          "type": "uint256"
        }
      ],
      "stateMutability": "view",
      "type": "function"
    },
    {
      "inputs": [
        {
          "internalType": "uint16[]",
          "name": "tokenIds",
          "type": "uint16[]"
        },
        {
          "internalType": "bool",
          "name": "unstake",
          "type": "bool"
        }
      ],
      "name": "claimManyFromMarinePoolAndAlienPool",
      "outputs": [],
      "stateMutability": "nonpayable",
      "type": "function"
    },
    {
      "inputs": [],
      "name": "initialize",
      "outputs": [],
      "stateMutability": "nonpayable",
      "type": "function"
    },
    {
      "inputs": [],
      "name": "mnaGame",
      "outputs": [
        {
          "internalType": "contract IMnAGame",
          "name": "",
          "type": "address"
        }
      ],
      "stateMutability": "view",
      "type": "function"
    },
    {
      "inputs": [],
      "name": "mnaNFT",
      "outputs": [
        {
          "internalType": "contract IMnA",
          "name": "",
          "type": "address"
        }
      ],
      "stateMutability": "view",
      "type": "function"
    },
    {
      "inputs": [
        {
          "internalType": "address",
          "name": "",
          "type": "address"
        },
        {
          "internalType": "address",
          "name": "from",
          "type": "address"
        },
        {
          "internalType": "uint256",
          "name": "",
          "type": "uint256"
        },
        {
          "internalType": "bytes",
          "name": "",
          "type": "bytes"
        }
      ],
      "name": "onERC721Received",
      "outputs": [
        {
          "internalType": "bytes4",
          "name": "",
          "type": "bytes4"
        }
      ],
      "stateMutability": "pure",
      "type": "function"
    },
    {
      "inputs": [],
      "name": "oresToken",
      "outputs": [
        {
          "internalType": "contract IORES",
          "name": "",
          "type": "address"
        }
      ],
      "stateMutability": "view",
      "type": "function"
    },
    {
      "inputs": [],
      "name": "owner",
      "outputs": [
        {
          "internalType": "address",
          "name": "",
          "type": "address"
        }
      ],
      "stateMutability": "view",
      "type": "function"
    },
    {
      "inputs": [],
      "name": "paused",
      "outputs": [
        {
          "internalType": "bool",
          "name": "",
          "type": "bool"
        }
      ],
      "stateMutability": "view",
      "type": "function"
    },
    {
      "inputs": [
        {
          "internalType": "uint256",
          "name": "seed",
          "type": "uint256"
        }
      ],
      "name": "randomAlienOwner",
      "outputs": [
        {
          "internalType": "address",
          "name": "",
          "type": "address"
        }
      ],
      "stateMutability": "view",
      "type": "function"
    },
    {
      "inputs": [],
      "name": "randomSeedGenerator",
      "outputs": [
        {
          "internalType": "contract IRandomSeedGenerator",
          "name": "",
          "type": "address"
        }
      ],
      "stateMutability": "view",
      "type": "function"
    },
    {
      "inputs": [],
      "name": "renounceOwnership",
      "outputs": [],
      "stateMutability": "nonpayable",
      "type": "function"
    },
    {
      "inputs": [
        {
          "internalType": "uint256[]",
          "name": "tokenIds",
          "type": "uint256[]"
        }
      ],
      "name": "rescue",
      "outputs": [],
      "stateMutability": "nonpayable",
      "type": "function"
    },
    {
      "inputs": [],
      "name": "rescueEnabled",
      "outputs": [
        {
          "internalType": "bool",
          "name": "",
          "type": "bool"
        }
      ],
      "stateMutability": "view",
      "type": "function"
    },
    {
      "inputs": [
        {
          "internalType": "address",
          "name": "_mnaNFT",
          "type": "address"
        },
        {
          "internalType": "address",
          "name": "_ores",
          "type": "address"
        },
        {
          "internalType": "address",
          "name": "_mnaGame",
          "type": "address"
        },
        {
          "internalType": "address",
          "name": "_rand",
          "type": "address"
        }
      ],
      "name": "setContracts",
      "outputs": [],
      "stateMutability": "nonpayable",
      "type": "function"
    },
    {
      "inputs": [
        {
          "internalType": "bool",
          "name": "_paused",
          "type": "bool"
        }
      ],
      "name": "setPaused",
      "outputs": [],
      "stateMutability": "nonpayable",
      "type": "function"
    },
    {
      "inputs": [
        {
          "internalType": "bool",
          "name": "_enabled",
          "type": "bool"
        }
      ],
      "name": "setRescueEnabled",
      "outputs": [],
      "stateMutability": "nonpayable",
      "type": "function"
    },
    {
      "inputs": [
        {
          "internalType": "uint256",
          "name": "typeId",
          "type": "uint256"
        }
      ],
      "name": "setTreasureChestId",
      "outputs": [],
      "stateMutability": "nonpayable",
      "type": "function"
    },
    {
      "inputs": [],
      "name": "totalORESEarned",
      "outputs": [
        {
          "internalType": "uint256",
          "name": "",
          "type": "uint256"
        }
      ],
      "stateMutability": "view",
      "type": "function"
    },
    {
      "inputs": [
        {
          "internalType": "address",
          "name": "newOwner",
          "type": "address"
        }
      ],
      "name": "transferOwnership",
      "outputs": [],
      "stateMutability": "nonpayable",
      "type": "function"
    },
    {
      "inputs": [],
      "name": "treasureChestTypeId",
      "outputs": [
        {
          "internalType": "uint256",
          "name": "",
          "type": "uint256"
        }
      ],
      "stateMutability": "view",
      "type": "function"
    },
    {
      "inputs": [
        {
          "internalType": "address",
          "name": "newImplementation",
          "type": "address"
        }
      ],
      "name": "upgradeTo",
      "outputs": [],
      "stateMutability": "nonpayable",
      "type": "function"
    },
    {
      "inputs": [
        {
          "internalType": "address",
          "name": "newImplementation",
          "type": "address"
        },
        {
          "internalType": "bytes",
          "name": "data",
          "type": "bytes"
        }
      ],
      "name": "upgradeToAndCall",
      "outputs": [],
      "stateMutability": "payable",
      "type": "function"
    }
  ],
  "numDeployments": 6,
  "solcInputHash": "2071a5e2b3f22f82aa54d485564d0902",
  "bytecode": "0x60a06040523060601b60805234801561001757600080fd5b5060805160601c613ae361004b60003960008181610a9201528181610ad201528181610b580152610b980152613ae36000f3fe6080604052600436106101c25760003560e01c80636a3ef057116100f7578063bf989b6e11610095578063e74c6bb511610064578063e74c6bb514610500578063ed57ad2414610517578063f2fde38b14610537578063fd04f5e214610557576101c2565b8063bf989b6e1461047f578063c379360a1461049f578063c8367feb146104c0578063d3ea4350146104e0576101c2565b80638129fc1c116100d15780638129fc1c146104045780638da5cb5b146104195780639e3bcb8d14610437578063bd3fae821461045e576101c2565b80636a3ef057146103af578063715018a6146103cf57806376531008146103e4576101c2565b806337a386b9116101645780634f1ef2861161013e5780634f1ef286146103455780634f986b3314610358578063533d3cd1146103795780635c975abb14610397576101c2565b806337a386b9146102ee57806338cb7e241461030557806339db714f1461031a576101c2565b806316c38b3c116101a057806316c38b3c146102555780631f4fb37a14610275578063357bad8c146102955780633659cfe6146102ce576101c2565b806307d31261146101c75780630a4493bd146101e9578063150b7a021461021c575b600080fd5b3480156101d357600080fd5b506101e76101e23660046134c9565b61056e565b005b3480156101f557600080fd5b506102096b06765c793fa10079d000000081565b6040519081526020015b60405180910390f35b34801561022857600080fd5b5061023c61023736600461333a565b610905565b6040516001600160e01b03199091168152602001610213565b34801561026157600080fd5b506101e761027036600461355e565b61097b565b34801561028157600080fd5b506101e76102903660046136b9565b610a57565b3480156102a157600080fd5b5061012f546102b6906001600160a01b031681565b6040516001600160a01b039091168152602001610213565b3480156102da57600080fd5b506101e76102e93660046132a7565b610a87565b3480156102fa57600080fd5b506102096202a30081565b34801561031157600080fd5b50610209601481565b34801561032657600080fd5b5061013b546103359060ff1681565b6040519015158152602001610213565b6101e7610353366004613427565b610b4d565b34801561036457600080fd5b50610132546102b6906001600160a01b031681565b34801561038557600080fd5b5061020969021e19e0c9bab240000081565b3480156103a357600080fd5b5060fb5460ff16610335565b3480156103bb57600080fd5b506101e76103ca36600461351e565b610c07565b3480156103db57600080fd5b506101e76112d6565b3480156103f057600080fd5b506101e76103ff36600461355e565b61130c565b34801561041057600080fd5b506101e761134a565b34801561042557600080fd5b506097546001600160a01b03166102b6565b34801561044357600080fd5b5061044c600481565b60405160ff9091168152602001610213565b34801561046a57600080fd5b50610131546102b6906001600160a01b031681565b34801561048b57600080fd5b506101e761049a3660046132df565b61142b565b3480156104ab57600080fd5b50610130546102b6906001600160a01b031681565b3480156104cc57600080fd5b506101e76104db3660046133d4565b6114a9565b3480156104ec57600080fd5b506102096104fb3660046136b9565b611919565b34801561050c57600080fd5b506102096101385481565b34801561052357600080fd5b506102b66105323660046136b9565b611c6e565b34801561054357600080fd5b506101e76105523660046132a7565b611d78565b34801561056357600080fd5b506102096101395481565b60fb5460ff161561059a5760405162461bcd60e51b81526004016105919061382b565b60405180910390fd5b6b06765c793fa10079d000000061013954101561060e576201518069021e19e0c9bab240000061012e5461013a54426105d39190613988565b6105dd9190613969565b6105e79190613969565b6105f19190613955565b6101396000828254610603919061393d565b90915550504261013a555b600260c95414156106315760405162461bcd60e51b8152600401610591906138d5565b600260c955323314806106585750610130546001600160a01b0316336001600160a01b0316145b61068f5760405162461bcd60e51b81526020600482015260086024820152674f6e6c7920454f4160c01b6044820152606401610591565b6000805b8381101561080d5761012f546001600160a01b0316634019bfc78686848181106106cd57634e487b7160e01b600052603260045260246000fd5b90506020020160208101906106e29190613697565b6040516001600160e01b031960e084901b16815261ffff909116600482015260240160206040518083038186803b15801561071c57600080fd5b505afa158015610730573d6000803e3d6000fd5b505050506040513d601f19601f82011682018060405250810190610754919061357a565b156107ac5761079b85858381811061077c57634e487b7160e01b600052603260045260246000fd5b90506020020160208101906107919190613697565b61ffff1684611e10565b6107a5908361393d565b91506107fb565b6107ee8585838181106107cf57634e487b7160e01b600052603260045260246000fd5b90506020020160208101906107e49190613697565b61ffff168461228e565b6107f8908361393d565b91505b80610805816139f2565b915050610693565b5061013160009054906101000a90046001600160a01b03166001600160a01b0316639c47ee3b6040518163ffffffff1660e01b8152600401600060405180830381600087803b15801561085f57600080fd5b505af1158015610873573d6000803e3d6000fd5b50505050806000141561088657506108fb565b610131546001600160a01b03166340c10f19336040516001600160e01b031960e084901b1681526001600160a01b03909116600482015260248101849052604401600060405180830381600087803b1580156108e157600080fd5b505af11580156108f5573d6000803e3d6000fd5b50505050505b5050600160c95550565b60006001600160a01b038516156109695760405162461bcd60e51b815260206004820152602260248201527f43616e6e6f742073656e6420746f204d6172696e65506f6f6c206469726563746044820152616c7960f01b6064820152608401610591565b50630a85bd0160e11b95945050505050565b61012f546001600160a01b0316158015906109a15750610131546001600160a01b031615155b80156109b85750610130546001600160a01b031615155b80156109cf5750610132546001600160a01b031615155b610a0f5760405162461bcd60e51b815260206004820152601160248201527010dbdb9d1c9858dd1cc81b9bdd081cd95d607a1b6044820152606401610591565b6097546001600160a01b03163314610a395760405162461bcd60e51b815260040161059190613855565b8015610a4c57610a476128d8565b610a54565b610a5461294d565b50565b6097546001600160a01b03163314610a815760405162461bcd60e51b815260040161059190613855565b61013855565b306001600160a01b037f0000000000000000000000000000000000000000000000000000000000000000161415610ad05760405162461bcd60e51b815260040161059190613793565b7f00000000000000000000000000000000000000000000000000000000000000006001600160a01b0316610b026129c7565b6001600160a01b031614610b285760405162461bcd60e51b8152600401610591906137df565b610b31816129f5565b60408051600080825260208201909252610a5491839190612a1f565b306001600160a01b037f0000000000000000000000000000000000000000000000000000000000000000161415610b965760405162461bcd60e51b815260040161059190613793565b7f00000000000000000000000000000000000000000000000000000000000000006001600160a01b0316610bc86129c7565b6001600160a01b031614610bee5760405162461bcd60e51b8152600401610591906137df565b610bf7826129f5565b610c0382826001612a1f565b5050565b600260c9541415610c2a5760405162461bcd60e51b8152600401610591906138d5565b600260c95561013b5460ff16610c745760405162461bcd60e51b815260206004820152600f60248201526e149154d0d55148111254d050931151608a1b6044820152606401610591565b60408051608081018252600080825260208201819052918101829052606081018290526040805160808101825260008082526020820181905291810182905260608101919091526000805b858110156112c857868682818110610ce757634e487b7160e01b600052603260045260246000fd5b61012f54604051634019bfc760e01b815260209290920293909301356004820181905297506001600160a01b0390921691634019bfc7915060240160206040518083038186803b158015610d3a57600080fd5b505afa158015610d4e573d6000803e3d6000fd5b505050506040513d601f19601f82011682018060405250810190610d72919061357a565b15610efd57600085815261013360209081526040918290208251608081018452815461ffff811682526001600160501b036201000082048116948301949094526001600160a01b03600160601b90910416938101849052600190910154909116606082015294503314610e1c5760405162461bcd60e51b81526020600482015260126024820152715357495045522c204e4f2053574950494e4760701b6044820152606401610591565b600085815261013360205260408120818155600190810180546001600160501b031916905561012e805491929091610e55908490613988565b909155505061012f546001600160a01b031663b88d4fde3033886040518463ffffffff1660e01b8152600401610e8d9392919061372d565b600060405180830381600087803b158015610ea757600080fd5b505af1158015610ebb573d6000803e3d6000fd5b505060405160008152600192508791507f9cb40271f339db1081126b3a1e1bd03e3a8258e076fd708dec87a021290adbb09060200160405180910390a36112b6565b610f0685612b6a565b60ff811660009081526101346020908152604080832089845261013590925290912054815492945090918110610f4c57634e487b7160e01b600052603260045260246000fd5b6000918252602091829020604080516080810182526002909302909101805461ffff811684526001600160501b036201000082048116958501959095526001600160a01b03600160601b90910416918301919091526001015490911660608201529350610fb63390565b6001600160a01b031684604001516001600160a01b03161461100f5760405162461bcd60e51b81526020600482015260126024820152715357495045522c204e4f2053574950494e4760701b6044820152606401610591565b8160ff1661012d60008282546110259190613988565b909155505060ff8216600090815261013460205260409020805461104b90600190613988565b8154811061106957634e487b7160e01b600052603260045260246000fd5b6000918252602080832060408051608081018252600294909402909101805461ffff811685526201000081046001600160501b0390811686860152600160601b9091046001600160a01b03168584015260019091015416606084015260ff861684526101348252808420898552610135909252909220548254919550859291811061110457634e487b7160e01b600052603260045260246000fd5b6000918252602080832084516002939093020180548583015160408088015161ffff1990931661ffff9687161762010000600160601b031916620100006001600160501b0393841602176001600160601b0316600160601b6001600160a01b0390941693909302929092178355606090960151600190920180546001600160501b0319169290961691909117909455888352610135815283832054875190921683528383209190915560ff851682526101349052208054806111d657634e487b7160e01b600052603160045260246000fd5b6000828152602080822060026000199094019384020182815560010180546001600160501b0319169055919092558682526101359052604081205561012f546001600160a01b031663b88d4fde3061122b3390565b886040518463ffffffff1660e01b815260040161124a9392919061372d565b600060405180830381600087803b15801561126457600080fd5b505af1158015611278573d6000803e3d6000fd5b505060405160008152600192508791507f261f0854432bace3f0023f1dd8d91177b3bc455fb50acd7491782cd858b24c729060200160405180910390a35b806112c0816139f2565b915050610cbf565b5050600160c9555050505050565b6097546001600160a01b031633146113005760405162461bcd60e51b815260040161059190613855565b61130a6000612c08565b565b6097546001600160a01b031633146113365760405162461bcd60e51b815260040161059190613855565b61013b805460ff1916911515919091179055565b600054610100900460ff166113655760005460ff1615611369565b303b155b6113cc5760405162461bcd60e51b815260206004820152602e60248201527f496e697469616c697a61626c653a20636f6e747261637420697320616c72656160448201526d191e481a5b9a5d1a585b1a5e995960921b6064820152608401610591565b600054610100900460ff161580156113f7576000805460ff1961ff0019909116610100171660011790555b6113ff612c5a565b611407612c8d565b61140f612cbb565b6114176128d8565b8015610a54576000805461ff001916905550565b6097546001600160a01b031633146114555760405162461bcd60e51b815260040161059190613855565b61012f80546001600160a01b039586166001600160a01b0319918216179091556101318054948616948216949094179093556101308054928516928416929092179091556101328054919093169116179055565b600260c95414156114cc5760405162461bcd60e51b8152600401610591906138d5565b600260c955323314806114f35750610130546001600160a01b0316336001600160a01b0316145b61152a5760405162461bcd60e51b81526020600482015260086024820152674f6e6c7920454f4160c01b6044820152606401610591565b6001600160a01b03831632146115825760405162461bcd60e51b815260206004820152601a60248201527f6163636f756e7420746f2073656e646572206d69736d617463680000000000006044820152606401610591565b60005b8181101561190e57610130546001600160a01b0316336001600160a01b0316146117735761012f5433906001600160a01b0316636352211e8585858181106115dd57634e487b7160e01b600052603260045260246000fd5b90506020020160208101906115f29190613697565b6040516001600160e01b031960e084901b16815261ffff909116600482015260240160206040518083038186803b15801561162c57600080fd5b505afa158015611640573d6000803e3d6000fd5b505050506040513d601f19601f8201168201806040525081019061166491906132c3565b6001600160a01b0316146116ba5760405162461bcd60e51b815260206004820152601860248201527f596f7520646f6e2774206f776e207468697320746f6b656e00000000000000006044820152606401610591565b61012f546001600160a01b03166323b872dd33308686868181106116ee57634e487b7160e01b600052603260045260246000fd5b90506020020160208101906117039190613697565b6040516001600160e01b031960e086901b1681526001600160a01b03938416600482015292909116602483015261ffff166044820152606401600060405180830381600087803b15801561175657600080fd5b505af115801561176a573d6000803e3d6000fd5b505050506117b5565b82828281811061179357634e487b7160e01b600052603260045260246000fd5b90506020020160208101906117a89190613697565b61ffff166117b5576118fc565b61012f546001600160a01b0316634019bfc78484848181106117e757634e487b7160e01b600052603260045260246000fd5b90506020020160208101906117fc9190613697565b6040516001600160e01b031960e084901b16815261ffff909116600482015260240160206040518083038186803b15801561183657600080fd5b505afa15801561184a573d6000803e3d6000fd5b505050506040513d601f19601f8201168201806040525081019061186e919061357a565b156118ba576118b58484848481811061189757634e487b7160e01b600052603260045260246000fd5b90506020020160208101906118ac9190613697565b61ffff16612ceb565b6118fc565b6118fc848484848181106118de57634e487b7160e01b600052603260045260246000fd5b90506020020160208101906118f39190613697565b61ffff16612e93565b80611906816139f2565b915050611585565b5050600160c9555050565b61012f54604051631d7a2e6d60e31b81526004810183905260009182916001600160a01b039091169063ebd173689060240160206040518083038186803b15801561196357600080fd5b505afa158015611977573d6000803e3d6000fd5b505050506040513d601f19601f8201168201806040525081019061199b91906136e9565b9050438167ffffffffffffffff16106119ea5760405162461bcd60e51b8152602060048201526011602482015270686d6d6d6d207768617420646f696e673f60781b6044820152606401610591565b61012f54604051634019bfc760e01b8152600481018590526001600160a01b0390911690634019bfc79060240160206040518083038186803b158015611a2f57600080fd5b505afa158015611a43573d6000803e3d6000fd5b505050506040513d601f19601f82011682018060405250810190611a67919061357a565b15611b8c57600083815261013360209081526040918290208251608081018452815461ffff811682526001600160501b036201000082048116948301949094526001600160a01b03600160601b909104169381019390935260010154166060820152610139546b06765c793fa10079d00000001115611b23576201518069021e19e0c9bab240000082602001516001600160501b031642611b089190613988565b611b129190613969565b611b1c9190613955565b9250611b86565b61013a5481602001516001600160501b03161115611b445760009250611b86565b6201518069021e19e0c9bab240000082602001516001600160501b031661013a54611b6f9190613988565b611b799190613969565b611b839190613955565b92505b50611c68565b6000611b9784612b6a565b9050600061013460008360ff16815260200190815260200160002061013560008781526020019081526020016000205481548110611be557634e487b7160e01b600052603260045260246000fd5b600091825260209182902060408051608081018252600293909302909101805461ffff811684526201000081046001600160501b03908116958501869052600160601b9091046001600160a01b0316928401929092526001015416606082015261013754909250611c569190613988565b611c639060ff8416613969565b935050505b50919050565b600061012d5460001415611c8457506000611d73565b600061012d548363ffffffff16611c9b9190613a0d565b60209390931c929050600080611cb36003600461399f565b60ff1690505b60048111611d6b5760008181526101346020526040902054611cdc908290613969565b611ce6908361393d565b9150818310611cf457611d59565b6000818152610134602052604090208054611d0f9087613a0d565b81548110611d2d57634e487b7160e01b600052603260045260246000fd5b6000918252602090912060029091020154600160601b90046001600160a01b03169350611d7392505050565b80611d63816139f2565b915050611cb9565b506000925050505b919050565b6097546001600160a01b03163314611da25760405162461bcd60e51b815260040161059190613855565b6001600160a01b038116611e075760405162461bcd60e51b815260206004820152602660248201527f4f776e61626c653a206e6577206f776e657220697320746865207a65726f206160448201526564647265737360d01b6064820152608401610591565b610a5481612c08565b6000828152610133602090815260408083208151608081018352815461ffff811682526001600160501b036201000082048116958301959095526001600160a01b03600160601b9091041692810183905260019091015490921660608301523314611ebd5760405162461bcd60e51b815260206004820152601960248201527f446f6e2774206f776e2074686520676976656e20746f6b656e000000000000006044820152606401610591565b828015611ee457506202a30081606001516001600160501b031642611ee29190613988565b105b15611f315760405162461bcd60e51b815260206004820152601d60248201527f5374696c6c206775617264696e6720746865206d6172696e65506f6f6c0000006044820152606401610591565b6b06765c793fa10079d0000000610139541015611f8b576201518069021e19e0c9bab240000082602001516001600160501b031642611f709190613988565b611f7a9190613969565b611f849190613955565b9150611fee565b61013a5481602001516001600160501b03161115611fac5760009150611fee565b6201518069021e19e0c9bab240000082602001516001600160501b031661013a54611fd79190613988565b611fe19190613969565b611feb9190613955565b91505b821561213e5761013260009054906101000a90046001600160a01b03166001600160a01b0316635ec01e4d6040518163ffffffff1660e01b8152600401602060405180830381600087803b15801561204557600080fd5b505af1158015612059573d6000803e3d6000fd5b505050506040513d601f19601f8201168201806040525081019061207d91906136d1565b600116600114156120965761209182612fd7565b600091505b600084815261013360205260408120818155600190810180546001600160501b031916905561012e8054919290916120cf908490613988565b909155505061012f546001600160a01b031663b88d4fde3033876040518463ffffffff1660e01b81526004016121079392919061372d565b600060405180830381600087803b15801561212157600080fd5b505af1158015612135573d6000803e3d6000fd5b5050505061224a565b61215d606461214e601485613969565b6121589190613955565b612fd7565b606461216a601482613988565b6121749084613969565b61217e9190613955565b915060405180608001604052808561ffff168152602001426001600160501b031681526020016121ab3390565b6001600160a01b0390811682526001600160501b0342811660209384015260008881526101338452604090819020855181549587015192870151909416600160601b026001600160601b03928416620100000262010000600160601b031961ffff90961661ffff199097169690961794909416949094171691909117825560609092015160019091018054919092166001600160501b03199091161790555b821515847f9cb40271f339db1081126b3a1e1bd03e3a8258e076fd708dec87a021290adbb08460405161227f91815260200190565b60405180910390a35092915050565b61012f546040516331a9108f60e11b81526004810184905260009130916001600160a01b0390911690636352211e9060240160206040518083038186803b1580156122d857600080fd5b505afa1580156122ec573d6000803e3d6000fd5b505050506040513d601f19601f8201168201806040525081019061231091906132c3565b6001600160a01b03161461235a5760405162461bcd60e51b81526020600482015260116024820152702237b2b9b713ba1037bbb7103a37b5b2b760791b6044820152606401610591565b600061236584612b6a565b9050600061013460008360ff168152602001908152602001600020610135600087815260200190815260200160002054815481106123b357634e487b7160e01b600052603260045260246000fd5b6000918252602091829020604080516080810182526002909302909101805461ffff811684526001600160501b036201000082048116958501959095526001600160a01b03600160601b9091041691830191909152600101549091166060820152905083801561243d57506202a30081606001516001600160501b03164261243b9190613988565b105b1561248a5760405162461bcd60e51b815260206004820152601c60248201527f5374696c6c206775617264696e672074686520616c69656e506f6f6c000000006044820152606401610591565b60408101516001600160a01b031633146124da5760405162461bcd60e51b81526020600482015260116024820152702237b2b9b713ba1037bbb7103a37b5b2b760791b6044820152606401610591565b80602001516001600160501b0316610137546124f69190613988565b6125039060ff8416613969565b9250831561277e578160ff1661012d60008282546125219190613988565b909155505060ff8216600090815261013460205260408120805461254790600190613988565b8154811061256557634e487b7160e01b600052603260045260246000fd5b6000918252602080832060408051608081018252600294909402909101805461ffff811685526201000081046001600160501b0390811686860152600160601b9091046001600160a01b03168584015260019091015416606084015260ff8716845261013482528084208a8552610135909252909220548254919350839291811061260057634e487b7160e01b600052603260045260246000fd5b6000918252602080832084516002939093020180548583015160408088015161ffff1990931661ffff9687161762010000600160601b031916620100006001600160501b0393841602176001600160601b0316600160601b6001600160a01b0390941693909302929092178355606090960151600190920180546001600160501b0319169290961691909117909455898352610135815283832054855190921683528383209190915560ff861682526101349052208054806126d257634e487b7160e01b600052603160045260246000fd5b6000828152602080822060026000199094019384020182815560010180546001600160501b0319169055919092558782526101359052604081205561012f546001600160a01b031663b88d4fde306127273390565b896040518463ffffffff1660e01b81526004016127469392919061372d565b600060405180830381600087803b15801561276057600080fd5b505af1158015612774573d6000803e3d6000fd5b5050505050612893565b60405180608001604052808661ffff168152602001610137546001600160501b031681526020016127ac3390565b6001600160a01b031681526001600160501b03421660209182015260ff84166000908152610134825260408082208983526101359093529020548154811061280457634e487b7160e01b600052603260045260246000fd5b6000918252602091829020835160029290920201805492840151604085015161ffff1990941661ffff9093169290921762010000600160601b031916620100006001600160501b0393841602176001600160601b0316600160601b6001600160a01b0390941693909302929092178255606090920151600190910180546001600160501b031916919092161790555b831515857f261f0854432bace3f0023f1dd8d91177b3bc455fb50acd7491782cd858b24c72856040516128c891815260200190565b60405180910390a3505092915050565b60fb5460ff16156128fb5760405162461bcd60e51b81526004016105919061382b565b60fb805460ff191660011790557f62e78cea01bee320cd4e420270b5ea74000d11b0c9f74754ebdbfc544b05a2586129303390565b6040516001600160a01b03909116815260200160405180910390a1565b60fb5460ff166129965760405162461bcd60e51b815260206004820152601460248201527314185d5cd8589b194e881b9bdd081c185d5cd95960621b6044820152606401610591565b60fb805460ff191690557f5db9ee0a495bf2e6ff9c91a7834c1ba4fdd244a5e8aa4e537bd38aeae4b073aa33612930565b7f360894a13ba1a3210667c828492db98dca3e2076cc3735a920a3ca505d382bbc546001600160a01b031690565b6097546001600160a01b03163314610a545760405162461bcd60e51b815260040161059190613855565b6000612a296129c7565b9050612a3484613039565b600083511180612a415750815b15612a5257612a5084846130de565b505b7f4910fdfa16fed3260ed0e7147f7cc6da11a60208b5b9406d12a635614ffd9143805460ff16612b6357805460ff191660011781556040516001600160a01b0383166024820152612ad190869060440160408051601f198184030181529190526020810180516001600160e01b0316631b2ce7f360e11b1790526130de565b50805460ff19168155612ae26129c7565b6001600160a01b0316826001600160a01b031614612b5a5760405162461bcd60e51b815260206004820152602f60248201527f45524331393637557067726164653a207570677261646520627265616b73206660448201526e75727468657220757067726164657360881b6064820152608401610591565b612b63856131c9565b5050505050565b61012f546040516394e5684760e01b81526004810183905260009182916001600160a01b03909116906394e56847906024016101a06040518083038186803b158015612bb557600080fd5b505afa158015612bc9573d6000803e3d6000fd5b505050506040513d601f19601f82011682018060405250810190612bed9190613596565b90508061018001516004612c01919061399f565b9392505050565b609780546001600160a01b038381166001600160a01b0319831681179093556040519116919082907f8be0079c531659141344cd1fd0a4f28419497f9722a3daafe3b4186f6b6457e090600090a35050565b600054610100900460ff16612c815760405162461bcd60e51b81526004016105919061388a565b60fb805460ff19169055565b600054610100900460ff16612cb45760405162461bcd60e51b81526004016105919061388a565b600160c955565b600054610100900460ff16612ce25760405162461bcd60e51b81526004016105919061388a565b61130a33612c08565b60fb5460ff1615612d0e5760405162461bcd60e51b81526004016105919061382b565b6b06765c793fa10079d0000000610139541015612d82576201518069021e19e0c9bab240000061012e5461013a5442612d479190613988565b612d519190613969565b612d5b9190613969565b612d659190613955565b6101396000828254612d77919061393d565b90915550504261013a555b6040805160808101825261ffff80841682526001600160501b0342811660208085018281526001600160a01b03808a168789019081526060880194855260008a81526101339094529783209651875492519851909116600160601b026001600160601b03988616620100000262010000600160601b03199290971661ffff1990931692909217169490941795909516929092178355905160019283018054919092166001600160501b031990911617905561012e805491929091612e4790849061393d565b909155505060405142815260019082906001600160a01b038516907f8612e8567c2b59ea0cd07546cc5fd09fdcb85f542e6d73367c39b009ce24a0bf9060200160405180910390a45050565b6000612e9e82612b6a565b90508060ff1661012d6000828254612eb6919061393d565b909155505060ff811660009081526101346020818152604080842080548786526101358452828620819055938352815160808101835261ffff808916825261013780546001600160501b039081168488019081526001600160a01b038d8116868901818152428516606089019081526001808e018b55998e528b8e2098516002909d0290980180549451915161ffff199095169c9097169b909b1762010000600160601b031916620100009b85169b909b029a909a176001600160601b0316600160601b929091169190910217835592519190930180546001600160501b031916919092161790555490519081528592917f8612e8567c2b59ea0cd07546cc5fd09fdcb85f542e6d73367c39b009ce24a0bf910160405180910390a4505050565b61012d54612ffd57806101366000828254612ff2919061393d565b90915550610a549050565b61012d546101365461300f908361393d565b6130199190613955565b610137600082825461302b919061393d565b909155505060006101365550565b803b61309d5760405162461bcd60e51b815260206004820152602d60248201527f455243313936373a206e657720696d706c656d656e746174696f6e206973206e60448201526c1bdd08184818dbdb9d1c9858dd609a1b6064820152608401610591565b7f360894a13ba1a3210667c828492db98dca3e2076cc3735a920a3ca505d382bbc80546001600160a01b0319166001600160a01b0392909216919091179055565b6060823b61313d5760405162461bcd60e51b815260206004820152602660248201527f416464726573733a2064656c65676174652063616c6c20746f206e6f6e2d636f6044820152651b9d1c9858dd60d21b6064820152608401610591565b600080846001600160a01b0316846040516131589190613711565b600060405180830381855af49150503d8060008114613193576040519150601f19603f3d011682016040523d82523d6000602084013e613198565b606091505b50915091506131c08282604051806060016040528060278152602001613a8760279139613209565b95945050505050565b6131d281613039565b6040516001600160a01b038216907fbc7cd75a20ee27fd9adebab32041f755214dbc6bffa90cc0225b39da2e5c2d3b90600090a250565b60608315613218575081612c01565b8251156132285782518084602001fd5b8160405162461bcd60e51b81526004016105919190613760565b60008083601f840112613253578081fd5b50813567ffffffffffffffff81111561326a578182fd5b602083019150836020808302850101111561328457600080fd5b9250929050565b8051611d7381613a78565b805160ff81168114611d7357600080fd5b6000602082840312156132b8578081fd5b8135612c0181613a63565b6000602082840312156132d4578081fd5b8151612c0181613a63565b600080600080608085870312156132f4578283fd5b84356132ff81613a63565b9350602085013561330f81613a63565b9250604085013561331f81613a63565b9150606085013561332f81613a63565b939692955090935050565b600080600080600060808688031215613351578081fd5b853561335c81613a63565b9450602086013561336c81613a63565b935060408601359250606086013567ffffffffffffffff8082111561338f578283fd5b818801915088601f8301126133a2578283fd5b8135818111156133b0578384fd5b8960208285010111156133c1578384fd5b9699959850939650602001949392505050565b6000806000604084860312156133e8578283fd5b83356133f381613a63565b9250602084013567ffffffffffffffff81111561340e578283fd5b61341a86828701613242565b9497909650939450505050565b60008060408385031215613439578182fd5b823561344481613a63565b915060208381013567ffffffffffffffff80821115613461578384fd5b818601915086601f830112613474578384fd5b81358181111561348657613486613a4d565b613498601f8201601f1916850161390c565b915080825287848285010111156134ad578485fd5b8084840185840137810190920192909252919491935090915050565b6000806000604084860312156134dd578283fd5b833567ffffffffffffffff8111156134f3578384fd5b6134ff86828701613242565b909450925050602084013561351381613a78565b809150509250925092565b60008060208385031215613530578182fd5b823567ffffffffffffffff811115613546578283fd5b61355285828601613242565b90969095509350505050565b60006020828403121561356f578081fd5b8135612c0181613a78565b60006020828403121561358b578081fd5b8151612c0181613a78565b60006101a08083850312156135a9578182fd5b6135b28161390c565b90506135bd8361328b565b81526135cb60208401613296565b60208201526135dc60408401613296565b60408201526135ed60608401613296565b60608201526135fe60808401613296565b608082015261360f60a08401613296565b60a082015261362060c08401613296565b60c082015261363160e08401613296565b60e0820152610100613644818501613296565b90820152610120613656848201613296565b90820152610140613668848201613296565b9082015261016061367a848201613296565b9082015261018061368c848201613296565b908201529392505050565b6000602082840312156136a8578081fd5b813561ffff81168114612c01578182fd5b6000602082840312156136ca578081fd5b5035919050565b6000602082840312156136e2578081fd5b5051919050565b6000602082840312156136fa578081fd5b815167ffffffffffffffff81168114612c01578182fd5b600082516137238184602087016139c2565b9190910192915050565b6001600160a01b039384168152919092166020820152604081019190915260806060820181905260009082015260a00190565b600060208252825180602084015261377f8160408501602087016139c2565b601f01601f19169190910160400192915050565b6020808252602c908201527f46756e6374696f6e206d7573742062652063616c6c6564207468726f7567682060408201526b19195b1959d85d1958d85b1b60a21b606082015260800190565b6020808252602c908201527f46756e6374696f6e206d7573742062652063616c6c6564207468726f7567682060408201526b6163746976652070726f787960a01b606082015260800190565b60208082526010908201526f14185d5cd8589b194e881c185d5cd95960821b604082015260600190565b6020808252818101527f4f776e61626c653a2063616c6c6572206973206e6f7420746865206f776e6572604082015260600190565b6020808252602b908201527f496e697469616c697a61626c653a20636f6e7472616374206973206e6f74206960408201526a6e697469616c697a696e6760a81b606082015260800190565b6020808252601f908201527f5265656e7472616e637947756172643a207265656e7472616e742063616c6c00604082015260600190565b604051601f8201601f1916810167ffffffffffffffff8111828210171561393557613935613a4d565b604052919050565b6000821982111561395057613950613a21565b500190565b60008261396457613964613a37565b500490565b600081600019048311821515161561398357613983613a21565b500290565b60008282101561399a5761399a613a21565b500390565b600060ff821660ff8416808210156139b9576139b9613a21565b90039392505050565b60005b838110156139dd5781810151838201526020016139c5565b838111156139ec576000848401525b50505050565b6000600019821415613a0657613a06613a21565b5060010190565b600082613a1c57613a1c613a37565b500690565b634e487b7160e01b600052601160045260246000fd5b634e487b7160e01b600052601260045260246000fd5b634e487b7160e01b600052604160045260246000fd5b6001600160a01b0381168114610a5457600080fd5b8015158114610a5457600080fdfe416464726573733a206c6f772d6c6576656c2064656c65676174652063616c6c206661696c6564a26469706673582212208dc99e7a62ab6475b5776f582e7d1f11ce3fd4a236c4f75e38ca4b9e8a0e646764736f6c63430008020033",
  "devdoc": {
    "kind": "dev",
    "methods": {
      "addManyToMarinePoolAndAlienPool(address,uint16[])": {
        "params": {
          "account": "the address of the staker",
          "tokenIds": "the IDs of the Marines and Aliens to stake"
        }
      },
      "claimManyFromMarinePoolAndAlienPool(uint16[],bool)": {
        "params": {
          "tokenIds": "the IDs of the tokens to claim earnings from",
          "unstake": "whether or not to unstake ALL of the tokens listed in tokenIds"
        }
      },
      "owner()": {
        "details": "Returns the address of the current owner."
      },
      "paused()": {
        "details": "Returns true if the contract is paused, and false otherwise."
      },
      "randomAlienOwner(uint256)": {
        "params": {
          "seed": "a random value to choose a Alien from"
        },
        "returns": {
          "_0": "the owner of the randomly selected Alien thief"
        }
      },
      "renounceOwnership()": {
        "details": "Leaves the contract without owner. It will not be possible to call `onlyOwner` functions anymore. Can only be called by the current owner. NOTE: Renouncing ownership will leave the contract without an owner, thereby removing any functionality that is only available to the owner."
      },
      "rescue(uint256[])": {
        "params": {
          "tokenIds": "the IDs of the tokens to claim earnings from"
        }
      },
      "transferOwnership(address)": {
        "details": "Transfers ownership of the contract to a new account (`newOwner`). Can only be called by the current owner."
      },
      "upgradeTo(address)": {
        "details": "Upgrade the implementation of the proxy to `newImplementation`. Calls {_authorizeUpgrade}. Emits an {Upgraded} event."
      },
      "upgradeToAndCall(address,bytes)": {
        "details": "Upgrade the implementation of the proxy to `newImplementation`, and subsequently execute the function call encoded in `data`. Calls {_authorizeUpgrade}. Emits an {Upgraded} event."
      }
    },
    "version": 1
  },
  "userdoc": {
    "kind": "user",
    "methods": {
      "addManyToMarinePoolAndAlienPool(address,uint16[])": {
        "notice": "adds Marines and Aliens to the MarinePool and AlienPool"
      },
      "claimManyFromMarinePoolAndAlienPool(uint16[],bool)": {
        "notice": "realize $ORES earnings and optionally unstake tokens from the MarinePool / AlienPool to unstake a Marine it will require it has 2 days worth of $ORES unclaimed"
      },
      "randomAlienOwner(uint256)": {
        "notice": "chooses a random Alien thief when a newly minted token is stolen"
      },
      "rescue(uint256[])": {
        "notice": "emergency unstake tokens"
      },
      "setPaused(bool)": {
        "notice": "enables owner to pause / unpause contract"
      },
      "setRescueEnabled(bool)": {
        "notice": "allows owner to enable \"rescue mode\" simplifies accounting, prioritizes tokens out in emergency"
      }
    },
    "version": 1
  },
  "storageLayout": {
    "storage": [
      {
        "astId": 806,
        "contract": "contracts/StakingPool.sol:StakingPool",
        "label": "_initialized",
        "offset": 0,
        "slot": "0",
        "type": "t_bool"
      },
      {
        "astId": 809,
        "contract": "contracts/StakingPool.sol:StakingPool",
        "label": "_initializing",
        "offset": 1,
        "slot": "0",
        "type": "t_bool"
      },
      {
        "astId": 788,
        "contract": "contracts/StakingPool.sol:StakingPool",
        "label": "__gap",
        "offset": 0,
        "slot": "1",
        "type": "t_array(t_uint256)50_storage"
      },
      {
        "astId": 983,
        "contract": "contracts/StakingPool.sol:StakingPool",
        "label": "__gap",
        "offset": 0,
        "slot": "51",
        "type": "t_array(t_uint256)50_storage"
      },
      {
        "astId": 1443,
        "contract": "contracts/StakingPool.sol:StakingPool",
        "label": "__gap",
        "offset": 0,
        "slot": "101",
        "type": "t_array(t_uint256)50_storage"
      },
      {
        "astId": 276,
        "contract": "contracts/StakingPool.sol:StakingPool",
        "label": "_owner",
        "offset": 0,
        "slot": "151",
        "type": "t_address"
      },
      {
        "astId": 390,
        "contract": "contracts/StakingPool.sol:StakingPool",
        "label": "__gap",
        "offset": 0,
        "slot": "152",
        "type": "t_array(t_uint256)49_storage"
      },
      {
        "astId": 1111,
        "contract": "contracts/StakingPool.sol:StakingPool",
        "label": "_status",
        "offset": 0,
        "slot": "201",
        "type": "t_uint256"
      },
      {
        "astId": 1154,
        "contract": "contracts/StakingPool.sol:StakingPool",
        "label": "__gap",
        "offset": 0,
        "slot": "202",
        "type": "t_array(t_uint256)49_storage"
      },
      {
        "astId": 1005,
        "contract": "contracts/StakingPool.sol:StakingPool",
        "label": "_paused",
        "offset": 0,
        "slot": "251",
        "type": "t_bool"
      },
      {
        "astId": 1096,
        "contract": "contracts/StakingPool.sol:StakingPool",
        "label": "__gap",
        "offset": 0,
        "slot": "252",
        "type": "t_array(t_uint256)49_storage"
      },
      {
        "astId": 9430,
        "contract": "contracts/StakingPool.sol:StakingPool",
        "label": "totalRankStaked",
        "offset": 0,
        "slot": "301",
        "type": "t_uint256"
      },
      {
        "astId": 9432,
        "contract": "contracts/StakingPool.sol:StakingPool",
        "label": "numMarinesStaked",
        "offset": 0,
        "slot": "302",
        "type": "t_uint256"
      },
      {
        "astId": 9461,
        "contract": "contracts/StakingPool.sol:StakingPool",
        "label": "mnaNFT",
        "offset": 0,
        "slot": "303",
        "type": "t_contract(IMnA)11694"
      },
      {
        "astId": 9464,
        "contract": "contracts/StakingPool.sol:StakingPool",
        "label": "mnaGame",
        "offset": 0,
        "slot": "304",
        "type": "t_contract(IMnAGame)11697"
      },
      {
        "astId": 9467,
        "contract": "contracts/StakingPool.sol:StakingPool",
        "label": "oresToken",
        "offset": 0,
        "slot": "305",
        "type": "t_contract(IORES)11728"
      },
      {
        "astId": 9470,
        "contract": "contracts/StakingPool.sol:StakingPool",
        "label": "randomSeedGenerator",
        "offset": 0,
        "slot": "306",
        "type": "t_contract(IRandomSeedGenerator)11736"
      },
      {
        "astId": 9475,
        "contract": "contracts/StakingPool.sol:StakingPool",
        "label": "marinePool",
        "offset": 0,
        "slot": "307",
        "type": "t_mapping(t_uint256,t_struct(Stake)9428_storage)"
      },
      {
        "astId": 9481,
        "contract": "contracts/StakingPool.sol:StakingPool",
        "label": "alienPool",
        "offset": 0,
        "slot": "308",
        "type": "t_mapping(t_uint256,t_array(t_struct(Stake)9428_storage)dyn_storage)"
      },
      {
        "astId": 9485,
        "contract": "contracts/StakingPool.sol:StakingPool",
        "label": "alienPoolIndices",
        "offset": 0,
        "slot": "309",
        "type": "t_mapping(t_uint256,t_uint256)"
      },
      {
        "astId": 9487,
        "contract": "contracts/StakingPool.sol:StakingPool",
        "label": "unaccountedRewards",
        "offset": 0,
        "slot": "310",
        "type": "t_uint256"
      },
      {
        "astId": 9489,
        "contract": "contracts/StakingPool.sol:StakingPool",
        "label": "oresPerRank",
        "offset": 0,
        "slot": "311",
        "type": "t_uint256"
      },
      {
        "astId": 9503,
        "contract": "contracts/StakingPool.sol:StakingPool",
        "label": "treasureChestTypeId",
        "offset": 0,
        "slot": "312",
        "type": "t_uint256"
      },
      {
        "astId": 9505,
        "contract": "contracts/StakingPool.sol:StakingPool",
        "label": "totalORESEarned",
        "offset": 0,
        "slot": "313",
        "type": "t_uint256"
      },
      {
        "astId": 9507,
        "contract": "contracts/StakingPool.sol:StakingPool",
        "label": "lastClaimTimestamp",
        "offset": 0,
        "slot": "314",
        "type": "t_uint256"
      },
      {
        "astId": 9509,
        "contract": "contracts/StakingPool.sol:StakingPool",
        "label": "rescueEnabled",
        "offset": 0,
        "slot": "315",
        "type": "t_bool"
      }
    ],
    "types": {
      "t_address": {
        "encoding": "inplace",
        "label": "address",
        "numberOfBytes": "20"
      },
      "t_array(t_struct(Stake)9428_storage)dyn_storage": {
        "base": "t_struct(Stake)9428_storage",
        "encoding": "dynamic_array",
        "label": "struct StakingPool.Stake[]",
        "numberOfBytes": "32"
      },
      "t_array(t_uint256)49_storage": {
        "base": "t_uint256",
        "encoding": "inplace",
        "label": "uint256[49]",
        "numberOfBytes": "1568"
      },
      "t_array(t_uint256)50_storage": {
        "base": "t_uint256",
        "encoding": "inplace",
        "label": "uint256[50]",
        "numberOfBytes": "1600"
      },
      "t_bool": {
        "encoding": "inplace",
        "label": "bool",
        "numberOfBytes": "1"
      },
      "t_contract(IMnA)11694": {
        "encoding": "inplace",
        "label": "contract IMnA",
        "numberOfBytes": "20"
      },
      "t_contract(IMnAGame)11697": {
        "encoding": "inplace",
        "label": "contract IMnAGame",
        "numberOfBytes": "20"
      },
      "t_contract(IORES)11728": {
        "encoding": "inplace",
        "label": "contract IORES",
        "numberOfBytes": "20"
      },
      "t_contract(IRandomSeedGenerator)11736": {
        "encoding": "inplace",
        "label": "contract IRandomSeedGenerator",
        "numberOfBytes": "20"
      },
      "t_mapping(t_uint256,t_array(t_struct(Stake)9428_storage)dyn_storage)": {
        "encoding": "mapping",
        "key": "t_uint256",
        "label": "mapping(uint256 => struct StakingPool.Stake[])",
        "numberOfBytes": "32",
        "value": "t_array(t_struct(Stake)9428_storage)dyn_storage"
      },
      "t_mapping(t_uint256,t_struct(Stake)9428_storage)": {
        "encoding": "mapping",
        "key": "t_uint256",
        "label": "mapping(uint256 => struct StakingPool.Stake)",
        "numberOfBytes": "32",
        "value": "t_struct(Stake)9428_storage"
      },
      "t_mapping(t_uint256,t_uint256)": {
        "encoding": "mapping",
        "key": "t_uint256",
        "label": "mapping(uint256 => uint256)",
        "numberOfBytes": "32",
        "value": "t_uint256"
      },
      "t_struct(Stake)9428_storage": {
        "encoding": "inplace",
        "label": "struct StakingPool.Stake",
        "members": [
          {
            "astId": 9421,
            "contract": "contracts/StakingPool.sol:StakingPool",
            "label": "tokenId",
            "offset": 0,
            "slot": "0",
            "type": "t_uint16"
          },
          {
            "astId": 9423,
            "contract": "contracts/StakingPool.sol:StakingPool",
            "label": "value",
            "offset": 2,
            "slot": "0",
            "type": "t_uint80"
          },
          {
            "astId": 9425,
            "contract": "contracts/StakingPool.sol:StakingPool",
            "label": "owner",
            "offset": 12,
            "slot": "0",
            "type": "t_address"
          },
          {
            "astId": 9427,
            "contract": "contracts/StakingPool.sol:StakingPool",
            "label": "lastClaimTime",
            "offset": 0,
            "slot": "1",
            "type": "t_uint80"
          }
        ],
        "numberOfBytes": "64"
      },
      "t_uint16": {
        "encoding": "inplace",
        "label": "uint16",
        "numberOfBytes": "2"
      },
      "t_uint256": {
        "encoding": "inplace",
        "label": "uint256",
        "numberOfBytes": "32"
      },
      "t_uint80": {
        "encoding": "inplace",
        "label": "uint80",
        "numberOfBytes": "10"
      }
    }
  }
}