{
  "address": "0xF4128012704639119C67fB12A22A7A752B5128C3",
  "abi": [
    {
      "anonymous": false,
      "inputs": [
        {
          "indexed": true,
          "internalType": "uint256",
          "name": "tokenId",
          "type": "uint256"
        },
        {
          "indexed": true,
          "internalType": "bool",
          "name": "unstaked",
          "type": "bool"
        },
        {
          "indexed": false,
          "internalType": "uint256",
          "name": "earned",
          "type": "uint256"
        }
      ],
      "name": "AlienClaimed",
      "type": "event"
    },
    {
      "anonymous": false,
      "inputs": [
        {
          "indexed": true,
          "internalType": "uint256",
          "name": "tokenId",
          "type": "uint256"
        },
        {
          "indexed": true,
          "internalType": "bool",
          "name": "unstaked",
          "type": "bool"
        },
        {
          "indexed": false,
          "internalType": "uint256",
          "name": "earned",
          "type": "uint256"
        }
      ],
      "name": "MarineClaimed",
      "type": "event"
    },
    {
      "anonymous": false,
      "inputs": [
        {
          "indexed": true,
          "internalType": "address",
          "name": "previousOwner",
          "type": "address"
        },
        {
          "indexed": true,
          "internalType": "address",
          "name": "newOwner",
          "type": "address"
        }
      ],
      "name": "OwnershipTransferred",
      "type": "event"
    },
    {
      "anonymous": false,
      "inputs": [
        {
          "indexed": false,
          "internalType": "address",
          "name": "account",
          "type": "address"
        }
      ],
      "name": "Paused",
      "type": "event"
    },
    {
      "anonymous": false,
      "inputs": [
        {
          "indexed": true,
          "internalType": "uint256",
          "name": "tokenId",
          "type": "uint256"
        },
        {
          "indexed": true,
          "internalType": "address",
          "name": "owner",
          "type": "address"
        },
        {
          "indexed": false,
          "internalType": "bool",
          "name": "isMarine",
          "type": "bool"
        },
        {
          "indexed": false,
          "internalType": "uint256",
          "name": "stakedDuration",
          "type": "uint256"
        },
        {
          "indexed": false,
          "internalType": "uint256",
          "name": "value",
          "type": "uint256"
        }
      ],
      "name": "TokenStaked",
      "type": "event"
    },
    {
      "anonymous": false,
      "inputs": [
        {
          "indexed": false,
          "internalType": "address",
          "name": "account",
          "type": "address"
        }
      ],
      "name": "Unpaused",
      "type": "event"
    },
    {
      "inputs": [],
      "name": "KLAYE_CLAIM_TAX_PERCENTAGE",
      "outputs": [
        {
          "internalType": "uint256",
          "name": "",
          "type": "uint256"
        }
      ],
      "stateMutability": "view",
      "type": "function"
    },
    {
      "inputs": [],
      "name": "MAX_RANK",
      "outputs": [
        {
          "internalType": "uint8",
          "name": "",
          "type": "uint8"
        }
      ],
      "stateMutability": "view",
      "type": "function"
    },
    {
      "inputs": [],
      "name": "MINIMUM_TO_EXIT",
      "outputs": [
        {
          "internalType": "uint256",
          "name": "",
          "type": "uint256"
        }
      ],
      "stateMutability": "view",
      "type": "function"
    },
    {
      "inputs": [],
      "name": "UNSTAKE_KLAYE_AMOUNT",
      "outputs": [
        {
          "internalType": "uint256",
          "name": "",
          "type": "uint256"
        }
      ],
      "stateMutability": "view",
      "type": "function"
    },
    {
      "inputs": [
        {
          "internalType": "address",
          "name": "account",
          "type": "address"
        },
        {
          "internalType": "uint256[]",
          "name": "tokenIds",
          "type": "uint256[]"
        }
      ],
      "name": "addManyToMarinePoolAndAlienPool",
      "outputs": [],
      "stateMutability": "nonpayable",
      "type": "function"
    },
    {
      "inputs": [
        {
          "internalType": "uint256",
          "name": "",
          "type": "uint256"
        },
        {
          "internalType": "uint256",
          "name": "",
          "type": "uint256"
        }
      ],
      "name": "alienPool",
      "outputs": [
        {
          "internalType": "uint256",
          "name": "tokenId",
          "type": "uint256"
        },
        {
          "internalType": "address",
          "name": "owner",
          "type": "address"
        },
        {
          "internalType": "uint256",
          "name": "value",
          "type": "uint256"
        },
        {
          "internalType": "uint256",
          "name": "lastClaimTime",
          "type": "uint256"
        },
        {
          "internalType": "uint256",
          "name": "startTime",
          "type": "uint256"
        },
        {
          "internalType": "uint256",
          "name": "stakedDuration",
          "type": "uint256"
        }
      ],
      "stateMutability": "view",
      "type": "function"
    },
    {
      "inputs": [
        {
          "internalType": "uint256",
          "name": "tokenId",
          "type": "uint256"
        }
      ],
      "name": "calculateRewards",
      "outputs": [
        {
          "internalType": "uint256",
          "name": "owed",
          "type": "uint256"
        }
      ],
      "stateMutability": "view",
      "type": "function"
    },
    {
      "inputs": [
        {
          "internalType": "uint256",
          "name": "tokenId",
          "type": "uint256"
        }
      ],
      "name": "canStake",
      "outputs": [
        {
          "internalType": "bool",
          "name": "",
          "type": "bool"
        }
      ],
      "stateMutability": "view",
      "type": "function"
    },
    {
      "inputs": [
        {
          "internalType": "uint256[]",
          "name": "tokenIds",
          "type": "uint256[]"
        },
        {
          "internalType": "bool",
          "name": "unstake",
          "type": "bool"
        }
      ],
      "name": "claimManyFromMarinePoolAndAlienPool",
      "outputs": [],
      "stateMutability": "nonpayable",
      "type": "function"
    },
    {
      "inputs": [],
      "name": "initialize",
      "outputs": [],
      "stateMutability": "nonpayable",
      "type": "function"
    },
    {
      "inputs": [],
      "name": "klayeToken",
      "outputs": [
        {
          "internalType": "contract IKLAYE",
          "name": "",
          "type": "address"
        }
      ],
      "stateMutability": "view",
      "type": "function"
    },
    {
      "inputs": [],
      "name": "levelMath",
      "outputs": [
        {
          "internalType": "contract ILevelMath",
          "name": "",
          "type": "address"
        }
      ],
      "stateMutability": "view",
      "type": "function"
    },
    {
      "inputs": [
        {
          "internalType": "uint256",
          "name": "",
          "type": "uint256"
        }
      ],
      "name": "marinePool",
      "outputs": [
        {
          "internalType": "uint256",
          "name": "tokenId",
          "type": "uint256"
        },
        {
          "internalType": "address",
          "name": "owner",
          "type": "address"
        },
        {
          "internalType": "uint256",
          "name": "value",
          "type": "uint256"
        },
        {
          "internalType": "uint256",
          "name": "lastClaimTime",
          "type": "uint256"
        },
        {
          "internalType": "uint256",
          "name": "startTime",
          "type": "uint256"
        },
        {
          "internalType": "uint256",
          "name": "stakedDuration",
          "type": "uint256"
        }
      ],
      "stateMutability": "view",
      "type": "function"
    },
    {
      "inputs": [],
      "name": "mnaNFT",
      "outputs": [
        {
          "internalType": "contract IMnAv2",
          "name": "",
          "type": "address"
        }
      ],
      "stateMutability": "view",
      "type": "function"
    },
    {
      "inputs": [
        {
          "internalType": "address",
          "name": "",
          "type": "address"
        },
        {
          "internalType": "address",
          "name": "from",
          "type": "address"
        },
        {
          "internalType": "uint256",
          "name": "",
          "type": "uint256"
        },
        {
          "internalType": "bytes",
          "name": "",
          "type": "bytes"
        }
      ],
      "name": "onERC721Received",
      "outputs": [
        {
          "internalType": "bytes4",
          "name": "",
          "type": "bytes4"
        }
      ],
      "stateMutability": "pure",
      "type": "function"
    },
    {
      "inputs": [],
      "name": "oresToken",
      "outputs": [
        {
          "internalType": "contract IORES",
          "name": "",
          "type": "address"
        }
      ],
      "stateMutability": "view",
      "type": "function"
    },
    {
      "inputs": [],
      "name": "owner",
      "outputs": [
        {
          "internalType": "address",
          "name": "",
          "type": "address"
        }
      ],
      "stateMutability": "view",
      "type": "function"
    },
    {
      "inputs": [],
      "name": "paused",
      "outputs": [
        {
          "internalType": "bool",
          "name": "",
          "type": "bool"
        }
      ],
      "stateMutability": "view",
      "type": "function"
    },
    {
      "inputs": [],
      "name": "renounceOwnership",
      "outputs": [],
      "stateMutability": "nonpayable",
      "type": "function"
    },
    {
      "inputs": [
        {
          "internalType": "uint256[]",
          "name": "tokenIds",
          "type": "uint256[]"
        }
      ],
      "name": "rescue",
      "outputs": [],
      "stateMutability": "nonpayable",
      "type": "function"
    },
    {
      "inputs": [],
      "name": "rescueEnabled",
      "outputs": [
        {
          "internalType": "bool",
          "name": "",
          "type": "bool"
        }
      ],
      "stateMutability": "view",
      "type": "function"
    },
    {
      "inputs": [
        {
          "internalType": "address",
          "name": "_mnaNFT",
          "type": "address"
        },
        {
          "internalType": "address",
          "name": "_klaye",
          "type": "address"
        },
        {
          "internalType": "address",
          "name": "_ores",
          "type": "address"
        },
        {
          "internalType": "address",
          "name": "_levelMath",
          "type": "address"
        }
      ],
      "name": "setContracts",
      "outputs": [],
      "stateMutability": "nonpayable",
      "type": "function"
    },
    {
      "inputs": [
        {
          "internalType": "bool",
          "name": "_paused",
          "type": "bool"
        }
      ],
      "name": "setPaused",
      "outputs": [],
      "stateMutability": "nonpayable",
      "type": "function"
    },
    {
      "inputs": [
        {
          "internalType": "bool",
          "name": "_enabled",
          "type": "bool"
        }
      ],
      "name": "setRescueEnabled",
      "outputs": [],
      "stateMutability": "nonpayable",
      "type": "function"
    },
    {
      "inputs": [
        {
          "internalType": "uint256",
          "name": "amount",
          "type": "uint256"
        }
      ],
      "name": "setUnStakeKlayeAmount",
      "outputs": [],
      "stateMutability": "nonpayable",
      "type": "function"
    },
    {
      "inputs": [],
      "name": "totalKLAYEEarned",
      "outputs": [
        {
          "internalType": "uint256",
          "name": "",
          "type": "uint256"
        }
      ],
      "stateMutability": "view",
      "type": "function"
    },
    {
      "inputs": [
        {
          "internalType": "address",
          "name": "newOwner",
          "type": "address"
        }
      ],
      "name": "transferOwnership",
      "outputs": [],
      "stateMutability": "nonpayable",
      "type": "function"
    },
    {
      "inputs": [
        {
          "internalType": "uint256[]",
          "name": "tokenIds",
          "type": "uint256[]"
        }
      ],
      "name": "upgradeLevel",
      "outputs": [],
      "stateMutability": "nonpayable",
      "type": "function"
    }
  ],
  "transactionHash": "0x24aac91a872d3b6b27003a0e8080225baac327f23172a7a8e550a51123c4e1a0",
  "args": [],
  "numDeployments": 7,
  "solcInputHash": "2a35bf5172c54e967bf74829c01e5c98",
  "bytecode": "0x60806040526729a2241af62c000060d35534801561001c57600080fd5b506134458061002c6000396000f3fe608060405234801561001057600080fd5b50600436106101c45760003560e01c80638129fc1c116100f9578063b3bcf8dd11610097578063bf989b6e11610071578063bf989b6e1461040f578063c97b9c5a14610422578063d3ea435014610435578063f2fde38b14610448576101c4565b8063b3bcf8dd1461039c578063bb7789fc146103e9578063bd3fae82146103fc576101c4565b806395583101116100d357806395583101146103535780639bcfc8281461035c5780639bd445ba1461036f5780639e3bcb8d14610382576101c4565b80638129fc1c14610332578063826c48071461033a5780638da5cb5b14610342576101c4565b80635c975abb11610166578063707a948811610140578063707a9488146102fb578063715018a614610304578063765310081461030c5780637f6c5fa91461031f576101c4565b80635c975abb146102ca5780636a3ef057146102d55780636cbbd5da146102e8576101c4565b806337a386b9116101a257806337a386b91461023a57806339db714f146102525780634b809de31461026f57806353906653146102b7576101c4565b8063150b7a02146101c957806316c38b3c146101fa578063357bad8c1461020f575b600080fd5b6101dc6101d7366004612ded565b61045b565b6040516001600160e01b031990911681526020015b60405180910390f35b61020d610208366004612f6f565b6104d6565b005b60ca54610222906001600160a01b031681565b6040516001600160a01b0390911681526020016101f1565b6102446202a30081565b6040519081526020016101f1565b60d65461025f9060ff1681565b60405190151581526020016101f1565b61028261027d366004613129565b6105ae565b604080519687526001600160a01b039095166020870152938501929092526060840152608083015260a082015260c0016101f1565b61025f6102c53660046130f9565b61060c565b60975460ff1661025f565b61020d6102e3366004612eda565b610809565b60cc54610222906001600160a01b031681565b61024460d35481565b61020d610e65565b61020d61031a366004612f6f565b610e9b565b61020d61032d3660046130f9565b610ed8565b61020d610f57565b610244601481565b6033546001600160a01b0316610222565b61024460d45481565b61020d61036a366004612e87565b611038565b60cb54610222906001600160a01b031681565b61038a600481565b60405160ff90911681526020016101f1565b6102826103aa3660046130f9565b60ce6020526000908152604090208054600182015460028301546003840154600485015460059095015493946001600160a01b03909316939192909186565b61020d6103f7366004612eda565b611447565b60cd54610222906001600160a01b031681565b61020d61041d366004612d92565b6117d6565b61020d610430366004612f1a565b611850565b6102446104433660046130f9565b611b12565b61020d610456366004612d5a565b611e69565b60006001600160a01b038516156104c45760405162461bcd60e51b815260206004820152602260248201527f43616e6e6f742073656e6420746f204d6172696e65506f6f6c206469726563746044820152616c7960f01b60648201526084015b60405180910390fd5b50630a85bd0160e11b95945050505050565b60ca546001600160a01b0316158015906104fa575060cb546001600160a01b031615155b8015610510575060cd546001600160a01b031615155b8015610526575060cc546001600160a01b031615155b6105665760405162461bcd60e51b815260206004820152601160248201527010dbdb9d1c9858dd1cc81b9bdd081cd95d607a1b60448201526064016104bb565b6033546001600160a01b031633146105905760405162461bcd60e51b81526004016104bb90613232565b80156105a35761059e611f01565b6105ab565b6105ab611f76565b50565b60cf60205281600052604060002081815481106105ca57600080fd5b60009182526020909120600690910201805460018201546002830154600384015460048501546005909501549396506001600160a01b03909216945092909186565b60ca54604051634019bfc760e01b8152600481018390526000916001600160a01b031690634019bfc79060240160206040518083038186803b15801561065157600080fd5b505afa158015610665573d6000803e3d6000fd5b505050506040513d601f19601f820116820180604052508101906106899190612f8b565b156108005760ca54604051633404591760e21b8152600481018490526000916001600160a01b03169063d011645c9060240160206040518083038186803b1580156106d357600080fd5b505afa1580156106e7573d6000803e3d6000fd5b505050506040513d601f19601f8201168201806040525081019061070b9190613111565b60cc54604051631afbb35560e31b8152600481018390529192506000916001600160a01b039091169063d7dd9aa89060240160a06040518083038186803b15801561075557600080fd5b505afa158015610769573d6000803e3d6000fd5b505050506040513d601f19601f8201168201806040525081019061078d9190612fa7565b600085815260ce6020908152604091829020825160c0810184528154815260018201546001600160a01b03169281019290925260028101549282019290925260038201546060820152600482015460808083019190915260059092015460a0909101819052910151119250610804915050565b5060015b919050565b6002606554141561082c5760405162461bcd60e51b81526004016104bb906132b2565b600260655560d65460ff166108755760405162461bcd60e51b815260206004820152600f60248201526e149154d0d55148111254d050931151608a1b60448201526064016104bb565b600061087f612cb6565b610887612cb6565b6000805b85811015610e57578686828181106108b357634e487b7160e01b600052603260045260246000fd5b60ca54604051634019bfc760e01b815260209290920293909301356004820181905297506001600160a01b0390921691634019bfc7915060240160206040518083038186803b15801561090557600080fd5b505afa158015610919573d6000803e3d6000fd5b505050506040513d601f19601f8201168201806040525081019061093d9190612f8b565b15610aad57600085815260ce6020908152604091829020825160c0810184528154815260018201546001600160a01b031692810183905260028201549381019390935260038101546060840152600481015460808401526005015460a083015290945033146109e35760405162461bcd60e51b81526020600482015260126024820152715357495045522c204e4f2053574950494e4760701b60448201526064016104bb565b836080015184606001518560a001516109fc91906133a4565b610a069190613328565b60a085015260ca546001600160a01b031663b88d4fde3033886040518463ffffffff1660e01b8152600401610a3d9392919061314a565b600060405180830381600087803b158015610a5757600080fd5b505af1158015610a6b573d6000803e3d6000fd5b505060405160008152600192508791507f9cb40271f339db1081126b3a1e1bd03e3a8258e076fd708dec87a021290adbb09060200160405180910390a3610e45565b610ab685611ff0565b60ff8116600090815260cf6020908152604080832089845260d090925290912054815492945090918110610afa57634e487b7160e01b600052603260045260246000fd5b60009182526020918290206040805160c08101825260069093029091018054835260018101546001600160a01b031693830193909352600283015490820152600382015460608201526004820154608082015260059091015460a08201529350610b613390565b6001600160a01b031684602001516001600160a01b031614610bba5760405162461bcd60e51b81526020600482015260126024820152715357495045522c204e4f2053574950494e4760701b60448201526064016104bb565b8160ff1660c96000828254610bcf91906133a4565b909155505060ff8216600090815260cf602052604090208054610bf4906001906133a4565b81548110610c1257634e487b7160e01b600052603260045260246000fd5b600091825260208083206040805160c08101825260069094029091018054845260018101546001600160a01b03168484015260028101548483015260038101546060850152600481015460808501526005015460a084015260ff8616845260cf825280842089855260d09092529092205482549195508592918110610ca757634e487b7160e01b600052603260045260246000fd5b60009182526020808320845160069390930201918255838101516001830180546001600160a01b0319166001600160a01b039092169190911790556040808501516002840155606085015160038401556080850151600484015560a09094015160059092019190915587825260d0815282822054865183528383205560ff8516825260cf905220805480610d4b57634e487b7160e01b600052603160045260246000fd5b600082815260208082206006600019909401938402018281556001810180546001600160a01b03191690556002810183905560038101839055600481018390556005018290559190925586825260d09052604081205560ca546001600160a01b031663b88d4fde30610dba3390565b886040518463ffffffff1660e01b8152600401610dd99392919061314a565b600060405180830381600087803b158015610df357600080fd5b505af1158015610e07573d6000803e3d6000fd5b505060405160008152600192508791507f261f0854432bace3f0023f1dd8d91177b3bc455fb50acd7491782cd858b24c729060200160405180910390a35b80610e4f816133bb565b91505061088b565b505060016065555050505050565b6033546001600160a01b03163314610e8f5760405162461bcd60e51b81526004016104bb90613232565b610e99600061208d565b565b6033546001600160a01b03163314610ec55760405162461bcd60e51b81526004016104bb90613232565b60d6805460ff1916911515919091179055565b6033546001600160a01b03163314610f025760405162461bcd60e51b81526004016104bb90613232565b6729a2241af62c0000811115610f525760405162461bcd60e51b815260206004820152601560248201527445786365656473206d6178696d756d2076616c756560581b60448201526064016104bb565b60d355565b600054610100900460ff16610f725760005460ff1615610f76565b303b155b610fd95760405162461bcd60e51b815260206004820152602e60248201527f496e697469616c697a61626c653a20636f6e747261637420697320616c72656160448201526d191e481a5b9a5d1a585b1a5e995960921b60648201526084016104bb565b600054610100900460ff16158015611004576000805460ff1961ff0019909116610100171660011790555b61100c6120df565b611014612112565b61101c612140565b611024611f01565b80156105ab576000805461ff001916905550565b6002606554141561105b5760405162461bcd60e51b81526004016104bb906132b2565b600260655532331461109a5760405162461bcd60e51b81526020600482015260086024820152674f6e6c7920454f4160c01b60448201526064016104bb565b6001600160a01b03831632146110f25760405162461bcd60e51b815260206004820152601a60248201527f6163636f756e7420746f2073656e646572206d69736d6174636800000000000060448201526064016104bb565b60005b8181101561143c5760ca5433906001600160a01b0316636352211e85858581811061113057634e487b7160e01b600052603260045260246000fd5b905060200201356040518263ffffffff1660e01b815260040161115591815260200190565b60206040518083038186803b15801561116d57600080fd5b505afa158015611181573d6000803e3d6000fd5b505050506040513d601f19601f820116820180604052508101906111a59190612d76565b6001600160a01b0316146111fb5760405162461bcd60e51b815260206004820152601860248201527f596f7520646f6e2774206f776e207468697320746f6b656e000000000000000060448201526064016104bb565b61122a83838381811061121e57634e487b7160e01b600052603260045260246000fd5b9050602002013561060c565b6112765760405162461bcd60e51b815260206004820181905260248201527f63616e2774207374616b652e2075706772616465206c6576656c20666972737460448201526064016104bb565b60ca546001600160a01b03166323b872dd33308686868181106112a957634e487b7160e01b600052603260045260246000fd5b6040516001600160e01b031960e088901b1681526001600160a01b03958616600482015294909316602485015250602090910201356044820152606401600060405180830381600087803b15801561130057600080fd5b505af1158015611314573d6000803e3d6000fd5b505060ca546001600160a01b03169150634019bfc7905084848481811061134b57634e487b7160e01b600052603260045260246000fd5b905060200201356040518263ffffffff1660e01b815260040161137091815260200190565b60206040518083038186803b15801561138857600080fd5b505afa15801561139c573d6000803e3d6000fd5b505050506040513d601f19601f820116820180604052508101906113c09190612f8b565b156113fa576113f5848484848181106113e957634e487b7160e01b600052603260045260246000fd5b90506020020135612170565b61142a565b61142a8484848481811061141e57634e487b7160e01b600052603260045260246000fd5b90506020020135612229565b80611434816133bb565b9150506110f5565b505060016065555050565b60975460ff161561146a5760405162461bcd60e51b81526004016104bb906131b7565b61147682826000611850565b6000805b828110156115d85760008484838181106114a457634e487b7160e01b600052603260045260246000fd5b60ca54604051633404591760e21b815260209290920293909301356004820181905293506000926001600160a01b0316915063d011645c9060240160206040518083038186803b1580156114f757600080fd5b505afa15801561150b573d6000803e3d6000fd5b505050506040513d601f19601f8201168201806040525081019061152f9190613111565b60cc54604051631afbb35560e31b8152600481018390529192506000916001600160a01b039091169063d7dd9aa89060240160a06040518083038186803b15801561157957600080fd5b505afa15801561158d573d6000803e3d6000fd5b505050506040513d601f19601f820116820180604052508101906115b19190612fa7565b80519091506115c09086613328565b945050505080806115d0906133bb565b91505061147a565b5080156116795760cd546001600160a01b03166323b872dd336040516001600160e01b031960e084901b1681526001600160a01b03909116600482015230602482015260448101849052606401602060405180830381600087803b15801561163f57600080fd5b505af1158015611653573d6000803e3d6000fd5b505050506040513d601f19601f820116820180604052508101906116779190612f8b565b505b60cd5460ca5460405163095ea7b360e01b81526001600160a01b0391821660048201526024810184905291169063095ea7b390604401602060405180830381600087803b1580156116c957600080fd5b505af11580156116dd573d6000803e3d6000fd5b505050506040513d601f19601f820116820180604052508101906117019190612f8b565b5060ca54604051632edde27f60e21b81526001600160a01b039091169063bb7789fc90611734908690869060040161317d565b600060405180830381600087803b15801561174e57600080fd5b505af1158015611762573d6000803e3d6000fd5b5050505060005b828110156117d057600084848381811061179357634e487b7160e01b600052603260045260246000fd5b60209081029290920135600090815260ce9092525060408120426004820181905560038201556005015550806117c8816133bb565b915050611769565b50505050565b6033546001600160a01b031633146118005760405162461bcd60e51b81526004016104bb90613232565b60ca80546001600160a01b039586166001600160a01b03199182161790915560cb80549486169482169490941790935560cd80549285169284169290921790915560cc8054919093169116179055565b60975460ff16156118735760405162461bcd60e51b81526004016104bb906131b7565b600260655414156118965760405162461bcd60e51b81526004016104bb906132b2565b60026065553233146118d55760405162461bcd60e51b81526020600482015260086024820152674f6e6c7920454f4160c01b60448201526064016104bb565b6000805b83811015611a1c5760ca546001600160a01b0316634019bfc786868481811061191257634e487b7160e01b600052603260045260246000fd5b905060200201356040518263ffffffff1660e01b815260040161193791815260200190565b60206040518083038186803b15801561194f57600080fd5b505afa158015611963573d6000803e3d6000fd5b505050506040513d601f19601f820116820180604052508101906119879190612f8b565b156119cd576119bc8585838181106119af57634e487b7160e01b600052603260045260246000fd5b905060200201358461234a565b6119c69083613328565b9150611a0a565b6119fd8585838181106119f057634e487b7160e01b600052603260045260246000fd5b90506020020135846125dd565b611a079083613328565b91505b80611a14816133bb565b9150506118d9565b5060cb60009054906101000a90046001600160a01b03166001600160a01b0316639c47ee3b6040518163ffffffff1660e01b8152600401600060405180830381600087803b158015611a6d57600080fd5b505af1158015611a81573d6000803e3d6000fd5b505050508060001415611a945750611b08565b60cb546001600160a01b03166340c10f19336040516001600160e01b031960e084901b1681526001600160a01b03909116600482015260248101849052604401600060405180830381600087803b158015611aee57600080fd5b505af1158015611b02573d6000803e3d6000fd5b50505050505b5050600160655550565b60ca54604051634019bfc760e01b8152600481018390526000916001600160a01b031690634019bfc79060240160206040518083038186803b158015611b5757600080fd5b505afa158015611b6b573d6000803e3d6000fd5b505050506040513d601f19601f82011682018060405250810190611b8f9190612f8b565b15611d8d57600082815260ce60209081526040808320815160c0810183528154815260018201546001600160a01b039081169482019490945260028201548184015260038201546060820152600480830154608083015260059092015460a082015260ca549251633404591760e21b81529182018790529392919091169063d011645c9060240160206040518083038186803b158015611c2e57600080fd5b505afa158015611c42573d6000803e3d6000fd5b505050506040513d601f19601f82011682018060405250810190611c669190613111565b60cc54604051631afbb35560e31b8152600481018390529192506000916001600160a01b039091169063d7dd9aa89060240160a06040518083038186803b158015611cb057600080fd5b505afa158015611cc4573d6000803e3d6000fd5b505050506040513d601f19601f82011682018060405250810190611ce89190612fa7565b90506000836080015184606001518560a00151611d059190613328565b611d0f91906133a4565b905080826080015111611d255760009450611d84565b6000818360800151611d3791906133a4565b90506000856060015142611d4b91906133a4565b90506000818311611d5c5782611d5e565b815b905062015180856060015182611d749190613385565b611d7e9190613365565b97505050505b50505050610804565b6000611d9883611ff0565b9050600060cf60008360ff16815260200190815260200160002060d060008681526020019081526020016000205481548110611de457634e487b7160e01b600052603260045260246000fd5b60009182526020918290206040805160c08101825260069093029091018054835260018101546001600160a01b0316938301939093526002830154908201819052600383015460608301526004830154608083015260059092015460a082015260d254909250611e5491906133a4565b611e619060ff8416613385565b949350505050565b6033546001600160a01b03163314611e935760405162461bcd60e51b81526004016104bb90613232565b6001600160a01b038116611ef85760405162461bcd60e51b815260206004820152602660248201527f4f776e61626c653a206e6577206f776e657220697320746865207a65726f206160448201526564647265737360d01b60648201526084016104bb565b6105ab8161208d565b60975460ff1615611f245760405162461bcd60e51b81526004016104bb906131b7565b6097805460ff191660011790557f62e78cea01bee320cd4e420270b5ea74000d11b0c9f74754ebdbfc544b05a258611f593390565b6040516001600160a01b03909116815260200160405180910390a1565b60975460ff16611fbf5760405162461bcd60e51b815260206004820152601460248201527314185d5cd8589b194e881b9bdd081c185d5cd95960621b60448201526064016104bb565b6097805460ff191690557f5db9ee0a495bf2e6ff9c91a7834c1ba4fdd244a5e8aa4e537bd38aeae4b073aa33611f59565b60ca546040516394e5684760e01b81526004810183905260009182916001600160a01b03909116906394e56847906024016101a06040518083038186803b15801561203a57600080fd5b505afa15801561204e573d6000803e3d6000fd5b505050506040513d601f19601f820116820180604052508101906120729190612ff8565b905080610180015160016120869190613340565b9392505050565b603380546001600160a01b038381166001600160a01b0319831681179093556040519116919082907f8be0079c531659141344cd1fd0a4f28419497f9722a3daafe3b4186f6b6457e090600090a35050565b600054610100900460ff166121065760405162461bcd60e51b81526004016104bb90613267565b6097805460ff19169055565b600054610100900460ff166121395760405162461bcd60e51b81526004016104bb90613267565b6001606555565b600054610100900460ff166121675760405162461bcd60e51b81526004016104bb90613267565b610e993361208d565b60975460ff16156121935760405162461bcd60e51b81526004016104bb906131b7565b600081815260ce60209081526040808320848155600180820180546001600160a01b0319166001600160a01b038916908117909155426004840181905560038401556005830154600284018790558451928352948201949094529182019390935283907f4906e354a9bd111d27ae73b8f90820d60fec6d26539a57a55e4e159d1473bd68906060015b60405180910390a3505050565b600061223482611ff0565b90508060ff1660c9600082825461224b9190613328565b909155505060ff8116600090815260cf60208181526040808420805487865260d08452828620819055938352815160c0810183528781526001600160a01b0389811682860181815260d280548588019081524260608088018281526080890192835260a089018e81526001808f018c559a8f528c8f2099516006909e029099019c8d559451988c0180546001600160a01b03191699909716989098179095555160028a015590516003890155915160048801559151600590960195909555935482518681529384019590955290820193909352909184917f4906e354a9bd111d27ae73b8f90820d60fec6d26539a57a55e4e159d1473bd68910161221c565b600082815260ce6020526040812060018101546001600160a01b031633146123b45760405162461bcd60e51b815260206004820152601960248201527f446f6e2774206f776e2074686520676976656e20746f6b656e0000000000000060448201526064016104bb565b6123bd84611b12565b91506123de60646123cf601485613385565b6123d99190613365565b612c5a565b60646123eb6014826133a4565b6123f59084613385565b6123ff9190613365565b426003830155915082156125995760d35482101561242f5760405162461bcd60e51b81526004016104bb906131e1565b60d35461243c90836133a4565b9150806005015481600401544261245391906133a4565b61245d9190613328565b600582015560cb5460d3546040516340c10f1960e01b815230600482015260248101919091526001600160a01b03909116906340c10f1990604401600060405180830381600087803b1580156124b257600080fd5b505af11580156124c6573d6000803e3d6000fd5b505060cb5460d354604051632770a7eb60e21b815230600482015260248101919091526001600160a01b039091169250639dc29fac9150604401600060405180830381600087803b15801561251a57600080fd5b505af115801561252e573d6000803e3d6000fd5b505060ca54604051635c46a7ef60e11b81526001600160a01b03909116925063b88d4fde91506125669030903390899060040161314a565b600060405180830381600087803b15801561258057600080fd5b505af1158015612594573d6000803e3d6000fd5b505050505b821515847f9cb40271f339db1081126b3a1e1bd03e3a8258e076fd708dec87a021290adbb0846040516125ce91815260200190565b60405180910390a35092915050565b60ca546040516331a9108f60e11b81526004810184905260009130916001600160a01b0390911690636352211e9060240160206040518083038186803b15801561262657600080fd5b505afa15801561263a573d6000803e3d6000fd5b505050506040513d601f19601f8201168201806040525081019061265e9190612d76565b6001600160a01b0316146126a85760405162461bcd60e51b81526020600482015260116024820152702237b2b9b713ba1037bbb7103a37b5b2b760791b60448201526064016104bb565b60006126b384611ff0565b9050600060cf60008360ff16815260200190815260200160002060d0600087815260200190815260200160002054815481106126ff57634e487b7160e01b600052603260045260246000fd5b60009182526020918290206040805160c08101825260069093029091018054835260018101546001600160a01b031693830193909352600283015490820152600382015460608201526004820154608082015260059091015460a082015290506127663390565b6001600160a01b031681602001516001600160a01b0316146127be5760405162461bcd60e51b81526020600482015260116024820152702237b2b9b713ba1037bbb7103a37b5b2b760791b60448201526064016104bb565b6127c785611b12565b92508315612b235760d3548310156127f15760405162461bcd60e51b81526004016104bb906131e1565b60d3546127fe90846133a4565b92508160ff1660c9600082825461281591906133a4565b909155505060ff8216600090815260cf60205260408120805461283a906001906133a4565b8154811061285857634e487b7160e01b600052603260045260246000fd5b600091825260208083206040805160c08101825260069094029091018054845260018101546001600160a01b03168484015260028101548483015260038101546060850152600481015460808501526005015460a084015260ff8716845260cf82528084208a855260d090925290922054825491935083929181106128ed57634e487b7160e01b600052603260045260246000fd5b60009182526020808320845160069390930201918255838101516001830180546001600160a01b0319166001600160a01b039092169190911790556040808501516002840155606085015160038401556080850151600484015560a09094015160059092019190915588825260d0815282822054845183528383205560ff8616825260cf90522080548061299157634e487b7160e01b600052603160045260246000fd5b600082815260208120600660001993909301928302018181556001810180546001600160a01b031916905560028101829055600381018290556004808201839055600590910191909155915560cb5460d3546040516340c10f1960e01b8152309381019390935260248301526001600160a01b0316906340c10f1990604401600060405180830381600087803b158015612a2a57600080fd5b505af1158015612a3e573d6000803e3d6000fd5b505060cb5460d354604051632770a7eb60e21b815230600482015260248101919091526001600160a01b039091169250639dc29fac9150604401600060405180830381600087803b158015612a9257600080fd5b505af1158015612aa6573d6000803e3d6000fd5b505050600087815260d060205260408120555060ca546001600160a01b031663b88d4fde3033896040518463ffffffff1660e01b8152600401612aeb9392919061314a565b600060405180830381600087803b158015612b0557600080fd5b505af1158015612b19573d6000803e3d6000fd5b5050505050612c15565b6040518060c00160405280868152602001612b3b3390565b6001600160a01b0316815260200160d254815260200142815260200182608001518152602001600081525060cf60008460ff16815260200190815260200160002060d060008881526020019081526020016000205481548110612bae57634e487b7160e01b600052603260045260246000fd5b6000918252602091829020835160069290920201908155908201516001820180546001600160a01b0319166001600160a01b0390921691909117905560408201516002820155606082015160038201556080820151600482015560a0909101516005909101555b831515857f261f0854432bace3f0023f1dd8d91177b3bc455fb50acd7491782cd858b24c7285604051612c4a91815260200190565b60405180910390a3505092915050565b60c954612c7e578060d16000828254612c739190613328565b909155506105ab9050565b60c95460d154612c8e9083613328565b612c989190613365565b60d26000828254612ca99190613328565b9091555050600060d15550565b6040518060c001604052806000815260200160006001600160a01b03168152602001600081526020016000815260200160008152602001600081525090565b60008083601f840112612d06578182fd5b50813567ffffffffffffffff811115612d1d578182fd5b6020830191508360208083028501011115612d3757600080fd5b9250929050565b805161080481613401565b805160ff8116811461080457600080fd5b600060208284031215612d6b578081fd5b8135612086816133ec565b600060208284031215612d87578081fd5b8151612086816133ec565b60008060008060808587031215612da7578283fd5b8435612db2816133ec565b93506020850135612dc2816133ec565b92506040850135612dd2816133ec565b91506060850135612de2816133ec565b939692955090935050565b600080600080600060808688031215612e04578081fd5b8535612e0f816133ec565b94506020860135612e1f816133ec565b935060408601359250606086013567ffffffffffffffff80821115612e42578283fd5b818801915088601f830112612e55578283fd5b813581811115612e63578384fd5b896020828501011115612e74578384fd5b9699959850939650602001949392505050565b600080600060408486031215612e9b578283fd5b8335612ea6816133ec565b9250602084013567ffffffffffffffff811115612ec1578283fd5b612ecd86828701612cf5565b9497909650939450505050565b60008060208385031215612eec578182fd5b823567ffffffffffffffff811115612f02578283fd5b612f0e85828601612cf5565b90969095509350505050565b600080600060408486031215612f2e578283fd5b833567ffffffffffffffff811115612f44578384fd5b612f5086828701612cf5565b9094509250506020840135612f6481613401565b809150509250925092565b600060208284031215612f80578081fd5b813561208681613401565b600060208284031215612f9c578081fd5b815161208681613401565b600060a08284031215612fb8578081fd5b612fc260a06132e9565b82518152602083015160208201526040830151604082015260608301516060820152608083015160808201528091505092915050565b60006101a080838503121561300b578182fd5b613014816132e9565b905061301f83612d3e565b815261302d60208401612d49565b602082015261303e60408401612d49565b604082015261304f60608401612d49565b606082015261306060808401612d49565b608082015261307160a08401612d49565b60a082015261308260c08401612d49565b60c082015261309360e08401612d49565b60e08201526101006130a6818501612d49565b908201526101206130b8848201612d49565b908201526101406130ca848201612d49565b908201526101606130dc848201612d49565b908201526101806130ee848201612d49565b908201529392505050565b60006020828403121561310a578081fd5b5035919050565b600060208284031215613122578081fd5b5051919050565b6000806040838503121561313b578182fd5b50508035926020909101359150565b6001600160a01b039384168152919092166020820152604081019190915260806060820181905260009082015260a00190565b6020808252810182905260006001600160fb1b0383111561319c578081fd5b60208302808560408501379190910160400190815292915050565b60208082526010908201526f14185d5cd8589b194e881c185d5cd95960821b604082015260600190565b60208082526031908201527f556e7374616b6520616d6f756e7420697320736d616c6c6572207468616e20746040820152701a19481c195b985b1d1e48185b5bdd5b9d607a1b606082015260800190565b6020808252818101527f4f776e61626c653a2063616c6c6572206973206e6f7420746865206f776e6572604082015260600190565b6020808252602b908201527f496e697469616c697a61626c653a20636f6e7472616374206973206e6f74206960408201526a6e697469616c697a696e6760a81b606082015260800190565b6020808252601f908201527f5265656e7472616e637947756172643a207265656e7472616e742063616c6c00604082015260600190565b604051601f8201601f1916810167ffffffffffffffff8111828210171561332057634e487b7160e01b600052604160045260246000fd5b604052919050565b6000821982111561333b5761333b6133d6565b500190565b600060ff821660ff84168060ff0382111561335d5761335d6133d6565b019392505050565b60008261338057634e487b7160e01b81526012600452602481fd5b500490565b600081600019048311821515161561339f5761339f6133d6565b500290565b6000828210156133b6576133b66133d6565b500390565b60006000198214156133cf576133cf6133d6565b5060010190565b634e487b7160e01b600052601160045260246000fd5b6001600160a01b03811681146105ab57600080fd5b80151581146105ab57600080fdfea264697066735822122079bdc03a0d3987b6a0ce7d14a98a147bf7834e786bb7a68f74c825cb813c6b7364736f6c63430008020033",
  "devdoc": {
    "kind": "dev",
    "methods": {
      "addManyToMarinePoolAndAlienPool(address,uint256[])": {
        "params": {
          "account": "the address of the staker",
          "tokenIds": "the IDs of the Marines and Aliens to stake"
        }
      },
      "calculateRewards(uint256)": {
        "params": {
          "tokenId": "- The token id you're gonna calculate for"
        }
      },
      "claimManyFromMarinePoolAndAlienPool(uint256[],bool)": {
        "params": {
          "tokenIds": "the IDs of the tokens to claim earnings from",
          "unstake": "whether or not to unstake ALL of the tokens listed in tokenIds"
        }
      },
      "owner()": {
        "details": "Returns the address of the current owner."
      },
      "paused()": {
        "details": "Returns true if the contract is paused, and false otherwise."
      },
      "renounceOwnership()": {
        "details": "Leaves the contract without owner. It will not be possible to call `onlyOwner` functions anymore. Can only be called by the current owner. NOTE: Renouncing ownership will leave the contract without an owner, thereby removing any functionality that is only available to the owner."
      },
      "rescue(uint256[])": {
        "params": {
          "tokenIds": "the IDs of the tokens to claim earnings from"
        }
      },
      "transferOwnership(address)": {
        "details": "Transfers ownership of the contract to a new account (`newOwner`). Can only be called by the current owner."
      }
    },
    "version": 1
  },
  "userdoc": {
    "kind": "user",
    "methods": {
      "addManyToMarinePoolAndAlienPool(address,uint256[])": {
        "notice": "adds Marines and Aliens to the MarinePool and AlienPool"
      },
      "calculateRewards(uint256)": {
        "notice": "Calculates how much distributes for `tokenId`"
      },
      "canStake(uint256)": {
        "notice": "Determines whether `tokenId` can be staked or not. Token needs to have remaining accure duration for each level to stake"
      },
      "claimManyFromMarinePoolAndAlienPool(uint256[],bool)": {
        "notice": "realize $KLAYE earnings and optionally unstake tokens from the MarinePool / AlienPool to unstake a Marine it will require it has 2 days worth of $KLAYE unclaimed"
      },
      "rescue(uint256[])": {
        "notice": "emergency unstake tokens"
      },
      "setPaused(bool)": {
        "notice": "enables owner to pause / unpause contract"
      },
      "setRescueEnabled(bool)": {
        "notice": "allows owner to enable \"rescue mode\" simplifies accounting, prioritizes tokens out in emergency"
      },
      "upgradeLevel(uint256[])": {
        "notice": "Upgrades levels of tokens to get rewards continuosly"
      }
    },
    "version": 1
  },
  "storageLayout": {
    "storage": [
      {
        "astId": 806,
        "contract": "contracts/StakingPoolv2.sol:StakingPoolv2",
        "label": "_initialized",
        "offset": 0,
        "slot": "0",
        "type": "t_bool"
      },
      {
        "astId": 809,
        "contract": "contracts/StakingPoolv2.sol:StakingPoolv2",
        "label": "_initializing",
        "offset": 1,
        "slot": "0",
        "type": "t_bool"
      },
      {
        "astId": 1443,
        "contract": "contracts/StakingPoolv2.sol:StakingPoolv2",
        "label": "__gap",
        "offset": 0,
        "slot": "1",
        "type": "t_array(t_uint256)50_storage"
      },
      {
        "astId": 276,
        "contract": "contracts/StakingPoolv2.sol:StakingPoolv2",
        "label": "_owner",
        "offset": 0,
        "slot": "51",
        "type": "t_address"
      },
      {
        "astId": 390,
        "contract": "contracts/StakingPoolv2.sol:StakingPoolv2",
        "label": "__gap",
        "offset": 0,
        "slot": "52",
        "type": "t_array(t_uint256)49_storage"
      },
      {
        "astId": 1111,
        "contract": "contracts/StakingPoolv2.sol:StakingPoolv2",
        "label": "_status",
        "offset": 0,
        "slot": "101",
        "type": "t_uint256"
      },
      {
        "astId": 1154,
        "contract": "contracts/StakingPoolv2.sol:StakingPoolv2",
        "label": "__gap",
        "offset": 0,
        "slot": "102",
        "type": "t_array(t_uint256)49_storage"
      },
      {
        "astId": 1005,
        "contract": "contracts/StakingPoolv2.sol:StakingPoolv2",
        "label": "_paused",
        "offset": 0,
        "slot": "151",
        "type": "t_bool"
      },
      {
        "astId": 1096,
        "contract": "contracts/StakingPoolv2.sol:StakingPoolv2",
        "label": "__gap",
        "offset": 0,
        "slot": "152",
        "type": "t_array(t_uint256)49_storage"
      },
      {
        "astId": 14370,
        "contract": "contracts/StakingPoolv2.sol:StakingPoolv2",
        "label": "totalRankStaked",
        "offset": 0,
        "slot": "201",
        "type": "t_uint256"
      },
      {
        "astId": 14401,
        "contract": "contracts/StakingPoolv2.sol:StakingPoolv2",
        "label": "mnaNFT",
        "offset": 0,
        "slot": "202",
        "type": "t_contract(IMnAv2)17953"
      },
      {
        "astId": 14404,
        "contract": "contracts/StakingPoolv2.sol:StakingPoolv2",
        "label": "klayeToken",
        "offset": 0,
        "slot": "203",
        "type": "t_contract(IKLAYE)17781"
      },
      {
        "astId": 14407,
        "contract": "contracts/StakingPoolv2.sol:StakingPoolv2",
        "label": "levelMath",
        "offset": 0,
        "slot": "204",
        "type": "t_contract(ILevelMath)17803"
      },
      {
        "astId": 14410,
        "contract": "contracts/StakingPoolv2.sol:StakingPoolv2",
        "label": "oresToken",
        "offset": 0,
        "slot": "205",
        "type": "t_contract(IORES)17984"
      },
      {
        "astId": 14415,
        "contract": "contracts/StakingPoolv2.sol:StakingPoolv2",
        "label": "marinePool",
        "offset": 0,
        "slot": "206",
        "type": "t_mapping(t_uint256,t_struct(Stake)14368_storage)"
      },
      {
        "astId": 14421,
        "contract": "contracts/StakingPoolv2.sol:StakingPoolv2",
        "label": "alienPool",
        "offset": 0,
        "slot": "207",
        "type": "t_mapping(t_uint256,t_array(t_struct(Stake)14368_storage)dyn_storage)"
      },
      {
        "astId": 14425,
        "contract": "contracts/StakingPoolv2.sol:StakingPoolv2",
        "label": "alienPoolIndices",
        "offset": 0,
        "slot": "208",
        "type": "t_mapping(t_uint256,t_uint256)"
      },
      {
        "astId": 14427,
        "contract": "contracts/StakingPoolv2.sol:StakingPoolv2",
        "label": "unaccountedRewards",
        "offset": 0,
        "slot": "209",
        "type": "t_uint256"
      },
      {
        "astId": 14429,
        "contract": "contracts/StakingPoolv2.sol:StakingPoolv2",
        "label": "klayePerRank",
        "offset": 0,
        "slot": "210",
        "type": "t_uint256"
      },
      {
        "astId": 14438,
        "contract": "contracts/StakingPoolv2.sol:StakingPoolv2",
        "label": "UNSTAKE_KLAYE_AMOUNT",
        "offset": 0,
        "slot": "211",
        "type": "t_uint256"
      },
      {
        "astId": 14440,
        "contract": "contracts/StakingPoolv2.sol:StakingPoolv2",
        "label": "totalKLAYEEarned",
        "offset": 0,
        "slot": "212",
        "type": "t_uint256"
      },
      {
        "astId": 14442,
        "contract": "contracts/StakingPoolv2.sol:StakingPoolv2",
        "label": "lastClaimTimestamp",
        "offset": 0,
        "slot": "213",
        "type": "t_uint256"
      },
      {
        "astId": 14444,
        "contract": "contracts/StakingPoolv2.sol:StakingPoolv2",
        "label": "rescueEnabled",
        "offset": 0,
        "slot": "214",
        "type": "t_bool"
      }
    ],
    "types": {
      "t_address": {
        "encoding": "inplace",
        "label": "address",
        "numberOfBytes": "20"
      },
      "t_array(t_struct(Stake)14368_storage)dyn_storage": {
        "base": "t_struct(Stake)14368_storage",
        "encoding": "dynamic_array",
        "label": "struct StakingPoolv2.Stake[]",
        "numberOfBytes": "32"
      },
      "t_array(t_uint256)49_storage": {
        "base": "t_uint256",
        "encoding": "inplace",
        "label": "uint256[49]",
        "numberOfBytes": "1568"
      },
      "t_array(t_uint256)50_storage": {
        "base": "t_uint256",
        "encoding": "inplace",
        "label": "uint256[50]",
        "numberOfBytes": "1600"
      },
      "t_bool": {
        "encoding": "inplace",
        "label": "bool",
        "numberOfBytes": "1"
      },
      "t_contract(IKLAYE)17781": {
        "encoding": "inplace",
        "label": "contract IKLAYE",
        "numberOfBytes": "20"
      },
      "t_contract(ILevelMath)17803": {
        "encoding": "inplace",
        "label": "contract ILevelMath",
        "numberOfBytes": "20"
      },
      "t_contract(IMnAv2)17953": {
        "encoding": "inplace",
        "label": "contract IMnAv2",
        "numberOfBytes": "20"
      },
      "t_contract(IORES)17984": {
        "encoding": "inplace",
        "label": "contract IORES",
        "numberOfBytes": "20"
      },
      "t_mapping(t_uint256,t_array(t_struct(Stake)14368_storage)dyn_storage)": {
        "encoding": "mapping",
        "key": "t_uint256",
        "label": "mapping(uint256 => struct StakingPoolv2.Stake[])",
        "numberOfBytes": "32",
        "value": "t_array(t_struct(Stake)14368_storage)dyn_storage"
      },
      "t_mapping(t_uint256,t_struct(Stake)14368_storage)": {
        "encoding": "mapping",
        "key": "t_uint256",
        "label": "mapping(uint256 => struct StakingPoolv2.Stake)",
        "numberOfBytes": "32",
        "value": "t_struct(Stake)14368_storage"
      },
      "t_mapping(t_uint256,t_uint256)": {
        "encoding": "mapping",
        "key": "t_uint256",
        "label": "mapping(uint256 => uint256)",
        "numberOfBytes": "32",
        "value": "t_uint256"
      },
      "t_struct(Stake)14368_storage": {
        "encoding": "inplace",
        "label": "struct StakingPoolv2.Stake",
        "members": [
          {
            "astId": 14357,
            "contract": "contracts/StakingPoolv2.sol:StakingPoolv2",
            "label": "tokenId",
            "offset": 0,
            "slot": "0",
            "type": "t_uint256"
          },
          {
            "astId": 14359,
            "contract": "contracts/StakingPoolv2.sol:StakingPoolv2",
            "label": "owner",
            "offset": 0,
            "slot": "1",
            "type": "t_address"
          },
          {
            "astId": 14361,
            "contract": "contracts/StakingPoolv2.sol:StakingPoolv2",
            "label": "value",
            "offset": 0,
            "slot": "2",
            "type": "t_uint256"
          },
          {
            "astId": 14363,
            "contract": "contracts/StakingPoolv2.sol:StakingPoolv2",
            "label": "lastClaimTime",
            "offset": 0,
            "slot": "3",
            "type": "t_uint256"
          },
          {
            "astId": 14365,
            "contract": "contracts/StakingPoolv2.sol:StakingPoolv2",
            "label": "startTime",
            "offset": 0,
            "slot": "4",
            "type": "t_uint256"
          },
          {
            "astId": 14367,
            "contract": "contracts/StakingPoolv2.sol:StakingPoolv2",
            "label": "stakedDuration",
            "offset": 0,
            "slot": "5",
            "type": "t_uint256"
          }
        ],
        "numberOfBytes": "192"
      },
      "t_uint256": {
        "encoding": "inplace",
        "label": "uint256",
        "numberOfBytes": "32"
      }
    }
  }
}