{
  "address": "0x70859ad3ab058373D0f9B3810f747CCdbAf57Ef7",
  "abi": [
    {
      "anonymous": false,
      "inputs": [
        {
          "indexed": true,
          "internalType": "uint256",
          "name": "tokenId",
          "type": "uint256"
        },
        {
          "indexed": true,
          "internalType": "bool",
          "name": "unstaked",
          "type": "bool"
        },
        {
          "indexed": false,
          "internalType": "uint256",
          "name": "earned",
          "type": "uint256"
        }
      ],
      "name": "AlienClaimed",
      "type": "event"
    },
    {
      "anonymous": false,
      "inputs": [
        {
          "indexed": true,
          "internalType": "uint256",
          "name": "tokenId",
          "type": "uint256"
        },
        {
          "indexed": true,
          "internalType": "bool",
          "name": "unstaked",
          "type": "bool"
        },
        {
          "indexed": false,
          "internalType": "uint256",
          "name": "earned",
          "type": "uint256"
        }
      ],
      "name": "MarineClaimed",
      "type": "event"
    },
    {
      "anonymous": false,
      "inputs": [
        {
          "indexed": true,
          "internalType": "address",
          "name": "previousOwner",
          "type": "address"
        },
        {
          "indexed": true,
          "internalType": "address",
          "name": "newOwner",
          "type": "address"
        }
      ],
      "name": "OwnershipTransferred",
      "type": "event"
    },
    {
      "anonymous": false,
      "inputs": [
        {
          "indexed": false,
          "internalType": "address",
          "name": "account",
          "type": "address"
        }
      ],
      "name": "Paused",
      "type": "event"
    },
    {
      "anonymous": false,
      "inputs": [
        {
          "indexed": true,
          "internalType": "uint256",
          "name": "tokenId",
          "type": "uint256"
        },
        {
          "indexed": true,
          "internalType": "address",
          "name": "owner",
          "type": "address"
        },
        {
          "indexed": false,
          "internalType": "bool",
          "name": "isMarine",
          "type": "bool"
        },
        {
          "indexed": false,
          "internalType": "uint256",
          "name": "stakedDuration",
          "type": "uint256"
        },
        {
          "indexed": false,
          "internalType": "uint256",
          "name": "value",
          "type": "uint256"
        }
      ],
      "name": "TokenStaked",
      "type": "event"
    },
    {
      "anonymous": false,
      "inputs": [
        {
          "indexed": false,
          "internalType": "address",
          "name": "account",
          "type": "address"
        }
      ],
      "name": "Unpaused",
      "type": "event"
    },
    {
      "inputs": [],
      "name": "KLAYE_CLAIM_TAX_PERCENTAGE",
      "outputs": [
        {
          "internalType": "uint256",
          "name": "",
          "type": "uint256"
        }
      ],
      "stateMutability": "view",
      "type": "function"
    },
    {
      "inputs": [],
      "name": "MAX_RANK",
      "outputs": [
        {
          "internalType": "uint8",
          "name": "",
          "type": "uint8"
        }
      ],
      "stateMutability": "view",
      "type": "function"
    },
    {
      "inputs": [],
      "name": "MINIMUM_TO_EXIT",
      "outputs": [
        {
          "internalType": "uint256",
          "name": "",
          "type": "uint256"
        }
      ],
      "stateMutability": "view",
      "type": "function"
    },
    {
      "inputs": [],
      "name": "UNSTAKE_KLAYE_AMOUNT",
      "outputs": [
        {
          "internalType": "uint256",
          "name": "",
          "type": "uint256"
        }
      ],
      "stateMutability": "view",
      "type": "function"
    },
    {
      "inputs": [
        {
          "internalType": "address",
          "name": "account",
          "type": "address"
        },
        {
          "internalType": "uint256[]",
          "name": "tokenIds",
          "type": "uint256[]"
        }
      ],
      "name": "addManyToMarinePoolAndAlienPool",
      "outputs": [],
      "stateMutability": "nonpayable",
      "type": "function"
    },
    {
      "inputs": [
        {
          "internalType": "uint256",
          "name": "",
          "type": "uint256"
        },
        {
          "internalType": "uint256",
          "name": "",
          "type": "uint256"
        }
      ],
      "name": "alienPool",
      "outputs": [
        {
          "internalType": "uint256",
          "name": "tokenId",
          "type": "uint256"
        },
        {
          "internalType": "address",
          "name": "owner",
          "type": "address"
        },
        {
          "internalType": "uint256",
          "name": "value",
          "type": "uint256"
        },
        {
          "internalType": "uint256",
          "name": "lastClaimTime",
          "type": "uint256"
        },
        {
          "internalType": "uint256",
          "name": "startTime",
          "type": "uint256"
        },
        {
          "internalType": "uint256",
          "name": "stakedDuration",
          "type": "uint256"
        },
        {
          "internalType": "uint256",
          "name": "tokenLevel",
          "type": "uint256"
        }
      ],
      "stateMutability": "view",
      "type": "function"
    },
    {
      "inputs": [
        {
          "internalType": "uint256",
          "name": "tokenId",
          "type": "uint256"
        }
      ],
      "name": "calculateRewards",
      "outputs": [
        {
          "internalType": "uint256",
          "name": "owed",
          "type": "uint256"
        }
      ],
      "stateMutability": "view",
      "type": "function"
    },
    {
      "inputs": [
        {
          "internalType": "uint256",
          "name": "tokenId",
          "type": "uint256"
        },
        {
          "internalType": "uint256",
          "name": "tokenLevel",
          "type": "uint256"
        }
      ],
      "name": "canStake",
      "outputs": [
        {
          "internalType": "bool",
          "name": "",
          "type": "bool"
        }
      ],
      "stateMutability": "view",
      "type": "function"
    },
    {
      "inputs": [
        {
          "internalType": "uint256[]",
          "name": "tokenIds",
          "type": "uint256[]"
        },
        {
          "internalType": "bool",
          "name": "unstake",
          "type": "bool"
        }
      ],
      "name": "claimManyFromMarinePoolAndAlienPool",
      "outputs": [],
      "stateMutability": "nonpayable",
      "type": "function"
    },
    {
      "inputs": [],
      "name": "initialize",
      "outputs": [],
      "stateMutability": "nonpayable",
      "type": "function"
    },
    {
      "inputs": [],
      "name": "klayeToken",
      "outputs": [
        {
          "internalType": "contract IKLAYE",
          "name": "",
          "type": "address"
        }
      ],
      "stateMutability": "view",
      "type": "function"
    },
    {
      "inputs": [],
      "name": "levelMath",
      "outputs": [
        {
          "internalType": "contract ILevelMath",
          "name": "",
          "type": "address"
        }
      ],
      "stateMutability": "view",
      "type": "function"
    },
    {
      "inputs": [
        {
          "internalType": "uint256",
          "name": "",
          "type": "uint256"
        }
      ],
      "name": "marinePool",
      "outputs": [
        {
          "internalType": "uint256",
          "name": "tokenId",
          "type": "uint256"
        },
        {
          "internalType": "address",
          "name": "owner",
          "type": "address"
        },
        {
          "internalType": "uint256",
          "name": "value",
          "type": "uint256"
        },
        {
          "internalType": "uint256",
          "name": "lastClaimTime",
          "type": "uint256"
        },
        {
          "internalType": "uint256",
          "name": "startTime",
          "type": "uint256"
        },
        {
          "internalType": "uint256",
          "name": "stakedDuration",
          "type": "uint256"
        },
        {
          "internalType": "uint256",
          "name": "tokenLevel",
          "type": "uint256"
        }
      ],
      "stateMutability": "view",
      "type": "function"
    },
    {
      "inputs": [],
      "name": "mnaNFT",
      "outputs": [
        {
          "internalType": "contract IMnAv2",
          "name": "",
          "type": "address"
        }
      ],
      "stateMutability": "view",
      "type": "function"
    },
    {
      "inputs": [
        {
          "internalType": "address",
          "name": "",
          "type": "address"
        },
        {
          "internalType": "address",
          "name": "from",
          "type": "address"
        },
        {
          "internalType": "uint256",
          "name": "",
          "type": "uint256"
        },
        {
          "internalType": "bytes",
          "name": "",
          "type": "bytes"
        }
      ],
      "name": "onERC721Received",
      "outputs": [
        {
          "internalType": "bytes4",
          "name": "",
          "type": "bytes4"
        }
      ],
      "stateMutability": "pure",
      "type": "function"
    },
    {
      "inputs": [],
      "name": "oresToken",
      "outputs": [
        {
          "internalType": "contract IORES",
          "name": "",
          "type": "address"
        }
      ],
      "stateMutability": "view",
      "type": "function"
    },
    {
      "inputs": [],
      "name": "owner",
      "outputs": [
        {
          "internalType": "address",
          "name": "",
          "type": "address"
        }
      ],
      "stateMutability": "view",
      "type": "function"
    },
    {
      "inputs": [],
      "name": "paused",
      "outputs": [
        {
          "internalType": "bool",
          "name": "",
          "type": "bool"
        }
      ],
      "stateMutability": "view",
      "type": "function"
    },
    {
      "inputs": [],
      "name": "renounceOwnership",
      "outputs": [],
      "stateMutability": "nonpayable",
      "type": "function"
    },
    {
      "inputs": [
        {
          "internalType": "uint256[]",
          "name": "tokenIds",
          "type": "uint256[]"
        }
      ],
      "name": "rescue",
      "outputs": [],
      "stateMutability": "nonpayable",
      "type": "function"
    },
    {
      "inputs": [],
      "name": "rescueEnabled",
      "outputs": [
        {
          "internalType": "bool",
          "name": "",
          "type": "bool"
        }
      ],
      "stateMutability": "view",
      "type": "function"
    },
    {
      "inputs": [
        {
          "internalType": "address",
          "name": "_mnaNFT",
          "type": "address"
        },
        {
          "internalType": "address",
          "name": "_klaye",
          "type": "address"
        },
        {
          "internalType": "address",
          "name": "_ores",
          "type": "address"
        },
        {
          "internalType": "address",
          "name": "_levelMath",
          "type": "address"
        }
      ],
      "name": "setContracts",
      "outputs": [],
      "stateMutability": "nonpayable",
      "type": "function"
    },
    {
      "inputs": [
        {
          "internalType": "bool",
          "name": "_paused",
          "type": "bool"
        }
      ],
      "name": "setPaused",
      "outputs": [],
      "stateMutability": "nonpayable",
      "type": "function"
    },
    {
      "inputs": [
        {
          "internalType": "bool",
          "name": "_enabled",
          "type": "bool"
        }
      ],
      "name": "setRescueEnabled",
      "outputs": [],
      "stateMutability": "nonpayable",
      "type": "function"
    },
    {
      "inputs": [
        {
          "internalType": "uint256",
          "name": "amount",
          "type": "uint256"
        }
      ],
      "name": "setUnStakeKlayeAmount",
      "outputs": [],
      "stateMutability": "nonpayable",
      "type": "function"
    },
    {
      "inputs": [],
      "name": "totalKLAYEEarned",
      "outputs": [
        {
          "internalType": "uint256",
          "name": "",
          "type": "uint256"
        }
      ],
      "stateMutability": "view",
      "type": "function"
    },
    {
      "inputs": [
        {
          "internalType": "address",
          "name": "newOwner",
          "type": "address"
        }
      ],
      "name": "transferOwnership",
      "outputs": [],
      "stateMutability": "nonpayable",
      "type": "function"
    },
    {
      "inputs": [
        {
          "internalType": "uint256[]",
          "name": "tokenIds",
          "type": "uint256[]"
        }
      ],
      "name": "upgradeLevel",
      "outputs": [],
      "stateMutability": "nonpayable",
      "type": "function"
    }
  ],
  "transactionHash": "0xfea89dec4558e3c6d0e92ea71f9ac6c5c6fdb1dadd84339ac37e1c56105392ca",
  "args": [],
  "numDeployments": 9,
  "solcInputHash": "b43db8c6d2e22b17616dfa637e220182",
  "bytecode": "0x60806040526729a2241af62c000060d35534801561001c57600080fd5b506136ab8061002c6000396000f3fe608060405234801561001057600080fd5b50600436106101c45760003560e01c8063826c4807116100f9578063b63aa76211610097578063bf989b6e11610071578063bf989b6e1461041f578063c97b9c5a14610432578063d3ea435014610445578063f2fde38b14610458576101c4565b8063b63aa762146103e6578063bb7789fc146103f9578063bd3fae821461040c576101c4565b80639bcfc828116100d35780639bcfc828146103515780639bd445ba146103645780639e3bcb8d14610377578063b3bcf8dd14610391576101c4565b8063826c48071461032f5780638da5cb5b146103375780639558310114610348576101c4565b80636a3ef05711610166578063715018a611610140578063715018a6146102f957806376531008146103015780637f6c5fa9146103145780638129fc1c14610327576101c4565b80636a3ef057146102ca5780636cbbd5da146102dd578063707a9488146102f0576101c4565b806337a386b9116101a257806337a386b91461023a57806339db714f146102525780634b809de31461026f5780635c975abb146102bf576101c4565b8063150b7a02146101c957806316c38b3c146101fa578063357bad8c1461020f575b600080fd5b6101dc6101d7366004613053565b61046b565b6040516001600160e01b031990911681526020015b60405180910390f35b61020d6102083660046131d5565b6104e6565b005b60ca54610222906001600160a01b031681565b6040516001600160a01b0390911681526020016101f1565b6102446202a30081565b6040519081526020016101f1565b60d65461025f9060ff1681565b60405190151581526020016101f1565b61028261027d36600461338f565b6105be565b604080519788526001600160a01b039096166020880152948601939093526060850191909152608084015260a083015260c082015260e0016101f1565b60975460ff1661025f565b61020d6102d8366004613140565b610622565b60cc54610222906001600160a01b031681565b61024460d35481565b61020d610cad565b61020d61030f3660046131d5565b610ce3565b61020d61032236600461335f565b610d20565b61020d610d9f565b610244601481565b6033546001600160a01b0316610222565b61024460d45481565b61020d61035f3660046130ed565b610e80565b60cb54610222906001600160a01b031681565b61037f600481565b60405160ff90911681526020016101f1565b61028261039f36600461335f565b60ce60205260009081526040902080546001820154600283015460038401546004850154600586015460069096015494956001600160a01b03909416949293919290919087565b61025f6103f436600461338f565b611254565b61020d610407366004613140565b611448565b60cd54610222906001600160a01b031681565b61020d61042d366004612ff8565b6117f8565b61020d610440366004613180565b611872565b61024461045336600461335f565b611b34565b61020d610466366004612fc0565b611eab565b60006001600160a01b038516156104d45760405162461bcd60e51b815260206004820152602260248201527f43616e6e6f742073656e6420746f204d6172696e65506f6f6c206469726563746044820152616c7960f01b60648201526084015b60405180910390fd5b50630a85bd0160e11b95945050505050565b60ca546001600160a01b03161580159061050a575060cb546001600160a01b031615155b8015610520575060cd546001600160a01b031615155b8015610536575060cc546001600160a01b031615155b6105765760405162461bcd60e51b815260206004820152601160248201527010dbdb9d1c9858dd1cc81b9bdd081cd95d607a1b60448201526064016104cb565b6033546001600160a01b031633146105a05760405162461bcd60e51b81526004016104cb90613498565b80156105b3576105ae611f43565b6105bb565b6105bb611fb8565b50565b60cf60205281600052604060002081815481106105da57600080fd5b600091825260209091206007909102018054600182015460028301546003840154600485015460058601546006909601549497506001600160a01b0390931695509093909287565b600260655414156106455760405162461bcd60e51b81526004016104cb90613518565b600260655560d65460ff1661068e5760405162461bcd60e51b815260206004820152600f60248201526e149154d0d55148111254d050931151608a1b60448201526064016104cb565b6000610698612f15565b6106a0612f15565b6000805b85811015610c9f578686828181106106cc57634e487b7160e01b600052603260045260246000fd5b60ca54604051634019bfc760e01b815260209290920293909301356004820181905297506001600160a01b0390921691634019bfc7915060240160206040518083038186803b15801561071e57600080fd5b505afa158015610732573d6000803e3d6000fd5b505050506040513d601f19601f8201168201806040525081019061075691906131f1565b156108d057600085815260ce6020908152604091829020825160e0810184528154815260018201546001600160a01b03169281018390526002820154938101939093526003810154606084015260048101546080840152600581015460a08401526006015460c083015290945033146108065760405162461bcd60e51b81526020600482015260126024820152715357495045522c204e4f2053574950494e4760701b60448201526064016104cb565b836080015184606001518560a0015161081f919061360a565b610829919061358e565b60a085015260ca546001600160a01b031663b88d4fde3033886040518463ffffffff1660e01b8152600401610860939291906133b0565b600060405180830381600087803b15801561087a57600080fd5b505af115801561088e573d6000803e3d6000fd5b505060405160008152600192508791507f9cb40271f339db1081126b3a1e1bd03e3a8258e076fd708dec87a021290adbb09060200160405180910390a3610c8d565b6108d985612032565b60ff8116600090815260cf6020908152604080832089845260d09092529091205481549294509091811061091d57634e487b7160e01b600052603260045260246000fd5b60009182526020918290206040805160e08101825260079093029091018054835260018101546001600160a01b0316938301939093526002830154908201526003820154606082015260048201546080820152600582015460a082015260069091015460c0820152935061098e3390565b6001600160a01b031684602001516001600160a01b0316146109e75760405162461bcd60e51b81526020600482015260126024820152715357495045522c204e4f2053574950494e4760701b60448201526064016104cb565b8160ff1660c960008282546109fc919061360a565b909155505060ff8216600090815260cf602052604090208054610a219060019061360a565b81548110610a3f57634e487b7160e01b600052603260045260246000fd5b600091825260208083206040805160e08101825260079094029091018054845260018101546001600160a01b0316848401526002810154848301526003810154606085015260048101546080850152600581015460a08501526006015460c084015260ff8616845260cf825280842089855260d09092529092205482549195508592918110610ade57634e487b7160e01b600052603260045260246000fd5b60009182526020808320845160079390930201918255838101516001830180546001600160a01b0319166001600160a01b039092169190911790556040808501516002840155606085015160038401556080850151600484015560a0850151600584015560c09094015160069092019190915587825260d0815282822054865183528383205560ff8516825260cf905220805480610b8c57634e487b7160e01b600052603160045260246000fd5b600082815260208082206007600019909401938402018281556001810180546001600160a01b0319169055600281018390556003810183905560048101839055600581018390556006018290559190925586825260d09052604081205560ca546001600160a01b031663b88d4fde30610c023390565b886040518463ffffffff1660e01b8152600401610c21939291906133b0565b600060405180830381600087803b158015610c3b57600080fd5b505af1158015610c4f573d6000803e3d6000fd5b505060405160008152600192508791507f261f0854432bace3f0023f1dd8d91177b3bc455fb50acd7491782cd858b24c729060200160405180910390a35b80610c9781613621565b9150506106a4565b505060016065555050505050565b6033546001600160a01b03163314610cd75760405162461bcd60e51b81526004016104cb90613498565b610ce160006120cf565b565b6033546001600160a01b03163314610d0d5760405162461bcd60e51b81526004016104cb90613498565b60d6805460ff1916911515919091179055565b6033546001600160a01b03163314610d4a5760405162461bcd60e51b81526004016104cb90613498565b6729a2241af62c0000811115610d9a5760405162461bcd60e51b815260206004820152601560248201527445786365656473206d6178696d756d2076616c756560581b60448201526064016104cb565b60d355565b600054610100900460ff16610dba5760005460ff1615610dbe565b303b155b610e215760405162461bcd60e51b815260206004820152602e60248201527f496e697469616c697a61626c653a20636f6e747261637420697320616c72656160448201526d191e481a5b9a5d1a585b1a5e995960921b60648201526084016104cb565b600054610100900460ff16158015610e4c576000805460ff1961ff0019909116610100171660011790555b610e54612121565b610e5c612154565b610e64612182565b610e6c611f43565b80156105bb576000805461ff001916905550565b60026065541415610ea35760405162461bcd60e51b81526004016104cb90613518565b6002606555323314610ee25760405162461bcd60e51b81526020600482015260086024820152674f6e6c7920454f4160c01b60448201526064016104cb565b6001600160a01b0383163214610f3a5760405162461bcd60e51b815260206004820152601a60248201527f6163636f756e7420746f2073656e646572206d69736d6174636800000000000060448201526064016104cb565b6000805b8281101561124857838382818110610f6657634e487b7160e01b600052603260045260246000fd5b905060200201359150610f763390565b60ca546040516331a9108f60e11b8152600481018590526001600160a01b039283169290911690636352211e9060240160206040518083038186803b158015610fbe57600080fd5b505afa158015610fd2573d6000803e3d6000fd5b505050506040513d601f19601f82011682018060405250810190610ff69190612fdc565b6001600160a01b03161461104c5760405162461bcd60e51b815260206004820152601860248201527f596f7520646f6e2774206f776e207468697320746f6b656e000000000000000060448201526064016104cb565b60ca54604051633404591760e21b8152600481018490526000916001600160a01b03169063d011645c9060240160206040518083038186803b15801561109157600080fd5b505afa1580156110a5573d6000803e3d6000fd5b505050506040513d601f19601f820116820180604052508101906110c99190613377565b90506110d58382611254565b6111215760405162461bcd60e51b815260206004820181905260248201527f63616e2774207374616b652e2075706772616465206c6576656c20666972737460448201526064016104cb565b60ca546001600160a01b03166323b872dd336040516001600160e01b031960e084901b1681526001600160a01b03909116600482015230602482015260448101869052606401600060405180830381600087803b15801561118157600080fd5b505af1158015611195573d6000803e3d6000fd5b505060ca54604051634019bfc760e01b8152600481018790526001600160a01b039091169250634019bfc7915060240160206040518083038186803b1580156111dd57600080fd5b505afa1580156111f1573d6000803e3d6000fd5b505050506040513d601f19601f8201168201806040525081019061121591906131f1565b1561122a576112258684836121b2565b611235565b611235868483612295565b508061124081613621565b915050610f3e565b50506001606555505050565b60ca54604051634019bfc760e01b8152600481018490526000916001600160a01b031690634019bfc79060240160206040518083038186803b15801561129957600080fd5b505afa1580156112ad573d6000803e3d6000fd5b505050506040513d601f19601f820116820180604052508101906112d191906131f1565b1561143e5760458211156112e457604591505b60cc54604051631afbb35560e31b8152600481018490526000916001600160a01b03169063d7dd9aa89060240160a06040518083038186803b15801561132957600080fd5b505afa15801561133d573d6000803e3d6000fd5b505050506040513d601f19601f82011682018060405250810190611361919061320d565b600085815260ce6020908152604091829020825160e0810184528154815260018201546001600160a01b0316928101929092526002810154928201929092526003820154606082015260048201546080820152600582015460a082015260069091015460c08201819052919250908411806113de57506080810151155b156113ee57600192505050611442565b60008160a00151826080015142611405919061360a565b61140f919061358e565b9050600083608001518211611424578161142a565b83608001515b905080846080015111945050505050611442565b5060015b92915050565b60975460ff161561146b5760405162461bcd60e51b81526004016104cb9061341d565b61147782826000611872565b6000805b828110156115d95760008484838181106114a557634e487b7160e01b600052603260045260246000fd5b60ca54604051633404591760e21b815260209290920293909301356004820181905293506000926001600160a01b0316915063d011645c9060240160206040518083038186803b1580156114f857600080fd5b505afa15801561150c573d6000803e3d6000fd5b505050506040513d601f19601f820116820180604052508101906115309190613377565b60cc54604051631afbb35560e31b8152600481018390529192506000916001600160a01b039091169063d7dd9aa89060240160a06040518083038186803b15801561157a57600080fd5b505afa15801561158e573d6000803e3d6000fd5b505050506040513d601f19601f820116820180604052508101906115b2919061320d565b80519091506115c1908661358e565b945050505080806115d190613621565b91505061147b565b50801561167a5760cd546001600160a01b03166323b872dd336040516001600160e01b031960e084901b1681526001600160a01b03909116600482015230602482015260448101849052606401602060405180830381600087803b15801561164057600080fd5b505af1158015611654573d6000803e3d6000fd5b505050506040513d601f19601f8201168201806040525081019061167891906131f1565b505b60cd5460ca5460405163095ea7b360e01b81526001600160a01b0391821660048201526024810184905291169063095ea7b390604401602060405180830381600087803b1580156116ca57600080fd5b505af11580156116de573d6000803e3d6000fd5b505050506040513d601f19601f8201168201806040525081019061170291906131f1565b5060ca54604051632edde27f60e21b81526001600160a01b039091169063bb7789fc9061173590869086906004016133e3565b600060405180830381600087803b15801561174f57600080fd5b505af1158015611763573d6000803e3d6000fd5b5050505060005b828110156117f257600084848381811061179457634e487b7160e01b600052603260045260246000fd5b60209081029290920135600081815260ce9093526040832042600482018190556003820155600581018490556006810180549295509093919250906117d883613621565b9190505550505080806117ea90613621565b91505061176a565b50505050565b6033546001600160a01b031633146118225760405162461bcd60e51b81526004016104cb90613498565b60ca80546001600160a01b039586166001600160a01b03199182161790915560cb80549486169482169490941790935560cd80549285169284169290921790915560cc8054919093169116179055565b60975460ff16156118955760405162461bcd60e51b81526004016104cb9061341d565b600260655414156118b85760405162461bcd60e51b81526004016104cb90613518565b60026065553233146118f75760405162461bcd60e51b81526020600482015260086024820152674f6e6c7920454f4160c01b60448201526064016104cb565b6000805b83811015611a3e5760ca546001600160a01b0316634019bfc786868481811061193457634e487b7160e01b600052603260045260246000fd5b905060200201356040518263ffffffff1660e01b815260040161195991815260200190565b60206040518083038186803b15801561197157600080fd5b505afa158015611985573d6000803e3d6000fd5b505050506040513d601f19601f820116820180604052508101906119a991906131f1565b156119ef576119de8585838181106119d157634e487b7160e01b600052603260045260246000fd5b905060200201358461242c565b6119e8908361358e565b9150611a2c565b611a1f858583818110611a1257634e487b7160e01b600052603260045260246000fd5b9050602002013584612803565b611a29908361358e565b91505b80611a3681613621565b9150506118fb565b5060cb60009054906101000a90046001600160a01b03166001600160a01b0316639c47ee3b6040518163ffffffff1660e01b8152600401600060405180830381600087803b158015611a8f57600080fd5b505af1158015611aa3573d6000803e3d6000fd5b505050508060001415611ab65750611b2a565b60cb546001600160a01b03166340c10f19336040516001600160e01b031960e084901b1681526001600160a01b03909116600482015260248101849052604401600060405180830381600087803b158015611b1057600080fd5b505af1158015611b24573d6000803e3d6000fd5b50505050505b5050600160655550565b60ca54604051634019bfc760e01b8152600481018390526000916001600160a01b031690634019bfc79060240160206040518083038186803b158015611b7957600080fd5b505afa158015611b8d573d6000803e3d6000fd5b505050506040513d601f19601f82011682018060405250810190611bb191906131f1565b15611dc357600082815260ce60209081526040808320815160e0810183528154815260018201546001600160a01b0390811694820194909452600282015481840152600382015460608201526004808301546080830152600583015460a083015260069092015460c082015260ca549251633404591760e21b81529182018790529392919091169063d011645c9060240160206040518083038186803b158015611c5a57600080fd5b505afa158015611c6e573d6000803e3d6000fd5b505050506040513d601f19601f82011682018060405250810190611c929190613377565b90506045811115611ca1575060455b60cc54604051631afbb35560e31b8152600481018390526000916001600160a01b03169063d7dd9aa89060240160a06040518083038186803b158015611ce657600080fd5b505afa158015611cfa573d6000803e3d6000fd5b505050506040513d601f19601f82011682018060405250810190611d1e919061320d565b90506000836080015184606001518560a00151611d3b919061358e565b611d45919061360a565b905080826080015111611d5b5760009450611dba565b6000818360800151611d6d919061360a565b90506000856060015142611d81919061360a565b90506000818311611d925782611d94565b815b905062015180856060015182611daa91906135eb565b611db491906135cb565b97505050505b50505050611ea6565b6000611dce83612032565b9050600060cf60008360ff16815260200190815260200160002060d060008681526020019081526020016000205481548110611e1a57634e487b7160e01b600052603260045260246000fd5b60009182526020918290206040805160e08101825260079093029091018054835260018101546001600160a01b03169383019390935260028301549082018190526003830154606083015260048301546080830152600583015460a083015260069092015460c082015260d254909250611e94919061360a565b611ea19060ff84166135eb565b925050505b919050565b6033546001600160a01b03163314611ed55760405162461bcd60e51b81526004016104cb90613498565b6001600160a01b038116611f3a5760405162461bcd60e51b815260206004820152602660248201527f4f776e61626c653a206e6577206f776e657220697320746865207a65726f206160448201526564647265737360d01b60648201526084016104cb565b6105bb816120cf565b60975460ff1615611f665760405162461bcd60e51b81526004016104cb9061341d565b6097805460ff191660011790557f62e78cea01bee320cd4e420270b5ea74000d11b0c9f74754ebdbfc544b05a258611f9b3390565b6040516001600160a01b03909116815260200160405180910390a1565b60975460ff166120015760405162461bcd60e51b815260206004820152601460248201527314185d5cd8589b194e881b9bdd081c185d5cd95960621b60448201526064016104cb565b6097805460ff191690557f5db9ee0a495bf2e6ff9c91a7834c1ba4fdd244a5e8aa4e537bd38aeae4b073aa33611f9b565b60ca546040516394e5684760e01b81526004810183905260009182916001600160a01b03909116906394e56847906024016101a06040518083038186803b15801561207c57600080fd5b505afa158015612090573d6000803e3d6000fd5b505050506040513d601f19601f820116820180604052508101906120b4919061325e565b905080610180015160016120c891906135a6565b9392505050565b603380546001600160a01b038381166001600160a01b0319831681179093556040519116919082907f8be0079c531659141344cd1fd0a4f28419497f9722a3daafe3b4186f6b6457e090600090a35050565b600054610100900460ff166121485760405162461bcd60e51b81526004016104cb906134cd565b6097805460ff19169055565b600054610100900460ff1661217b5760405162461bcd60e51b81526004016104cb906134cd565b6001606555565b600054610100900460ff166121a95760405162461bcd60e51b81526004016104cb906134cd565b610ce1336120cf565b60975460ff16156121d55760405162461bcd60e51b81526004016104cb9061341d565b600082815260ce602052604090208281556001810180546001600160a01b0319166001600160a01b03861617905542600482018190556003820155600681015482141561222157612229565b600060058201555b600060028201819055600682018390556005820154604080516001815260208101929092528101919091526001600160a01b0385169084907f4906e354a9bd111d27ae73b8f90820d60fec6d26539a57a55e4e159d1473bd68906060015b60405180910390a350505050565b60006122a083612032565b90508060ff1660c960008282546122b7919061358e565b9250508190555060cf60008260ff1681526020019081526020016000208054905060d060008581526020019081526020016000208190555060cf60008260ff1681526020019081526020016000206040518060e00160405280858152602001866001600160a01b0316815260200160d2548152602001428152602001428152602001600081526020018481525090806001815401808255809150506001900390600052602060002090600702016000909190919091506000820151816000015560208201518160010160006101000a8154816001600160a01b0302191690836001600160a01b0316021790555060408201518160020155606082015181600301556080820151816004015560a0820151816005015560c082015181600601555050836001600160a01b0316837f4906e354a9bd111d27ae73b8f90820d60fec6d26539a57a55e4e159d1473bd6860008060d2546040516122879392919092151583526020830191909152604082015260600190565b600082815260ce6020526040812060018101546001600160a01b031633146124965760405162461bcd60e51b815260206004820152601960248201527f446f6e2774206f776e2074686520676976656e20746f6b656e0000000000000060448201526064016104cb565b61249f84611b34565b91506124c060646124b16014856135eb565b6124bb91906135cb565b612eb9565b60646124cd60148261360a565b6124d790846135eb565b6124e191906135cb565b426003830155915082156127bf5760d3548210156125115760405162461bcd60e51b81526004016104cb90613447565b60d35461251e908361360a565b60ca54604051633404591760e21b8152600481018790529193506000916001600160a01b039091169063d011645c9060240160206040518083038186803b15801561256857600080fd5b505afa15801561257c573d6000803e3d6000fd5b505050506040513d601f19601f820116820180604052508101906125a09190613377565b9050604581106125ae575060455b60cc54604051631afbb35560e31b8152600481018390526000916001600160a01b03169063d7dd9aa89060240160a06040518083038186803b1580156125f357600080fd5b505afa158015612607573d6000803e3d6000fd5b505050506040513d601f19601f8201168201806040525081019061262b919061320d565b905060008360050154846004015442612644919061360a565b61264e919061358e565b9050816080015181116126615780612667565b81608001515b60058501556001840180546001600160a01b03191690556006840183905560cb5460d3546040516340c10f1960e01b815230600482015260248101919091526001600160a01b03909116906340c10f1990604401600060405180830381600087803b1580156126d557600080fd5b505af11580156126e9573d6000803e3d6000fd5b505060cb5460d354604051632770a7eb60e21b815230600482015260248101919091526001600160a01b039091169250639dc29fac9150604401600060405180830381600087803b15801561273d57600080fd5b505af1158015612751573d6000803e3d6000fd5b505060ca54604051635c46a7ef60e11b81526001600160a01b03909116925063b88d4fde915061278990309033908c906004016133b0565b600060405180830381600087803b1580156127a357600080fd5b505af11580156127b7573d6000803e3d6000fd5b505050505050505b821515847f9cb40271f339db1081126b3a1e1bd03e3a8258e076fd708dec87a021290adbb0846040516127f491815260200190565b60405180910390a35092915050565b60ca546040516331a9108f60e11b81526004810184905260009130916001600160a01b0390911690636352211e9060240160206040518083038186803b15801561284c57600080fd5b505afa158015612860573d6000803e3d6000fd5b505050506040513d601f19601f820116820180604052508101906128849190612fdc565b6001600160a01b0316146128ce5760405162461bcd60e51b81526020600482015260116024820152702237b2b9b713ba1037bbb7103a37b5b2b760791b60448201526064016104cb565b60006128d984612032565b9050600060cf60008360ff16815260200190815260200160002060d06000878152602001908152602001600020548154811061292557634e487b7160e01b600052603260045260246000fd5b60009182526020918290206040805160e08101825260079093029091018054835260018101546001600160a01b0316938301939093526002830154908201526003820154606082015260048201546080820152600582015460a082015260069091015460c082015290506129963390565b6001600160a01b031681602001516001600160a01b0316146129ee5760405162461bcd60e51b81526020600482015260116024820152702237b2b9b713ba1037bbb7103a37b5b2b760791b60448201526064016104cb565b6129f785611b34565b92508315612d6e5760d354831015612a215760405162461bcd60e51b81526004016104cb90613447565b60d354612a2e908461360a565b92508160ff1660c96000828254612a45919061360a565b909155505060ff8216600090815260cf602052604081208054612a6a9060019061360a565b81548110612a8857634e487b7160e01b600052603260045260246000fd5b600091825260208083206040805160e08101825260079094029091018054845260018101546001600160a01b0316848401526002810154848301526003810154606085015260048101546080850152600581015460a08501526006015460c084015260ff8716845260cf82528084208a855260d09092529092205482549193508392918110612b2757634e487b7160e01b600052603260045260246000fd5b60009182526020808320845160079390930201918255838101516001830180546001600160a01b0319166001600160a01b039092169190911790556040808501516002840155606085015160038401556080850151600484015560a0850151600584015560c09094015160069092019190915588825260d0815282822054845183528383205560ff8616825260cf905220805480612bd557634e487b7160e01b600052603160045260246000fd5b600082815260208120600760001993909301928302018181556001810180546001600160a01b03191690556002810182905560038101829055600480820183905560058201839055600690910191909155915560cb5460d3546040516340c10f1960e01b8152309381019390935260248301526001600160a01b0316906340c10f1990604401600060405180830381600087803b158015612c7557600080fd5b505af1158015612c89573d6000803e3d6000fd5b505060cb5460d354604051632770a7eb60e21b815230600482015260248101919091526001600160a01b039091169250639dc29fac9150604401600060405180830381600087803b158015612cdd57600080fd5b505af1158015612cf1573d6000803e3d6000fd5b505050600087815260d060205260408120555060ca546001600160a01b031663b88d4fde3033896040518463ffffffff1660e01b8152600401612d36939291906133b0565b600060405180830381600087803b158015612d5057600080fd5b505af1158015612d64573d6000803e3d6000fd5b5050505050612e74565b6040518060e00160405280868152602001612d863390565b6001600160a01b0316815260200160d254815260200142815260200182608001518152602001600081526020018260c0015181525060cf60008460ff16815260200190815260200160002060d060008881526020019081526020016000205481548110612e0357634e487b7160e01b600052603260045260246000fd5b6000918252602091829020835160079290920201908155908201516001820180546001600160a01b0319166001600160a01b0390921691909117905560408201516002820155606082015160038201556080820151600482015560a0820151600582015560c0909101516006909101555b831515857f261f0854432bace3f0023f1dd8d91177b3bc455fb50acd7491782cd858b24c7285604051612ea991815260200190565b60405180910390a3505092915050565b60c954612edd578060d16000828254612ed2919061358e565b909155506105bb9050565b60c95460d154612eed908361358e565b612ef791906135cb565b60d26000828254612f08919061358e565b9091555050600060d15550565b6040518060e001604052806000815260200160006001600160a01b0316815260200160008152602001600081526020016000815260200160008152602001600081525090565b60008083601f840112612f6c578182fd5b50813567ffffffffffffffff811115612f83578182fd5b6020830191508360208083028501011115612f9d57600080fd5b9250929050565b8051611ea681613667565b805160ff81168114611ea657600080fd5b600060208284031215612fd1578081fd5b81356120c881613652565b600060208284031215612fed578081fd5b81516120c881613652565b6000806000806080858703121561300d578283fd5b843561301881613652565b9350602085013561302881613652565b9250604085013561303881613652565b9150606085013561304881613652565b939692955090935050565b60008060008060006080868803121561306a578081fd5b853561307581613652565b9450602086013561308581613652565b935060408601359250606086013567ffffffffffffffff808211156130a8578283fd5b818801915088601f8301126130bb578283fd5b8135818111156130c9578384fd5b8960208285010111156130da578384fd5b9699959850939650602001949392505050565b600080600060408486031215613101578283fd5b833561310c81613652565b9250602084013567ffffffffffffffff811115613127578283fd5b61313386828701612f5b565b9497909650939450505050565b60008060208385031215613152578182fd5b823567ffffffffffffffff811115613168578283fd5b61317485828601612f5b565b90969095509350505050565b600080600060408486031215613194578283fd5b833567ffffffffffffffff8111156131aa578384fd5b6131b686828701612f5b565b90945092505060208401356131ca81613667565b809150509250925092565b6000602082840312156131e6578081fd5b81356120c881613667565b600060208284031215613202578081fd5b81516120c881613667565b600060a0828403121561321e578081fd5b61322860a061354f565b82518152602083015160208201526040830151604082015260608301516060820152608083015160808201528091505092915050565b60006101a0808385031215613271578182fd5b61327a8161354f565b905061328583612fa4565b815261329360208401612faf565b60208201526132a460408401612faf565b60408201526132b560608401612faf565b60608201526132c660808401612faf565b60808201526132d760a08401612faf565b60a08201526132e860c08401612faf565b60c08201526132f960e08401612faf565b60e082015261010061330c818501612faf565b9082015261012061331e848201612faf565b90820152610140613330848201612faf565b90820152610160613342848201612faf565b90820152610180613354848201612faf565b908201529392505050565b600060208284031215613370578081fd5b5035919050565b600060208284031215613388578081fd5b5051919050565b600080604083850312156133a1578182fd5b50508035926020909101359150565b6001600160a01b039384168152919092166020820152604081019190915260806060820181905260009082015260a00190565b6020808252810182905260006001600160fb1b03831115613402578081fd5b60208302808560408501379190910160400190815292915050565b60208082526010908201526f14185d5cd8589b194e881c185d5cd95960821b604082015260600190565b60208082526031908201527f556e7374616b6520616d6f756e7420697320736d616c6c6572207468616e20746040820152701a19481c195b985b1d1e48185b5bdd5b9d607a1b606082015260800190565b6020808252818101527f4f776e61626c653a2063616c6c6572206973206e6f7420746865206f776e6572604082015260600190565b6020808252602b908201527f496e697469616c697a61626c653a20636f6e7472616374206973206e6f74206960408201526a6e697469616c697a696e6760a81b606082015260800190565b6020808252601f908201527f5265656e7472616e637947756172643a207265656e7472616e742063616c6c00604082015260600190565b604051601f8201601f1916810167ffffffffffffffff8111828210171561358657634e487b7160e01b600052604160045260246000fd5b604052919050565b600082198211156135a1576135a161363c565b500190565b600060ff821660ff84168060ff038211156135c3576135c361363c565b019392505050565b6000826135e657634e487b7160e01b81526012600452602481fd5b500490565b60008160001904831182151516156136055761360561363c565b500290565b60008282101561361c5761361c61363c565b500390565b60006000198214156136355761363561363c565b5060010190565b634e487b7160e01b600052601160045260246000fd5b6001600160a01b03811681146105bb57600080fd5b80151581146105bb57600080fdfea26469706673582212202c2a7b44197127f163b34b86e9b3785548c7fde2c42ea885a51cb9ab6afd669b64736f6c63430008020033",
  "devdoc": {
    "kind": "dev",
    "methods": {
      "addManyToMarinePoolAndAlienPool(address,uint256[])": {
        "params": {
          "account": "the address of the staker",
          "tokenIds": "the IDs of the Marines and Aliens to stake"
        }
      },
      "calculateRewards(uint256)": {
        "params": {
          "tokenId": "- The token id you're gonna calculate for"
        }
      },
      "claimManyFromMarinePoolAndAlienPool(uint256[],bool)": {
        "params": {
          "tokenIds": "the IDs of the tokens to claim earnings from",
          "unstake": "whether or not to unstake ALL of the tokens listed in tokenIds"
        }
      },
      "owner()": {
        "details": "Returns the address of the current owner."
      },
      "paused()": {
        "details": "Returns true if the contract is paused, and false otherwise."
      },
      "renounceOwnership()": {
        "details": "Leaves the contract without owner. It will not be possible to call `onlyOwner` functions anymore. Can only be called by the current owner. NOTE: Renouncing ownership will leave the contract without an owner, thereby removing any functionality that is only available to the owner."
      },
      "rescue(uint256[])": {
        "params": {
          "tokenIds": "the IDs of the tokens to claim earnings from"
        }
      },
      "transferOwnership(address)": {
        "details": "Transfers ownership of the contract to a new account (`newOwner`). Can only be called by the current owner."
      }
    },
    "version": 1
  },
  "userdoc": {
    "kind": "user",
    "methods": {
      "addManyToMarinePoolAndAlienPool(address,uint256[])": {
        "notice": "adds Marines and Aliens to the MarinePool and AlienPool"
      },
      "calculateRewards(uint256)": {
        "notice": "Calculates how much distributes for `tokenId`"
      },
      "canStake(uint256,uint256)": {
        "notice": "Determines whether `tokenId` can be staked or not. Token needs to have remaining accure duration for each level to stake"
      },
      "claimManyFromMarinePoolAndAlienPool(uint256[],bool)": {
        "notice": "realize $KLAYE earnings and optionally unstake tokens from the MarinePool / AlienPool to unstake a Marine it will require it has 2 days worth of $KLAYE unclaimed"
      },
      "rescue(uint256[])": {
        "notice": "emergency unstake tokens"
      },
      "setPaused(bool)": {
        "notice": "enables owner to pause / unpause contract"
      },
      "setRescueEnabled(bool)": {
        "notice": "allows owner to enable \"rescue mode\" simplifies accounting, prioritizes tokens out in emergency"
      },
      "upgradeLevel(uint256[])": {
        "notice": "Upgrades levels of tokens to get rewards continuosly"
      }
    },
    "version": 1
  },
  "storageLayout": {
    "storage": [
      {
        "astId": 806,
        "contract": "contracts/StakingPoolv2.sol:StakingPoolv2",
        "label": "_initialized",
        "offset": 0,
        "slot": "0",
        "type": "t_bool"
      },
      {
        "astId": 809,
        "contract": "contracts/StakingPoolv2.sol:StakingPoolv2",
        "label": "_initializing",
        "offset": 1,
        "slot": "0",
        "type": "t_bool"
      },
      {
        "astId": 1443,
        "contract": "contracts/StakingPoolv2.sol:StakingPoolv2",
        "label": "__gap",
        "offset": 0,
        "slot": "1",
        "type": "t_array(t_uint256)50_storage"
      },
      {
        "astId": 276,
        "contract": "contracts/StakingPoolv2.sol:StakingPoolv2",
        "label": "_owner",
        "offset": 0,
        "slot": "51",
        "type": "t_address"
      },
      {
        "astId": 390,
        "contract": "contracts/StakingPoolv2.sol:StakingPoolv2",
        "label": "__gap",
        "offset": 0,
        "slot": "52",
        "type": "t_array(t_uint256)49_storage"
      },
      {
        "astId": 1111,
        "contract": "contracts/StakingPoolv2.sol:StakingPoolv2",
        "label": "_status",
        "offset": 0,
        "slot": "101",
        "type": "t_uint256"
      },
      {
        "astId": 1154,
        "contract": "contracts/StakingPoolv2.sol:StakingPoolv2",
        "label": "__gap",
        "offset": 0,
        "slot": "102",
        "type": "t_array(t_uint256)49_storage"
      },
      {
        "astId": 1005,
        "contract": "contracts/StakingPoolv2.sol:StakingPoolv2",
        "label": "_paused",
        "offset": 0,
        "slot": "151",
        "type": "t_bool"
      },
      {
        "astId": 1096,
        "contract": "contracts/StakingPoolv2.sol:StakingPoolv2",
        "label": "__gap",
        "offset": 0,
        "slot": "152",
        "type": "t_array(t_uint256)49_storage"
      },
      {
        "astId": 14371,
        "contract": "contracts/StakingPoolv2.sol:StakingPoolv2",
        "label": "totalRankStaked",
        "offset": 0,
        "slot": "201",
        "type": "t_uint256"
      },
      {
        "astId": 14402,
        "contract": "contracts/StakingPoolv2.sol:StakingPoolv2",
        "label": "mnaNFT",
        "offset": 0,
        "slot": "202",
        "type": "t_contract(IMnAv2)18087"
      },
      {
        "astId": 14405,
        "contract": "contracts/StakingPoolv2.sol:StakingPoolv2",
        "label": "klayeToken",
        "offset": 0,
        "slot": "203",
        "type": "t_contract(IKLAYE)17915"
      },
      {
        "astId": 14408,
        "contract": "contracts/StakingPoolv2.sol:StakingPoolv2",
        "label": "levelMath",
        "offset": 0,
        "slot": "204",
        "type": "t_contract(ILevelMath)17937"
      },
      {
        "astId": 14411,
        "contract": "contracts/StakingPoolv2.sol:StakingPoolv2",
        "label": "oresToken",
        "offset": 0,
        "slot": "205",
        "type": "t_contract(IORES)18118"
      },
      {
        "astId": 14416,
        "contract": "contracts/StakingPoolv2.sol:StakingPoolv2",
        "label": "marinePool",
        "offset": 0,
        "slot": "206",
        "type": "t_mapping(t_uint256,t_struct(Stake)14369_storage)"
      },
      {
        "astId": 14422,
        "contract": "contracts/StakingPoolv2.sol:StakingPoolv2",
        "label": "alienPool",
        "offset": 0,
        "slot": "207",
        "type": "t_mapping(t_uint256,t_array(t_struct(Stake)14369_storage)dyn_storage)"
      },
      {
        "astId": 14426,
        "contract": "contracts/StakingPoolv2.sol:StakingPoolv2",
        "label": "alienPoolIndices",
        "offset": 0,
        "slot": "208",
        "type": "t_mapping(t_uint256,t_uint256)"
      },
      {
        "astId": 14428,
        "contract": "contracts/StakingPoolv2.sol:StakingPoolv2",
        "label": "unaccountedRewards",
        "offset": 0,
        "slot": "209",
        "type": "t_uint256"
      },
      {
        "astId": 14430,
        "contract": "contracts/StakingPoolv2.sol:StakingPoolv2",
        "label": "klayePerRank",
        "offset": 0,
        "slot": "210",
        "type": "t_uint256"
      },
      {
        "astId": 14439,
        "contract": "contracts/StakingPoolv2.sol:StakingPoolv2",
        "label": "UNSTAKE_KLAYE_AMOUNT",
        "offset": 0,
        "slot": "211",
        "type": "t_uint256"
      },
      {
        "astId": 14441,
        "contract": "contracts/StakingPoolv2.sol:StakingPoolv2",
        "label": "totalKLAYEEarned",
        "offset": 0,
        "slot": "212",
        "type": "t_uint256"
      },
      {
        "astId": 14443,
        "contract": "contracts/StakingPoolv2.sol:StakingPoolv2",
        "label": "lastClaimTimestamp",
        "offset": 0,
        "slot": "213",
        "type": "t_uint256"
      },
      {
        "astId": 14445,
        "contract": "contracts/StakingPoolv2.sol:StakingPoolv2",
        "label": "rescueEnabled",
        "offset": 0,
        "slot": "214",
        "type": "t_bool"
      }
    ],
    "types": {
      "t_address": {
        "encoding": "inplace",
        "label": "address",
        "numberOfBytes": "20"
      },
      "t_array(t_struct(Stake)14369_storage)dyn_storage": {
        "base": "t_struct(Stake)14369_storage",
        "encoding": "dynamic_array",
        "label": "struct StakingPoolv2.Stake[]",
        "numberOfBytes": "32"
      },
      "t_array(t_uint256)49_storage": {
        "base": "t_uint256",
        "encoding": "inplace",
        "label": "uint256[49]",
        "numberOfBytes": "1568"
      },
      "t_array(t_uint256)50_storage": {
        "base": "t_uint256",
        "encoding": "inplace",
        "label": "uint256[50]",
        "numberOfBytes": "1600"
      },
      "t_bool": {
        "encoding": "inplace",
        "label": "bool",
        "numberOfBytes": "1"
      },
      "t_contract(IKLAYE)17915": {
        "encoding": "inplace",
        "label": "contract IKLAYE",
        "numberOfBytes": "20"
      },
      "t_contract(ILevelMath)17937": {
        "encoding": "inplace",
        "label": "contract ILevelMath",
        "numberOfBytes": "20"
      },
      "t_contract(IMnAv2)18087": {
        "encoding": "inplace",
        "label": "contract IMnAv2",
        "numberOfBytes": "20"
      },
      "t_contract(IORES)18118": {
        "encoding": "inplace",
        "label": "contract IORES",
        "numberOfBytes": "20"
      },
      "t_mapping(t_uint256,t_array(t_struct(Stake)14369_storage)dyn_storage)": {
        "encoding": "mapping",
        "key": "t_uint256",
        "label": "mapping(uint256 => struct StakingPoolv2.Stake[])",
        "numberOfBytes": "32",
        "value": "t_array(t_struct(Stake)14369_storage)dyn_storage"
      },
      "t_mapping(t_uint256,t_struct(Stake)14369_storage)": {
        "encoding": "mapping",
        "key": "t_uint256",
        "label": "mapping(uint256 => struct StakingPoolv2.Stake)",
        "numberOfBytes": "32",
        "value": "t_struct(Stake)14369_storage"
      },
      "t_mapping(t_uint256,t_uint256)": {
        "encoding": "mapping",
        "key": "t_uint256",
        "label": "mapping(uint256 => uint256)",
        "numberOfBytes": "32",
        "value": "t_uint256"
      },
      "t_struct(Stake)14369_storage": {
        "encoding": "inplace",
        "label": "struct StakingPoolv2.Stake",
        "members": [
          {
            "astId": 14356,
            "contract": "contracts/StakingPoolv2.sol:StakingPoolv2",
            "label": "tokenId",
            "offset": 0,
            "slot": "0",
            "type": "t_uint256"
          },
          {
            "astId": 14358,
            "contract": "contracts/StakingPoolv2.sol:StakingPoolv2",
            "label": "owner",
            "offset": 0,
            "slot": "1",
            "type": "t_address"
          },
          {
            "astId": 14360,
            "contract": "contracts/StakingPoolv2.sol:StakingPoolv2",
            "label": "value",
            "offset": 0,
            "slot": "2",
            "type": "t_uint256"
          },
          {
            "astId": 14362,
            "contract": "contracts/StakingPoolv2.sol:StakingPoolv2",
            "label": "lastClaimTime",
            "offset": 0,
            "slot": "3",
            "type": "t_uint256"
          },
          {
            "astId": 14364,
            "contract": "contracts/StakingPoolv2.sol:StakingPoolv2",
            "label": "startTime",
            "offset": 0,
            "slot": "4",
            "type": "t_uint256"
          },
          {
            "astId": 14366,
            "contract": "contracts/StakingPoolv2.sol:StakingPoolv2",
            "label": "stakedDuration",
            "offset": 0,
            "slot": "5",
            "type": "t_uint256"
          },
          {
            "astId": 14368,
            "contract": "contracts/StakingPoolv2.sol:StakingPoolv2",
            "label": "tokenLevel",
            "offset": 0,
            "slot": "6",
            "type": "t_uint256"
          }
        ],
        "numberOfBytes": "224"
      },
      "t_uint256": {
        "encoding": "inplace",
        "label": "uint256",
        "numberOfBytes": "32"
      }
    }
  }
}