{
  "address": "0x51DdE1b055295d2c87A560EDF8fBB821BD655Bb4",
  "abi": [
    {
      "inputs": [
        {
          "internalType": "bytes32",
          "name": "_merkleRoot",
          "type": "bytes32"
        },
        {
          "internalType": "uint256",
          "name": "_maxBatchMintSize",
          "type": "uint256"
        },
        {
          "internalType": "address",
          "name": "_weth",
          "type": "address"
        }
      ],
      "stateMutability": "nonpayable",
      "type": "constructor"
    },
    {
      "anonymous": false,
      "inputs": [
        {
          "indexed": true,
          "internalType": "address",
          "name": "owner",
          "type": "address"
        },
        {
          "indexed": true,
          "internalType": "address",
          "name": "approved",
          "type": "address"
        },
        {
          "indexed": true,
          "internalType": "uint256",
          "name": "tokenId",
          "type": "uint256"
        }
      ],
      "name": "Approval",
      "type": "event"
    },
    {
      "anonymous": false,
      "inputs": [
        {
          "indexed": true,
          "internalType": "address",
          "name": "owner",
          "type": "address"
        },
        {
          "indexed": true,
          "internalType": "address",
          "name": "operator",
          "type": "address"
        },
        {
          "indexed": false,
          "internalType": "bool",
          "name": "approved",
          "type": "bool"
        }
      ],
      "name": "ApprovalForAll",
      "type": "event"
    },
    {
      "anonymous": false,
      "inputs": [
        {
          "indexed": true,
          "internalType": "address",
          "name": "previousOwner",
          "type": "address"
        },
        {
          "indexed": true,
          "internalType": "address",
          "name": "newOwner",
          "type": "address"
        }
      ],
      "name": "OwnershipTransferred",
      "type": "event"
    },
    {
      "anonymous": false,
      "inputs": [
        {
          "indexed": true,
          "internalType": "address",
          "name": "from",
          "type": "address"
        },
        {
          "indexed": true,
          "internalType": "address",
          "name": "to",
          "type": "address"
        },
        {
          "indexed": true,
          "internalType": "uint256",
          "name": "tokenId",
          "type": "uint256"
        }
      ],
      "name": "Transfer",
      "type": "event"
    },
    {
      "inputs": [],
      "name": "MAX_MINT",
      "outputs": [
        {
          "internalType": "uint256",
          "name": "",
          "type": "uint256"
        }
      ],
      "stateMutability": "view",
      "type": "function"
    },
    {
      "inputs": [
        {
          "internalType": "address",
          "name": "to",
          "type": "address"
        },
        {
          "internalType": "uint256",
          "name": "tokenId",
          "type": "uint256"
        }
      ],
      "name": "approve",
      "outputs": [],
      "stateMutability": "nonpayable",
      "type": "function"
    },
    {
      "inputs": [
        {
          "internalType": "address",
          "name": "account",
          "type": "address"
        },
        {
          "internalType": "bytes32[]",
          "name": "merkleProof",
          "type": "bytes32[]"
        }
      ],
      "name": "availableClaimCount",
      "outputs": [
        {
          "internalType": "uint256",
          "name": "",
          "type": "uint256"
        }
      ],
      "stateMutability": "view",
      "type": "function"
    },
    {
      "inputs": [
        {
          "internalType": "address",
          "name": "owner",
          "type": "address"
        }
      ],
      "name": "balanceOf",
      "outputs": [
        {
          "internalType": "uint256",
          "name": "",
          "type": "uint256"
        }
      ],
      "stateMutability": "view",
      "type": "function"
    },
    {
      "inputs": [
        {
          "internalType": "uint256",
          "name": "_numToMint",
          "type": "uint256"
        }
      ],
      "name": "costForMint",
      "outputs": [
        {
          "internalType": "uint256",
          "name": "",
          "type": "uint256"
        }
      ],
      "stateMutability": "view",
      "type": "function"
    },
    {
      "inputs": [],
      "name": "endSale",
      "outputs": [],
      "stateMutability": "nonpayable",
      "type": "function"
    },
    {
      "inputs": [
        {
          "internalType": "uint256",
          "name": "tokenId",
          "type": "uint256"
        }
      ],
      "name": "getApproved",
      "outputs": [
        {
          "internalType": "address",
          "name": "",
          "type": "address"
        }
      ],
      "stateMutability": "view",
      "type": "function"
    },
    {
      "inputs": [
        {
          "internalType": "address",
          "name": "owner",
          "type": "address"
        },
        {
          "internalType": "address",
          "name": "operator",
          "type": "address"
        }
      ],
      "name": "isApprovedForAll",
      "outputs": [
        {
          "internalType": "bool",
          "name": "",
          "type": "bool"
        }
      ],
      "stateMutability": "view",
      "type": "function"
    },
    {
      "inputs": [],
      "name": "isPublicSale",
      "outputs": [
        {
          "internalType": "bool",
          "name": "",
          "type": "bool"
        }
      ],
      "stateMutability": "view",
      "type": "function"
    },
    {
      "inputs": [],
      "name": "isTransferLocked",
      "outputs": [
        {
          "internalType": "bool",
          "name": "",
          "type": "bool"
        }
      ],
      "stateMutability": "view",
      "type": "function"
    },
    {
      "inputs": [
        {
          "internalType": "address",
          "name": "account",
          "type": "address"
        },
        {
          "internalType": "bytes32[]",
          "name": "merkleProof",
          "type": "bytes32[]"
        }
      ],
      "name": "isWhiteList",
      "outputs": [
        {
          "internalType": "bool",
          "name": "",
          "type": "bool"
        }
      ],
      "stateMutability": "view",
      "type": "function"
    },
    {
      "inputs": [],
      "name": "maxCountPerAccountPre",
      "outputs": [
        {
          "internalType": "uint256",
          "name": "",
          "type": "uint256"
        }
      ],
      "stateMutability": "view",
      "type": "function"
    },
    {
      "inputs": [],
      "name": "maxCountPerAccountPublic",
      "outputs": [
        {
          "internalType": "uint256",
          "name": "",
          "type": "uint256"
        }
      ],
      "stateMutability": "view",
      "type": "function"
    },
    {
      "inputs": [],
      "name": "maxCountPerClaim",
      "outputs": [
        {
          "internalType": "uint256",
          "name": "",
          "type": "uint256"
        }
      ],
      "stateMutability": "view",
      "type": "function"
    },
    {
      "inputs": [],
      "name": "merkleRoot",
      "outputs": [
        {
          "internalType": "bytes32",
          "name": "",
          "type": "bytes32"
        }
      ],
      "stateMutability": "view",
      "type": "function"
    },
    {
      "inputs": [
        {
          "internalType": "uint256",
          "name": "numberOfTokens",
          "type": "uint256"
        },
        {
          "internalType": "bytes32[]",
          "name": "merkleProof",
          "type": "bytes32[]"
        }
      ],
      "name": "mint",
      "outputs": [],
      "stateMutability": "payable",
      "type": "function"
    },
    {
      "inputs": [],
      "name": "name",
      "outputs": [
        {
          "internalType": "string",
          "name": "",
          "type": "string"
        }
      ],
      "stateMutability": "view",
      "type": "function"
    },
    {
      "inputs": [],
      "name": "nextOwnerToExplicitlySet",
      "outputs": [
        {
          "internalType": "uint256",
          "name": "",
          "type": "uint256"
        }
      ],
      "stateMutability": "view",
      "type": "function"
    },
    {
      "inputs": [],
      "name": "owner",
      "outputs": [
        {
          "internalType": "address",
          "name": "",
          "type": "address"
        }
      ],
      "stateMutability": "view",
      "type": "function"
    },
    {
      "inputs": [
        {
          "internalType": "uint256",
          "name": "tokenId",
          "type": "uint256"
        }
      ],
      "name": "ownerOf",
      "outputs": [
        {
          "internalType": "address",
          "name": "",
          "type": "address"
        }
      ],
      "stateMutability": "view",
      "type": "function"
    },
    {
      "inputs": [],
      "name": "presalePrice",
      "outputs": [
        {
          "internalType": "uint256",
          "name": "",
          "type": "uint256"
        }
      ],
      "stateMutability": "view",
      "type": "function"
    },
    {
      "inputs": [],
      "name": "publicsalePrice",
      "outputs": [
        {
          "internalType": "uint256",
          "name": "",
          "type": "uint256"
        }
      ],
      "stateMutability": "view",
      "type": "function"
    },
    {
      "inputs": [],
      "name": "renounceOwnership",
      "outputs": [],
      "stateMutability": "nonpayable",
      "type": "function"
    },
    {
      "inputs": [
        {
          "internalType": "address",
          "name": "from",
          "type": "address"
        },
        {
          "internalType": "address",
          "name": "to",
          "type": "address"
        },
        {
          "internalType": "uint256",
          "name": "tokenId",
          "type": "uint256"
        }
      ],
      "name": "safeTransferFrom",
      "outputs": [],
      "stateMutability": "nonpayable",
      "type": "function"
    },
    {
      "inputs": [
        {
          "internalType": "address",
          "name": "from",
          "type": "address"
        },
        {
          "internalType": "address",
          "name": "to",
          "type": "address"
        },
        {
          "internalType": "uint256",
          "name": "tokenId",
          "type": "uint256"
        },
        {
          "internalType": "bytes",
          "name": "_data",
          "type": "bytes"
        }
      ],
      "name": "safeTransferFrom",
      "outputs": [],
      "stateMutability": "nonpayable",
      "type": "function"
    },
    {
      "inputs": [
        {
          "internalType": "address",
          "name": "operator",
          "type": "address"
        },
        {
          "internalType": "bool",
          "name": "approved",
          "type": "bool"
        }
      ],
      "name": "setApprovalForAll",
      "outputs": [],
      "stateMutability": "nonpayable",
      "type": "function"
    },
    {
      "inputs": [
        {
          "internalType": "uint256",
          "name": "_count",
          "type": "uint256"
        }
      ],
      "name": "setMaxCountPerClaim",
      "outputs": [],
      "stateMutability": "nonpayable",
      "type": "function"
    },
    {
      "inputs": [
        {
          "internalType": "bytes32",
          "name": "_merkleRoot",
          "type": "bytes32"
        }
      ],
      "name": "setMerkleRoot",
      "outputs": [],
      "stateMutability": "nonpayable",
      "type": "function"
    },
    {
      "inputs": [
        {
          "internalType": "uint256",
          "name": "_price",
          "type": "uint256"
        }
      ],
      "name": "setPresalePrice",
      "outputs": [],
      "stateMutability": "nonpayable",
      "type": "function"
    },
    {
      "inputs": [
        {
          "internalType": "uint256",
          "name": "_price",
          "type": "uint256"
        }
      ],
      "name": "setPublicsalePrice",
      "outputs": [],
      "stateMutability": "nonpayable",
      "type": "function"
    },
    {
      "inputs": [
        {
          "internalType": "string",
          "name": "URI",
          "type": "string"
        }
      ],
      "name": "setTokenBaseURI",
      "outputs": [],
      "stateMutability": "nonpayable",
      "type": "function"
    },
    {
      "inputs": [
        {
          "internalType": "bool",
          "name": "_isTransferLocked",
          "type": "bool"
        }
      ],
      "name": "setTransferLocked",
      "outputs": [],
      "stateMutability": "nonpayable",
      "type": "function"
    },
    {
      "inputs": [],
      "name": "startPresale",
      "outputs": [],
      "stateMutability": "nonpayable",
      "type": "function"
    },
    {
      "inputs": [],
      "name": "startPublicSale",
      "outputs": [],
      "stateMutability": "nonpayable",
      "type": "function"
    },
    {
      "inputs": [
        {
          "internalType": "bytes4",
          "name": "interfaceId",
          "type": "bytes4"
        }
      ],
      "name": "supportsInterface",
      "outputs": [
        {
          "internalType": "bool",
          "name": "",
          "type": "bool"
        }
      ],
      "stateMutability": "view",
      "type": "function"
    },
    {
      "inputs": [],
      "name": "symbol",
      "outputs": [
        {
          "internalType": "string",
          "name": "",
          "type": "string"
        }
      ],
      "stateMutability": "view",
      "type": "function"
    },
    {
      "inputs": [
        {
          "internalType": "uint256",
          "name": "index",
          "type": "uint256"
        }
      ],
      "name": "tokenByIndex",
      "outputs": [
        {
          "internalType": "uint256",
          "name": "",
          "type": "uint256"
        }
      ],
      "stateMutability": "view",
      "type": "function"
    },
    {
      "inputs": [
        {
          "internalType": "address",
          "name": "owner",
          "type": "address"
        },
        {
          "internalType": "uint256",
          "name": "index",
          "type": "uint256"
        }
      ],
      "name": "tokenOfOwnerByIndex",
      "outputs": [
        {
          "internalType": "uint256",
          "name": "",
          "type": "uint256"
        }
      ],
      "stateMutability": "view",
      "type": "function"
    },
    {
      "inputs": [
        {
          "internalType": "uint256",
          "name": "tokenId",
          "type": "uint256"
        }
      ],
      "name": "tokenURI",
      "outputs": [
        {
          "internalType": "string",
          "name": "",
          "type": "string"
        }
      ],
      "stateMutability": "view",
      "type": "function"
    },
    {
      "inputs": [],
      "name": "totalMinted",
      "outputs": [
        {
          "internalType": "uint256",
          "name": "",
          "type": "uint256"
        }
      ],
      "stateMutability": "view",
      "type": "function"
    },
    {
      "inputs": [],
      "name": "totalSupply",
      "outputs": [
        {
          "internalType": "uint256",
          "name": "",
          "type": "uint256"
        }
      ],
      "stateMutability": "view",
      "type": "function"
    },
    {
      "inputs": [
        {
          "internalType": "address",
          "name": "from",
          "type": "address"
        },
        {
          "internalType": "address",
          "name": "to",
          "type": "address"
        },
        {
          "internalType": "uint256",
          "name": "tokenId",
          "type": "uint256"
        }
      ],
      "name": "transferFrom",
      "outputs": [],
      "stateMutability": "nonpayable",
      "type": "function"
    },
    {
      "inputs": [
        {
          "internalType": "address",
          "name": "newOwner",
          "type": "address"
        }
      ],
      "name": "transferOwnership",
      "outputs": [],
      "stateMutability": "nonpayable",
      "type": "function"
    },
    {
      "inputs": [],
      "name": "weth",
      "outputs": [
        {
          "internalType": "address",
          "name": "",
          "type": "address"
        }
      ],
      "stateMutability": "view",
      "type": "function"
    },
    {
      "stateMutability": "payable",
      "type": "receive"
    }
  ],
  "transactionHash": "0xb26c60c315cb3e461ce794e74acf9b4c5f8f6c3099543ffd9c825c95766fa92c",
  "args": [
    "0x2d3c72fabcdae6894941c571f085d9f1cb89981330274555c12bb3213c72f1cc",
    10,
    "0xc778417E063141139Fce010982780140Aa0cD5Ab"
  ],
  "numDeployments": 12,
  "solcInputHash": "5691c4489cd54978976c52b0d0d9ead9",
  "bytecode": "0x6001805560006008819055600a805462ffffff191662010000179055601e600d5566c3663566a58000600e5567010a741a46278000600f55601081905560c0604081905260a0829052620000579160119190620001fd565b503480156200006557600080fd5b5060405162002f8938038062002f898339810160408190526200008891620002a3565b6040518060400160405280600b81526020016a466f756e6465725061737360a81b81525060405180604001604052806002815260200161046560f41b81525083620000e2620000dc620001a960201b60201c565b620001ad565b60008111620001475760405162461bcd60e51b815260206004820152602760248201527f455243373231413a206d61782062617463682073697a65206d757374206265206044820152666e6f6e7a65726f60c81b606482015260840160405180910390fd5b82516200015c906002906020860190620001fd565b50815162000172906003906020850190620001fd565b5060805250506001600955600b9290925550600c80546001600160a01b0319166001600160a01b0390921691909117905562000326565b3390565b600080546001600160a01b038381166001600160a01b0319831681178455604051919092169283917f8be0079c531659141344cd1fd0a4f28419497f9722a3daafe3b4186f6b6457e09190a35050565b8280546200020b90620002e9565b90600052602060002090601f0160209004810192826200022f57600085556200027a565b82601f106200024a57805160ff19168380011785556200027a565b828001600101855582156200027a579182015b828111156200027a5782518255916020019190600101906200025d565b50620002889291506200028c565b5090565b5b808211156200028857600081556001016200028d565b600080600060608486031215620002b8578283fd5b83516020850151604086015191945092506001600160a01b0381168114620002de578182fd5b809150509250925092565b600281046001821680620002fe57607f821691505b602082108114156200032057634e487b7160e01b600052602260045260246000fd5b50919050565b608051612c3962000350600039600081816119e001528181611a0a01526120550152612c396000f3fe60806040526004361061026a5760003560e01c80636352211e11610144578063a2309ff8116100b6578063c87b56dd1161007a578063c87b56dd146106e5578063d7224ba014610705578063d8fee6bf1461071b578063e985e9c514610731578063f0292a031461077a578063f2fde38b1461079057610271565b8063a2309ff81461065d578063a5a865dc14610673578063b85c64c814610692578063b88d4fde146106b2578063ba41b0c6146106d257610271565b80638da5cb5b116101085780638da5cb5b146105aa5780638ef79e91146105c857806390ae88b3146105e857806395d89b4114610608578063a01c62f71461061d578063a22cb4651461063d57610271565b80636352211e1461051f57806370a082311461053f578063715018a61461055f5780637cb64759146105745780637eff4b671461059457610271565b806327ed69d2116101dd57806335e60bd4116101a157806335e60bd414610475578063380d831b146104955780633fc8cef3146104aa57806342842e0e146104ca57806346fcf1a7146104ea5780634f6ccce7146104ff57610271565b806327ed69d2146103df5780632c374e95146103ff5780632eb4a7ab1461041f5780632f745c59146104355780633549345e1461045557610271565b8063081812fc1161022f578063081812fc1461031d578063095ea7b3146103555780630c1c972a1461037557806311fda6d11461038a57806318160ddd146103aa57806323b872dd146103bf57610271565b80620e7fa81461027657806301ffc9a71461029f57806304c98b2b146102cf57806306f4427f146102e657806306fdde03146102fb57610271565b3661027157005b600080fd5b34801561028257600080fd5b5061028c600e5481565b6040519081526020015b60405180910390f35b3480156102ab57600080fd5b506102bf6102ba366004612846565b6107b0565b6040519015158152602001610296565b3480156102db57600080fd5b506102e461081f565b005b3480156102f257600080fd5b5061028c600381565b34801561030757600080fd5b50610310610868565b60405161029691906129a9565b34801561032957600080fd5b5061033d61033836600461282e565b6108fa565b6040516001600160a01b039091168152602001610296565b34801561036157600080fd5b506102e46103703660046127cd565b610985565b34801561038157600080fd5b506102e4610a9d565b34801561039657600080fd5b506102e46103a536600461282e565b610ae1565b3480156103b657600080fd5b5060015461028c565b3480156103cb57600080fd5b506102e46103da366004612692565b610b10565b3480156103eb57600080fd5b5061028c6103fa36600461282e565b610b1b565b34801561040b57600080fd5b506102bf61041a366004612746565b610b47565b34801561042b57600080fd5b5061028c600b5481565b34801561044157600080fd5b5061028c6104503660046127cd565b610bcf565b34801561046157600080fd5b506102e461047036600461282e565b610d4e565b34801561048157600080fd5b506102e46104903660046127f6565b610d7d565b3480156104a157600080fd5b506102e4610dc3565b3480156104b657600080fd5b50600c5461033d906001600160a01b031681565b3480156104d657600080fd5b506102e46104e5366004612692565b610df9565b3480156104f657600080fd5b5061028c600681565b34801561050b57600080fd5b5061028c61051a36600461282e565b610e14565b34801561052b57600080fd5b5061033d61053a36600461282e565b610e7d565b34801561054b57600080fd5b5061028c61055a366004612646565b610e8f565b34801561056b57600080fd5b506102e4610f20565b34801561058057600080fd5b506102e461058f36600461282e565b610f56565b3480156105a057600080fd5b5061028c600f5481565b3480156105b657600080fd5b506000546001600160a01b031661033d565b3480156105d457600080fd5b506102e46105e336600461287e565b610f85565b3480156105f457600080fd5b5061028c610603366004612746565b610fc6565b34801561061457600080fd5b5061031061109c565b34801561062957600080fd5b50600a546102bf9062010000900460ff1681565b34801561064957600080fd5b506102e4610658366004612797565b6110ab565b34801561066957600080fd5b5061028c60105481565b34801561067f57600080fd5b50600a546102bf90610100900460ff1681565b34801561069e57600080fd5b506102e46106ad36600461282e565b61117d565b3480156106be57600080fd5b506102e46106cd3660046126cd565b6111ac565b6102e46106e03660046128c4565b6111e5565b3480156106f157600080fd5b5061031061070036600461282e565b611482565b34801561071157600080fd5b5061028c60085481565b34801561072757600080fd5b5061028c600d5481565b34801561073d57600080fd5b506102bf61074c366004612660565b6001600160a01b03918216600090815260076020908152604080832093909416825291909152205460ff1690565b34801561078657600080fd5b5061028c611b3981565b34801561079c57600080fd5b506102e46107ab366004612646565b61148d565b60006001600160e01b031982166380ac58cd60e01b14806107e157506001600160e01b03198216635b5e139f60e01b145b806107fc57506001600160e01b0319821663780e9d6360e01b145b8061081757506301ffc9a760e01b6001600160e01b03198316145b90505b919050565b6000546001600160a01b031633146108525760405162461bcd60e51b8152600401610849906129bc565b60405180910390fd5b600a805461ff001960ff19909116600117169055565b60606002805461087790612b33565b80601f01602080910402602001604051908101604052809291908181526020018280546108a390612b33565b80156108f05780601f106108c5576101008083540402835291602001916108f0565b820191906000526020600020905b8154815290600101906020018083116108d357829003601f168201915b5050505050905090565b6000610907826001541190565b6109695760405162461bcd60e51b815260206004820152602d60248201527f455243373231413a20617070726f76656420717565727920666f72206e6f6e6560448201526c3c34b9ba32b73a103a37b5b2b760991b6064820152608401610849565b506000908152600660205260409020546001600160a01b031690565b600061099082610e7d565b9050806001600160a01b0316836001600160a01b031614156109ff5760405162461bcd60e51b815260206004820152602260248201527f455243373231413a20617070726f76616c20746f2063757272656e74206f776e60448201526132b960f11b6064820152608401610849565b336001600160a01b0382161480610a1b5750610a1b813361074c565b610a8d5760405162461bcd60e51b815260206004820152603960248201527f455243373231413a20617070726f76652063616c6c6572206973206e6f74206f60448201527f776e6572206e6f7220617070726f76656420666f7220616c6c000000000000006064820152608401610849565b610a98838383611528565b505050565b6000546001600160a01b03163314610ac75760405162461bcd60e51b8152600401610849906129bc565b600a805461ff001960ff1990911660011716610100179055565b6000546001600160a01b03163314610b0b5760405162461bcd60e51b8152600401610849906129bc565b600d55565b610a98838383611584565b600061081782600a60019054906101000a900460ff16610b3d57600e54610b41565b600f545b9061193c565b6040516bffffffffffffffffffffffff19606085901b1660208201526000908190603401604051602081830303815290604052805190602001209050610bc484848080602002602001604051908101604052809392919081815260200183836020028082843760009201919091525050600b549150849050611948565b9150505b9392505050565b6000610bda83610e8f565b8210610c335760405162461bcd60e51b815260206004820152602260248201527f455243373231413a206f776e657220696e646578206f7574206f6620626f756e604482015261647360f01b6064820152608401610849565b6000610c3e60015490565b905060008060005b83811015610ce8576000818152600460209081526040918290208251808401909352546001600160a01b038116808452600160a01b90910467ffffffffffffffff169183019190915215610c9957805192505b876001600160a01b0316836001600160a01b03161415610cd55786841415610cc757509350610d4892505050565b83610cd181612b6e565b9450505b5080610ce081612b6e565b915050610c46565b5060405162461bcd60e51b815260206004820152602e60248201527f455243373231413a20756e61626c6520746f2067657420746f6b656e206f662060448201526d0deeedccae440c4f240d2dcc8caf60931b6064820152608401610849565b92915050565b6000546001600160a01b03163314610d785760405162461bcd60e51b8152600401610849906129bc565b600e55565b6000546001600160a01b03163314610da75760405162461bcd60e51b8152600401610849906129bc565b600a8054911515620100000262ff000019909216919091179055565b6000546001600160a01b03163314610ded5760405162461bcd60e51b8152600401610849906129bc565b600a805460ff19169055565b610a98838383604051806020016040528060008152506111ac565b6000610e1f60015490565b8210610e795760405162461bcd60e51b815260206004820152602360248201527f455243373231413a20676c6f62616c20696e646578206f7574206f6620626f756044820152626e647360e81b6064820152608401610849565b5090565b6000610e888261195e565b5192915050565b60006001600160a01b038216610efb5760405162461bcd60e51b815260206004820152602b60248201527f455243373231413a2062616c616e636520717565727920666f7220746865207a60448201526a65726f206164647265737360a81b6064820152608401610849565b506001600160a01b03166000908152600560205260409020546001600160801b031690565b6000546001600160a01b03163314610f4a5760405162461bcd60e51b8152600401610849906129bc565b610f546000611b0a565b565b6000546001600160a01b03163314610f805760405162461bcd60e51b8152600401610849906129bc565b600b55565b6000546001600160a01b03163314610faf5760405162461bcd60e51b8152600401610849906129bc565b8051610fc29060119060208401906124e0565b5050565b600a5460009060ff16610fdb57506000610bc8565b600a54610100900460ff1661105657610ff5848484610b47565b61100157506000610bc8565b6001600160a01b0384166000908152601260205260409020546003111561104c576001600160a01b03841660009081526012602052604090205461104790600390611b5a565b61104f565b60005b9050610bc8565b6001600160a01b0384166000908152601360205260409020546006111561104c576001600160a01b03841660009081526013602052604090205461104790600690611b5a565b60606003805461087790612b33565b6001600160a01b0382163314156111045760405162461bcd60e51b815260206004820152601a60248201527f455243373231413a20617070726f766520746f2063616c6c65720000000000006044820152606401610849565b3360008181526007602090815260408083206001600160a01b0387168085529252909120805460ff1916841515179055906001600160a01b03167f17307eab39ab6107e8899845ad3d59bd9653f200f220920489ca2b5937696c3183604051611171911515815260200190565b60405180910390a35050565b6000546001600160a01b031633146111a75760405162461bcd60e51b8152600401610849906129bc565b600f55565b6111b7848484611584565b6111c384848484611b66565b6111df5760405162461bcd60e51b8152600401610849906129f1565b50505050565b600a5460ff1680156111fa5750611b39601054105b6112335760405162461bcd60e51b815260206004820152600a6024820152696e6f742061637469766560b01b6044820152606401610849565b600260095414156112865760405162461bcd60e51b815260206004820152601f60248201527f5265656e7472616e637947756172643a207265656e7472616e742063616c6c006044820152606401610849565b6002600955826112c55760405162461bcd60e51b815260206004820152600a6024820152691e995c9bc818dbdd5b9d60b21b6044820152606401610849565b600d548311156113175760405162461bcd60e51b815260206004820152601c60248201527f6578636565646564206d6178206c696d69742070657220636c61696d000000006044820152606401610849565b60105461132790611b3990611b5a565b8311156113685760405162461bcd60e51b815260206004820152600f60248201526e6e6f7420656e6f756768206e66747360881b6044820152606401610849565b82611374338484610fc6565b10156113bb5760405162461bcd60e51b8152602060048201526016602482015275696e73756666696369656e7420617661696c61626c6560501b6044820152606401610849565b60006113c684610b1b565b90506113f2336113de6000546001600160a01b031690565b600c546001600160a01b0316919084611c74565b6113fc3385611cce565b8360105461140a9190612a66565b601055600a54610100900460ff161561144c57336000908152601360205260409020546114379085611ce8565b33600090815260136020526040902055611477565b336000908152601260205260409020546114669085611ce8565b336000908152601260205260409020555b505060016009555050565b606061081782611cf4565b6000546001600160a01b031633146114b75760405162461bcd60e51b8152600401610849906129bc565b6001600160a01b03811661151c5760405162461bcd60e51b815260206004820152602660248201527f4f776e61626c653a206e6577206f776e657220697320746865207a65726f206160448201526564647265737360d01b6064820152608401610849565b61152581611b0a565b50565b60008281526006602052604080822080546001600160a01b0319166001600160a01b0387811691821790925591518593918516917f8c5be1e5ebec7d5bd14f71427d1e84f3dd0314c0f7b2291e5b200ac8c7c3b92591a4505050565b600061158f8261195e565b80519091506000906001600160a01b0316336001600160a01b031614806115c65750336115bb846108fa565b6001600160a01b0316145b806115d8575081516115d8903361074c565b9050806116425760405162461bcd60e51b815260206004820152603260248201527f455243373231413a207472616e736665722063616c6c6572206973206e6f74206044820152711bdddb995c881b9bdc88185c1c1c9bdd995960721b6064820152608401610849565b846001600160a01b031682600001516001600160a01b0316146116b65760405162461bcd60e51b815260206004820152602660248201527f455243373231413a207472616e736665722066726f6d20696e636f72726563746044820152651037bbb732b960d11b6064820152608401610849565b6001600160a01b03841661171a5760405162461bcd60e51b815260206004820152602560248201527f455243373231413a207472616e7366657220746f20746865207a65726f206164604482015264647265737360d81b6064820152608401610849565b6117278585856001611dc0565b6117376000848460000151611528565b6001600160a01b03851660009081526005602052604081208054600192906117699084906001600160801b0316612ab1565b82546101009290920a6001600160801b038181021990931691831602179091556001600160a01b038616600090815260056020526040812080546001945090926117b591859116612a44565b82546001600160801b039182166101009390930a9283029190920219909116179055506040805180820182526001600160a01b03808716825267ffffffffffffffff428116602080850191825260008981526004909152948520935184549151909216600160a01b0267ffffffffffffffff60a01b19929093166001600160a01b0319909116171617905561184b846001612a66565b6000818152600460205260409020549091506001600160a01b03166118f257611875816001541190565b156118f25760408051808201825284516001600160a01b03908116825260208087015167ffffffffffffffff90811682850190815260008781526004909352949091209251835494516001600160a01b031990951692169190911767ffffffffffffffff60a01b1916600160a01b93909116929092029190911790555b83856001600160a01b0316876001600160a01b03167fddf252ad1be2c89b69c2b068fc378daa952ba7f163c4a11628f55a4df523b3ef60405160405180910390a45b505050505050565b6000610bc88284612a92565b6000826119558584611e0c565b14949350505050565b604080518082019091526000808252602082015261197d826001541190565b6119dc5760405162461bcd60e51b815260206004820152602a60248201527f455243373231413a206f776e657220717565727920666f72206e6f6e657869736044820152693a32b73a103a37b5b2b760b11b6064820152608401610849565b60007f00000000000000000000000000000000000000000000000000000000000000008310611a3d57611a2f7f000000000000000000000000000000000000000000000000000000000000000084612ad9565b611a3a906001612a66565b90505b825b818110611aa9576000818152600460209081526040918290208251808401909352546001600160a01b038116808452600160a01b90910467ffffffffffffffff169183019190915215611a9657925061081a915050565b5080611aa181612b1c565b915050611a3f565b5060405162461bcd60e51b815260206004820152602f60248201527f455243373231413a20756e61626c6520746f2064657465726d696e652074686560448201526e1037bbb732b91037b3103a37b5b2b760891b6064820152608401610849565b600080546001600160a01b038381166001600160a01b0319831681178455604051919092169283917f8be0079c531659141344cd1fd0a4f28419497f9722a3daafe3b4186f6b6457e09190a35050565b6000610bc88284612ad9565b60006001600160a01b0384163b15611c6857604051630a85bd0160e11b81526001600160a01b0385169063150b7a0290611baa90339089908890889060040161296c565b602060405180830381600087803b158015611bc457600080fd5b505af1925050508015611bf4575060408051601f3d908101601f19168201909252611bf191810190612862565b60015b611c4e573d808015611c22576040519150601f19603f3d011682016040523d82523d6000602084013e611c27565b606091505b508051611c465760405162461bcd60e51b8152600401610849906129f1565b805181602001fd5b6001600160e01b031916630a85bd0160e11b149050611c6c565b5060015b949350505050565b604080516001600160a01b0385811660248301528416604482015260648082018490528251808303909101815260849091019091526020810180516001600160e01b03166323b872dd60e01b1790526111df908590611ec6565b610fc2828260405180602001604052806000815250611f98565b6000610bc88284612a66565b6060611d01826001541190565b611d655760405162461bcd60e51b815260206004820152602f60248201527f4552433732314d657461646174613a2055524920717565727920666f72206e6f60448201526e3732bc34b9ba32b73a103a37b5b2b760891b6064820152608401610849565b6000611d6f6122ab565b90506000815111611d8f5760405180602001604052806000815250610bc8565b80611d99846122ba565b604051602001611daa92919061293d565b6040516020818303038152906040529392505050565b600a5462010000900460ff16156111df5760405162461bcd60e51b815260206004820152601060248201526f5472616e73666572204c6f636b65642160801b6044820152606401610849565b600081815b8451811015611ebe576000858281518110611e3c57634e487b7160e01b600052603260045260246000fd5b60200260200101519050808311611e7e576040805160208101859052908101829052606001604051602081830303815290604052805190602001209250611eab565b60408051602081018390529081018490526060016040516020818303038152906040528051906020012092505b5080611eb681612b6e565b915050611e11565b509392505050565b6000611f1b826040518060400160405280602081526020017f5361666545524332303a206c6f772d6c6576656c2063616c6c206661696c6564815250856001600160a01b03166123d59092919063ffffffff16565b805190915015610a985780806020019051810190611f399190612812565b610a985760405162461bcd60e51b815260206004820152602a60248201527f5361666545524332303a204552433230206f7065726174696f6e20646964206e6044820152691bdd081cdd58d8d9595960b21b6064820152608401610849565b6001546001600160a01b038416611ffb5760405162461bcd60e51b815260206004820152602160248201527f455243373231413a206d696e7420746f20746865207a65726f206164647265736044820152607360f81b6064820152608401610849565b612006816001541190565b156120535760405162461bcd60e51b815260206004820152601d60248201527f455243373231413a20746f6b656e20616c7265616479206d696e7465640000006044820152606401610849565b7f00000000000000000000000000000000000000000000000000000000000000008311156120ce5760405162461bcd60e51b815260206004820152602260248201527f455243373231413a207175616e7469747920746f206d696e7420746f6f2068696044820152610ced60f31b6064820152608401610849565b6120db6000858386611dc0565b6001600160a01b0384166000908152600560209081526040918290208251808401845290546001600160801b038082168352600160801b9091041691810191909152815180830190925280519091908190612137908790612a44565b6001600160801b031681526020018583602001516121559190612a44565b6001600160801b039081169091526001600160a01b03808816600081815260056020908152604080832087518154988401518816600160801b029088166fffffffffffffffffffffffffffffffff1990991698909817909616969096179094558451808601865291825267ffffffffffffffff4281168386019081528883526004909552948120915182549451909516600160a01b0267ffffffffffffffff60a01b19959093166001600160a01b031990941693909317939093161790915582905b858110156122a05760405182906001600160a01b038916906000907fddf252ad1be2c89b69c2b068fc378daa952ba7f163c4a11628f55a4df523b3ef908290a46122646000888488611b66565b6122805760405162461bcd60e51b8152600401610849906129f1565b8161228a81612b6e565b925050808061229890612b6e565b915050612217565b506001819055611934565b60606011805461087790612b33565b6060816122df57506040805180820190915260018152600360fc1b602082015261081a565b8160005b811561230957806122f381612b6e565b91506123029050600a83612a7e565b91506122e3565b60008167ffffffffffffffff81111561233257634e487b7160e01b600052604160045260246000fd5b6040519080825280601f01601f19166020018201604052801561235c576020820181803683370190505b5090505b8415611c6c57612371600183612ad9565b915061237e600a86612b89565b612389906030612a66565b60f81b8183815181106123ac57634e487b7160e01b600052603260045260246000fd5b60200101906001600160f81b031916908160001a9053506123ce600a86612a7e565b9450612360565b6060611c6c848460008585843b61242e5760405162461bcd60e51b815260206004820152601d60248201527f416464726573733a2063616c6c20746f206e6f6e2d636f6e74726163740000006044820152606401610849565b600080866001600160a01b0316858760405161244a9190612921565b60006040518083038185875af1925050503d8060008114612487576040519150601f19603f3d011682016040523d82523d6000602084013e61248c565b606091505b509150915061249c8282866124a7565b979650505050505050565b606083156124b6575081610bc8565b8251156124c65782518084602001fd5b8160405162461bcd60e51b815260040161084991906129a9565b8280546124ec90612b33565b90600052602060002090601f01602090048101928261250e5760008555612554565b82601f1061252757805160ff1916838001178555612554565b82800160010185558215612554579182015b82811115612554578251825591602001919060010190612539565b50610e799291505b80821115610e79576000815560010161255c565b600067ffffffffffffffff8084111561258b5761258b612bc9565b604051601f8501601f19908116603f011681019082821181831017156125b3576125b3612bc9565b816040528093508581528686860111156125cc57600080fd5b858560208301376000602087830101525050509392505050565b80356001600160a01b038116811461081a57600080fd5b60008083601f84011261260e578081fd5b50813567ffffffffffffffff811115612625578182fd5b602083019150836020808302850101111561263f57600080fd5b9250929050565b600060208284031215612657578081fd5b610bc8826125e6565b60008060408385031215612672578081fd5b61267b836125e6565b9150612689602084016125e6565b90509250929050565b6000806000606084860312156126a6578081fd5b6126af846125e6565b92506126bd602085016125e6565b9150604084013590509250925092565b600080600080608085870312156126e2578081fd5b6126eb856125e6565b93506126f9602086016125e6565b925060408501359150606085013567ffffffffffffffff81111561271b578182fd5b8501601f8101871361272b578182fd5b61273a87823560208401612570565b91505092959194509250565b60008060006040848603121561275a578283fd5b612763846125e6565b9250602084013567ffffffffffffffff81111561277e578283fd5b61278a868287016125fd565b9497909650939450505050565b600080604083850312156127a9578182fd5b6127b2836125e6565b915060208301356127c281612bdf565b809150509250929050565b600080604083850312156127df578182fd5b6127e8836125e6565b946020939093013593505050565b600060208284031215612807578081fd5b8135610bc881612bdf565b600060208284031215612823578081fd5b8151610bc881612bdf565b60006020828403121561283f578081fd5b5035919050565b600060208284031215612857578081fd5b8135610bc881612bed565b600060208284031215612873578081fd5b8151610bc881612bed565b60006020828403121561288f578081fd5b813567ffffffffffffffff8111156128a5578182fd5b8201601f810184136128b5578182fd5b611c6c84823560208401612570565b6000806000604084860312156128d8578081fd5b83359250602084013567ffffffffffffffff81111561277e578182fd5b6000815180845261290d816020860160208601612af0565b601f01601f19169290920160200192915050565b60008251612933818460208701612af0565b9190910192915050565b6000835161294f818460208801612af0565b835190830190612963818360208801612af0565b01949350505050565b6001600160a01b038581168252841660208201526040810183905260806060820181905260009061299f908301846128f5565b9695505050505050565b600060208252610bc860208301846128f5565b6020808252818101527f4f776e61626c653a2063616c6c6572206973206e6f7420746865206f776e6572604082015260600190565b60208082526033908201527f455243373231413a207472616e7366657220746f206e6f6e204552433732315260408201527232b1b2b4bb32b91034b6b83632b6b2b73a32b960691b606082015260800190565b60006001600160801b0380831681851680830382111561296357612963612b9d565b60008219821115612a7957612a79612b9d565b500190565b600082612a8d57612a8d612bb3565b500490565b6000816000190483118215151615612aac57612aac612b9d565b500290565b60006001600160801b0383811690831681811015612ad157612ad1612b9d565b039392505050565b600082821015612aeb57612aeb612b9d565b500390565b60005b83811015612b0b578181015183820152602001612af3565b838111156111df5750506000910152565b600081612b2b57612b2b612b9d565b506000190190565b600281046001821680612b4757607f821691505b60208210811415612b6857634e487b7160e01b600052602260045260246000fd5b50919050565b6000600019821415612b8257612b82612b9d565b5060010190565b600082612b9857612b98612bb3565b500690565b634e487b7160e01b600052601160045260246000fd5b634e487b7160e01b600052601260045260246000fd5b634e487b7160e01b600052604160045260246000fd5b801515811461152557600080fd5b6001600160e01b03198116811461152557600080fdfea264697066735822122047faaf8ff9900be024f44d759332a65c8bc7f48183fe5ccc5092f1b5fe2dc1eb64736f6c63430008020033",
  "devdoc": {
    "kind": "dev",
    "methods": {
      "approve(address,uint256)": {
        "details": "See {IERC721-approve}."
      },
      "balanceOf(address)": {
        "details": "See {IERC721-balanceOf}."
      },
      "getApproved(uint256)": {
        "details": "See {IERC721-getApproved}."
      },
      "isApprovedForAll(address,address)": {
        "details": "See {IERC721-isApprovedForAll}."
      },
      "name()": {
        "details": "See {IERC721Metadata-name}."
      },
      "owner()": {
        "details": "Returns the address of the current owner."
      },
      "ownerOf(uint256)": {
        "details": "See {IERC721-ownerOf}."
      },
      "renounceOwnership()": {
        "details": "Leaves the contract without owner. It will not be possible to call `onlyOwner` functions anymore. Can only be called by the current owner. NOTE: Renouncing ownership will leave the contract without an owner, thereby removing any functionality that is only available to the owner."
      },
      "safeTransferFrom(address,address,uint256)": {
        "details": "See {IERC721-safeTransferFrom}."
      },
      "safeTransferFrom(address,address,uint256,bytes)": {
        "details": "See {IERC721-safeTransferFrom}."
      },
      "setApprovalForAll(address,bool)": {
        "details": "See {IERC721-setApprovalForAll}."
      },
      "supportsInterface(bytes4)": {
        "details": "See {IERC165-supportsInterface}."
      },
      "symbol()": {
        "details": "See {IERC721Metadata-symbol}."
      },
      "tokenByIndex(uint256)": {
        "details": "See {IERC721Enumerable-tokenByIndex}."
      },
      "tokenOfOwnerByIndex(address,uint256)": {
        "details": "See {IERC721Enumerable-tokenOfOwnerByIndex}. This read function is O(totalSupply). If calling from a separate contract, be sure to test gas first. It may also degrade with extremely large collection sizes (e.g >> 10000), test for your use case."
      },
      "tokenURI(uint256)": {
        "details": "See {IERC721Metadata-tokenURI}."
      },
      "totalSupply()": {
        "details": "See {IERC721Enumerable-totalSupply}."
      },
      "transferFrom(address,address,uint256)": {
        "details": "See {IERC721-transferFrom}."
      },
      "transferOwnership(address)": {
        "details": "Transfers ownership of the contract to a new account (`newOwner`). Can only be called by the current owner."
      }
    },
    "version": 1
  },
  "userdoc": {
    "kind": "user",
    "methods": {},
    "version": 1
  },
  "storageLayout": {
    "storage": [
      {
        "astId": 1512,
        "contract": "contracts/FounderPass.sol:FounderPass",
        "label": "_owner",
        "offset": 0,
        "slot": "0",
        "type": "t_address"
      },
      {
        "astId": 11709,
        "contract": "contracts/FounderPass.sol:FounderPass",
        "label": "currentIndex",
        "offset": 0,
        "slot": "1",
        "type": "t_uint256"
      },
      {
        "astId": 11713,
        "contract": "contracts/FounderPass.sol:FounderPass",
        "label": "_name",
        "offset": 0,
        "slot": "2",
        "type": "t_string_storage"
      },
      {
        "astId": 11715,
        "contract": "contracts/FounderPass.sol:FounderPass",
        "label": "_symbol",
        "offset": 0,
        "slot": "3",
        "type": "t_string_storage"
      },
      {
        "astId": 11720,
        "contract": "contracts/FounderPass.sol:FounderPass",
        "label": "_ownerships",
        "offset": 0,
        "slot": "4",
        "type": "t_mapping(t_uint256,t_struct(TokenOwnership)11701_storage)"
      },
      {
        "astId": 11725,
        "contract": "contracts/FounderPass.sol:FounderPass",
        "label": "_addressData",
        "offset": 0,
        "slot": "5",
        "type": "t_mapping(t_address,t_struct(AddressData)11706_storage)"
      },
      {
        "astId": 11729,
        "contract": "contracts/FounderPass.sol:FounderPass",
        "label": "_tokenApprovals",
        "offset": 0,
        "slot": "6",
        "type": "t_mapping(t_uint256,t_address)"
      },
      {
        "astId": 11735,
        "contract": "contracts/FounderPass.sol:FounderPass",
        "label": "_operatorApprovals",
        "offset": 0,
        "slot": "7",
        "type": "t_mapping(t_address,t_mapping(t_address,t_bool))"
      },
      {
        "astId": 12665,
        "contract": "contracts/FounderPass.sol:FounderPass",
        "label": "nextOwnerToExplicitlySet",
        "offset": 0,
        "slot": "8",
        "type": "t_uint256"
      },
      {
        "astId": 1712,
        "contract": "contracts/FounderPass.sol:FounderPass",
        "label": "_status",
        "offset": 0,
        "slot": "9",
        "type": "t_uint256"
      },
      {
        "astId": 4963,
        "contract": "contracts/FounderPass.sol:FounderPass",
        "label": "_isActive",
        "offset": 0,
        "slot": "10",
        "type": "t_bool"
      },
      {
        "astId": 4966,
        "contract": "contracts/FounderPass.sol:FounderPass",
        "label": "isPublicSale",
        "offset": 1,
        "slot": "10",
        "type": "t_bool"
      },
      {
        "astId": 4969,
        "contract": "contracts/FounderPass.sol:FounderPass",
        "label": "isTransferLocked",
        "offset": 2,
        "slot": "10",
        "type": "t_bool"
      },
      {
        "astId": 4971,
        "contract": "contracts/FounderPass.sol:FounderPass",
        "label": "merkleRoot",
        "offset": 0,
        "slot": "11",
        "type": "t_bytes32"
      },
      {
        "astId": 4973,
        "contract": "contracts/FounderPass.sol:FounderPass",
        "label": "weth",
        "offset": 0,
        "slot": "12",
        "type": "t_address"
      },
      {
        "astId": 4985,
        "contract": "contracts/FounderPass.sol:FounderPass",
        "label": "maxCountPerClaim",
        "offset": 0,
        "slot": "13",
        "type": "t_uint256"
      },
      {
        "astId": 4988,
        "contract": "contracts/FounderPass.sol:FounderPass",
        "label": "presalePrice",
        "offset": 0,
        "slot": "14",
        "type": "t_uint256"
      },
      {
        "astId": 4991,
        "contract": "contracts/FounderPass.sol:FounderPass",
        "label": "publicsalePrice",
        "offset": 0,
        "slot": "15",
        "type": "t_uint256"
      },
      {
        "astId": 4994,
        "contract": "contracts/FounderPass.sol:FounderPass",
        "label": "totalMinted",
        "offset": 0,
        "slot": "16",
        "type": "t_uint256"
      },
      {
        "astId": 4997,
        "contract": "contracts/FounderPass.sol:FounderPass",
        "label": "_tokenBaseURI",
        "offset": 0,
        "slot": "17",
        "type": "t_string_storage"
      },
      {
        "astId": 5001,
        "contract": "contracts/FounderPass.sol:FounderPass",
        "label": "_preMintedTokens",
        "offset": 0,
        "slot": "18",
        "type": "t_mapping(t_address,t_uint256)"
      },
      {
        "astId": 5005,
        "contract": "contracts/FounderPass.sol:FounderPass",
        "label": "_publicMintedTokens",
        "offset": 0,
        "slot": "19",
        "type": "t_mapping(t_address,t_uint256)"
      }
    ],
    "types": {
      "t_address": {
        "encoding": "inplace",
        "label": "address",
        "numberOfBytes": "20"
      },
      "t_bool": {
        "encoding": "inplace",
        "label": "bool",
        "numberOfBytes": "1"
      },
      "t_bytes32": {
        "encoding": "inplace",
        "label": "bytes32",
        "numberOfBytes": "32"
      },
      "t_mapping(t_address,t_bool)": {
        "encoding": "mapping",
        "key": "t_address",
        "label": "mapping(address => bool)",
        "numberOfBytes": "32",
        "value": "t_bool"
      },
      "t_mapping(t_address,t_mapping(t_address,t_bool))": {
        "encoding": "mapping",
        "key": "t_address",
        "label": "mapping(address => mapping(address => bool))",
        "numberOfBytes": "32",
        "value": "t_mapping(t_address,t_bool)"
      },
      "t_mapping(t_address,t_struct(AddressData)11706_storage)": {
        "encoding": "mapping",
        "key": "t_address",
        "label": "mapping(address => struct ERC721A.AddressData)",
        "numberOfBytes": "32",
        "value": "t_struct(AddressData)11706_storage"
      },
      "t_mapping(t_address,t_uint256)": {
        "encoding": "mapping",
        "key": "t_address",
        "label": "mapping(address => uint256)",
        "numberOfBytes": "32",
        "value": "t_uint256"
      },
      "t_mapping(t_uint256,t_address)": {
        "encoding": "mapping",
        "key": "t_uint256",
        "label": "mapping(uint256 => address)",
        "numberOfBytes": "32",
        "value": "t_address"
      },
      "t_mapping(t_uint256,t_struct(TokenOwnership)11701_storage)": {
        "encoding": "mapping",
        "key": "t_uint256",
        "label": "mapping(uint256 => struct ERC721A.TokenOwnership)",
        "numberOfBytes": "32",
        "value": "t_struct(TokenOwnership)11701_storage"
      },
      "t_string_storage": {
        "encoding": "bytes",
        "label": "string",
        "numberOfBytes": "32"
      },
      "t_struct(AddressData)11706_storage": {
        "encoding": "inplace",
        "label": "struct ERC721A.AddressData",
        "members": [
          {
            "astId": 11703,
            "contract": "contracts/FounderPass.sol:FounderPass",
            "label": "balance",
            "offset": 0,
            "slot": "0",
            "type": "t_uint128"
          },
          {
            "astId": 11705,
            "contract": "contracts/FounderPass.sol:FounderPass",
            "label": "numberMinted",
            "offset": 16,
            "slot": "0",
            "type": "t_uint128"
          }
        ],
        "numberOfBytes": "32"
      },
      "t_struct(TokenOwnership)11701_storage": {
        "encoding": "inplace",
        "label": "struct ERC721A.TokenOwnership",
        "members": [
          {
            "astId": 11698,
            "contract": "contracts/FounderPass.sol:FounderPass",
            "label": "addr",
            "offset": 0,
            "slot": "0",
            "type": "t_address"
          },
          {
            "astId": 11700,
            "contract": "contracts/FounderPass.sol:FounderPass",
            "label": "startTimestamp",
            "offset": 20,
            "slot": "0",
            "type": "t_uint64"
          }
        ],
        "numberOfBytes": "32"
      },
      "t_uint128": {
        "encoding": "inplace",
        "label": "uint128",
        "numberOfBytes": "16"
      },
      "t_uint256": {
        "encoding": "inplace",
        "label": "uint256",
        "numberOfBytes": "32"
      },
      "t_uint64": {
        "encoding": "inplace",
        "label": "uint64",
        "numberOfBytes": "8"
      }
    }
  }
}