{
  "address": "0xc74BF9B318c3d2E47169E3e3b9bdC4d47A7DB20c",
  "abi": [
    {
      "anonymous": false,
      "inputs": [
        {
          "indexed": false,
          "internalType": "address",
          "name": "previousAdmin",
          "type": "address"
        },
        {
          "indexed": false,
          "internalType": "address",
          "name": "newAdmin",
          "type": "address"
        }
      ],
      "name": "AdminChanged",
      "type": "event"
    },
    {
      "anonymous": false,
      "inputs": [
        {
          "indexed": true,
          "internalType": "address",
          "name": "beacon",
          "type": "address"
        }
      ],
      "name": "BeaconUpgraded",
      "type": "event"
    },
    {
      "anonymous": false,
      "inputs": [
        {
          "indexed": true,
          "internalType": "address",
          "name": "owner",
          "type": "address"
        },
        {
          "indexed": true,
          "internalType": "uint256",
          "name": "amount",
          "type": "uint256"
        }
      ],
      "name": "MintCommitted",
      "type": "event"
    },
    {
      "anonymous": false,
      "inputs": [
        {
          "indexed": true,
          "internalType": "address",
          "name": "owner",
          "type": "address"
        },
        {
          "indexed": true,
          "internalType": "uint256",
          "name": "amount",
          "type": "uint256"
        }
      ],
      "name": "MintRevealed",
      "type": "event"
    },
    {
      "anonymous": false,
      "inputs": [
        {
          "indexed": true,
          "internalType": "address",
          "name": "previousOwner",
          "type": "address"
        },
        {
          "indexed": true,
          "internalType": "address",
          "name": "newOwner",
          "type": "address"
        }
      ],
      "name": "OwnershipTransferred",
      "type": "event"
    },
    {
      "anonymous": false,
      "inputs": [
        {
          "indexed": false,
          "internalType": "address",
          "name": "account",
          "type": "address"
        }
      ],
      "name": "Paused",
      "type": "event"
    },
    {
      "anonymous": false,
      "inputs": [
        {
          "indexed": false,
          "internalType": "address",
          "name": "account",
          "type": "address"
        }
      ],
      "name": "Unpaused",
      "type": "event"
    },
    {
      "anonymous": false,
      "inputs": [
        {
          "indexed": true,
          "internalType": "address",
          "name": "implementation",
          "type": "address"
        }
      ],
      "name": "Upgraded",
      "type": "event"
    },
    {
      "inputs": [
        {
          "internalType": "address",
          "name": "addr",
          "type": "address"
        }
      ],
      "name": "addAdmin",
      "outputs": [],
      "stateMutability": "nonpayable",
      "type": "function"
    },
    {
      "inputs": [
        {
          "internalType": "uint256",
          "name": "seed",
          "type": "uint256"
        }
      ],
      "name": "addCommitRandom",
      "outputs": [],
      "stateMutability": "nonpayable",
      "type": "function"
    },
    {
      "inputs": [],
      "name": "allowCommits",
      "outputs": [
        {
          "internalType": "bool",
          "name": "",
          "type": "bool"
        }
      ],
      "stateMutability": "view",
      "type": "function"
    },
    {
      "inputs": [
        {
          "internalType": "address",
          "name": "addr",
          "type": "address"
        }
      ],
      "name": "canMint",
      "outputs": [
        {
          "internalType": "bool",
          "name": "",
          "type": "bool"
        }
      ],
      "stateMutability": "view",
      "type": "function"
    },
    {
      "inputs": [
        {
          "internalType": "address",
          "name": "addr",
          "type": "address"
        }
      ],
      "name": "deleteCommit",
      "outputs": [],
      "stateMutability": "nonpayable",
      "type": "function"
    },
    {
      "inputs": [
        {
          "internalType": "address",
          "name": "addr",
          "type": "address"
        }
      ],
      "name": "forceRevealCommit",
      "outputs": [],
      "stateMutability": "nonpayable",
      "type": "function"
    },
    {
      "inputs": [
        {
          "internalType": "address",
          "name": "addr",
          "type": "address"
        }
      ],
      "name": "getPendingMint",
      "outputs": [
        {
          "components": [
            {
              "internalType": "bool",
              "name": "stake",
              "type": "bool"
            },
            {
              "internalType": "uint16",
              "name": "amount",
              "type": "uint16"
            }
          ],
          "internalType": "struct MnAGameCR.MintCommit",
          "name": "",
          "type": "tuple"
        }
      ],
      "stateMutability": "view",
      "type": "function"
    },
    {
      "inputs": [
        {
          "internalType": "address",
          "name": "addr",
          "type": "address"
        }
      ],
      "name": "hasMintPending",
      "outputs": [
        {
          "internalType": "bool",
          "name": "",
          "type": "bool"
        }
      ],
      "stateMutability": "view",
      "type": "function"
    },
    {
      "inputs": [],
      "name": "initialize",
      "outputs": [],
      "stateMutability": "nonpayable",
      "type": "function"
    },
    {
      "inputs": [
        {
          "internalType": "uint256",
          "name": "amount",
          "type": "uint256"
        },
        {
          "internalType": "bool",
          "name": "stake",
          "type": "bool"
        }
      ],
      "name": "mintCommit",
      "outputs": [],
      "stateMutability": "nonpayable",
      "type": "function"
    },
    {
      "inputs": [
        {
          "internalType": "uint256",
          "name": "tokenId",
          "type": "uint256"
        }
      ],
      "name": "mintCost",
      "outputs": [
        {
          "internalType": "uint256",
          "name": "",
          "type": "uint256"
        }
      ],
      "stateMutability": "view",
      "type": "function"
    },
    {
      "inputs": [],
      "name": "mintReveal",
      "outputs": [],
      "stateMutability": "nonpayable",
      "type": "function"
    },
    {
      "inputs": [],
      "name": "mnaNFT",
      "outputs": [
        {
          "internalType": "contract IMnA",
          "name": "",
          "type": "address"
        }
      ],
      "stateMutability": "view",
      "type": "function"
    },
    {
      "inputs": [],
      "name": "oresToken",
      "outputs": [
        {
          "internalType": "contract IORES",
          "name": "",
          "type": "address"
        }
      ],
      "stateMutability": "view",
      "type": "function"
    },
    {
      "inputs": [],
      "name": "owner",
      "outputs": [
        {
          "internalType": "address",
          "name": "",
          "type": "address"
        }
      ],
      "stateMutability": "view",
      "type": "function"
    },
    {
      "inputs": [],
      "name": "paused",
      "outputs": [
        {
          "internalType": "bool",
          "name": "",
          "type": "bool"
        }
      ],
      "stateMutability": "view",
      "type": "function"
    },
    {
      "inputs": [
        {
          "internalType": "address",
          "name": "addr",
          "type": "address"
        }
      ],
      "name": "removeAdmin",
      "outputs": [],
      "stateMutability": "nonpayable",
      "type": "function"
    },
    {
      "inputs": [],
      "name": "renounceOwnership",
      "outputs": [],
      "stateMutability": "nonpayable",
      "type": "function"
    },
    {
      "inputs": [],
      "name": "seedGenerator",
      "outputs": [
        {
          "internalType": "contract IRandomSeedGenerator",
          "name": "",
          "type": "address"
        }
      ],
      "stateMutability": "view",
      "type": "function"
    },
    {
      "inputs": [
        {
          "internalType": "bool",
          "name": "allowed",
          "type": "bool"
        }
      ],
      "name": "setAllowCommits",
      "outputs": [],
      "stateMutability": "nonpayable",
      "type": "function"
    },
    {
      "inputs": [
        {
          "internalType": "address",
          "name": "_ores",
          "type": "address"
        },
        {
          "internalType": "address",
          "name": "_traits",
          "type": "address"
        },
        {
          "internalType": "address",
          "name": "_wnd",
          "type": "address"
        },
        {
          "internalType": "address",
          "name": "_stakingPool",
          "type": "address"
        },
        {
          "internalType": "address",
          "name": "_spidox",
          "type": "address"
        }
      ],
      "name": "setContracts",
      "outputs": [],
      "stateMutability": "nonpayable",
      "type": "function"
    },
    {
      "inputs": [
        {
          "internalType": "uint256",
          "name": "_amount",
          "type": "uint256"
        }
      ],
      "name": "setMaxOresCost",
      "outputs": [],
      "stateMutability": "nonpayable",
      "type": "function"
    },
    {
      "inputs": [
        {
          "internalType": "bool",
          "name": "_paused",
          "type": "bool"
        }
      ],
      "name": "setPaused",
      "outputs": [],
      "stateMutability": "nonpayable",
      "type": "function"
    },
    {
      "inputs": [
        {
          "internalType": "uint256",
          "name": "pendingAmt",
          "type": "uint256"
        }
      ],
      "name": "setPendingMintAmt",
      "outputs": [],
      "stateMutability": "nonpayable",
      "type": "function"
    },
    {
      "inputs": [
        {
          "internalType": "address",
          "name": "_seedGenerator",
          "type": "address"
        }
      ],
      "name": "setRandomSeedGenerator",
      "outputs": [],
      "stateMutability": "nonpayable",
      "type": "function"
    },
    {
      "inputs": [
        {
          "internalType": "uint256",
          "name": "typeId",
          "type": "uint256"
        }
      ],
      "name": "setTreasureChestId",
      "outputs": [],
      "stateMutability": "nonpayable",
      "type": "function"
    },
    {
      "inputs": [],
      "name": "spidox",
      "outputs": [
        {
          "internalType": "contract ISpidox",
          "name": "",
          "type": "address"
        }
      ],
      "stateMutability": "view",
      "type": "function"
    },
    {
      "inputs": [],
      "name": "stakingPool",
      "outputs": [
        {
          "internalType": "contract IStakingPool",
          "name": "",
          "type": "address"
        }
      ],
      "stateMutability": "view",
      "type": "function"
    },
    {
      "inputs": [],
      "name": "traits",
      "outputs": [
        {
          "internalType": "contract ITraits",
          "name": "",
          "type": "address"
        }
      ],
      "stateMutability": "view",
      "type": "function"
    },
    {
      "inputs": [
        {
          "internalType": "address",
          "name": "newOwner",
          "type": "address"
        }
      ],
      "name": "transferOwnership",
      "outputs": [],
      "stateMutability": "nonpayable",
      "type": "function"
    },
    {
      "inputs": [],
      "name": "treasureChestTypeId",
      "outputs": [
        {
          "internalType": "uint256",
          "name": "",
          "type": "uint256"
        }
      ],
      "stateMutability": "view",
      "type": "function"
    },
    {
      "inputs": [
        {
          "internalType": "address",
          "name": "newImplementation",
          "type": "address"
        }
      ],
      "name": "upgradeTo",
      "outputs": [],
      "stateMutability": "nonpayable",
      "type": "function"
    },
    {
      "inputs": [
        {
          "internalType": "address",
          "name": "newImplementation",
          "type": "address"
        },
        {
          "internalType": "bytes",
          "name": "data",
          "type": "bytes"
        }
      ],
      "name": "upgradeToAndCall",
      "outputs": [],
      "stateMutability": "payable",
      "type": "function"
    },
    {
      "inputs": [],
      "name": "withdraw",
      "outputs": [],
      "stateMutability": "nonpayable",
      "type": "function"
    }
  ],
  "numDeployments": 13,
  "solcInputHash": "089b670dc62c9ed681c51de5863ca1aa",
  "bytecode": "0x60a06040523060601b60805234801561001757600080fd5b5060805160601c612c0261004b600039600081816108de0152818161091e01528181610bfb0152610c3b0152612c026000f3fe6080604052600436106101f95760003560e01c8063715018a61161010d578063e1fc334f116100a0578063f49bb4921161006f578063f49bb492146105c0578063f4c1fc5f146105e0578063f62b1c0d146105f5578063f63bf8bd14610615578063ff9e23d014610635576101f9565b8063e1fc334f14610548578063e5d391a214610569578063e74c6bb514610589578063f2fde38b146105a0576101f9565b8063bd3fae82116100dc578063bd3fae82146104aa578063c2ba4744146104cb578063ce4f276c146104eb578063d0861b9214610528576101f9565b8063715018a6146104415780637785a164146104565780638129fc1c146104775780638da5cb5b1461048c576101f9565b8063392ff09211610190578063497f71721161015f578063497f7172146103a3578063498c626a146103c35780634f1ef286146103f65780635c975abb146104095780637048027514610421576101f9565b8063392ff0921461032d5780633ccfd60b1461034d5780633df6cc4f14610362578063420ea8b014610382576101f9565b806327de8f27116101cc57806327de8f271461029e57806331305082146102cc578063357bad8c146102ec5780633659cfe61461030d576101f9565b80630c56ae3b146101fe57806316c38b3c1461023c5780631785f53c1461025e5780631f4fb37a1461027e575b600080fd5b34801561020a57600080fd5b506101345461021f906001600160a01b031681565b6040516001600160a01b0390911681526020015b60405180910390f35b34801561024857600080fd5b5061025c61025736600461279a565b610676565b005b34801561026a57600080fd5b5061025c610279366004612633565b610757565b34801561028a57600080fd5b5061025c6102993660046127d6565b6107a3565b3480156102aa57600080fd5b506102be6102b93660046127d6565b6107d3565b604051908152602001610233565b3480156102d857600080fd5b5061025c6102e73660046127d6565b610842565b3480156102f857600080fd5b506101375461021f906001600160a01b031681565b34801561031957600080fd5b5061025c610328366004612633565b6108d3565b34801561033957600080fd5b5061025c6103483660046127d6565b610999565b34801561035957600080fd5b5061025c610a5d565b34801561036e57600080fd5b5061025c61037d36600461279a565b610ac0565b34801561038e57600080fd5b506101395461021f906001600160a01b031681565b3480156103af57600080fd5b5061025c6103be366004612633565b610b0b565b3480156103cf57600080fd5b50610132546103e690640100000000900460ff1681565b6040519015158152602001610233565b61025c6104043660046126db565b610bf0565b34801561041557600080fd5b5060fb5460ff166103e6565b34801561042d57600080fd5b5061025c61043c366004612633565b610caa565b34801561044d57600080fd5b5061025c610cf9565b34801561046257600080fd5b506101385461021f906001600160a01b031681565b34801561048357600080fd5b5061025c610d2f565b34801561049857600080fd5b506097546001600160a01b031661021f565b3480156104b657600080fd5b506101355461021f906001600160a01b031681565b3480156104d757600080fd5b506103e66104e6366004612633565b610e3f565b3480156104f757600080fd5b506103e6610506366004612633565b6001600160a01b03166000908152610130602052604090205461ffff16151590565b34801561053457600080fd5b5061025c610543366004612633565b610eb0565b34801561055457600080fd5b506101365461021f906001600160a01b031681565b34801561057557600080fd5b5061025c610584366004612806565b610efd565b34801561059557600080fd5b506102be61012d5481565b3480156105ac57600080fd5b5061025c6105bb366004612633565b611476565b3480156105cc57600080fd5b5061025c6105db366004612633565b61150e565b3480156105ec57600080fd5b5061025c61155c565b34801561060157600080fd5b5061025c6106103660046127d6565b611622565b34801561062157600080fd5b5061025c61063036600461266b565b61166d565b34801561064157600080fd5b50610655610650366004612633565b6116fb565b6040805182511515815260209283015161ffff169281019290925201610233565b610135546001600160a01b03161580159061069c5750610136546001600160a01b031615155b80156106b35750610137546001600160a01b031615155b80156106ca5750610134546001600160a01b031615155b61070f5760405162461bcd60e51b815260206004820152601160248201527010dbdb9d1c9858dd1cc81b9bdd081cd95d607a1b60448201526064015b60405180910390fd5b6097546001600160a01b031633146107395760405162461bcd60e51b8152600401610706906129f6565b801561074c576107476117c2565b610754565b610754611837565b50565b6097546001600160a01b031633146107815760405162461bcd60e51b8152600401610706906129f6565b6001600160a01b0316600090815261013360205260409020805460ff19169055565b6097546001600160a01b031633146107cd5760405162461bcd60e51b8152600401610706906129f6565b61012d55565b6000611b3982116107e65750600061083d565b6136b0821015610801575069065a4da25d3016c0000061083d565b61520782101561081c5750690cb49b44ba602d80000061083d565b616d5e821015610837575069130ee8e717904440000061083d565b5061012e545b919050565b6097546001600160a01b031633148061086b5750336000908152610133602052604090205460ff165b6108875760405162461bcd60e51b8152600401610706906128fd565b610132805461ffff9081166000908152610131602052604081208490558254600193926108b691859116612a76565b92506101000a81548161ffff021916908361ffff16021790555050565b306001600160a01b037f000000000000000000000000000000000000000000000000000000000000000016141561091c5760405162461bcd60e51b815260040161070690612934565b7f00000000000000000000000000000000000000000000000000000000000000006001600160a01b031661094e6118b1565b6001600160a01b0316146109745760405162461bcd60e51b815260040161070690612980565b61097d816118df565b6040805160008082526020820190925261075491839190611909565b610135546001600160a01b0316158015906109bf5750610136546001600160a01b031615155b80156109d65750610137546001600160a01b031615155b80156109ed5750610134546001600160a01b031615155b610a2d5760405162461bcd60e51b815260206004820152601160248201527010dbdb9d1c9858dd1cc81b9bdd081cd95d607a1b6044820152606401610706565b6097546001600160a01b03163314610a575760405162461bcd60e51b8152600401610706906129f6565b61012e55565b6097546001600160a01b03163314610a875760405162461bcd60e51b8152600401610706906129f6565b6097546040516001600160a01b03909116904780156108fc02916000818181858888f19350505050158015610754573d6000803e3d6000fd5b6097546001600160a01b03163314610aea5760405162461bcd60e51b8152600401610706906129f6565b61013280549115156401000000000264ff0000000019909216919091179055565b6097546001600160a01b0316331480610b345750336000908152610133602052604090205460ff165b610b505760405162461bcd60e51b8152600401610706906128fd565b336000908152610130602052604090205461ffff1680610ba65760405162461bcd60e51b8152602060048201526011602482015270139bc81c195b991a5b99c818dbdb5b5a5d607a1b6044820152606401610706565b6001600160a01b03909116600081815261012f6020908152604080832061ffff9095168352938152838220805462ffffff1916905591815261013090915220805461ffff19169055565b306001600160a01b037f0000000000000000000000000000000000000000000000000000000000000000161415610c395760405162461bcd60e51b815260040161070690612934565b7f00000000000000000000000000000000000000000000000000000000000000006001600160a01b0316610c6b6118b1565b6001600160a01b031614610c915760405162461bcd60e51b815260040161070690612980565b610c9a826118df565b610ca682826001611909565b5050565b6097546001600160a01b03163314610cd45760405162461bcd60e51b8152600401610706906129f6565b6001600160a01b0316600090815261013360205260409020805460ff19166001179055565b6097546001600160a01b03163314610d235760405162461bcd60e51b8152600401610706906129f6565b610d2d6000611a54565b565b600054610100900460ff16610d4a5760005460ff1615610d4e565b303b155b610db15760405162461bcd60e51b815260206004820152602e60248201527f496e697469616c697a61626c653a20636f6e747261637420697320616c72656160448201526d191e481a5b9a5d1a585b1a5e995960921b6064820152608401610706565b600054610100900460ff16158015610ddc576000805460ff1961ff0019909116610100171660011790555b610de4611aa6565b610dec611ad9565b610df4611b00565b610dfc6117c2565b69130ee8e717904440000061012e55610132805464ff000000001961ffff19909116600117166401000000001790558015610754576000805461ff001916905550565b6001600160a01b0381166000908152610130602052604081205461ffff1615801590610eaa57506001600160a01b0382166000908152610130602090815260408083205461ffff168352610131909152902054151580610eaa5750610139546001600160a01b031615155b92915050565b6097546001600160a01b03163314610eda5760405162461bcd60e51b8152600401610706906129f6565b61013980546001600160a01b0319166001600160a01b0392909216919091179055565b60fb5460ff1615610f205760405162461bcd60e51b8152600401610706906129cc565b600260c9541415610f735760405162461bcd60e51b815260206004820152601f60248201527f5265656e7472616e637947756172643a207265656e7472616e742063616c6c006044820152606401610706565b600260c95561013254640100000000900460ff16610fd35760405162461bcd60e51b815260206004820152601960248201527f616464696e6720636f6d6d69747320646973616c6c6f776564000000000000006044820152606401610706565b32331461100d5760405162461bcd60e51b81526020600482015260086024820152674f6e6c7920454f4160c01b6044820152606401610706565b336000908152610130602052604090205461ffff161561106f5760405162461bcd60e51b815260206004820152601a60248201527f416c726561647920686176652070656e64696e67206d696e74730000000000006044820152606401610706565b6101375460408051630278162160e51b815290516000926001600160a01b031691634f02c42091600480830192602092919082900301818787803b1580156110b657600080fd5b505af11580156110ca573d6000803e3d6000fd5b505050506040513d601f19601f820116820180604052508101906110ee91906127b4565b9050600061013760009054906101000a90046001600160a01b03166001600160a01b0316636abcded16040518163ffffffff1660e01b815260040160206040518083038186803b15801561114157600080fd5b505afa158015611155573d6000803e3d6000fd5b505050506040513d601f19601f8201168201806040525081019061117991906127ee565b61013254909150819085906111989062010000900461ffff1685612a76565b61ffff166111a69190612a9c565b11156111e85760405162461bcd60e51b8152602060048201526011602482015270105b1b081d1bdad95b9cc81b5a5b9d1959607a1b6044820152606401610706565b6000841180156111f95750600a8411155b61123b5760405162461bcd60e51b8152602060048201526013602482015272125b9d985b1a59081b5a5b9d08185b5bdd5b9d606a1b6044820152606401610706565b600060015b85811161129157610132546112739082906112659062010000900461ffff1687612a76565b61ffff166102b99190612a9c565b61127d9083612a9c565b91508061128981612b29565b915050611240565b50801561137557610135546001600160a01b0316639dc29fac336040516001600160e01b031960e084901b1681526001600160a01b03909116600482015260248101849052604401600060405180830381600087803b1580156112f357600080fd5b505af1158015611307573d6000803e3d6000fd5b5050505061013560009054906101000a90046001600160a01b03166001600160a01b0316639c47ee3b6040518163ffffffff1660e01b8152600401600060405180830381600087803b15801561135c57600080fd5b505af1158015611370573d6000803e3d6000fd5b505050505b604080518082018252851515815261ffff878116602080840191825233600081815261012f835286812061013280548716835290845287822096518754955160ff199096169015151762ffff0019166101009587169590950294909417909555825490855261013090915293909220805461ffff191693821693909317909255805487928392916002916114129185916201000090910416612a76565b92506101000a81548161ffff021916908361ffff160217905550856114343390565b6001600160a01b03167faf67cde32876f45d0ccb318d8ddb3e26990a5bfce179cec382204ceddf93143560405160405180910390a35050600160c95550505050565b6097546001600160a01b031633146114a05760405162461bcd60e51b8152600401610706906129f6565b6001600160a01b0381166115055760405162461bcd60e51b815260206004820152602660248201527f4f776e61626c653a206e6577206f776e657220697320746865207a65726f206160448201526564647265737360d01b6064820152608401610706565b61075481611a54565b6097546001600160a01b03163314806115375750336000908152610133602052604090205460ff165b6115535760405162461bcd60e51b8152600401610706906128fd565b61075481611b30565b60fb5460ff161561157f5760405162461bcd60e51b8152600401610706906129cc565b600260c95414156115d25760405162461bcd60e51b815260206004820152601f60248201527f5265656e7472616e637947756172643a207265656e7472616e742063616c6c006044820152606401610706565b600260c9553233146116125760405162461bcd60e51b81526020600482015260096024820152684f6e6c7920454f413160b81b6044820152606401610706565b61161b33611b30565b600160c955565b6097546001600160a01b0316331461164c5760405162461bcd60e51b8152600401610706906129f6565b610132805461ffff909216620100000263ffff000019909216919091179055565b6097546001600160a01b031633146116975760405162461bcd60e51b8152600401610706906129f6565b61013580546001600160a01b03199081166001600160a01b0397881617909155610136805482169587169590951790945561013780548516938616939093179092556101348054841691851691909117905561013880549092169216919091179055565b60408051808201909152600080825260208201526001600160a01b0382166000908152610130602052604090205461ffff1661176e5760405162461bcd60e51b81526020600482015260126024820152716e6f2070656e64696e6720636f6d6d69747360701b6044820152606401610706565b506001600160a01b0316600090815261012f6020908152604080832061013083528184205461ffff90811685529083529281902081518083019092525460ff81161515825261010090049092169082015290565b60fb5460ff16156117e55760405162461bcd60e51b8152600401610706906129cc565b60fb805460ff191660011790557f62e78cea01bee320cd4e420270b5ea74000d11b0c9f74754ebdbfc544b05a25861181a3390565b6040516001600160a01b03909116815260200160405180910390a1565b60fb5460ff166118805760405162461bcd60e51b815260206004820152601460248201527314185d5cd8589b194e881b9bdd081c185d5cd95960621b6044820152606401610706565b60fb805460ff191690557f5db9ee0a495bf2e6ff9c91a7834c1ba4fdd244a5e8aa4e537bd38aeae4b073aa3361181a565b7f360894a13ba1a3210667c828492db98dca3e2076cc3735a920a3ca505d382bbc546001600160a01b031690565b6097546001600160a01b031633146107545760405162461bcd60e51b8152600401610706906129f6565b60006119136118b1565b905061191e8461235c565b60008351118061192b5750815b1561193c5761193a8484612401565b505b7f4910fdfa16fed3260ed0e7147f7cc6da11a60208b5b9406d12a635614ffd9143805460ff16611a4d57805460ff191660011781556040516001600160a01b03831660248201526119bb90869060440160408051601f198184030181529190526020810180516001600160e01b0316631b2ce7f360e11b179052612401565b50805460ff191681556119cc6118b1565b6001600160a01b0316826001600160a01b031614611a445760405162461bcd60e51b815260206004820152602f60248201527f45524331393637557067726164653a207570677261646520627265616b73206660448201526e75727468657220757067726164657360881b6064820152608401610706565b611a4d856124ec565b5050505050565b609780546001600160a01b038381166001600160a01b0319831681179093556040519116919082907f8be0079c531659141344cd1fd0a4f28419497f9722a3daafe3b4186f6b6457e090600090a35050565b600054610100900460ff16611acd5760405162461bcd60e51b815260040161070690612a2b565b60fb805460ff19169055565b600054610100900460ff1661161b5760405162461bcd60e51b815260040161070690612a2b565b600054610100900460ff16611b275760405162461bcd60e51b815260040161070690612a2b565b610d2d33611a54565b6001600160a01b0381166000908152610130602052604090205461ffff1680611b8f5760405162461bcd60e51b8152602060048201526011602482015270139bc81c195b991a5b99c818dbdb5b5a5d607a1b6044820152606401610706565b61ffff811660009081526101316020526040902054611c8357610139546001600160a01b0316611bf75760405162461bcd60e51b81526020600482015260136024820152721c985b991bdb481cd95959081b9bdd081cd95d606a1b6044820152606401610706565b6101395460408051635ec01e4d60e01b815290516000926001600160a01b031691635ec01e4d91600480830192602092919082900301818787803b158015611c3e57600080fd5b505af1158015611c52573d6000803e3d6000fd5b505050506040513d601f19601f82011682018060405250810190611c7691906127ee565b9050611c8181610887565b505b6101375460408051630278162160e51b815290516000926001600160a01b031691634f02c42091600480830192602092919082900301818787803b158015611cca57600080fd5b505af1158015611cde573d6000803e3d6000fd5b505050506040513d601f19601f82011682018060405250810190611d0291906127b4565b6001600160a01b038416600090815261012f6020908152604080832061ffff80881685529083529281902081518083019092525460ff811615158252610100900483169181018290526101328054949550909391929091600291611d6f9185916201000090910416612ab4565b92506101000a81548161ffff021916908361ffff1602179055506000816020015161ffff1667ffffffffffffffff811115611dba57634e487b7160e01b600052604160045260246000fd5b604051908082528060200260200182016040528015611de3578160200160208202803683370190505b5090506000826020015161ffff1667ffffffffffffffff811115611e1757634e487b7160e01b600052604160045260246000fd5b604051908082528060200260200182016040528015611e40578160200160208202803683370190505b5061ffff8616600090815261013160205260408120549192505b846020015161ffff1681101561220e5785611e7481612b07565b9650508188604051602001611e9c9291909182526001600160a01b0316602082015260400190565b6040516020818303038152906040528051906020012060001c91506000611ec28361252c565b9050886001600160a01b0316816001600160a01b031614158015611ef15750610138546001600160a01b031615155b8015611f795750610138546040516370a0823160e01b81526001600160a01b038b8116600483015260009216906370a082319060240160206040518083038186803b158015611f3f57600080fd5b505afa158015611f53573d6000803e3d6000fd5b505050506040513d601f19601f82011682018060405250810190611f7791906127ee565b115b156120945782600116600114156120945761013854604051632f745c5960e01b81526001600160a01b038b81166004830152600060248301529091169063b88d4fde908b9084908490632f745c599060440160206040518083038186803b158015611fe357600080fd5b505afa158015611ff7573d6000803e3d6000fd5b505050506040513d601f19601f8201168201806040525081019061201b91906127ee565b6040516001600160e01b031960e086901b1681526001600160a01b0393841660048201529290911660248301526044820152608060648201526000608482015260a401600060405180830381600087803b15801561207857600080fd5b505af115801561208c573d6000803e3d6000fd5b505050508890505b868583815181106120b557634e487b7160e01b600052603260045260246000fd5b61ffff90921660209283029190910190910152855115806120e85750886001600160a01b0316816001600160a01b031614155b1561215957610137546040516340c10f1960e01b81526001600160a01b03838116600483015260248201869052909116906340c10f1990604401600060405180830381600087803b15801561213c57600080fd5b505af1158015612150573d6000803e3d6000fd5b505050506121fb565b61013754610134546040516340c10f1960e01b81526001600160a01b039182166004820152602481018690529116906340c10f1990604401600060405180830381600087803b1580156121ab57600080fd5b505af11580156121bf573d6000803e3d6000fd5b50505050868483815181106121e457634e487b7160e01b600052603260045260246000fd5b602002602001019061ffff16908161ffff16815250505b508061220681612b29565b915050611e5a565b50610137546040516335ca838b60e01b81526001600160a01b03909116906335ca838b906122409086906004016128b7565b600060405180830381600087803b15801561225a57600080fd5b505af115801561226e573d6000803e3d6000fd5b505050508360000151156122e2576101345460405163c8367feb60e01b81526001600160a01b039091169063c8367feb906122af908a90869060040161288b565b600060405180830381600087803b1580156122c957600080fd5b505af11580156122dd573d6000803e3d6000fd5b505050505b6001600160a01b038716600081815261012f6020908152604080832061ffff8b1684528252808320805462ffffff19169055838352610130909152808220805461ffff19169055855190519092917f6b71e3b30065fd1e497c06c0aa64d9c0d0a900758ceedaf05e440f024a9cd17d91a350505050505050565b803b6123c05760405162461bcd60e51b815260206004820152602d60248201527f455243313936373a206e657720696d706c656d656e746174696f6e206973206e60448201526c1bdd08184818dbdb9d1c9858dd609a1b6064820152608401610706565b7f360894a13ba1a3210667c828492db98dca3e2076cc3735a920a3ca505d382bbc80546001600160a01b0319166001600160a01b0392909216919091179055565b6060823b6124605760405162461bcd60e51b815260206004820152602660248201527f416464726573733a2064656c65676174652063616c6c20746f206e6f6e2d636f6044820152651b9d1c9858dd60d21b6064820152608401610706565b600080846001600160a01b03168460405161247b919061286f565b600060405180830381855af49150503d80600081146124b6576040519150601f19603f3d011682016040523d82523d6000602084013e6124bb565b606091505b50915091506124e38282604051806060016040528060278152602001612ba6602791396125e3565b95945050505050565b6124f58161235c565b6040516001600160a01b038216907fbc7cd75a20ee27fd9adebab32041f755214dbc6bffa90cc0225b39da2e5c2d3b90600090a250565b600061253d600a60f584901c612b44565b1561254957503361083d565b61013454604051633b55eb4960e21b8152609084901c60048201526000916001600160a01b03169063ed57ad249060240160206040518083038186803b15801561259257600080fd5b505afa1580156125a6573d6000803e3d6000fd5b505050506040513d601f19601f820116820180604052508101906125ca919061264f565b90506001600160a01b038116610eaa573391505061083d565b606083156125f257508161261c565b8251156126025782518084602001fd5b8160405162461bcd60e51b815260040161070691906128ca565b9392505050565b8035801515811461083d57600080fd5b600060208284031215612644578081fd5b813561261c81612b90565b600060208284031215612660578081fd5b815161261c81612b90565b600080600080600060a08688031215612682578081fd5b853561268d81612b90565b9450602086013561269d81612b90565b935060408601356126ad81612b90565b925060608601356126bd81612b90565b915060808601356126cd81612b90565b809150509295509295909350565b600080604083850312156126ed578182fd5b82356126f881612b90565b9150602083013567ffffffffffffffff80821115612714578283fd5b818501915085601f830112612727578283fd5b81358181111561273957612739612b7a565b604051601f8201601f19908116603f0116810190838211818310171561276157612761612b7a565b81604052828152886020848701011115612779578586fd5b82602086016020830137856020848301015280955050505050509250929050565b6000602082840312156127ab578081fd5b61261c82612623565b6000602082840312156127c5578081fd5b815161ffff8116811461261c578182fd5b6000602082840312156127e7578081fd5b5035919050565b6000602082840312156127ff578081fd5b5051919050565b60008060408385031215612818578182fd5b8235915061282860208401612623565b90509250929050565b6000815180845260208085019450808401835b8381101561286457815161ffff1687529582019590820190600101612844565b509495945050505050565b60008251612881818460208701612ad7565b9190910192915050565b6001600160a01b03831681526040602082018190526000906128af90830184612831565b949350505050565b60006020825261261c6020830184612831565b60006020825282518060208401526128e9816040850160208701612ad7565b601f01601f19169190910160400192915050565b60208082526019908201527f4f6e6c792061646d696e732063616e2063616c6c207468697300000000000000604082015260600190565b6020808252602c908201527f46756e6374696f6e206d7573742062652063616c6c6564207468726f7567682060408201526b19195b1959d85d1958d85b1b60a21b606082015260800190565b6020808252602c908201527f46756e6374696f6e206d7573742062652063616c6c6564207468726f7567682060408201526b6163746976652070726f787960a01b606082015260800190565b60208082526010908201526f14185d5cd8589b194e881c185d5cd95960821b604082015260600190565b6020808252818101527f4f776e61626c653a2063616c6c6572206973206e6f7420746865206f776e6572604082015260600190565b6020808252602b908201527f496e697469616c697a61626c653a20636f6e7472616374206973206e6f74206960408201526a6e697469616c697a696e6760a81b606082015260800190565b600061ffff808316818516808303821115612a9357612a93612b64565b01949350505050565b60008219821115612aaf57612aaf612b64565b500190565b600061ffff83811690831681811015612acf57612acf612b64565b039392505050565b60005b83811015612af2578181015183820152602001612ada565b83811115612b01576000848401525b50505050565b600061ffff80831681811415612b1f57612b1f612b64565b6001019392505050565b6000600019821415612b3d57612b3d612b64565b5060010190565b600082612b5f57634e487b7160e01b81526012600452602481fd5b500690565b634e487b7160e01b600052601160045260246000fd5b634e487b7160e01b600052604160045260246000fd5b6001600160a01b038116811461075457600080fdfe416464726573733a206c6f772d6c6576656c2064656c65676174652063616c6c206661696c6564a26469706673582212201265d734b41f2da7e8c2e1034a9f5ac104142d90993cf524e5dbba77d8f8d5d764736f6c63430008020033",
  "devdoc": {
    "kind": "dev",
    "methods": {
      "addAdmin(address)": {
        "params": {
          "addr": "the address to enable"
        }
      },
      "mintCost(uint256)": {
        "params": {
          "tokenId": "the ID to check the cost of to mint"
        },
        "returns": {
          "_0": "the cost of the given token ID"
        }
      },
      "owner()": {
        "details": "Returns the address of the current owner."
      },
      "paused()": {
        "details": "Returns true if the contract is paused, and false otherwise."
      },
      "removeAdmin(address)": {
        "params": {
          "addr": "the address to disbale"
        }
      },
      "renounceOwnership()": {
        "details": "Leaves the contract without owner. It will not be possible to call `onlyOwner` functions anymore. Can only be called by the current owner. NOTE: Renouncing ownership will leave the contract without an owner, thereby removing any functionality that is only available to the owner."
      },
      "transferOwnership(address)": {
        "details": "Transfers ownership of the contract to a new account (`newOwner`). Can only be called by the current owner."
      },
      "upgradeTo(address)": {
        "details": "Upgrade the implementation of the proxy to `newImplementation`. Calls {_authorizeUpgrade}. Emits an {Upgraded} event."
      },
      "upgradeToAndCall(address,bytes)": {
        "details": "Upgrade the implementation of the proxy to `newImplementation`, and subsequently execute the function call encoded in `data`. Calls {_authorizeUpgrade}. Emits an {Upgraded} event."
      }
    },
    "version": 1
  },
  "userdoc": {
    "kind": "user",
    "methods": {
      "addAdmin(address)": {
        "notice": "enables an address to mint / burn"
      },
      "getPendingMint(address)": {
        "notice": "EXTERNAL "
      },
      "mintCommit(uint256,bool)": {
        "notice": "Initiate the start of a mint. This action burns $ORES, as the intent of committing is that you cannot back out once you've started. This will add users into the pending queue, to be revealed after a random seed is generated and assigned to the commit id this commit was added to. "
      },
      "mintReveal()": {
        "notice": "Reveal the commits for this user. This will be when the user gets their NFT, and can only be done when the commit id that the user is pending for has been assigned a random seed. "
      },
      "removeAdmin(address)": {
        "notice": "disables an address from minting / burning"
      },
      "setPaused(bool)": {
        "notice": "enables owner to pause / unpause contract"
      },
      "setPendingMintAmt(uint256)": {
        "notice": "Allow the contract owner to set the pending mint amount. This allows any long-standing pending commits to be overwritten, say for instance if the max supply has been  reached but there are many stale pending commits, it could be used to free up those spaces if needed/desired by the community. This function should not be called lightly, this will have negative consequences on the game. "
      },
      "withdraw()": {
        "notice": "allows owner to withdraw funds from minting"
      }
    },
    "version": 1
  },
  "storageLayout": {
    "storage": [
      {
        "astId": 806,
        "contract": "contracts/MnAGameCR.sol:MnAGameCR",
        "label": "_initialized",
        "offset": 0,
        "slot": "0",
        "type": "t_bool"
      },
      {
        "astId": 809,
        "contract": "contracts/MnAGameCR.sol:MnAGameCR",
        "label": "_initializing",
        "offset": 1,
        "slot": "0",
        "type": "t_bool"
      },
      {
        "astId": 788,
        "contract": "contracts/MnAGameCR.sol:MnAGameCR",
        "label": "__gap",
        "offset": 0,
        "slot": "1",
        "type": "t_array(t_uint256)50_storage"
      },
      {
        "astId": 983,
        "contract": "contracts/MnAGameCR.sol:MnAGameCR",
        "label": "__gap",
        "offset": 0,
        "slot": "51",
        "type": "t_array(t_uint256)50_storage"
      },
      {
        "astId": 1443,
        "contract": "contracts/MnAGameCR.sol:MnAGameCR",
        "label": "__gap",
        "offset": 0,
        "slot": "101",
        "type": "t_array(t_uint256)50_storage"
      },
      {
        "astId": 276,
        "contract": "contracts/MnAGameCR.sol:MnAGameCR",
        "label": "_owner",
        "offset": 0,
        "slot": "151",
        "type": "t_address"
      },
      {
        "astId": 390,
        "contract": "contracts/MnAGameCR.sol:MnAGameCR",
        "label": "__gap",
        "offset": 0,
        "slot": "152",
        "type": "t_array(t_uint256)49_storage"
      },
      {
        "astId": 1111,
        "contract": "contracts/MnAGameCR.sol:MnAGameCR",
        "label": "_status",
        "offset": 0,
        "slot": "201",
        "type": "t_uint256"
      },
      {
        "astId": 1154,
        "contract": "contracts/MnAGameCR.sol:MnAGameCR",
        "label": "__gap",
        "offset": 0,
        "slot": "202",
        "type": "t_array(t_uint256)49_storage"
      },
      {
        "astId": 1005,
        "contract": "contracts/MnAGameCR.sol:MnAGameCR",
        "label": "_paused",
        "offset": 0,
        "slot": "251",
        "type": "t_bool"
      },
      {
        "astId": 1096,
        "contract": "contracts/MnAGameCR.sol:MnAGameCR",
        "label": "__gap",
        "offset": 0,
        "slot": "252",
        "type": "t_array(t_uint256)49_storage"
      },
      {
        "astId": 8563,
        "contract": "contracts/MnAGameCR.sol:MnAGameCR",
        "label": "treasureChestTypeId",
        "offset": 0,
        "slot": "301",
        "type": "t_uint256"
      },
      {
        "astId": 8565,
        "contract": "contracts/MnAGameCR.sol:MnAGameCR",
        "label": "maxOresCost",
        "offset": 0,
        "slot": "302",
        "type": "t_uint256"
      },
      {
        "astId": 8572,
        "contract": "contracts/MnAGameCR.sol:MnAGameCR",
        "label": "_mintCommits",
        "offset": 0,
        "slot": "303",
        "type": "t_mapping(t_address,t_mapping(t_uint16,t_struct(MintCommit)8561_storage))"
      },
      {
        "astId": 8576,
        "contract": "contracts/MnAGameCR.sol:MnAGameCR",
        "label": "_pendingCommitId",
        "offset": 0,
        "slot": "304",
        "type": "t_mapping(t_address,t_uint16)"
      },
      {
        "astId": 8580,
        "contract": "contracts/MnAGameCR.sol:MnAGameCR",
        "label": "_commitRandoms",
        "offset": 0,
        "slot": "305",
        "type": "t_mapping(t_uint16,t_uint256)"
      },
      {
        "astId": 8582,
        "contract": "contracts/MnAGameCR.sol:MnAGameCR",
        "label": "_commitId",
        "offset": 0,
        "slot": "306",
        "type": "t_uint16"
      },
      {
        "astId": 8584,
        "contract": "contracts/MnAGameCR.sol:MnAGameCR",
        "label": "pendingMintAmt",
        "offset": 2,
        "slot": "306",
        "type": "t_uint16"
      },
      {
        "astId": 8586,
        "contract": "contracts/MnAGameCR.sol:MnAGameCR",
        "label": "allowCommits",
        "offset": 4,
        "slot": "306",
        "type": "t_bool"
      },
      {
        "astId": 8590,
        "contract": "contracts/MnAGameCR.sol:MnAGameCR",
        "label": "admins",
        "offset": 0,
        "slot": "307",
        "type": "t_mapping(t_address,t_bool)"
      },
      {
        "astId": 8593,
        "contract": "contracts/MnAGameCR.sol:MnAGameCR",
        "label": "stakingPool",
        "offset": 0,
        "slot": "308",
        "type": "t_contract(IStakingPool)15760"
      },
      {
        "astId": 8596,
        "contract": "contracts/MnAGameCR.sol:MnAGameCR",
        "label": "oresToken",
        "offset": 0,
        "slot": "309",
        "type": "t_contract(IORES)15719"
      },
      {
        "astId": 8599,
        "contract": "contracts/MnAGameCR.sol:MnAGameCR",
        "label": "traits",
        "offset": 0,
        "slot": "310",
        "type": "t_contract(ITraits)15770"
      },
      {
        "astId": 8602,
        "contract": "contracts/MnAGameCR.sol:MnAGameCR",
        "label": "mnaNFT",
        "offset": 0,
        "slot": "311",
        "type": "t_contract(IMnA)15638"
      },
      {
        "astId": 8605,
        "contract": "contracts/MnAGameCR.sol:MnAGameCR",
        "label": "spidox",
        "offset": 0,
        "slot": "312",
        "type": "t_contract(ISpidox)15742"
      },
      {
        "astId": 8608,
        "contract": "contracts/MnAGameCR.sol:MnAGameCR",
        "label": "seedGenerator",
        "offset": 0,
        "slot": "313",
        "type": "t_contract(IRandomSeedGenerator)15727"
      }
    ],
    "types": {
      "t_address": {
        "encoding": "inplace",
        "label": "address",
        "numberOfBytes": "20"
      },
      "t_array(t_uint256)49_storage": {
        "base": "t_uint256",
        "encoding": "inplace",
        "label": "uint256[49]",
        "numberOfBytes": "1568"
      },
      "t_array(t_uint256)50_storage": {
        "base": "t_uint256",
        "encoding": "inplace",
        "label": "uint256[50]",
        "numberOfBytes": "1600"
      },
      "t_bool": {
        "encoding": "inplace",
        "label": "bool",
        "numberOfBytes": "1"
      },
      "t_contract(IMnA)15638": {
        "encoding": "inplace",
        "label": "contract IMnA",
        "numberOfBytes": "20"
      },
      "t_contract(IORES)15719": {
        "encoding": "inplace",
        "label": "contract IORES",
        "numberOfBytes": "20"
      },
      "t_contract(IRandomSeedGenerator)15727": {
        "encoding": "inplace",
        "label": "contract IRandomSeedGenerator",
        "numberOfBytes": "20"
      },
      "t_contract(ISpidox)15742": {
        "encoding": "inplace",
        "label": "contract ISpidox",
        "numberOfBytes": "20"
      },
      "t_contract(IStakingPool)15760": {
        "encoding": "inplace",
        "label": "contract IStakingPool",
        "numberOfBytes": "20"
      },
      "t_contract(ITraits)15770": {
        "encoding": "inplace",
        "label": "contract ITraits",
        "numberOfBytes": "20"
      },
      "t_mapping(t_address,t_bool)": {
        "encoding": "mapping",
        "key": "t_address",
        "label": "mapping(address => bool)",
        "numberOfBytes": "32",
        "value": "t_bool"
      },
      "t_mapping(t_address,t_mapping(t_uint16,t_struct(MintCommit)8561_storage))": {
        "encoding": "mapping",
        "key": "t_address",
        "label": "mapping(address => mapping(uint16 => struct MnAGameCR.MintCommit))",
        "numberOfBytes": "32",
        "value": "t_mapping(t_uint16,t_struct(MintCommit)8561_storage)"
      },
      "t_mapping(t_address,t_uint16)": {
        "encoding": "mapping",
        "key": "t_address",
        "label": "mapping(address => uint16)",
        "numberOfBytes": "32",
        "value": "t_uint16"
      },
      "t_mapping(t_uint16,t_struct(MintCommit)8561_storage)": {
        "encoding": "mapping",
        "key": "t_uint16",
        "label": "mapping(uint16 => struct MnAGameCR.MintCommit)",
        "numberOfBytes": "32",
        "value": "t_struct(MintCommit)8561_storage"
      },
      "t_mapping(t_uint16,t_uint256)": {
        "encoding": "mapping",
        "key": "t_uint16",
        "label": "mapping(uint16 => uint256)",
        "numberOfBytes": "32",
        "value": "t_uint256"
      },
      "t_struct(MintCommit)8561_storage": {
        "encoding": "inplace",
        "label": "struct MnAGameCR.MintCommit",
        "members": [
          {
            "astId": 8558,
            "contract": "contracts/MnAGameCR.sol:MnAGameCR",
            "label": "stake",
            "offset": 0,
            "slot": "0",
            "type": "t_bool"
          },
          {
            "astId": 8560,
            "contract": "contracts/MnAGameCR.sol:MnAGameCR",
            "label": "amount",
            "offset": 1,
            "slot": "0",
            "type": "t_uint16"
          }
        ],
        "numberOfBytes": "32"
      },
      "t_uint16": {
        "encoding": "inplace",
        "label": "uint16",
        "numberOfBytes": "2"
      },
      "t_uint256": {
        "encoding": "inplace",
        "label": "uint256",
        "numberOfBytes": "32"
      }
    }
  }
}