{
  "address": "0x0E88fd51155A7804EB9E26F58DD03aC9A23Ab747",
  "abi": [
    {
      "inputs": [
        {
          "internalType": "contract IERC20",
          "name": "_rewardToken",
          "type": "address"
        },
        {
          "internalType": "contract IERC20",
          "name": "_stakedToken",
          "type": "address"
        },
        {
          "internalType": "address",
          "name": "_feeAddress",
          "type": "address"
        },
        {
          "internalType": "uint256",
          "name": "_depositFee",
          "type": "uint256"
        }
      ],
      "stateMutability": "nonpayable",
      "type": "constructor"
    },
    {
      "anonymous": false,
      "inputs": [
        {
          "indexed": true,
          "internalType": "address",
          "name": "previousOwner",
          "type": "address"
        },
        {
          "indexed": true,
          "internalType": "address",
          "name": "newOwner",
          "type": "address"
        }
      ],
      "name": "OwnershipTransferred",
      "type": "event"
    },
    {
      "anonymous": false,
      "inputs": [
        {
          "indexed": false,
          "internalType": "uint256",
          "name": "reward",
          "type": "uint256"
        }
      ],
      "name": "RewardAdded",
      "type": "event"
    },
    {
      "anonymous": false,
      "inputs": [
        {
          "indexed": true,
          "internalType": "address",
          "name": "user",
          "type": "address"
        },
        {
          "indexed": false,
          "internalType": "uint256",
          "name": "reward",
          "type": "uint256"
        }
      ],
      "name": "RewardPaid",
      "type": "event"
    },
    {
      "anonymous": false,
      "inputs": [
        {
          "indexed": true,
          "internalType": "address",
          "name": "user",
          "type": "address"
        },
        {
          "indexed": false,
          "internalType": "bool",
          "name": "lock",
          "type": "bool"
        }
      ],
      "name": "SetLock",
      "type": "event"
    },
    {
      "anonymous": false,
      "inputs": [
        {
          "indexed": true,
          "internalType": "address",
          "name": "user",
          "type": "address"
        },
        {
          "indexed": false,
          "internalType": "uint256",
          "name": "amount",
          "type": "uint256"
        },
        {
          "indexed": false,
          "internalType": "uint256",
          "name": "depositFee",
          "type": "uint256"
        }
      ],
      "name": "Staked",
      "type": "event"
    },
    {
      "anonymous": false,
      "inputs": [
        {
          "indexed": false,
          "internalType": "uint256",
          "name": "oldLockingDuration",
          "type": "uint256"
        },
        {
          "indexed": false,
          "internalType": "uint256",
          "name": "newLockingDuration",
          "type": "uint256"
        }
      ],
      "name": "UpdateLockingDuration",
      "type": "event"
    },
    {
      "anonymous": false,
      "inputs": [
        {
          "indexed": true,
          "internalType": "address",
          "name": "user",
          "type": "address"
        },
        {
          "indexed": false,
          "internalType": "uint256",
          "name": "amount",
          "type": "uint256"
        }
      ],
      "name": "Withdrawn",
      "type": "event"
    },
    {
      "inputs": [
        {
          "internalType": "address",
          "name": "account",
          "type": "address"
        }
      ],
      "name": "balanceOf",
      "outputs": [
        {
          "internalType": "uint256",
          "name": "",
          "type": "uint256"
        }
      ],
      "stateMutability": "view",
      "type": "function"
    },
    {
      "inputs": [],
      "name": "depositFee",
      "outputs": [
        {
          "internalType": "uint256",
          "name": "",
          "type": "uint256"
        }
      ],
      "stateMutability": "view",
      "type": "function"
    },
    {
      "inputs": [
        {
          "internalType": "address",
          "name": "account",
          "type": "address"
        }
      ],
      "name": "earned",
      "outputs": [
        {
          "internalType": "uint128",
          "name": "",
          "type": "uint128"
        }
      ],
      "stateMutability": "view",
      "type": "function"
    },
    {
      "inputs": [],
      "name": "exit",
      "outputs": [],
      "stateMutability": "nonpayable",
      "type": "function"
    },
    {
      "inputs": [],
      "name": "feeAddress",
      "outputs": [
        {
          "internalType": "address",
          "name": "",
          "type": "address"
        }
      ],
      "stateMutability": "view",
      "type": "function"
    },
    {
      "inputs": [],
      "name": "getReward",
      "outputs": [],
      "stateMutability": "nonpayable",
      "type": "function"
    },
    {
      "inputs": [
        {
          "internalType": "address",
          "name": "",
          "type": "address"
        }
      ],
      "name": "lastDeposits",
      "outputs": [
        {
          "internalType": "uint256",
          "name": "",
          "type": "uint256"
        }
      ],
      "stateMutability": "view",
      "type": "function"
    },
    {
      "inputs": [],
      "name": "lastTimeRewardApplicable",
      "outputs": [
        {
          "internalType": "uint64",
          "name": "",
          "type": "uint64"
        }
      ],
      "stateMutability": "view",
      "type": "function"
    },
    {
      "inputs": [],
      "name": "lastUpdateTime",
      "outputs": [
        {
          "internalType": "uint64",
          "name": "",
          "type": "uint64"
        }
      ],
      "stateMutability": "view",
      "type": "function"
    },
    {
      "inputs": [],
      "name": "lockingDuration",
      "outputs": [
        {
          "internalType": "uint256",
          "name": "",
          "type": "uint256"
        }
      ],
      "stateMutability": "view",
      "type": "function"
    },
    {
      "inputs": [],
      "name": "owner",
      "outputs": [
        {
          "internalType": "address",
          "name": "",
          "type": "address"
        }
      ],
      "stateMutability": "view",
      "type": "function"
    },
    {
      "inputs": [],
      "name": "periodFinish",
      "outputs": [
        {
          "internalType": "uint64",
          "name": "",
          "type": "uint64"
        }
      ],
      "stateMutability": "view",
      "type": "function"
    },
    {
      "inputs": [],
      "name": "renounceOwnership",
      "outputs": [],
      "stateMutability": "nonpayable",
      "type": "function"
    },
    {
      "inputs": [],
      "name": "rewardPerToken",
      "outputs": [
        {
          "internalType": "uint128",
          "name": "",
          "type": "uint128"
        }
      ],
      "stateMutability": "view",
      "type": "function"
    },
    {
      "inputs": [],
      "name": "rewardPerTokenStored",
      "outputs": [
        {
          "internalType": "uint128",
          "name": "",
          "type": "uint128"
        }
      ],
      "stateMutability": "view",
      "type": "function"
    },
    {
      "inputs": [],
      "name": "rewardRate",
      "outputs": [
        {
          "internalType": "uint256",
          "name": "",
          "type": "uint256"
        }
      ],
      "stateMutability": "view",
      "type": "function"
    },
    {
      "inputs": [],
      "name": "rewardToken",
      "outputs": [
        {
          "internalType": "contract IERC20",
          "name": "",
          "type": "address"
        }
      ],
      "stateMutability": "view",
      "type": "function"
    },
    {
      "inputs": [
        {
          "internalType": "address",
          "name": "_feeAddress",
          "type": "address"
        }
      ],
      "name": "setFeeAddress",
      "outputs": [],
      "stateMutability": "nonpayable",
      "type": "function"
    },
    {
      "inputs": [
        {
          "internalType": "uint256",
          "name": "_depositFee",
          "type": "uint256"
        }
      ],
      "name": "setFeePercent",
      "outputs": [],
      "stateMutability": "nonpayable",
      "type": "function"
    },
    {
      "inputs": [
        {
          "internalType": "uint256",
          "name": "timestamp",
          "type": "uint256"
        }
      ],
      "name": "setLockingDuration",
      "outputs": [],
      "stateMutability": "nonpayable",
      "type": "function"
    },
    {
      "inputs": [
        {
          "internalType": "uint128",
          "name": "reward",
          "type": "uint128"
        },
        {
          "internalType": "uint64",
          "name": "duration",
          "type": "uint64"
        }
      ],
      "name": "setRewardParams",
      "outputs": [],
      "stateMutability": "nonpayable",
      "type": "function"
    },
    {
      "inputs": [
        {
          "internalType": "uint128",
          "name": "amount",
          "type": "uint128"
        }
      ],
      "name": "stake",
      "outputs": [],
      "stateMutability": "payable",
      "type": "function"
    },
    {
      "inputs": [
        {
          "internalType": "address",
          "name": "forWhom",
          "type": "address"
        },
        {
          "internalType": "uint128",
          "name": "amount",
          "type": "uint128"
        }
      ],
      "name": "stakeFor",
      "outputs": [],
      "stateMutability": "payable",
      "type": "function"
    },
    {
      "inputs": [],
      "name": "stakedToken",
      "outputs": [
        {
          "internalType": "contract IERC20",
          "name": "",
          "type": "address"
        }
      ],
      "stateMutability": "view",
      "type": "function"
    },
    {
      "inputs": [],
      "name": "totalSupply",
      "outputs": [
        {
          "internalType": "uint256",
          "name": "",
          "type": "uint256"
        }
      ],
      "stateMutability": "view",
      "type": "function"
    },
    {
      "inputs": [
        {
          "internalType": "address",
          "name": "newOwner",
          "type": "address"
        }
      ],
      "name": "transferOwnership",
      "outputs": [],
      "stateMutability": "nonpayable",
      "type": "function"
    },
    {
      "inputs": [
        {
          "internalType": "address",
          "name": "",
          "type": "address"
        }
      ],
      "name": "userRewards",
      "outputs": [
        {
          "internalType": "uint128",
          "name": "userRewardPerTokenPaid",
          "type": "uint128"
        },
        {
          "internalType": "uint128",
          "name": "rewards",
          "type": "uint128"
        }
      ],
      "stateMutability": "view",
      "type": "function"
    },
    {
      "inputs": [
        {
          "internalType": "uint128",
          "name": "amount",
          "type": "uint128"
        }
      ],
      "name": "withdraw",
      "outputs": [],
      "stateMutability": "nonpayable",
      "type": "function"
    },
    {
      "inputs": [],
      "name": "withdrawReward",
      "outputs": [],
      "stateMutability": "nonpayable",
      "type": "function"
    }
  ],
  "transactionHash": "0x830c42d8d8bf6f9ccbc15c24fe07221b398590b6787b14a872b0efe1ec34cf1d",
  "args": [
    "0x1090d5041621aB9636A9c4b7AE7b98CA0C4d3B76",
    "0x1090d5041621aB9636A9c4b7AE7b98CA0C4d3B76",
    "0x1aeBc84042d8Fd415bBa14d25597B4C2748D52Eb",
    0
  ],
  "numDeployments": 1,
  "solcInputHash": "a55c34903af1a6a5802178ecb9908310",
  "bytecode": "0x60806040523480156200001157600080fd5b5060405162001bbd38038062001bbd833981016040819052620000349162000084565b60078054336001600160a01b0319918216179091556008805482166001600160a01b03968716179055600680548216948616949094179093556001805490931691909316179055600255620000f6565b600080600080608085870312156200009a578384fd5b8451620000a781620000dd565b6020860151909450620000ba81620000dd565b6040860151909350620000cd81620000dd565b6060959095015193969295505050565b6001600160a01b0381168114620000f357600080fd5b50565b611ab780620001066000396000f3fe6080604052600436106101c15760003560e01c806388fe2be8116100f7578063cd3daf9d11610095578063ebe2b12b11610064578063ebe2b12b14610531578063f2fde38b14610551578063f7c618c114610571578063fb78268914610591576101c1565b8063cd3daf9d146104ca578063cea8c746146104df578063df136d65146104f5578063e9fad8ee1461051c576101c1565b8063c24d5691116100d1578063c24d569114610441578063c885bc581461046e578063c8f33c9114610483578063cc7a262e146104aa576101c1565b806388fe2be8146103ee57806389ee4bde146104015780638da5cb5b14610421576101c1565b806370458d85116101645780637b0a47ee1161013e5780637b0a47ee1461036b5780637ce3489b1461038157806380faa57d146103a15780638705fcd4146103ce576101c1565b806370458d851461030d57806370a0823114610320578063715018a614610356576101c1565b806318160ddd116101a057806318160ddd146102865780633d18b912146102aa57806341275358146102bf57806367a52793146102f7576101c1565b80628cc262146101c657806302387a7b146102035780630660f1e814610225575b600080fd5b3480156101d257600080fd5b506101e66101e13660046118b6565b6105b1565b6040516001600160801b0390911681526020015b60405180910390f35b34801561020f57600080fd5b5061022361021e366004611929565b61063e565b005b34801561023157600080fd5b506102666102403660046118b6565b600b602052600090815260409020546001600160801b0380821691600160801b90041682565b604080516001600160801b039384168152929091166020830152016101fa565b34801561029257600080fd5b5061029c60005481565b6040519081526020016101fa565b3480156102b657600080fd5b506102236106ed565b3480156102cb57600080fd5b506001546102df906001600160a01b031681565b6040516001600160a01b0390911681526020016101fa565b34801561030357600080fd5b5061029c60025481565b61022361031b3660046118d7565b6108cf565b34801561032c57600080fd5b5061029c61033b3660046118b6565b6001600160a01b031660009081526004602052604090205490565b34801561036257600080fd5b50610223610980565b34801561037757600080fd5b5061029c60095481565b34801561038d57600080fd5b5061022361039c366004611984565b6109f4565b3480156103ad57600080fd5b506103b6610a81565b6040516001600160401b0390911681526020016101fa565b3480156103da57600080fd5b506102236103e93660046118b6565b610ab6565b6102236103fc366004611929565b610b02565b34801561040d57600080fd5b5061022361041c366004611943565b610b0f565b34801561042d57600080fd5b506007546102df906001600160a01b031681565b34801561044d57600080fd5b5061029c61045c3660046118b6565b60056020526000908152604090205481565b34801561047a57600080fd5b50610223610d89565b34801561048f57600080fd5b50600a546103b690600160401b90046001600160401b031681565b3480156104b657600080fd5b506006546102df906001600160a01b031681565b3480156104d657600080fd5b506101e6610f0c565b3480156104eb57600080fd5b5061029c60035481565b34801561050157600080fd5b50600a546101e690600160801b90046001600160801b031681565b34801561052857600080fd5b50610223610fa3565b34801561053d57600080fd5b50600a546103b6906001600160401b031681565b34801561055d57600080fd5b5061022361056c3660046118b6565b610fc6565b34801561057d57600080fd5b506008546102df906001600160a01b031681565b34801561059d57600080fd5b506102236105ac366004611984565b610ff9565b6001600160a01b0381166000908152600b60205260408120546001600160801b03600160801b8204811691670de0b6b3a764000091166105ef610f0c565b036001600160801b0316610618856001600160a01b031660009081526004602052604090205490565b028161063457634e487b7160e01b600052601260045260246000fd5b040190505b919050565b336000610649610f0c565b9050610653610a81565b600a80546001600160801b03808516600160801b026001600160401b0394909416600160401b0267ffffffffffffffff60401b19909216919091171691909117905561069e826105b1565b6001600160a01b0383166000908152600b6020526040902080546001600160801b03848116938116600160801b029116176001600160801b0319169190911790556106e883611064565b505050565b3360006106f8610f0c565b9050610702610a81565b600a80546001600160801b03808516600160801b026001600160401b0394909416600160401b0267ffffffffffffffff60401b19909216919091171691909117905561074d826105b1565b6001600160a01b0383166000908152600b6020526040812080546001600160801b03858116948116600160801b029116176001600160801b03191692909217909155610798336105b1565b6001600160801b0316905080156106e857336000818152600b60205260409081902080546001600160801b03169055600854905163a9059cbb60e01b81526004810192909252602482018390526001600160a01b03169063a9059cbb90604401602060405180830381600087803b15801561081257600080fd5b505af1158015610826573d6000803e3d6000fd5b505050506040513d601f19601f8201168201806040525081019061084a9190611909565b6108945760405162461bcd60e51b81526020600482015260166024820152751c995dd85c99081d1c985b9cd9995c8819985a5b195960521b60448201526064015b60405180910390fd5b60405181815233907fe2403640ba68fed3a2f88b7557551d1993f84b99bb10ff833f0cf8db0c5e0486906020015b60405180910390a2505050565b8160006108da610f0c565b90506108e4610a81565b600a80546001600160801b03808516600160801b026001600160401b0394909416600160401b0267ffffffffffffffff60401b19909216919091171691909117905561092f826105b1565b6001600160a01b0383166000908152600b6020526040902080546001600160801b03848116938116600160801b029116176001600160801b03191691909117905561097a8484611345565b50505050565b6007546001600160a01b031633146109aa5760405162461bcd60e51b815260040161088b90611a07565b6007546040516000916001600160a01b0316907f8be0079c531659141344cd1fd0a4f28419497f9722a3daafe3b4186f6b6457e0908390a3600780546001600160a01b0319169055565b6007546001600160a01b03163314610a1e5760405162461bcd60e51b815260040161088b90611a07565b611388811115610a7c5760405162461bcd60e51b8152602060048201526024808201527f6465706f73697420666565206d75737420626520736d616c6c6572207468616e6044820152632035302560e01b606482015260840161088b565b600255565b600a5460009042906001600160401b0390811690821610610aad57600a546001600160401b0316610aaf565b805b9150505b90565b6007546001600160a01b03163314610ae05760405162461bcd60e51b815260040161088b90611a07565b600180546001600160a01b0319166001600160a01b0392909216919091179055565b610b0c33826108cf565b50565b6007546001600160a01b03163314610b395760405162461bcd60e51b815260040161088b90611a07565b6000826001600160801b031611610b4f57600080fd5b610b57610f0c565b600a80546001600160801b03928316600160801b0292169190911790556008546040516370a0823160e01b815230600482015242916000916001600160a01b03909116906370a082319060240160206040518083038186803b158015610bbc57600080fd5b505afa158015610bd0573d6000803e3d6000fd5b505050506040513d601f19601f82011682018060405250810190610bf4919061199c565b6006546008549192506001600160a01b0391821691161415610c165760005490035b600a546000906001600160401b0390811690841610610c7057836001600160401b0316856001600160801b031681610c5e57634e487b7160e01b600052601260045260246000fd5b046001600160801b0316600955610cba565b50600a546009546001600160401b0391821684900382169081029185166001600160801b038716830181610cb457634e487b7160e01b600052601260045260246000fd5b04600955505b8181866001600160801b0316011115610d095760405162461bcd60e51b81526020600482015260116024820152706e6f7420656e6f75676820746f6b656e7360781b604482015260640161088b565b600a80548585016001600160401b0390811667ffffffffffffffff19918716600160401b0267ffffffffffffffff60401b1990931692909217161790556040516001600160801b03861681527fde88a922e0d3b88b24e9623efeb464919c6bf9f66857a65e2bfcf2ce87a9433d9060200160405180910390a15050505050565b6007546001600160a01b03163314610db35760405162461bcd60e51b815260040161088b90611a07565b6008546040516370a0823160e01b81523060048201526000916001600160a01b0316906370a082319060240160206040518083038186803b158015610df757600080fd5b505afa158015610e0b573d6000803e3d6000fd5b505050506040513d601f19601f82011682018060405250810190610e2f919061199c565b6006546008549192506001600160a01b0391821691161415610e5b57600054610e589082611a54565b90505b60085460405163a9059cbb60e01b8152336004820152602481018390526001600160a01b039091169063a9059cbb90604401602060405180830381600087803b158015610ea757600080fd5b505af1158015610ebb573d6000803e3d6000fd5b505050506040513d601f19601f82011682018060405250810190610edf9190611909565b610ee857600080fd5b506000600955600a805467ffffffffffffffff1916426001600160401b0316179055565b6000805480610f2f575050600a54600160801b90046001600160801b0316610ab3565b600a54600090600160401b90046001600160401b0316610f4d610a81565b036001600160401b03169050816009548202670de0b6b3a76400000281610f8457634e487b7160e01b600052601260045260246000fd5b600a546001600160801b03600160801b90910416919004019250505090565b610fab6106ed565b33600090815260046020526040902054610fc49061021e565b565b6007546001600160a01b03163314610ff05760405162461bcd60e51b815260040161088b90611a07565b610b0c816117c7565b6007546001600160a01b031633146110235760405162461bcd60e51b815260040161088b90611a07565b60035460408051918252602082018390527f8d50fc1e9cdb13c741e06e21dd575eab9e86ebbf396d196eb39aaf8949a6cdbb910160405180910390a1600355565b336000908152600460205260409020546001600160801b03821611156110cc5760405162461bcd60e51b815260206004820152601a60248201527f77697468647261773a2062616c616e6365206973206c6f776572000000000000604482015260640161088b565b600354336000908152600560205260409020546110e99190611a3c565b421161114b5760405162461bcd60e51b815260206004820152602b60248201527f77697468647261773a20756e617661696c61626c6520756e74696c206c6f636b60448201526a696e6720656e6474696d6560a81b606482015260840161088b565b33600090815260046020526040812080546001600160801b0384169081900390915581540390556006546001600160a01b0316806112215760405160009033906001600160801b038516908381818185875af1925050503d80600081146111ce576040519150601f19603f3d011682016040523d82523d6000602084013e6111d3565b606091505b505090508061121b5760405162461bcd60e51b8152602060048201526014602482015273657468207472616e73666572206661696c75726560601b604482015260640161088b565b50611303565b60065460405163a9059cbb60e01b81523360048201526001600160801b03841660248201526001600160a01b039091169063a9059cbb90604401602060405180830381600087803b15801561127557600080fd5b505af1158015611289573d6000803e3d6000fd5b505050506040513d601f19601f820116820180604052508101906112ad9190611909565b6040518060400160405280601c81526020017f7374616b656420746f6b656e207472616e73666572206661696c656400000000815250906113015760405162461bcd60e51b815260040161088b91906119b4565b505b6040516001600160801b038316815233907f7084f5476618d8e60b11ef0d7d3f06914655adb8793e28ff7f018d4c76d505d59060200160405180910390a25050565b6006546001600160a01b03168061149457600061271060025434028161137b57634e487b7160e01b600052601260045260246000fd5b0490508034116113c35760405162461bcd60e51b81526020600482015260136024820152723ab73232b9333637bb9032bc31b2b83a34b7b760691b604482015260640161088b565b600080543483900390810182556001600160a01b038616825260046020526040909120805482019055811561148d576001546040516000916001600160a01b03169084908381818185875af1925050503d806000811461143f576040519150601f19603f3d011682016040523d82523d6000602084013e611444565b606091505b505090508061148b5760405162461bcd60e51b8152602060048201526013602482015272195d1a081d1c985b9cd9995c8819985a5b1959606a1b604482015260640161088b565b505b5050611740565b34156114d15760405162461bcd60e51b815260206004820152600c60248201526b0dcdedc5af4cae4de40cae8d60a31b604482015260640161088b565b6000826001600160801b03161161151b5760405162461bcd60e51b815260206004820152600e60248201526d043616e6e6f74207374616b6520360941b604482015260640161088b565b6040516323b872dd60e01b81523360048201523060248201526001600160801b03831660448201526001600160a01b038216906323b872dd90606401602060405180830381600087803b15801561157157600080fd5b505af1158015611585573d6000803e3d6000fd5b505050506040513d601f19601f820116820180604052508101906115a99190611909565b6040518060400160405280601c81526020017f7374616b656420746f6b656e207472616e73666572206661696c656400000000815250906115fd5760405162461bcd60e51b815260040161088b91906119b4565b506000612710600254846001600160801b0316028161162c57634e487b7160e01b600052601260045260246000fd5b04905080836001600160801b03161161167d5760405162461bcd60e51b81526020600482015260136024820152723ab73232b9333637bb9032bc31b2b83a34b7b760691b604482015260640161088b565b600080546001600160801b03851683900390810182556001600160a01b038616825260046020526040909120805482019055811561173d5760015460405163a9059cbb60e01b81526001600160a01b039182166004820152602481018490529084169063a9059cbb90604401602060405180830381600087803b15801561170357600080fd5b505af1158015611717573d6000803e3d6000fd5b505050506040513d601f19601f8201168201806040525081019061173b9190611909565b505b50505b6001600160a01b038316600090815260056020526040902054611779576001600160a01b03831660009081526005602052604090204290555b600254604080516001600160801b038516815260208101929092526001600160a01b038516917f1449c6dd7851abc30abf37f57715f492010519147cc2652fbc38202c18a6ee9091016108c2565b6001600160a01b03811661182c5760405162461bcd60e51b815260206004820152602660248201527f4f776e61626c653a206e6577206f776e657220697320746865207a65726f206160448201526564647265737360d01b606482015260840161088b565b6007546040516001600160a01b038084169216907f8be0079c531659141344cd1fd0a4f28419497f9722a3daafe3b4186f6b6457e090600090a3600780546001600160a01b0319166001600160a01b0392909216919091179055565b80356001600160a01b038116811461063957600080fd5b80356001600160801b038116811461063957600080fd5b6000602082840312156118c7578081fd5b6118d082611888565b9392505050565b600080604083850312156118e9578081fd5b6118f283611888565b91506119006020840161189f565b90509250929050565b60006020828403121561191a578081fd5b815180151581146118d0578182fd5b60006020828403121561193a578081fd5b6118d08261189f565b60008060408385031215611955578182fd5b61195e8361189f565b915060208301356001600160401b0381168114611979578182fd5b809150509250929050565b600060208284031215611995578081fd5b5035919050565b6000602082840312156119ad578081fd5b5051919050565b6000602080835283518082850152825b818110156119e0578581018301518582016040015282016119c4565b818111156119f15783604083870101525b50601f01601f1916929092016040019392505050565b6020808252818101527f4f776e61626c653a2063616c6c6572206973206e6f7420746865206f776e6572604082015260600190565b60008219821115611a4f57611a4f611a6b565b500190565b600082821015611a6657611a66611a6b565b500390565b634e487b7160e01b600052601160045260246000fdfea264697066735822122090c6b90d518de87cd3596fcb40124ca6c993ba5ae22969f6cd2072c00754b35064736f6c63430008020033",
  "devdoc": {
    "kind": "dev",
    "methods": {
      "renounceOwnership()": {
        "details": "Leaves the contract without owner. It will not be possible to call `onlyOwner` functions anymore. Can only be called by the current owner. NOTE: Renouncing ownership will leave the contract without an owner, thereby removing any functionality that is only available to the owner."
      },
      "transferOwnership(address)": {
        "details": "Transfers ownership of the contract to a new account (`newOwner`). Can only be called by the current owner."
      }
    },
    "version": 1
  },
  "userdoc": {
    "kind": "user",
    "methods": {},
    "version": 1
  },
  "storageLayout": {
    "storage": [
      {
        "astId": 163,
        "contract": "contracts/Rewards.sol:Rewards",
        "label": "totalSupply",
        "offset": 0,
        "slot": "0",
        "type": "t_uint256"
      },
      {
        "astId": 165,
        "contract": "contracts/Rewards.sol:Rewards",
        "label": "feeAddress",
        "offset": 0,
        "slot": "1",
        "type": "t_address"
      },
      {
        "astId": 167,
        "contract": "contracts/Rewards.sol:Rewards",
        "label": "depositFee",
        "offset": 0,
        "slot": "2",
        "type": "t_uint256"
      },
      {
        "astId": 169,
        "contract": "contracts/Rewards.sol:Rewards",
        "label": "lockingDuration",
        "offset": 0,
        "slot": "3",
        "type": "t_uint256"
      },
      {
        "astId": 173,
        "contract": "contracts/Rewards.sol:Rewards",
        "label": "_balances",
        "offset": 0,
        "slot": "4",
        "type": "t_mapping(t_address,t_uint256)"
      },
      {
        "astId": 177,
        "contract": "contracts/Rewards.sol:Rewards",
        "label": "lastDeposits",
        "offset": 0,
        "slot": "5",
        "type": "t_mapping(t_address,t_uint256)"
      },
      {
        "astId": 180,
        "contract": "contracts/Rewards.sol:Rewards",
        "label": "stakedToken",
        "offset": 0,
        "slot": "6",
        "type": "t_contract(IERC20)161"
      },
      {
        "astId": 4,
        "contract": "contracts/Rewards.sol:Rewards",
        "label": "owner",
        "offset": 0,
        "slot": "7",
        "type": "t_address"
      },
      {
        "astId": 479,
        "contract": "contracts/Rewards.sol:Rewards",
        "label": "rewardToken",
        "offset": 0,
        "slot": "8",
        "type": "t_contract(IERC20)161"
      },
      {
        "astId": 481,
        "contract": "contracts/Rewards.sol:Rewards",
        "label": "rewardRate",
        "offset": 0,
        "slot": "9",
        "type": "t_uint256"
      },
      {
        "astId": 483,
        "contract": "contracts/Rewards.sol:Rewards",
        "label": "periodFinish",
        "offset": 0,
        "slot": "10",
        "type": "t_uint64"
      },
      {
        "astId": 485,
        "contract": "contracts/Rewards.sol:Rewards",
        "label": "lastUpdateTime",
        "offset": 8,
        "slot": "10",
        "type": "t_uint64"
      },
      {
        "astId": 487,
        "contract": "contracts/Rewards.sol:Rewards",
        "label": "rewardPerTokenStored",
        "offset": 16,
        "slot": "10",
        "type": "t_uint128"
      },
      {
        "astId": 497,
        "contract": "contracts/Rewards.sol:Rewards",
        "label": "userRewards",
        "offset": 0,
        "slot": "11",
        "type": "t_mapping(t_address,t_struct(UserRewards)492_storage)"
      }
    ],
    "types": {
      "t_address": {
        "encoding": "inplace",
        "label": "address",
        "numberOfBytes": "20"
      },
      "t_contract(IERC20)161": {
        "encoding": "inplace",
        "label": "contract IERC20",
        "numberOfBytes": "20"
      },
      "t_mapping(t_address,t_struct(UserRewards)492_storage)": {
        "encoding": "mapping",
        "key": "t_address",
        "label": "mapping(address => struct Rewards.UserRewards)",
        "numberOfBytes": "32",
        "value": "t_struct(UserRewards)492_storage"
      },
      "t_mapping(t_address,t_uint256)": {
        "encoding": "mapping",
        "key": "t_address",
        "label": "mapping(address => uint256)",
        "numberOfBytes": "32",
        "value": "t_uint256"
      },
      "t_struct(UserRewards)492_storage": {
        "encoding": "inplace",
        "label": "struct Rewards.UserRewards",
        "members": [
          {
            "astId": 489,
            "contract": "contracts/Rewards.sol:Rewards",
            "label": "userRewardPerTokenPaid",
            "offset": 0,
            "slot": "0",
            "type": "t_uint128"
          },
          {
            "astId": 491,
            "contract": "contracts/Rewards.sol:Rewards",
            "label": "rewards",
            "offset": 16,
            "slot": "0",
            "type": "t_uint128"
          }
        ],
        "numberOfBytes": "32"
      },
      "t_uint128": {
        "encoding": "inplace",
        "label": "uint128",
        "numberOfBytes": "16"
      },
      "t_uint256": {
        "encoding": "inplace",
        "label": "uint256",
        "numberOfBytes": "32"
      },
      "t_uint64": {
        "encoding": "inplace",
        "label": "uint64",
        "numberOfBytes": "8"
      }
    }
  }
}