{
  "address": "0x60844Fbe15160979284fcC943520Ae3CAFC40028",
  "abi": [
    {
      "inputs": [
        {
          "internalType": "string",
          "name": "_baseURI",
          "type": "string"
        }
      ],
      "stateMutability": "nonpayable",
      "type": "constructor"
    },
    {
      "anonymous": false,
      "inputs": [
        {
          "indexed": true,
          "internalType": "address",
          "name": "account",
          "type": "address"
        },
        {
          "indexed": true,
          "internalType": "address",
          "name": "operator",
          "type": "address"
        },
        {
          "indexed": false,
          "internalType": "bool",
          "name": "approved",
          "type": "bool"
        }
      ],
      "name": "ApprovalForAll",
      "type": "event"
    },
    {
      "anonymous": false,
      "inputs": [
        {
          "indexed": true,
          "internalType": "address",
          "name": "previousOwner",
          "type": "address"
        },
        {
          "indexed": true,
          "internalType": "address",
          "name": "newOwner",
          "type": "address"
        }
      ],
      "name": "OwnershipTransferred",
      "type": "event"
    },
    {
      "anonymous": false,
      "inputs": [
        {
          "indexed": false,
          "internalType": "address",
          "name": "account",
          "type": "address"
        }
      ],
      "name": "Paused",
      "type": "event"
    },
    {
      "anonymous": false,
      "inputs": [
        {
          "indexed": true,
          "internalType": "address",
          "name": "operator",
          "type": "address"
        },
        {
          "indexed": true,
          "internalType": "address",
          "name": "from",
          "type": "address"
        },
        {
          "indexed": true,
          "internalType": "address",
          "name": "to",
          "type": "address"
        },
        {
          "indexed": false,
          "internalType": "uint256[]",
          "name": "ids",
          "type": "uint256[]"
        },
        {
          "indexed": false,
          "internalType": "uint256[]",
          "name": "values",
          "type": "uint256[]"
        }
      ],
      "name": "TransferBatch",
      "type": "event"
    },
    {
      "anonymous": false,
      "inputs": [
        {
          "indexed": true,
          "internalType": "address",
          "name": "operator",
          "type": "address"
        },
        {
          "indexed": true,
          "internalType": "address",
          "name": "from",
          "type": "address"
        },
        {
          "indexed": true,
          "internalType": "address",
          "name": "to",
          "type": "address"
        },
        {
          "indexed": false,
          "internalType": "uint256",
          "name": "id",
          "type": "uint256"
        },
        {
          "indexed": false,
          "internalType": "uint256",
          "name": "value",
          "type": "uint256"
        }
      ],
      "name": "TransferSingle",
      "type": "event"
    },
    {
      "anonymous": false,
      "inputs": [
        {
          "indexed": false,
          "internalType": "string",
          "name": "value",
          "type": "string"
        },
        {
          "indexed": true,
          "internalType": "uint256",
          "name": "id",
          "type": "uint256"
        }
      ],
      "name": "URI",
      "type": "event"
    },
    {
      "anonymous": false,
      "inputs": [
        {
          "indexed": false,
          "internalType": "address",
          "name": "account",
          "type": "address"
        }
      ],
      "name": "Unpaused",
      "type": "event"
    },
    {
      "inputs": [
        {
          "internalType": "address",
          "name": "addr",
          "type": "address"
        }
      ],
      "name": "addAdmin",
      "outputs": [],
      "stateMutability": "nonpayable",
      "type": "function"
    },
    {
      "inputs": [
        {
          "internalType": "address",
          "name": "account",
          "type": "address"
        },
        {
          "internalType": "uint256",
          "name": "id",
          "type": "uint256"
        }
      ],
      "name": "balanceOf",
      "outputs": [
        {
          "internalType": "uint256",
          "name": "",
          "type": "uint256"
        }
      ],
      "stateMutability": "view",
      "type": "function"
    },
    {
      "inputs": [
        {
          "internalType": "address[]",
          "name": "accounts",
          "type": "address[]"
        },
        {
          "internalType": "uint256[]",
          "name": "ids",
          "type": "uint256[]"
        }
      ],
      "name": "balanceOfBatch",
      "outputs": [
        {
          "internalType": "uint256[]",
          "name": "",
          "type": "uint256[]"
        }
      ],
      "stateMutability": "view",
      "type": "function"
    },
    {
      "inputs": [
        {
          "internalType": "uint256",
          "name": "typeId",
          "type": "uint256"
        },
        {
          "internalType": "uint16",
          "name": "qty",
          "type": "uint16"
        },
        {
          "internalType": "address",
          "name": "burnFrom",
          "type": "address"
        }
      ],
      "name": "burn",
      "outputs": [],
      "stateMutability": "nonpayable",
      "type": "function"
    },
    {
      "inputs": [
        {
          "internalType": "uint256",
          "name": "typeId",
          "type": "uint256"
        }
      ],
      "name": "getInfoForType",
      "outputs": [
        {
          "components": [
            {
              "internalType": "uint16",
              "name": "mints",
              "type": "uint16"
            },
            {
              "internalType": "uint16",
              "name": "burns",
              "type": "uint16"
            },
            {
              "internalType": "uint16",
              "name": "maxSupply",
              "type": "uint16"
            },
            {
              "internalType": "uint256",
              "name": "oresExchangeAmt",
              "type": "uint256"
            }
          ],
          "internalType": "struct SacrificialAlter.TypeInfo",
          "name": "",
          "type": "tuple"
        }
      ],
      "stateMutability": "view",
      "type": "function"
    },
    {
      "inputs": [
        {
          "internalType": "address",
          "name": "account",
          "type": "address"
        },
        {
          "internalType": "address",
          "name": "operator",
          "type": "address"
        }
      ],
      "name": "isApprovedForAll",
      "outputs": [
        {
          "internalType": "bool",
          "name": "",
          "type": "bool"
        }
      ],
      "stateMutability": "view",
      "type": "function"
    },
    {
      "inputs": [
        {
          "internalType": "uint256",
          "name": "typeId",
          "type": "uint256"
        },
        {
          "internalType": "uint16",
          "name": "qty",
          "type": "uint16"
        },
        {
          "internalType": "address",
          "name": "recipient",
          "type": "address"
        }
      ],
      "name": "mint",
      "outputs": [],
      "stateMutability": "nonpayable",
      "type": "function"
    },
    {
      "inputs": [],
      "name": "oresToken",
      "outputs": [
        {
          "internalType": "contract IORES",
          "name": "",
          "type": "address"
        }
      ],
      "stateMutability": "view",
      "type": "function"
    },
    {
      "inputs": [],
      "name": "owner",
      "outputs": [
        {
          "internalType": "address",
          "name": "",
          "type": "address"
        }
      ],
      "stateMutability": "view",
      "type": "function"
    },
    {
      "inputs": [],
      "name": "paused",
      "outputs": [
        {
          "internalType": "bool",
          "name": "",
          "type": "bool"
        }
      ],
      "stateMutability": "view",
      "type": "function"
    },
    {
      "inputs": [
        {
          "internalType": "address",
          "name": "addr",
          "type": "address"
        }
      ],
      "name": "removeAdmin",
      "outputs": [],
      "stateMutability": "nonpayable",
      "type": "function"
    },
    {
      "inputs": [],
      "name": "renounceOwnership",
      "outputs": [],
      "stateMutability": "nonpayable",
      "type": "function"
    },
    {
      "inputs": [
        {
          "internalType": "address",
          "name": "from",
          "type": "address"
        },
        {
          "internalType": "address",
          "name": "to",
          "type": "address"
        },
        {
          "internalType": "uint256[]",
          "name": "ids",
          "type": "uint256[]"
        },
        {
          "internalType": "uint256[]",
          "name": "amounts",
          "type": "uint256[]"
        },
        {
          "internalType": "bytes",
          "name": "data",
          "type": "bytes"
        }
      ],
      "name": "safeBatchTransferFrom",
      "outputs": [],
      "stateMutability": "nonpayable",
      "type": "function"
    },
    {
      "inputs": [
        {
          "internalType": "address",
          "name": "from",
          "type": "address"
        },
        {
          "internalType": "address",
          "name": "to",
          "type": "address"
        },
        {
          "internalType": "uint256",
          "name": "id",
          "type": "uint256"
        },
        {
          "internalType": "uint256",
          "name": "amount",
          "type": "uint256"
        },
        {
          "internalType": "bytes",
          "name": "data",
          "type": "bytes"
        }
      ],
      "name": "safeTransferFrom",
      "outputs": [],
      "stateMutability": "nonpayable",
      "type": "function"
    },
    {
      "inputs": [
        {
          "internalType": "address",
          "name": "operator",
          "type": "address"
        },
        {
          "internalType": "bool",
          "name": "approved",
          "type": "bool"
        }
      ],
      "name": "setApprovalForAll",
      "outputs": [],
      "stateMutability": "nonpayable",
      "type": "function"
    },
    {
      "inputs": [
        {
          "internalType": "string",
          "name": "_baseURI",
          "type": "string"
        }
      ],
      "name": "setBaseUri",
      "outputs": [],
      "stateMutability": "nonpayable",
      "type": "function"
    },
    {
      "inputs": [
        {
          "internalType": "address",
          "name": "_ores",
          "type": "address"
        }
      ],
      "name": "setContracts",
      "outputs": [],
      "stateMutability": "nonpayable",
      "type": "function"
    },
    {
      "inputs": [
        {
          "internalType": "uint256",
          "name": "typeId",
          "type": "uint256"
        },
        {
          "internalType": "uint256",
          "name": "exchangeAmt",
          "type": "uint256"
        }
      ],
      "name": "setExchangeAmt",
      "outputs": [],
      "stateMutability": "nonpayable",
      "type": "function"
    },
    {
      "inputs": [
        {
          "internalType": "bool",
          "name": "_paused",
          "type": "bool"
        }
      ],
      "name": "setPaused",
      "outputs": [],
      "stateMutability": "nonpayable",
      "type": "function"
    },
    {
      "inputs": [
        {
          "internalType": "uint256",
          "name": "typeId",
          "type": "uint256"
        },
        {
          "internalType": "uint16",
          "name": "maxSupply",
          "type": "uint16"
        }
      ],
      "name": "setType",
      "outputs": [],
      "stateMutability": "nonpayable",
      "type": "function"
    },
    {
      "inputs": [
        {
          "internalType": "bytes4",
          "name": "interfaceId",
          "type": "bytes4"
        }
      ],
      "name": "supportsInterface",
      "outputs": [
        {
          "internalType": "bool",
          "name": "",
          "type": "bool"
        }
      ],
      "stateMutability": "view",
      "type": "function"
    },
    {
      "inputs": [
        {
          "internalType": "address",
          "name": "newOwner",
          "type": "address"
        }
      ],
      "name": "transferOwnership",
      "outputs": [],
      "stateMutability": "nonpayable",
      "type": "function"
    },
    {
      "inputs": [],
      "name": "updateOriginAccess",
      "outputs": [],
      "stateMutability": "nonpayable",
      "type": "function"
    },
    {
      "inputs": [
        {
          "internalType": "uint256",
          "name": "typeId",
          "type": "uint256"
        }
      ],
      "name": "uri",
      "outputs": [
        {
          "internalType": "string",
          "name": "",
          "type": "string"
        }
      ],
      "stateMutability": "view",
      "type": "function"
    }
  ],
  "transactionHash": "0xb2c90e891342fa80fa72dd6d2ca2530d2726ce861a97002aa70b6c03c080e5e1",
  "args": [
    "Opensea_BaseURI"
  ],
  "numDeployments": 1,
  "solcInputHash": "0bce7b30075be53e1d12557fef65afb8",
  "bytecode": "0x60806040523480156200001157600080fd5b5060405162002d5e38038062002d5e833981016040819052620000349162000243565b80620000408162000080565b506200004c3362000099565b6003805460ff60a01b1916905580516200006e9060049060208401906200019d565b5062000079620000eb565b506200036c565b8051620000959060029060208401906200019d565b5050565b600380546001600160a01b038381166001600160a01b0319831681179093556040519116919082907f8be0079c531659141344cd1fd0a4f28419497f9722a3daafe3b4186f6b6457e090600090a35050565b620000ff600354600160a01b900460ff1690565b15620001445760405162461bcd60e51b815260206004820152601060248201526f14185d5cd8589b194e881c185d5cd95960821b604482015260640160405180910390fd5b6003805460ff60a01b1916600160a01b1790557f62e78cea01bee320cd4e420270b5ea74000d11b0c9f74754ebdbfc544b05a258620001803390565b6040516001600160a01b03909116815260200160405180910390a1565b828054620001ab9062000319565b90600052602060002090601f016020900481019282620001cf57600085556200021a565b82601f10620001ea57805160ff19168380011785556200021a565b828001600101855582156200021a579182015b828111156200021a578251825591602001919060010190620001fd565b50620002289291506200022c565b5090565b5b808211156200022857600081556001016200022d565b6000602080838503121562000256578182fd5b82516001600160401b03808211156200026d578384fd5b818501915085601f83011262000281578384fd5b81518181111562000296576200029662000356565b604051601f8201601f19908116603f01168101908382118183101715620002c157620002c162000356565b816040528281528886848701011115620002d9578687fd5b8693505b82841015620002fc5784840186015181850187015292850192620002dd565b828411156200030d57868684830101525b98975050505050505050565b6002810460018216806200032e57607f821691505b602082108114156200035057634e487b7160e01b600052602260045260246000fd5b50919050565b634e487b7160e01b600052604160045260246000fd5b6129e2806200037c6000396000f3fe608060405234801561001057600080fd5b50600436106101575760003560e01c8063715018a6116100c3578063bd3fae821161007c578063bd3fae821461031d578063c499418014610330578063c812272914610343578063e985e9c514610356578063f242432a14610392578063f2fde38b146103a557610157565b8063715018a6146102745780638da5cb5b1461027c5780639c47ee3b146102a15780639ca0f29b146102a9578063a0bcfc7f146102f7578063a22cb4651461030a57610157565b80632eb2c2d6116101155780632eb2c2d6146102005780634e1273f41461021357806351416019146102335780635a2e2f47146102465780635c975abb14610259578063704802751461026157610157565b8062fdd58e1461015c57806301ffc9a71461018257806306e7b953146101a55780630e89341c146101ba57806316c38b3c146101da5780631785f53c146101ed575b600080fd5b61016f61016a366004612120565b6103b8565b6040519081526020015b60405180910390f35b610195610190366004612249565b61048d565b6040519015158152602001610179565b6101b86101b3366004612300565b6104e1565b005b6101cd6101c83660046122c6565b610668565b604051610179919061255f565b6101b86101e8366004612211565b610799565b6101b86101fb366004611f97565b61082d565b6101b861020e366004611fe3565b610878565b610226610221366004612149565b61090f565b6040516101799190612527565b6101b8610241366004612300565b610a70565b6101b8610254366004611f97565b610c7b565b610195610cc7565b6101b861026f366004611f97565b610cd8565b6101b8610d26565b6003546001600160a01b03165b6040516001600160a01b039091168152602001610179565b6101b8610d5c565b6102bc6102b73660046122c6565b610ddc565b60408051825161ffff908116825260208085015182169083015283830151169181019190915260609182015191810191909152608001610179565b6101b8610305366004612281565b610eff565b6101b86103183660046120ea565b610f40565b600854610289906001600160a01b031681565b6101b861033e36600461233b565b610f4b565b6101b86103513660046122de565b610ff1565b610195610364366004611fb1565b6001600160a01b03918216600090815260016020908152604080832093909416825291909152205460ff1690565b6101b86103a0366004612088565b6110a6565b6101b86103b3366004611f97565b611144565b3360009081526007602052604081205460ff16806103f557503260009081526005602052604090205443600160401b9091046001600160401b0316105b61041a5760405162461bcd60e51b8152600401610411906125f1565b60405180910390fd5b3360009081526007602052604090205460ff168061046057506001600160a01b03831660009081526005602052604090205443600160401b9091046001600160401b0316105b61047c5760405162461bcd60e51b8152600401610411906125f1565b61048683836111dc565b9392505050565b60006001600160e01b03198216636cdb3d1360e11b14806104be57506001600160e01b031982166303a24d0760e21b145b806104d957506301ffc9a760e01b6001600160e01b03198316145b90505b919050565b6104e9610cc7565b156105065760405162461bcd60e51b81526004016104119061261c565b3360009081526007602052604090205460ff166105355760405162461bcd60e51b8152600401610411906125ba565b6000838152600660205260409020600101541561060f576008546000848152600660205260409020600101546001600160a01b03909116906323b872dd90309032906105869061ffff88169061277f565b6040516001600160e01b031960e086901b1681526001600160a01b0393841660048201529290911660248301526044820152606401602060405180830381600087803b1580156105d557600080fd5b505af11580156105e9573d6000803e3d6000fd5b505050506040513d601f19601f8201168201806040525081019061060d919061222d565b505b6000838152600660205260409020805483919060029061063a90849062010000900461ffff1661272d565b92506101000a81548161ffff021916908361ffff16021790555061066381848461ffff1661126e565b505050565b600081815260066020526040902054606090640100000000900461ffff166106c15760405162461bcd60e51b815260206004820152600c60248201526b696e76616c6964207479706560a01b6044820152606401610411565b6000600480546106d090612808565b90501161076757600480546106e490612808565b80601f016020809104026020016040519081016040528092919081815260200182805461071090612808565b801561075d5780601f106107325761010080835404028352916020019161075d565b820191906000526020600020905b81548152906001019060200180831161074057829003601f168201915b50505050506104d9565b6004610772836113e8565b6040516020016107839291906123de565b6040516020818303038152906040529050919050565b6003546001600160a01b031633146107c35760405162461bcd60e51b8152600401610411906126d5565b6008546001600160a01b031661080f5760405162461bcd60e51b815260206004820152601160248201527010dbdb9d1c9858dd1cc81b9bdd081cd95d607a1b6044820152606401610411565b80156108225761081d61150a565b61082a565b61082a611587565b50565b6003546001600160a01b031633146108575760405162461bcd60e51b8152600401610411906126d5565b6001600160a01b03166000908152600760205260409020805460ff19169055565b6001600160a01b03851633148061089457506108948533610364565b6108fb5760405162461bcd60e51b815260206004820152603260248201527f455243313135353a207472616e736665722063616c6c6572206973206e6f74206044820152711bdddb995c881b9bdc88185c1c1c9bdd995960721b6064820152608401610411565b6109088585858585611606565b5050505050565b606081518351146109745760405162461bcd60e51b815260206004820152602960248201527f455243313135353a206163636f756e747320616e6420696473206c656e677468604482015268040dad2e6dac2e8c6d60bb1b6064820152608401610411565b600083516001600160401b0381111561099d57634e487b7160e01b600052604160045260246000fd5b6040519080825280602002602001820160405280156109c6578160200160208202803683370190505b50905060005b8451811015610a6857610a2d8582815181106109f857634e487b7160e01b600052603260045260246000fd5b6020026020010151858381518110610a2057634e487b7160e01b600052603260045260246000fd5b60200260200101516103b8565b828281518110610a4d57634e487b7160e01b600052603260045260246000fd5b6020908102919091010152610a618161286f565b90506109cc565b509392505050565b610a78610cc7565b15610a955760405162461bcd60e51b81526004016104119061261c565b3360009081526007602052604090205460ff16610ac45760405162461bcd60e51b8152600401610411906125ba565b60008381526006602052604090205461ffff64010000000082048116918491610af6916201000081048216911661279e565b610b00919061272d565b61ffff161115610b465760405162461bcd60e51b8152602060048201526011602482015270105b1b081d1bdad95b9cc81b5a5b9d1959607a1b6044820152606401610411565b60008381526006602052604090206001015415610c20576008546000848152600660205260409020600101546001600160a01b03909116906323b872dd9032903090610b979061ffff88169061277f565b6040516001600160e01b031960e086901b1681526001600160a01b0393841660048201529290911660248301526044820152606401602060405180830381600087803b158015610be657600080fd5b505af1158015610bfa573d6000803e3d6000fd5b505050506040513d601f19601f82011682018060405250810190610c1e919061222d565b505b60008381526006602052604081208054849290610c4290849061ffff1661272d565b92506101000a81548161ffff021916908361ffff16021790555061066381848461ffff16604051806020016040528060008152506117ff565b6003546001600160a01b03163314610ca55760405162461bcd60e51b8152600401610411906126d5565b600880546001600160a01b0319166001600160a01b0392909216919091179055565b600354600160a01b900460ff165b90565b6003546001600160a01b03163314610d025760405162461bcd60e51b8152600401610411906126d5565b6001600160a01b03166000908152600760205260409020805460ff19166001179055565b6003546001600160a01b03163314610d505760405162461bcd60e51b8152600401610411906126d5565b610d5a6000611909565b565b3360009081526007602052604090205460ff16610d8b5760405162461bcd60e51b8152600401610411906125ba565b3260009081526005602052604090208054426001600160401b0390811667ffffffffffffffff194392909216600160401b026fffffffffffffffff0000000000000000199093169290921716179055565b60408051608081018252600080825260208083018290528284018290526060830182905233825260079052919091205460ff1680610e3957503260009081526005602052604090205443600160401b9091046001600160401b0316105b610e555760405162461bcd60e51b8152600401610411906125f1565b600082815260066020526040902054640100000000900461ffff16610eab5760405162461bcd60e51b815260206004820152600c60248201526b696e76616c6964207479706560a01b6044820152606401610411565b506000908152600660209081526040918290208251608081018452815461ffff8082168352620100008204811694830194909452640100000000900490921692820192909252600190910154606082015290565b6003546001600160a01b03163314610f295760405162461bcd60e51b8152600401610411906126d5565b8051610f3c906004906020840190611de7565b5050565b610f3c33838361195b565b6003546001600160a01b03163314610f755760405162461bcd60e51b8152600401610411906126d5565b600082815260066020526040902054640100000000900461ffff16610fdc5760405162461bcd60e51b815260206004820152601d60248201527f74686973207479706520686173206e6f74206265656e207365742075700000006044820152606401610411565b60009182526006602052604090912060010155565b6003546001600160a01b0316331461101b5760405162461bcd60e51b8152600401610411906126d5565b60008281526006602052604090205461ffff808316911611156110755760405162461bcd60e51b81526020600482015260126024820152716d617820737570706c7920746f6f206c6f7760701b6044820152606401610411565b600091825260066020526040909120805461ffff9092166401000000000265ffff0000000019909216919091179055565b3360009081526007602052604090205460ff16611137576001600160a01b0385163314806110d957506110d98533610364565b6111375760405162461bcd60e51b815260206004820152602960248201527f455243313135353a2063616c6c6572206973206e6f74206f776e6572206e6f7260448201526808185c1c1c9bdd995960ba1b6064820152608401610411565b6109088585858585611a3c565b6003546001600160a01b0316331461116e5760405162461bcd60e51b8152600401610411906126d5565b6001600160a01b0381166111d35760405162461bcd60e51b815260206004820152602660248201527f4f776e61626c653a206e6577206f776e657220697320746865207a65726f206160448201526564647265737360d01b6064820152608401610411565b61082a81611909565b60006001600160a01b0383166112485760405162461bcd60e51b815260206004820152602b60248201527f455243313135353a2062616c616e636520717565727920666f7220746865207a60448201526a65726f206164647265737360a81b6064820152608401610411565b506000908152602081815260408083206001600160a01b03949094168352929052205490565b6001600160a01b0383166112d05760405162461bcd60e51b815260206004820152602360248201527f455243313135353a206275726e2066726f6d20746865207a65726f206164647260448201526265737360e81b6064820152608401610411565b33611300818560006112e187611b59565b6112ea87611b59565b5050604080516020810190915260009052505050565b6000838152602081815260408083206001600160a01b03881684529091529020548281101561137d5760405162461bcd60e51b8152602060048201526024808201527f455243313135353a206275726e20616d6f756e7420657863656564732062616c604482015263616e636560e01b6064820152608401610411565b6000848152602081815260408083206001600160a01b03898116808652918452828520888703905582518981529384018890529092908616917fc3d58168c5ae7397731d063d5bbf3d657854427343f4c083240f7aacaa2d0f62910160405180910390a45050505050565b60608161140d57506040805180820190915260018152600360fc1b60208201526104dc565b8160005b811561143757806114218161286f565b91506114309050600a8361276b565b9150611411565b6000816001600160401b0381111561145f57634e487b7160e01b600052604160045260246000fd5b6040519080825280601f01601f191660200182016040528015611489576020820181803683370190505b5090505b84156115025761149e6001836127c1565b91506114ab600a8661288a565b6114b6906030612753565b60f81b8183815181106114d957634e487b7160e01b600052603260045260246000fd5b60200101906001600160f81b031916908160001a9053506114fb600a8661276b565b945061148d565b949350505050565b611512610cc7565b1561152f5760405162461bcd60e51b81526004016104119061261c565b6003805460ff60a01b1916600160a01b1790557f62e78cea01bee320cd4e420270b5ea74000d11b0c9f74754ebdbfc544b05a25861156a3390565b6040516001600160a01b03909116815260200160405180910390a1565b61158f610cc7565b6115d25760405162461bcd60e51b815260206004820152601460248201527314185d5cd8589b194e881b9bdd081c185d5cd95960621b6044820152606401610411565b6003805460ff60a01b191690557f5db9ee0a495bf2e6ff9c91a7834c1ba4fdd244a5e8aa4e537bd38aeae4b073aa3361156a565b81518351146116685760405162461bcd60e51b815260206004820152602860248201527f455243313135353a2069647320616e6420616d6f756e7473206c656e677468206044820152670dad2e6dac2e8c6d60c31b6064820152608401610411565b6001600160a01b03841661168e5760405162461bcd60e51b815260040161041190612646565b3360005b84518110156117915760008582815181106116bd57634e487b7160e01b600052603260045260246000fd5b6020026020010151905060008583815181106116e957634e487b7160e01b600052603260045260246000fd5b602090810291909101810151600084815280835260408082206001600160a01b038e1683529093529190912054909150818110156117395760405162461bcd60e51b81526004016104119061268b565b6000838152602081815260408083206001600160a01b038e8116855292528083208585039055908b16825281208054849290611776908490612753565b925050819055505050508061178a9061286f565b9050611692565b50846001600160a01b0316866001600160a01b0316826001600160a01b03167f4a39dc06d4c0dbc64b70af90fd698a233a518aa5d07e595d983b8c0526c8f7fb87876040516117e192919061253a565b60405180910390a46117f7818787878787611bb2565b505050505050565b6001600160a01b03841661185f5760405162461bcd60e51b815260206004820152602160248201527f455243313135353a206d696e7420746f20746865207a65726f206164647265736044820152607360f81b6064820152608401610411565b336118798160008761187088611b59565b61090888611b59565b6000848152602081815260408083206001600160a01b0389168452909152812080548592906118a9908490612753565b909155505060408051858152602081018590526001600160a01b0380881692600092918516917fc3d58168c5ae7397731d063d5bbf3d657854427343f4c083240f7aacaa2d0f62910160405180910390a461090881600087878787611d1d565b600380546001600160a01b038381166001600160a01b0319831681179093556040519116919082907f8be0079c531659141344cd1fd0a4f28419497f9722a3daafe3b4186f6b6457e090600090a35050565b816001600160a01b0316836001600160a01b031614156119cf5760405162461bcd60e51b815260206004820152602960248201527f455243313135353a2073657474696e6720617070726f76616c20737461747573604482015268103337b91039b2b63360b91b6064820152608401610411565b6001600160a01b03838116600081815260016020908152604080832094871680845294825291829020805460ff191686151590811790915591519182527f17307eab39ab6107e8899845ad3d59bd9653f200f220920489ca2b5937696c31910160405180910390a3505050565b6001600160a01b038416611a625760405162461bcd60e51b815260040161041190612646565b33611a7281878761187088611b59565b6000848152602081815260408083206001600160a01b038a16845290915290205483811015611ab35760405162461bcd60e51b81526004016104119061268b565b6000858152602081815260408083206001600160a01b038b8116855292528083208785039055908816825281208054869290611af0908490612753565b909155505060408051868152602081018690526001600160a01b03808916928a821692918616917fc3d58168c5ae7397731d063d5bbf3d657854427343f4c083240f7aacaa2d0f62910160405180910390a4611b50828888888888611d1d565b50505050505050565b60408051600180825281830190925260609160009190602080830190803683370190505090508281600081518110611ba157634e487b7160e01b600052603260045260246000fd5b602090810291909101015292915050565b6001600160a01b0384163b156117f75760405163bc197c8160e01b81526001600160a01b0385169063bc197c8190611bf69089908990889088908890600401612484565b602060405180830381600087803b158015611c1057600080fd5b505af1925050508015611c40575060408051601f3d908101601f19168201909252611c3d91810190612265565b60015b611ced57611c4c6128e0565b806308c379a01415611c865750611c616128f7565b80611c6c5750611c88565b8060405162461bcd60e51b8152600401610411919061255f565b505b60405162461bcd60e51b815260206004820152603460248201527f455243313135353a207472616e7366657220746f206e6f6e20455243313135356044820152732932b1b2b4bb32b91034b6b83632b6b2b73a32b960611b6064820152608401610411565b6001600160e01b0319811663bc197c8160e01b14611b505760405162461bcd60e51b815260040161041190612572565b6001600160a01b0384163b156117f75760405163f23a6e6160e01b81526001600160a01b0385169063f23a6e6190611d6190899089908890889088906004016124e2565b602060405180830381600087803b158015611d7b57600080fd5b505af1925050508015611dab575060408051601f3d908101601f19168201909252611da891810190612265565b60015b611db757611c4c6128e0565b6001600160e01b0319811663f23a6e6160e01b14611b505760405162461bcd60e51b815260040161041190612572565b828054611df390612808565b90600052602060002090601f016020900481019282611e155760008555611e5b565b82601f10611e2e57805160ff1916838001178555611e5b565b82800160010185558215611e5b579182015b82811115611e5b578251825591602001919060010190611e40565b50611e67929150611e6b565b5090565b5b80821115611e675760008155600101611e6c565b60006001600160401b03831115611e9957611e996128ca565b604051611eb0601f8501601f191660200182612843565b809150838152848484011115611ec557600080fd5b83836020830137600060208583010152509392505050565b80356001600160a01b03811681146104dc57600080fd5b600082601f830112611f04578081fd5b81356020611f118261270a565b604051611f1e8282612843565b838152828101915085830183850287018401881015611f3b578586fd5b855b85811015611f5957813584529284019290840190600101611f3d565b5090979650505050505050565b600082601f830112611f76578081fd5b61048683833560208501611e80565b803561ffff811681146104dc57600080fd5b600060208284031215611fa8578081fd5b61048682611edd565b60008060408385031215611fc3578081fd5b611fcc83611edd565b9150611fda60208401611edd565b90509250929050565b600080600080600060a08688031215611ffa578081fd5b61200386611edd565b945061201160208701611edd565b935060408601356001600160401b038082111561202c578283fd5b61203889838a01611ef4565b9450606088013591508082111561204d578283fd5b61205989838a01611ef4565b9350608088013591508082111561206e578283fd5b5061207b88828901611f66565b9150509295509295909350565b600080600080600060a0868803121561209f578081fd5b6120a886611edd565b94506120b660208701611edd565b9350604086013592506060860135915060808601356001600160401b038111156120de578182fd5b61207b88828901611f66565b600080604083850312156120fc578182fd5b61210583611edd565b9150602083013561211581612988565b809150509250929050565b60008060408385031215612132578182fd5b61213b83611edd565b946020939093013593505050565b6000806040838503121561215b578182fd5b82356001600160401b0380821115612171578384fd5b818501915085601f830112612184578384fd5b813560206121918261270a565b60405161219e8282612843565b8381528281019150858301838502870184018b10156121bb578889fd5b8896505b848710156121e4576121d081611edd565b8352600196909601959183019183016121bf565b50965050860135925050808211156121fa578283fd5b5061220785828601611ef4565b9150509250929050565b600060208284031215612222578081fd5b813561048681612988565b60006020828403121561223e578081fd5b815161048681612988565b60006020828403121561225a578081fd5b813561048681612996565b600060208284031215612276578081fd5b815161048681612996565b600060208284031215612292578081fd5b81356001600160401b038111156122a7578182fd5b8201601f810184136122b7578182fd5b61150284823560208401611e80565b6000602082840312156122d7578081fd5b5035919050565b600080604083850312156122f0578182fd5b82359150611fda60208401611f85565b600080600060608486031215612314578081fd5b8335925061232460208501611f85565b915061233260408501611edd565b90509250925092565b6000806040838503121561234d578182fd5b50508035926020909101359150565b6000815180845260208085019450808401835b8381101561238b5781518752958201959082019060010161236f565b509495945050505050565b600081518084526123ae8160208601602086016127d8565b601f01601f19169290920160200192915050565b600081516123d48185602086016127d8565b9290920192915050565b82546000908190600281046001808316806123fa57607f831692505b602080841082141561241a57634e487b7160e01b87526022600452602487fd5b81801561242e576001811461243f5761246b565b60ff1986168952848901965061246b565b60008b815260209020885b868110156124635781548b82015290850190830161244a565b505084890196505b50505050505061247b81856123c2565b95945050505050565b6001600160a01b0386811682528516602082015260a0604082018190526000906124b09083018661235c565b82810360608401526124c2818661235c565b905082810360808401526124d68185612396565b98975050505050505050565b6001600160a01b03868116825285166020820152604081018490526060810183905260a06080820181905260009061251c90830184612396565b979650505050505050565b600060208252610486602083018461235c565b60006040825261254d604083018561235c565b828103602084015261247b818561235c565b6000602082526104866020830184612396565b60208082526028908201527f455243313135353a204552433131353552656365697665722072656a656374656040820152676420746f6b656e7360c01b606082015260800190565b60208082526019908201527f4f6e6c792061646d696e732063616e2063616c6c207468697300000000000000604082015260600190565b602080825260119082015270686d6d6d6d207768617420646f696e673f60781b604082015260600190565b60208082526010908201526f14185d5cd8589b194e881c185d5cd95960821b604082015260600190565b60208082526025908201527f455243313135353a207472616e7366657220746f20746865207a65726f206164604082015264647265737360d81b606082015260800190565b6020808252602a908201527f455243313135353a20696e73756666696369656e742062616c616e636520666f60408201526939103a3930b739b332b960b11b606082015260800190565b6020808252818101527f4f776e61626c653a2063616c6c6572206973206e6f7420746865206f776e6572604082015260600190565b60006001600160401b03821115612723576127236128ca565b5060209081020190565b600061ffff80831681851680830382111561274a5761274a61289e565b01949350505050565b600082198211156127665761276661289e565b500190565b60008261277a5761277a6128b4565b500490565b60008160001904831182151516156127995761279961289e565b500290565b600061ffff838116908316818110156127b9576127b961289e565b039392505050565b6000828210156127d3576127d361289e565b500390565b60005b838110156127f35781810151838201526020016127db565b83811115612802576000848401525b50505050565b60028104600182168061281c57607f821691505b6020821081141561283d57634e487b7160e01b600052602260045260246000fd5b50919050565b601f8201601f191681016001600160401b0381118282101715612868576128686128ca565b6040525050565b60006000198214156128835761288361289e565b5060010190565b600082612899576128996128b4565b500690565b634e487b7160e01b600052601160045260246000fd5b634e487b7160e01b600052601260045260246000fd5b634e487b7160e01b600052604160045260246000fd5b600060033d1115610cd557600481823e5160e01c90565b600060443d101561290757610cd5565b6040516003193d81016004833e81513d6001600160401b038160248401118184111715612938575050505050610cd5565b828501915081518181111561295257505050505050610cd5565b843d870101602082850101111561296e57505050505050610cd5565b61297d60208286010187612843565b509094505050505090565b801515811461082a57600080fd5b6001600160e01b03198116811461082a57600080fdfea264697066735822122083f09e020ddd9b3d6478c81710ab3b81ab376a83fccf1d55e16ee4873c0ac09764736f6c63430008020033",
  "devdoc": {
    "kind": "dev",
    "methods": {
      "addAdmin(address)": {
        "params": {
          "addr": "the address to enable"
        }
      },
      "balanceOfBatch(address[],uint256[])": {
        "details": "See {IERC1155-balanceOfBatch}. Requirements: - `accounts` and `ids` must have the same length."
      },
      "isApprovedForAll(address,address)": {
        "details": "See {IERC1155-isApprovedForAll}."
      },
      "owner()": {
        "details": "Returns the address of the current owner."
      },
      "paused()": {
        "details": "Returns true if the contract is paused, and false otherwise."
      },
      "removeAdmin(address)": {
        "params": {
          "addr": "the address to disbale"
        }
      },
      "renounceOwnership()": {
        "details": "Leaves the contract without owner. It will not be possible to call `onlyOwner` functions anymore. Can only be called by the current owner. NOTE: Renouncing ownership will leave the contract without an owner, thereby removing any functionality that is only available to the owner."
      },
      "safeBatchTransferFrom(address,address,uint256[],uint256[],bytes)": {
        "details": "See {IERC1155-safeBatchTransferFrom}."
      },
      "setApprovalForAll(address,bool)": {
        "details": "See {IERC1155-setApprovalForAll}."
      },
      "supportsInterface(bytes4)": {
        "details": "See {IERC165-supportsInterface}."
      },
      "transferOwnership(address)": {
        "details": "Transfers ownership of the contract to a new account (`newOwner`). Can only be called by the current owner."
      }
    },
    "version": 1
  },
  "userdoc": {
    "kind": "user",
    "methods": {
      "addAdmin(address)": {
        "notice": "enables an address to mint / burn"
      },
      "balanceOf(address,uint256)": {
        "notice": "SECURITEEEEEEE "
      },
      "burn(uint256,uint16,address)": {
        "notice": "Burn a token - any payment / game logic should be handled in the game contract. "
      },
      "mint(uint256,uint16,address)": {
        "notice": "Mint a token - any payment / game logic should be handled in the game contract. "
      },
      "removeAdmin(address)": {
        "notice": "disables an address from minting / burning"
      }
    },
    "version": 1
  },
  "storageLayout": {
    "storage": [
      {
        "astId": 1767,
        "contract": "contracts/SacrificialAlter.sol:SacrificialAlter",
        "label": "_balances",
        "offset": 0,
        "slot": "0",
        "type": "t_mapping(t_uint256,t_mapping(t_address,t_uint256))"
      },
      {
        "astId": 1773,
        "contract": "contracts/SacrificialAlter.sol:SacrificialAlter",
        "label": "_operatorApprovals",
        "offset": 0,
        "slot": "1",
        "type": "t_mapping(t_address,t_mapping(t_address,t_bool))"
      },
      {
        "astId": 1775,
        "contract": "contracts/SacrificialAlter.sol:SacrificialAlter",
        "label": "_uri",
        "offset": 0,
        "slot": "2",
        "type": "t_string_storage"
      },
      {
        "astId": 1512,
        "contract": "contracts/SacrificialAlter.sol:SacrificialAlter",
        "label": "_owner",
        "offset": 0,
        "slot": "3",
        "type": "t_address"
      },
      {
        "astId": 1627,
        "contract": "contracts/SacrificialAlter.sol:SacrificialAlter",
        "label": "_paused",
        "offset": 20,
        "slot": "3",
        "type": "t_bool"
      },
      {
        "astId": 11300,
        "contract": "contracts/SacrificialAlter.sol:SacrificialAlter",
        "label": "baseURI",
        "offset": 0,
        "slot": "4",
        "type": "t_string_storage"
      },
      {
        "astId": 11319,
        "contract": "contracts/SacrificialAlter.sol:SacrificialAlter",
        "label": "lastWrite",
        "offset": 0,
        "slot": "5",
        "type": "t_mapping(t_address,t_struct(LastWrite)11314_storage)"
      },
      {
        "astId": 11324,
        "contract": "contracts/SacrificialAlter.sol:SacrificialAlter",
        "label": "typeInfo",
        "offset": 0,
        "slot": "6",
        "type": "t_mapping(t_uint256,t_struct(TypeInfo)11309_storage)"
      },
      {
        "astId": 11328,
        "contract": "contracts/SacrificialAlter.sol:SacrificialAlter",
        "label": "admins",
        "offset": 0,
        "slot": "7",
        "type": "t_mapping(t_address,t_bool)"
      },
      {
        "astId": 11331,
        "contract": "contracts/SacrificialAlter.sol:SacrificialAlter",
        "label": "oresToken",
        "offset": 0,
        "slot": "8",
        "type": "t_contract(IORES)14165"
      }
    ],
    "types": {
      "t_address": {
        "encoding": "inplace",
        "label": "address",
        "numberOfBytes": "20"
      },
      "t_bool": {
        "encoding": "inplace",
        "label": "bool",
        "numberOfBytes": "1"
      },
      "t_contract(IORES)14165": {
        "encoding": "inplace",
        "label": "contract IORES",
        "numberOfBytes": "20"
      },
      "t_mapping(t_address,t_bool)": {
        "encoding": "mapping",
        "key": "t_address",
        "label": "mapping(address => bool)",
        "numberOfBytes": "32",
        "value": "t_bool"
      },
      "t_mapping(t_address,t_mapping(t_address,t_bool))": {
        "encoding": "mapping",
        "key": "t_address",
        "label": "mapping(address => mapping(address => bool))",
        "numberOfBytes": "32",
        "value": "t_mapping(t_address,t_bool)"
      },
      "t_mapping(t_address,t_struct(LastWrite)11314_storage)": {
        "encoding": "mapping",
        "key": "t_address",
        "label": "mapping(address => struct SacrificialAlter.LastWrite)",
        "numberOfBytes": "32",
        "value": "t_struct(LastWrite)11314_storage"
      },
      "t_mapping(t_address,t_uint256)": {
        "encoding": "mapping",
        "key": "t_address",
        "label": "mapping(address => uint256)",
        "numberOfBytes": "32",
        "value": "t_uint256"
      },
      "t_mapping(t_uint256,t_mapping(t_address,t_uint256))": {
        "encoding": "mapping",
        "key": "t_uint256",
        "label": "mapping(uint256 => mapping(address => uint256))",
        "numberOfBytes": "32",
        "value": "t_mapping(t_address,t_uint256)"
      },
      "t_mapping(t_uint256,t_struct(TypeInfo)11309_storage)": {
        "encoding": "mapping",
        "key": "t_uint256",
        "label": "mapping(uint256 => struct SacrificialAlter.TypeInfo)",
        "numberOfBytes": "32",
        "value": "t_struct(TypeInfo)11309_storage"
      },
      "t_string_storage": {
        "encoding": "bytes",
        "label": "string",
        "numberOfBytes": "32"
      },
      "t_struct(LastWrite)11314_storage": {
        "encoding": "inplace",
        "label": "struct SacrificialAlter.LastWrite",
        "members": [
          {
            "astId": 11311,
            "contract": "contracts/SacrificialAlter.sol:SacrificialAlter",
            "label": "time",
            "offset": 0,
            "slot": "0",
            "type": "t_uint64"
          },
          {
            "astId": 11313,
            "contract": "contracts/SacrificialAlter.sol:SacrificialAlter",
            "label": "blockNum",
            "offset": 8,
            "slot": "0",
            "type": "t_uint64"
          }
        ],
        "numberOfBytes": "32"
      },
      "t_struct(TypeInfo)11309_storage": {
        "encoding": "inplace",
        "label": "struct SacrificialAlter.TypeInfo",
        "members": [
          {
            "astId": 11302,
            "contract": "contracts/SacrificialAlter.sol:SacrificialAlter",
            "label": "mints",
            "offset": 0,
            "slot": "0",
            "type": "t_uint16"
          },
          {
            "astId": 11304,
            "contract": "contracts/SacrificialAlter.sol:SacrificialAlter",
            "label": "burns",
            "offset": 2,
            "slot": "0",
            "type": "t_uint16"
          },
          {
            "astId": 11306,
            "contract": "contracts/SacrificialAlter.sol:SacrificialAlter",
            "label": "maxSupply",
            "offset": 4,
            "slot": "0",
            "type": "t_uint16"
          },
          {
            "astId": 11308,
            "contract": "contracts/SacrificialAlter.sol:SacrificialAlter",
            "label": "oresExchangeAmt",
            "offset": 0,
            "slot": "1",
            "type": "t_uint256"
          }
        ],
        "numberOfBytes": "64"
      },
      "t_uint16": {
        "encoding": "inplace",
        "label": "uint16",
        "numberOfBytes": "2"
      },
      "t_uint256": {
        "encoding": "inplace",
        "label": "uint256",
        "numberOfBytes": "32"
      },
      "t_uint64": {
        "encoding": "inplace",
        "label": "uint64",
        "numberOfBytes": "8"
      }
    }
  }
}