{
  "address": "0x6a84561027245D56Ce288901F74D965e39DaA21b",
  "abi": [
    {
      "anonymous": false,
      "inputs": [
        {
          "indexed": true,
          "internalType": "uint256",
          "name": "tokenId",
          "type": "uint256"
        },
        {
          "indexed": true,
          "internalType": "bool",
          "name": "unstaked",
          "type": "bool"
        },
        {
          "indexed": false,
          "internalType": "uint256",
          "name": "earned",
          "type": "uint256"
        }
      ],
      "name": "AlienClaimed",
      "type": "event"
    },
    {
      "anonymous": false,
      "inputs": [
        {
          "indexed": true,
          "internalType": "uint256",
          "name": "tokenId",
          "type": "uint256"
        },
        {
          "indexed": true,
          "internalType": "bool",
          "name": "unstaked",
          "type": "bool"
        },
        {
          "indexed": false,
          "internalType": "uint256",
          "name": "earned",
          "type": "uint256"
        }
      ],
      "name": "MarineClaimed",
      "type": "event"
    },
    {
      "anonymous": false,
      "inputs": [
        {
          "indexed": true,
          "internalType": "address",
          "name": "previousOwner",
          "type": "address"
        },
        {
          "indexed": true,
          "internalType": "address",
          "name": "newOwner",
          "type": "address"
        }
      ],
      "name": "OwnershipTransferred",
      "type": "event"
    },
    {
      "anonymous": false,
      "inputs": [
        {
          "indexed": false,
          "internalType": "address",
          "name": "account",
          "type": "address"
        }
      ],
      "name": "Paused",
      "type": "event"
    },
    {
      "anonymous": false,
      "inputs": [
        {
          "indexed": true,
          "internalType": "uint256",
          "name": "tokenId",
          "type": "uint256"
        },
        {
          "indexed": true,
          "internalType": "address",
          "name": "owner",
          "type": "address"
        },
        {
          "indexed": false,
          "internalType": "bool",
          "name": "isMarine",
          "type": "bool"
        },
        {
          "indexed": false,
          "internalType": "uint256",
          "name": "stakedDuration",
          "type": "uint256"
        },
        {
          "indexed": false,
          "internalType": "uint256",
          "name": "value",
          "type": "uint256"
        }
      ],
      "name": "TokenStaked",
      "type": "event"
    },
    {
      "anonymous": false,
      "inputs": [
        {
          "indexed": false,
          "internalType": "address",
          "name": "account",
          "type": "address"
        }
      ],
      "name": "Unpaused",
      "type": "event"
    },
    {
      "inputs": [],
      "name": "KLAYE_CLAIM_TAX_PERCENTAGE",
      "outputs": [
        {
          "internalType": "uint256",
          "name": "",
          "type": "uint256"
        }
      ],
      "stateMutability": "view",
      "type": "function"
    },
    {
      "inputs": [],
      "name": "MAX_RANK",
      "outputs": [
        {
          "internalType": "uint8",
          "name": "",
          "type": "uint8"
        }
      ],
      "stateMutability": "view",
      "type": "function"
    },
    {
      "inputs": [],
      "name": "MINIMUM_TO_EXIT",
      "outputs": [
        {
          "internalType": "uint256",
          "name": "",
          "type": "uint256"
        }
      ],
      "stateMutability": "view",
      "type": "function"
    },
    {
      "inputs": [],
      "name": "UNSTAKE_KLAYE_AMOUNT",
      "outputs": [
        {
          "internalType": "uint256",
          "name": "",
          "type": "uint256"
        }
      ],
      "stateMutability": "view",
      "type": "function"
    },
    {
      "inputs": [
        {
          "internalType": "address",
          "name": "account",
          "type": "address"
        },
        {
          "internalType": "uint256[]",
          "name": "tokenIds",
          "type": "uint256[]"
        }
      ],
      "name": "addManyToMarinePoolAndAlienPool",
      "outputs": [],
      "stateMutability": "nonpayable",
      "type": "function"
    },
    {
      "inputs": [
        {
          "internalType": "uint256",
          "name": "",
          "type": "uint256"
        },
        {
          "internalType": "uint256",
          "name": "",
          "type": "uint256"
        }
      ],
      "name": "alienPool",
      "outputs": [
        {
          "internalType": "uint256",
          "name": "tokenId",
          "type": "uint256"
        },
        {
          "internalType": "address",
          "name": "owner",
          "type": "address"
        },
        {
          "internalType": "uint256",
          "name": "value",
          "type": "uint256"
        },
        {
          "internalType": "uint256",
          "name": "lastClaimTime",
          "type": "uint256"
        },
        {
          "internalType": "uint256",
          "name": "startTime",
          "type": "uint256"
        },
        {
          "internalType": "uint256",
          "name": "stakedDuration",
          "type": "uint256"
        }
      ],
      "stateMutability": "view",
      "type": "function"
    },
    {
      "inputs": [
        {
          "internalType": "uint256",
          "name": "tokenId",
          "type": "uint256"
        }
      ],
      "name": "calculateRewards",
      "outputs": [
        {
          "internalType": "uint256",
          "name": "owed",
          "type": "uint256"
        }
      ],
      "stateMutability": "view",
      "type": "function"
    },
    {
      "inputs": [
        {
          "internalType": "uint256",
          "name": "tokenId",
          "type": "uint256"
        },
        {
          "internalType": "uint256",
          "name": "tokenLevel",
          "type": "uint256"
        }
      ],
      "name": "canStake",
      "outputs": [
        {
          "internalType": "bool",
          "name": "",
          "type": "bool"
        }
      ],
      "stateMutability": "view",
      "type": "function"
    },
    {
      "inputs": [
        {
          "internalType": "uint256[]",
          "name": "tokenIds",
          "type": "uint256[]"
        },
        {
          "internalType": "bool",
          "name": "unstake",
          "type": "bool"
        }
      ],
      "name": "claimManyFromMarinePoolAndAlienPool",
      "outputs": [],
      "stateMutability": "nonpayable",
      "type": "function"
    },
    {
      "inputs": [],
      "name": "initialize",
      "outputs": [],
      "stateMutability": "nonpayable",
      "type": "function"
    },
    {
      "inputs": [],
      "name": "klayeToken",
      "outputs": [
        {
          "internalType": "contract IKLAYE",
          "name": "",
          "type": "address"
        }
      ],
      "stateMutability": "view",
      "type": "function"
    },
    {
      "inputs": [],
      "name": "levelMath",
      "outputs": [
        {
          "internalType": "contract ILevelMath",
          "name": "",
          "type": "address"
        }
      ],
      "stateMutability": "view",
      "type": "function"
    },
    {
      "inputs": [
        {
          "internalType": "uint256",
          "name": "",
          "type": "uint256"
        }
      ],
      "name": "marinePool",
      "outputs": [
        {
          "internalType": "uint256",
          "name": "tokenId",
          "type": "uint256"
        },
        {
          "internalType": "address",
          "name": "owner",
          "type": "address"
        },
        {
          "internalType": "uint256",
          "name": "value",
          "type": "uint256"
        },
        {
          "internalType": "uint256",
          "name": "lastClaimTime",
          "type": "uint256"
        },
        {
          "internalType": "uint256",
          "name": "startTime",
          "type": "uint256"
        },
        {
          "internalType": "uint256",
          "name": "stakedDuration",
          "type": "uint256"
        }
      ],
      "stateMutability": "view",
      "type": "function"
    },
    {
      "inputs": [],
      "name": "mnaNFT",
      "outputs": [
        {
          "internalType": "contract IMnAv2",
          "name": "",
          "type": "address"
        }
      ],
      "stateMutability": "view",
      "type": "function"
    },
    {
      "inputs": [
        {
          "internalType": "address",
          "name": "",
          "type": "address"
        },
        {
          "internalType": "address",
          "name": "from",
          "type": "address"
        },
        {
          "internalType": "uint256",
          "name": "",
          "type": "uint256"
        },
        {
          "internalType": "bytes",
          "name": "",
          "type": "bytes"
        }
      ],
      "name": "onERC721Received",
      "outputs": [
        {
          "internalType": "bytes4",
          "name": "",
          "type": "bytes4"
        }
      ],
      "stateMutability": "pure",
      "type": "function"
    },
    {
      "inputs": [],
      "name": "oresToken",
      "outputs": [
        {
          "internalType": "contract IORES",
          "name": "",
          "type": "address"
        }
      ],
      "stateMutability": "view",
      "type": "function"
    },
    {
      "inputs": [],
      "name": "owner",
      "outputs": [
        {
          "internalType": "address",
          "name": "",
          "type": "address"
        }
      ],
      "stateMutability": "view",
      "type": "function"
    },
    {
      "inputs": [],
      "name": "paused",
      "outputs": [
        {
          "internalType": "bool",
          "name": "",
          "type": "bool"
        }
      ],
      "stateMutability": "view",
      "type": "function"
    },
    {
      "inputs": [],
      "name": "renounceOwnership",
      "outputs": [],
      "stateMutability": "nonpayable",
      "type": "function"
    },
    {
      "inputs": [
        {
          "internalType": "uint256[]",
          "name": "tokenIds",
          "type": "uint256[]"
        }
      ],
      "name": "rescue",
      "outputs": [],
      "stateMutability": "nonpayable",
      "type": "function"
    },
    {
      "inputs": [],
      "name": "rescueEnabled",
      "outputs": [
        {
          "internalType": "bool",
          "name": "",
          "type": "bool"
        }
      ],
      "stateMutability": "view",
      "type": "function"
    },
    {
      "inputs": [
        {
          "internalType": "address",
          "name": "_mnaNFT",
          "type": "address"
        },
        {
          "internalType": "address",
          "name": "_klaye",
          "type": "address"
        },
        {
          "internalType": "address",
          "name": "_ores",
          "type": "address"
        },
        {
          "internalType": "address",
          "name": "_levelMath",
          "type": "address"
        }
      ],
      "name": "setContracts",
      "outputs": [],
      "stateMutability": "nonpayable",
      "type": "function"
    },
    {
      "inputs": [
        {
          "internalType": "bool",
          "name": "_paused",
          "type": "bool"
        }
      ],
      "name": "setPaused",
      "outputs": [],
      "stateMutability": "nonpayable",
      "type": "function"
    },
    {
      "inputs": [
        {
          "internalType": "bool",
          "name": "_enabled",
          "type": "bool"
        }
      ],
      "name": "setRescueEnabled",
      "outputs": [],
      "stateMutability": "nonpayable",
      "type": "function"
    },
    {
      "inputs": [
        {
          "internalType": "uint256",
          "name": "amount",
          "type": "uint256"
        }
      ],
      "name": "setUnStakeKlayeAmount",
      "outputs": [],
      "stateMutability": "nonpayable",
      "type": "function"
    },
    {
      "inputs": [],
      "name": "totalKLAYEEarned",
      "outputs": [
        {
          "internalType": "uint256",
          "name": "",
          "type": "uint256"
        }
      ],
      "stateMutability": "view",
      "type": "function"
    },
    {
      "inputs": [
        {
          "internalType": "address",
          "name": "newOwner",
          "type": "address"
        }
      ],
      "name": "transferOwnership",
      "outputs": [],
      "stateMutability": "nonpayable",
      "type": "function"
    },
    {
      "inputs": [
        {
          "internalType": "uint256[]",
          "name": "tokenIds",
          "type": "uint256[]"
        }
      ],
      "name": "upgradeLevel",
      "outputs": [],
      "stateMutability": "nonpayable",
      "type": "function"
    }
  ],
  "transactionHash": "0x6763b8e90fe6b8da139cb74d8ba29f616e7eacd29de9c6e07952d68e1384254a",
  "args": [],
  "numDeployments": 2,
  "solcInputHash": "90792767e01011522d9a9a87e25c3fd6",
  "bytecode": "0x60806040526729a2241af62c000060d35534801561001c57600080fd5b506136ca8061002c6000396000f3fe608060405234801561001057600080fd5b50600436106101c45760003560e01c8063826c4807116100f9578063b63aa76211610097578063bf989b6e11610071578063bf989b6e1461040f578063c97b9c5a14610422578063d3ea435014610435578063f2fde38b14610448576101c4565b8063b63aa762146103d6578063bb7789fc146103e9578063bd3fae82146103fc576101c4565b80639bcfc828116100d35780639bcfc828146103495780639bd445ba1461035c5780639e3bcb8d1461036f578063b3bcf8dd14610389576101c4565b8063826c4807146103275780638da5cb5b1461032f5780639558310114610340576101c4565b80636a3ef05711610166578063715018a611610140578063715018a6146102f157806376531008146102f95780637f6c5fa91461030c5780638129fc1c1461031f576101c4565b80636a3ef057146102c25780636cbbd5da146102d5578063707a9488146102e8576101c4565b806337a386b9116101a257806337a386b91461023a57806339db714f146102525780634b809de31461026f5780635c975abb146102b7576101c4565b8063150b7a02146101c957806316c38b3c146101fa578063357bad8c1461020f575b600080fd5b6101dc6101d7366004613072565b61045b565b6040516001600160e01b031990911681526020015b60405180910390f35b61020d6102083660046131f4565b6104d6565b005b60ca54610222906001600160a01b031681565b6040516001600160a01b0390911681526020016101f1565b6102446202a30081565b6040519081526020016101f1565b60d65461025f9060ff1681565b60405190151581526020016101f1565b61028261027d3660046133ae565b6105ae565b604080519687526001600160a01b039095166020870152938501929092526060840152608083015260a082015260c0016101f1565b60975460ff1661025f565b61020d6102d036600461315f565b61060c565b60cc54610222906001600160a01b031681565b61024460d35481565b61020d610c68565b61020d6103073660046131f4565b610c9e565b61020d61031a36600461337e565b610cdb565b61020d610d5a565b610244601481565b6033546001600160a01b0316610222565b61024460d45481565b61020d61035736600461310c565b610e3b565b60cb54610222906001600160a01b031681565b610377600481565b60405160ff90911681526020016101f1565b61028261039736600461337e565b60ce6020526000908152604090208054600182015460028301546003840154600485015460059095015493946001600160a01b03909316939192909186565b61025f6103e43660046133ae565b61120f565b61020d6103f736600461315f565b6113fc565b60cd54610222906001600160a01b031681565b61020d61041d366004613017565b6117ac565b61020d61043036600461319f565b611826565b61024461044336600461337e565b611b97565b61020d610456366004612fdf565b611efa565b60006001600160a01b038516156104c45760405162461bcd60e51b815260206004820152602260248201527f43616e6e6f742073656e6420746f204d6172696e65506f6f6c206469726563746044820152616c7960f01b60648201526084015b60405180910390fd5b50630a85bd0160e11b95945050505050565b60ca546001600160a01b0316158015906104fa575060cb546001600160a01b031615155b8015610510575060cd546001600160a01b031615155b8015610526575060cc546001600160a01b031615155b6105665760405162461bcd60e51b815260206004820152601160248201527010dbdb9d1c9858dd1cc81b9bdd081cd95d607a1b60448201526064016104bb565b6033546001600160a01b031633146105905760405162461bcd60e51b81526004016104bb906134b7565b80156105a35761059e611f92565b6105ab565b6105ab612007565b50565b60cf60205281600052604060002081815481106105ca57600080fd5b60009182526020909120600690910201805460018201546002830154600384015460048501546005909501549396506001600160a01b03909216945092909186565b6002606554141561062f5760405162461bcd60e51b81526004016104bb90613537565b600260655560d65460ff166106785760405162461bcd60e51b815260206004820152600f60248201526e149154d0d55148111254d050931151608a1b60448201526064016104bb565b6000610682612f3b565b61068a612f3b565b6000805b85811015610c5a578686828181106106b657634e487b7160e01b600052603260045260246000fd5b60ca54604051634019bfc760e01b815260209290920293909301356004820181905297506001600160a01b0390921691634019bfc7915060240160206040518083038186803b15801561070857600080fd5b505afa15801561071c573d6000803e3d6000fd5b505050506040513d601f19601f820116820180604052508101906107409190613210565b156108b057600085815260ce6020908152604091829020825160c0810184528154815260018201546001600160a01b031692810183905260028201549381019390935260038101546060840152600481015460808401526005015460a083015290945033146107e65760405162461bcd60e51b81526020600482015260126024820152715357495045522c204e4f2053574950494e4760701b60448201526064016104bb565b836080015184606001518560a001516107ff9190613629565b61080991906135ad565b60a085015260ca546001600160a01b031663b88d4fde3033886040518463ffffffff1660e01b8152600401610840939291906133cf565b600060405180830381600087803b15801561085a57600080fd5b505af115801561086e573d6000803e3d6000fd5b505060405160008152600192508791507f9cb40271f339db1081126b3a1e1bd03e3a8258e076fd708dec87a021290adbb09060200160405180910390a3610c48565b6108b985612081565b60ff8116600090815260cf6020908152604080832089845260d0909252909120548154929450909181106108fd57634e487b7160e01b600052603260045260246000fd5b60009182526020918290206040805160c08101825260069093029091018054835260018101546001600160a01b031693830193909352600283015490820152600382015460608201526004820154608082015260059091015460a082015293506109643390565b6001600160a01b031684602001516001600160a01b0316146109bd5760405162461bcd60e51b81526020600482015260126024820152715357495045522c204e4f2053574950494e4760701b60448201526064016104bb565b8160ff1660c960008282546109d29190613629565b909155505060ff8216600090815260cf6020526040902080546109f790600190613629565b81548110610a1557634e487b7160e01b600052603260045260246000fd5b600091825260208083206040805160c08101825260069094029091018054845260018101546001600160a01b03168484015260028101548483015260038101546060850152600481015460808501526005015460a084015260ff8616845260cf825280842089855260d09092529092205482549195508592918110610aaa57634e487b7160e01b600052603260045260246000fd5b60009182526020808320845160069390930201918255838101516001830180546001600160a01b0319166001600160a01b039092169190911790556040808501516002840155606085015160038401556080850151600484015560a09094015160059092019190915587825260d0815282822054865183528383205560ff8516825260cf905220805480610b4e57634e487b7160e01b600052603160045260246000fd5b600082815260208082206006600019909401938402018281556001810180546001600160a01b03191690556002810183905560038101839055600481018390556005018290559190925586825260d09052604081205560ca546001600160a01b031663b88d4fde30610bbd3390565b886040518463ffffffff1660e01b8152600401610bdc939291906133cf565b600060405180830381600087803b158015610bf657600080fd5b505af1158015610c0a573d6000803e3d6000fd5b505060405160008152600192508791507f261f0854432bace3f0023f1dd8d91177b3bc455fb50acd7491782cd858b24c729060200160405180910390a35b80610c5281613640565b91505061068e565b505060016065555050505050565b6033546001600160a01b03163314610c925760405162461bcd60e51b81526004016104bb906134b7565b610c9c600061211e565b565b6033546001600160a01b03163314610cc85760405162461bcd60e51b81526004016104bb906134b7565b60d6805460ff1916911515919091179055565b6033546001600160a01b03163314610d055760405162461bcd60e51b81526004016104bb906134b7565b6729a2241af62c0000811115610d555760405162461bcd60e51b815260206004820152601560248201527445786365656473206d6178696d756d2076616c756560581b60448201526064016104bb565b60d355565b600054610100900460ff16610d755760005460ff1615610d79565b303b155b610ddc5760405162461bcd60e51b815260206004820152602e60248201527f496e697469616c697a61626c653a20636f6e747261637420697320616c72656160448201526d191e481a5b9a5d1a585b1a5e995960921b60648201526084016104bb565b600054610100900460ff16158015610e07576000805460ff1961ff0019909116610100171660011790555b610e0f612170565b610e176121a3565b610e1f6121d1565b610e27611f92565b80156105ab576000805461ff001916905550565b60026065541415610e5e5760405162461bcd60e51b81526004016104bb90613537565b6002606555323314610e9d5760405162461bcd60e51b81526020600482015260086024820152674f6e6c7920454f4160c01b60448201526064016104bb565b6001600160a01b0383163214610ef55760405162461bcd60e51b815260206004820152601a60248201527f6163636f756e7420746f2073656e646572206d69736d6174636800000000000060448201526064016104bb565b6000805b8281101561120357838382818110610f2157634e487b7160e01b600052603260045260246000fd5b905060200201359150610f313390565b60ca546040516331a9108f60e11b8152600481018590526001600160a01b039283169290911690636352211e9060240160206040518083038186803b158015610f7957600080fd5b505afa158015610f8d573d6000803e3d6000fd5b505050506040513d601f19601f82011682018060405250810190610fb19190612ffb565b6001600160a01b0316146110075760405162461bcd60e51b815260206004820152601860248201527f596f7520646f6e2774206f776e207468697320746f6b656e000000000000000060448201526064016104bb565b60ca54604051633404591760e21b8152600481018490526000916001600160a01b03169063d011645c9060240160206040518083038186803b15801561104c57600080fd5b505afa158015611060573d6000803e3d6000fd5b505050506040513d601f19601f820116820180604052508101906110849190613396565b9050611090838261120f565b6110dc5760405162461bcd60e51b815260206004820181905260248201527f63616e2774207374616b652e2075706772616465206c6576656c20666972737460448201526064016104bb565b60ca546001600160a01b03166323b872dd336040516001600160e01b031960e084901b1681526001600160a01b03909116600482015230602482015260448101869052606401600060405180830381600087803b15801561113c57600080fd5b505af1158015611150573d6000803e3d6000fd5b505060ca54604051634019bfc760e01b8152600481018790526001600160a01b039091169250634019bfc7915060240160206040518083038186803b15801561119857600080fd5b505afa1580156111ac573d6000803e3d6000fd5b505050506040513d601f19601f820116820180604052508101906111d09190613210565b156111e5576111e0868483612201565b6111f0565b6111f08684836122f1565b50806111fb81613640565b915050610ef9565b50506001606555505050565b60ca54604051634019bfc760e01b8152600481018490526000916001600160a01b031690634019bfc79060240160206040518083038186803b15801561125457600080fd5b505afa158015611268573d6000803e3d6000fd5b505050506040513d601f19601f8201168201806040525081019061128c9190613210565b156113f257604582111561129f57604591505b60cc54604051631afbb35560e31b8152600481018490526000916001600160a01b03169063d7dd9aa89060240160a06040518083038186803b1580156112e457600080fd5b505afa1580156112f8573d6000803e3d6000fd5b505050506040513d601f19601f8201168201806040525081019061131c919061322c565b600085815260ce60209081526040808320815160c0810183528154815260018201546001600160a01b031681850152600282015481840152600382015460608201526004820154608082015260059091015460a082015288845260d7909252909120549192509084118061139257506080810151155b156113a2576001925050506113f6565b60008160a001518260800151426113b99190613629565b6113c391906135ad565b90506000836080015182116113d857816113de565b83608001515b9050808460800151119450505050506113f6565b5060015b92915050565b60975460ff161561141f5760405162461bcd60e51b81526004016104bb9061343c565b61142b82826000611826565b6000805b8281101561158d57600084848381811061145957634e487b7160e01b600052603260045260246000fd5b60ca54604051633404591760e21b815260209290920293909301356004820181905293506000926001600160a01b0316915063d011645c9060240160206040518083038186803b1580156114ac57600080fd5b505afa1580156114c0573d6000803e3d6000fd5b505050506040513d601f19601f820116820180604052508101906114e49190613396565b60cc54604051631afbb35560e31b8152600481018390529192506000916001600160a01b039091169063d7dd9aa89060240160a06040518083038186803b15801561152e57600080fd5b505afa158015611542573d6000803e3d6000fd5b505050506040513d601f19601f82011682018060405250810190611566919061322c565b805190915061157590866135ad565b9450505050808061158590613640565b91505061142f565b50801561162e5760cd546001600160a01b03166323b872dd336040516001600160e01b031960e084901b1681526001600160a01b03909116600482015230602482015260448101849052606401602060405180830381600087803b1580156115f457600080fd5b505af1158015611608573d6000803e3d6000fd5b505050506040513d601f19601f8201168201806040525081019061162c9190613210565b505b60cd5460ca5460405163095ea7b360e01b81526001600160a01b0391821660048201526024810184905291169063095ea7b390604401602060405180830381600087803b15801561167e57600080fd5b505af1158015611692573d6000803e3d6000fd5b505050506040513d601f19601f820116820180604052508101906116b69190613210565b5060ca54604051632edde27f60e21b81526001600160a01b039091169063bb7789fc906116e99086908690600401613402565b600060405180830381600087803b15801561170357600080fd5b505af1158015611717573d6000803e3d6000fd5b5050505060005b828110156117a657600084848381811061174857634e487b7160e01b600052603260045260246000fd5b60209081029290920135600081815260ce84526040808220426004820181905560038201556005810183905560d79095528120805492955091925061178c83613640565b91905055505050808061179e90613640565b91505061171e565b50505050565b6033546001600160a01b031633146117d65760405162461bcd60e51b81526004016104bb906134b7565b60ca80546001600160a01b039586166001600160a01b03199182161790915560cb80549486169482169490941790935560cd80549285169284169290921790915560cc8054919093169116179055565b60975460ff16156118495760405162461bcd60e51b81526004016104bb9061343c565b6002606554141561186c5760405162461bcd60e51b81526004016104bb90613537565b60026065553233146118ab5760405162461bcd60e51b81526020600482015260086024820152674f6e6c7920454f4160c01b60448201526064016104bb565b6000805b83811015611aa15760ca546000906001600160a01b031663d011645c8787858181106118eb57634e487b7160e01b600052603260045260246000fd5b905060200201356040518263ffffffff1660e01b815260040161191091815260200190565b60206040518083038186803b15801561192857600080fd5b505afa15801561193c573d6000803e3d6000fd5b505050506040513d601f19601f820116820180604052508101906119609190613396565b60ca549091506001600160a01b0316634019bfc787878581811061199457634e487b7160e01b600052603260045260246000fd5b905060200201356040518263ffffffff1660e01b81526004016119b991815260200190565b60206040518083038186803b1580156119d157600080fd5b505afa1580156119e5573d6000803e3d6000fd5b505050506040513d601f19601f82011682018060405250810190611a099190613210565b15611a5057611a3f868684818110611a3157634e487b7160e01b600052603260045260246000fd5b905060200201358583612446565b611a4990846135ad565b9250611a8e565b611a81868684818110611a7357634e487b7160e01b600052603260045260246000fd5b90506020020135858361283e565b611a8b90846135ad565b92505b5080611a9981613640565b9150506118af565b5060cb60009054906101000a90046001600160a01b03166001600160a01b0316639c47ee3b6040518163ffffffff1660e01b8152600401600060405180830381600087803b158015611af257600080fd5b505af1158015611b06573d6000803e3d6000fd5b505050508060001415611b195750611b8d565b60cb546001600160a01b03166340c10f19336040516001600160e01b031960e084901b1681526001600160a01b03909116600482015260248101849052604401600060405180830381600087803b158015611b7357600080fd5b505af1158015611b87573d6000803e3d6000fd5b50505050505b5050600160655550565b60ca54604051634019bfc760e01b8152600481018390526000916001600160a01b031690634019bfc79060240160206040518083038186803b158015611bdc57600080fd5b505afa158015611bf0573d6000803e3d6000fd5b505050506040513d601f19601f82011682018060405250810190611c149190613210565b15611e1c57600082815260ce60209081526040808320815160c0810183528154815260018201546001600160a01b039081169482019490945260028201548184015260038201546060820152600480830154608083015260059092015460a082015260ca549251633404591760e21b81529182018790529392919091169063d011645c9060240160206040518083038186803b158015611cb357600080fd5b505afa158015611cc7573d6000803e3d6000fd5b505050506040513d601f19601f82011682018060405250810190611ceb9190613396565b90506045811115611cfa575060455b60cc54604051631afbb35560e31b8152600481018390526000916001600160a01b03169063d7dd9aa89060240160a06040518083038186803b158015611d3f57600080fd5b505afa158015611d53573d6000803e3d6000fd5b505050506040513d601f19601f82011682018060405250810190611d77919061322c565b90506000836080015184606001518560a00151611d9491906135ad565b611d9e9190613629565b905080826080015111611db45760009450611e13565b6000818360800151611dc69190613629565b90506000856060015142611dda9190613629565b90506000818311611deb5782611ded565b815b905062015180856060015182611e03919061360a565b611e0d91906135ea565b97505050505b50505050611ef5565b6000611e2783612081565b9050600060cf60008360ff16815260200190815260200160002060d060008681526020019081526020016000205481548110611e7357634e487b7160e01b600052603260045260246000fd5b60009182526020918290206040805160c08101825260069093029091018054835260018101546001600160a01b0316938301939093526002830154908201819052600383015460608301526004830154608083015260059092015460a082015260d254909250611ee39190613629565b611ef09060ff841661360a565b925050505b919050565b6033546001600160a01b03163314611f245760405162461bcd60e51b81526004016104bb906134b7565b6001600160a01b038116611f895760405162461bcd60e51b815260206004820152602660248201527f4f776e61626c653a206e6577206f776e657220697320746865207a65726f206160448201526564647265737360d01b60648201526084016104bb565b6105ab8161211e565b60975460ff1615611fb55760405162461bcd60e51b81526004016104bb9061343c565b6097805460ff191660011790557f62e78cea01bee320cd4e420270b5ea74000d11b0c9f74754ebdbfc544b05a258611fea3390565b6040516001600160a01b03909116815260200160405180910390a1565b60975460ff166120505760405162461bcd60e51b815260206004820152601460248201527314185d5cd8589b194e881b9bdd081c185d5cd95960621b60448201526064016104bb565b6097805460ff191690557f5db9ee0a495bf2e6ff9c91a7834c1ba4fdd244a5e8aa4e537bd38aeae4b073aa33611fea565b60ca546040516394e5684760e01b81526004810183905260009182916001600160a01b03909116906394e56847906024016101a06040518083038186803b1580156120cb57600080fd5b505afa1580156120df573d6000803e3d6000fd5b505050506040513d601f19601f82011682018060405250810190612103919061327d565b9050806101800151600161211791906135c5565b9392505050565b603380546001600160a01b038381166001600160a01b0319831681179093556040519116919082907f8be0079c531659141344cd1fd0a4f28419497f9722a3daafe3b4186f6b6457e090600090a35050565b600054610100900460ff166121975760405162461bcd60e51b81526004016104bb906134ec565b6097805460ff19169055565b600054610100900460ff166121ca5760405162461bcd60e51b81526004016104bb906134ec565b6001606555565b600054610100900460ff166121f85760405162461bcd60e51b81526004016104bb906134ec565b610c9c3361211e565b60975460ff16156122245760405162461bcd60e51b81526004016104bb9061343c565b600082815260ce602090815260408083208581556001810180546001600160a01b0319166001600160a01b0389161790554260048201819055600382015560d7909252909120548281141561227857612280565b600060058301555b60006002830181905584815260d7602090815260408083208690556005850154815160018152928301528101919091526001600160a01b0386169085907f4906e354a9bd111d27ae73b8f90820d60fec6d26539a57a55e4e159d1473bd689060600160405180910390a35050505050565b60006122fc83612081565b90508060ff1660c9600082825461231391906135ad565b909155505060ff8116600090815260cf60208181526040808420805488865260d08452828620819055938352815160c0810183528881526001600160a01b038a811682860190815260d25483860190815242606085018181526080860191825260a086018b81526001808c018955978c52898c2096516006909b02909601998a55925195890180546001600160a01b031916969094169590951790925590516002870155516003860155905160048501555160059093019290925585835260d7905290205482146123f057600083815260d7602052604090208290555b60d254604080516000808252602082015280820192909252516001600160a01b0386169185917f4906e354a9bd111d27ae73b8f90820d60fec6d26539a57a55e4e159d1473bd689181900360600190a350505050565b600083815260ce6020526040812060018101546001600160a01b031633146124b05760405162461bcd60e51b815260206004820152601960248201527f446f6e2774206f776e2074686520676976656e20746f6b656e0000000000000060448201526064016104bb565b6124b985611b97565b91506124da60646124cb60148561360a565b6124d591906135ea565b612edf565b60646124e7601482613629565b6124f1908461360a565b6124fb91906135ea565b426003830155915083156127f95760d35482101561252b5760405162461bcd60e51b81526004016104bb90613466565b60d3546125389083613629565b60ca54604051633404591760e21b8152600481018890529193506000916001600160a01b039091169063d011645c9060240160206040518083038186803b15801561258257600080fd5b505afa158015612596573d6000803e3d6000fd5b505050506040513d601f19601f820116820180604052508101906125ba9190613396565b9050604581106125c8575060455b60cc54604051631afbb35560e31b8152600481018390526000916001600160a01b03169063d7dd9aa89060240160a06040518083038186803b15801561260d57600080fd5b505afa158015612621573d6000803e3d6000fd5b505050506040513d601f19601f82011682018060405250810190612645919061322c565b90506000836005015484600401544261265e9190613629565b61266891906135ad565b90508160800151811161267b5780612681565b81608001515b60058501556001840180546001600160a01b0319169055600088815260d7602052604090205483146126bf57600088815260d7602052604090208390555b60cb5460d3546040516340c10f1960e01b815230600482015260248101919091526001600160a01b03909116906340c10f1990604401600060405180830381600087803b15801561270f57600080fd5b505af1158015612723573d6000803e3d6000fd5b505060cb5460d354604051632770a7eb60e21b815230600482015260248101919091526001600160a01b039091169250639dc29fac9150604401600060405180830381600087803b15801561277757600080fd5b505af115801561278b573d6000803e3d6000fd5b505060ca54604051635c46a7ef60e11b81526001600160a01b03909116925063b88d4fde91506127c390309033908d906004016133cf565b600060405180830381600087803b1580156127dd57600080fd5b505af11580156127f1573d6000803e3d6000fd5b505050505050505b831515857f9cb40271f339db1081126b3a1e1bd03e3a8258e076fd708dec87a021290adbb08460405161282e91815260200190565b60405180910390a3509392505050565b60ca546040516331a9108f60e11b81526004810185905260009130916001600160a01b0390911690636352211e9060240160206040518083038186803b15801561288757600080fd5b505afa15801561289b573d6000803e3d6000fd5b505050506040513d601f19601f820116820180604052508101906128bf9190612ffb565b6001600160a01b0316146129095760405162461bcd60e51b81526020600482015260116024820152702237b2b9b713ba1037bbb7103a37b5b2b760791b60448201526064016104bb565b600061291485612081565b9050600060cf60008360ff16815260200190815260200160002060d06000888152602001908152602001600020548154811061296057634e487b7160e01b600052603260045260246000fd5b60009182526020918290206040805160c08101825260069093029091018054835260018101546001600160a01b031693830193909352600283015490820152600382015460608201526004820154608082015260059091015460a082015290506129c73390565b6001600160a01b031681602001516001600160a01b031614612a1f5760405162461bcd60e51b81526020600482015260116024820152702237b2b9b713ba1037bbb7103a37b5b2b760791b60448201526064016104bb565b612a2886611b97565b92508415612d845760d354831015612a525760405162461bcd60e51b81526004016104bb90613466565b60d354612a5f9084613629565b92508160ff1660c96000828254612a769190613629565b909155505060ff8216600090815260cf602052604081208054612a9b90600190613629565b81548110612ab957634e487b7160e01b600052603260045260246000fd5b600091825260208083206040805160c08101825260069094029091018054845260018101546001600160a01b03168484015260028101548483015260038101546060850152600481015460808501526005015460a084015260ff8716845260cf82528084208b855260d09092529092205482549193508392918110612b4e57634e487b7160e01b600052603260045260246000fd5b60009182526020808320845160069390930201918255838101516001830180546001600160a01b0319166001600160a01b039092169190911790556040808501516002840155606085015160038401556080850151600484015560a09094015160059092019190915589825260d0815282822054845183528383205560ff8616825260cf905220805480612bf257634e487b7160e01b600052603160045260246000fd5b600082815260208120600660001993909301928302018181556001810180546001600160a01b031916905560028101829055600381018290556004808201839055600590910191909155915560cb5460d3546040516340c10f1960e01b8152309381019390935260248301526001600160a01b0316906340c10f1990604401600060405180830381600087803b158015612c8b57600080fd5b505af1158015612c9f573d6000803e3d6000fd5b505060cb5460d354604051632770a7eb60e21b815230600482015260248101919091526001600160a01b039091169250639dc29fac9150604401600060405180830381600087803b158015612cf357600080fd5b505af1158015612d07573d6000803e3d6000fd5b505050600088815260d060205260408120555060ca546001600160a01b031663b88d4fde30338a6040518463ffffffff1660e01b8152600401612d4c939291906133cf565b600060405180830381600087803b158015612d6657600080fd5b505af1158015612d7a573d6000803e3d6000fd5b5050505050612e99565b6040518060c00160405280878152602001612d9c3390565b6001600160a01b0316815260200160d254815260200142815260200182608001518152602001600081525060cf60008460ff16815260200190815260200160002060d060008981526020019081526020016000205481548110612e0f57634e487b7160e01b600052603260045260246000fd5b60009182526020808320845160069390930201918255838101516001830180546001600160a01b0319166001600160a01b039092169190911790556040808501516002840155606085015160038401556080850151600484015560a09094015160059092019190915588825260d7905220548414612e9957600086815260d7602052604090208490555b841515867f261f0854432bace3f0023f1dd8d91177b3bc455fb50acd7491782cd858b24c7285604051612ece91815260200190565b60405180910390a350509392505050565b60c954612f03578060d16000828254612ef891906135ad565b909155506105ab9050565b60c95460d154612f1390836135ad565b612f1d91906135ea565b60d26000828254612f2e91906135ad565b9091555050600060d15550565b6040518060c001604052806000815260200160006001600160a01b03168152602001600081526020016000815260200160008152602001600081525090565b60008083601f840112612f8b578182fd5b50813567ffffffffffffffff811115612fa2578182fd5b6020830191508360208083028501011115612fbc57600080fd5b9250929050565b8051611ef581613686565b805160ff81168114611ef557600080fd5b600060208284031215612ff0578081fd5b813561211781613671565b60006020828403121561300c578081fd5b815161211781613671565b6000806000806080858703121561302c578283fd5b843561303781613671565b9350602085013561304781613671565b9250604085013561305781613671565b9150606085013561306781613671565b939692955090935050565b600080600080600060808688031215613089578081fd5b853561309481613671565b945060208601356130a481613671565b935060408601359250606086013567ffffffffffffffff808211156130c7578283fd5b818801915088601f8301126130da578283fd5b8135818111156130e8578384fd5b8960208285010111156130f9578384fd5b9699959850939650602001949392505050565b600080600060408486031215613120578283fd5b833561312b81613671565b9250602084013567ffffffffffffffff811115613146578283fd5b61315286828701612f7a565b9497909650939450505050565b60008060208385031215613171578182fd5b823567ffffffffffffffff811115613187578283fd5b61319385828601612f7a565b90969095509350505050565b6000806000604084860312156131b3578283fd5b833567ffffffffffffffff8111156131c9578384fd5b6131d586828701612f7a565b90945092505060208401356131e981613686565b809150509250925092565b600060208284031215613205578081fd5b813561211781613686565b600060208284031215613221578081fd5b815161211781613686565b600060a0828403121561323d578081fd5b61324760a061356e565b82518152602083015160208201526040830151604082015260608301516060820152608083015160808201528091505092915050565b60006101a0808385031215613290578182fd5b6132998161356e565b90506132a483612fc3565b81526132b260208401612fce565b60208201526132c360408401612fce565b60408201526132d460608401612fce565b60608201526132e560808401612fce565b60808201526132f660a08401612fce565b60a082015261330760c08401612fce565b60c082015261331860e08401612fce565b60e082015261010061332b818501612fce565b9082015261012061333d848201612fce565b9082015261014061334f848201612fce565b90820152610160613361848201612fce565b90820152610180613373848201612fce565b908201529392505050565b60006020828403121561338f578081fd5b5035919050565b6000602082840312156133a7578081fd5b5051919050565b600080604083850312156133c0578182fd5b50508035926020909101359150565b6001600160a01b039384168152919092166020820152604081019190915260806060820181905260009082015260a00190565b6020808252810182905260006001600160fb1b03831115613421578081fd5b60208302808560408501379190910160400190815292915050565b60208082526010908201526f14185d5cd8589b194e881c185d5cd95960821b604082015260600190565b60208082526031908201527f556e7374616b6520616d6f756e7420697320736d616c6c6572207468616e20746040820152701a19481c195b985b1d1e48185b5bdd5b9d607a1b606082015260800190565b6020808252818101527f4f776e61626c653a2063616c6c6572206973206e6f7420746865206f776e6572604082015260600190565b6020808252602b908201527f496e697469616c697a61626c653a20636f6e7472616374206973206e6f74206960408201526a6e697469616c697a696e6760a81b606082015260800190565b6020808252601f908201527f5265656e7472616e637947756172643a207265656e7472616e742063616c6c00604082015260600190565b604051601f8201601f1916810167ffffffffffffffff811182821017156135a557634e487b7160e01b600052604160045260246000fd5b604052919050565b600082198211156135c0576135c061365b565b500190565b600060ff821660ff84168060ff038211156135e2576135e261365b565b019392505050565b60008261360557634e487b7160e01b81526012600452602481fd5b500490565b60008160001904831182151516156136245761362461365b565b500290565b60008282101561363b5761363b61365b565b500390565b60006000198214156136545761365461365b565b5060010190565b634e487b7160e01b600052601160045260246000fd5b6001600160a01b03811681146105ab57600080fd5b80151581146105ab57600080fdfea264697066735822122004c8c4b2df85a4253662cbcea6317ba1cf94fecff0f50d686bed9475e336ee6d64736f6c63430008020033",
  "devdoc": {
    "kind": "dev",
    "methods": {
      "addManyToMarinePoolAndAlienPool(address,uint256[])": {
        "params": {
          "account": "the address of the staker",
          "tokenIds": "the IDs of the Marines and Aliens to stake"
        }
      },
      "calculateRewards(uint256)": {
        "params": {
          "tokenId": "- The token id you're gonna calculate for"
        }
      },
      "claimManyFromMarinePoolAndAlienPool(uint256[],bool)": {
        "params": {
          "tokenIds": "the IDs of the tokens to claim earnings from",
          "unstake": "whether or not to unstake ALL of the tokens listed in tokenIds"
        }
      },
      "owner()": {
        "details": "Returns the address of the current owner."
      },
      "paused()": {
        "details": "Returns true if the contract is paused, and false otherwise."
      },
      "renounceOwnership()": {
        "details": "Leaves the contract without owner. It will not be possible to call `onlyOwner` functions anymore. Can only be called by the current owner. NOTE: Renouncing ownership will leave the contract without an owner, thereby removing any functionality that is only available to the owner."
      },
      "rescue(uint256[])": {
        "params": {
          "tokenIds": "the IDs of the tokens to claim earnings from"
        }
      },
      "transferOwnership(address)": {
        "details": "Transfers ownership of the contract to a new account (`newOwner`). Can only be called by the current owner."
      }
    },
    "version": 1
  },
  "userdoc": {
    "kind": "user",
    "methods": {
      "addManyToMarinePoolAndAlienPool(address,uint256[])": {
        "notice": "adds Marines and Aliens to the MarinePool and AlienPool"
      },
      "calculateRewards(uint256)": {
        "notice": "Calculates how much distributes for `tokenId`"
      },
      "canStake(uint256,uint256)": {
        "notice": "Determines whether `tokenId` can be staked or not. Token needs to have remaining accure duration for each level to stake"
      },
      "claimManyFromMarinePoolAndAlienPool(uint256[],bool)": {
        "notice": "realize $KLAYE earnings and optionally unstake tokens from the MarinePool / AlienPool to unstake a Marine it will require it has 2 days worth of $KLAYE unclaimed"
      },
      "rescue(uint256[])": {
        "notice": "emergency unstake tokens"
      },
      "setPaused(bool)": {
        "notice": "enables owner to pause / unpause contract"
      },
      "setRescueEnabled(bool)": {
        "notice": "allows owner to enable \"rescue mode\" simplifies accounting, prioritizes tokens out in emergency"
      },
      "upgradeLevel(uint256[])": {
        "notice": "Upgrades levels of tokens to get rewards continuosly"
      }
    },
    "version": 1
  },
  "storageLayout": {
    "storage": [
      {
        "astId": 806,
        "contract": "contracts/StakingPoolv2.sol:StakingPoolv2",
        "label": "_initialized",
        "offset": 0,
        "slot": "0",
        "type": "t_bool"
      },
      {
        "astId": 809,
        "contract": "contracts/StakingPoolv2.sol:StakingPoolv2",
        "label": "_initializing",
        "offset": 1,
        "slot": "0",
        "type": "t_bool"
      },
      {
        "astId": 1443,
        "contract": "contracts/StakingPoolv2.sol:StakingPoolv2",
        "label": "__gap",
        "offset": 0,
        "slot": "1",
        "type": "t_array(t_uint256)50_storage"
      },
      {
        "astId": 276,
        "contract": "contracts/StakingPoolv2.sol:StakingPoolv2",
        "label": "_owner",
        "offset": 0,
        "slot": "51",
        "type": "t_address"
      },
      {
        "astId": 390,
        "contract": "contracts/StakingPoolv2.sol:StakingPoolv2",
        "label": "__gap",
        "offset": 0,
        "slot": "52",
        "type": "t_array(t_uint256)49_storage"
      },
      {
        "astId": 1111,
        "contract": "contracts/StakingPoolv2.sol:StakingPoolv2",
        "label": "_status",
        "offset": 0,
        "slot": "101",
        "type": "t_uint256"
      },
      {
        "astId": 1154,
        "contract": "contracts/StakingPoolv2.sol:StakingPoolv2",
        "label": "__gap",
        "offset": 0,
        "slot": "102",
        "type": "t_array(t_uint256)49_storage"
      },
      {
        "astId": 1005,
        "contract": "contracts/StakingPoolv2.sol:StakingPoolv2",
        "label": "_paused",
        "offset": 0,
        "slot": "151",
        "type": "t_bool"
      },
      {
        "astId": 1096,
        "contract": "contracts/StakingPoolv2.sol:StakingPoolv2",
        "label": "__gap",
        "offset": 0,
        "slot": "152",
        "type": "t_array(t_uint256)49_storage"
      },
      {
        "astId": 14369,
        "contract": "contracts/StakingPoolv2.sol:StakingPoolv2",
        "label": "totalRankStaked",
        "offset": 0,
        "slot": "201",
        "type": "t_uint256"
      },
      {
        "astId": 14400,
        "contract": "contracts/StakingPoolv2.sol:StakingPoolv2",
        "label": "mnaNFT",
        "offset": 0,
        "slot": "202",
        "type": "t_contract(IMnAv2)18140"
      },
      {
        "astId": 14403,
        "contract": "contracts/StakingPoolv2.sol:StakingPoolv2",
        "label": "klayeToken",
        "offset": 0,
        "slot": "203",
        "type": "t_contract(IKLAYE)17968"
      },
      {
        "astId": 14406,
        "contract": "contracts/StakingPoolv2.sol:StakingPoolv2",
        "label": "levelMath",
        "offset": 0,
        "slot": "204",
        "type": "t_contract(ILevelMath)17990"
      },
      {
        "astId": 14409,
        "contract": "contracts/StakingPoolv2.sol:StakingPoolv2",
        "label": "oresToken",
        "offset": 0,
        "slot": "205",
        "type": "t_contract(IORES)18171"
      },
      {
        "astId": 14414,
        "contract": "contracts/StakingPoolv2.sol:StakingPoolv2",
        "label": "marinePool",
        "offset": 0,
        "slot": "206",
        "type": "t_mapping(t_uint256,t_struct(Stake)14367_storage)"
      },
      {
        "astId": 14420,
        "contract": "contracts/StakingPoolv2.sol:StakingPoolv2",
        "label": "alienPool",
        "offset": 0,
        "slot": "207",
        "type": "t_mapping(t_uint256,t_array(t_struct(Stake)14367_storage)dyn_storage)"
      },
      {
        "astId": 14424,
        "contract": "contracts/StakingPoolv2.sol:StakingPoolv2",
        "label": "alienPoolIndices",
        "offset": 0,
        "slot": "208",
        "type": "t_mapping(t_uint256,t_uint256)"
      },
      {
        "astId": 14426,
        "contract": "contracts/StakingPoolv2.sol:StakingPoolv2",
        "label": "unaccountedRewards",
        "offset": 0,
        "slot": "209",
        "type": "t_uint256"
      },
      {
        "astId": 14428,
        "contract": "contracts/StakingPoolv2.sol:StakingPoolv2",
        "label": "klayePerRank",
        "offset": 0,
        "slot": "210",
        "type": "t_uint256"
      },
      {
        "astId": 14437,
        "contract": "contracts/StakingPoolv2.sol:StakingPoolv2",
        "label": "UNSTAKE_KLAYE_AMOUNT",
        "offset": 0,
        "slot": "211",
        "type": "t_uint256"
      },
      {
        "astId": 14439,
        "contract": "contracts/StakingPoolv2.sol:StakingPoolv2",
        "label": "totalKLAYEEarned",
        "offset": 0,
        "slot": "212",
        "type": "t_uint256"
      },
      {
        "astId": 14441,
        "contract": "contracts/StakingPoolv2.sol:StakingPoolv2",
        "label": "lastClaimTimestamp",
        "offset": 0,
        "slot": "213",
        "type": "t_uint256"
      },
      {
        "astId": 14443,
        "contract": "contracts/StakingPoolv2.sol:StakingPoolv2",
        "label": "rescueEnabled",
        "offset": 0,
        "slot": "214",
        "type": "t_bool"
      },
      {
        "astId": 14447,
        "contract": "contracts/StakingPoolv2.sol:StakingPoolv2",
        "label": "tokenLevels",
        "offset": 0,
        "slot": "215",
        "type": "t_mapping(t_uint256,t_uint256)"
      }
    ],
    "types": {
      "t_address": {
        "encoding": "inplace",
        "label": "address",
        "numberOfBytes": "20"
      },
      "t_array(t_struct(Stake)14367_storage)dyn_storage": {
        "base": "t_struct(Stake)14367_storage",
        "encoding": "dynamic_array",
        "label": "struct StakingPoolv2.Stake[]",
        "numberOfBytes": "32"
      },
      "t_array(t_uint256)49_storage": {
        "base": "t_uint256",
        "encoding": "inplace",
        "label": "uint256[49]",
        "numberOfBytes": "1568"
      },
      "t_array(t_uint256)50_storage": {
        "base": "t_uint256",
        "encoding": "inplace",
        "label": "uint256[50]",
        "numberOfBytes": "1600"
      },
      "t_bool": {
        "encoding": "inplace",
        "label": "bool",
        "numberOfBytes": "1"
      },
      "t_contract(IKLAYE)17968": {
        "encoding": "inplace",
        "label": "contract IKLAYE",
        "numberOfBytes": "20"
      },
      "t_contract(ILevelMath)17990": {
        "encoding": "inplace",
        "label": "contract ILevelMath",
        "numberOfBytes": "20"
      },
      "t_contract(IMnAv2)18140": {
        "encoding": "inplace",
        "label": "contract IMnAv2",
        "numberOfBytes": "20"
      },
      "t_contract(IORES)18171": {
        "encoding": "inplace",
        "label": "contract IORES",
        "numberOfBytes": "20"
      },
      "t_mapping(t_uint256,t_array(t_struct(Stake)14367_storage)dyn_storage)": {
        "encoding": "mapping",
        "key": "t_uint256",
        "label": "mapping(uint256 => struct StakingPoolv2.Stake[])",
        "numberOfBytes": "32",
        "value": "t_array(t_struct(Stake)14367_storage)dyn_storage"
      },
      "t_mapping(t_uint256,t_struct(Stake)14367_storage)": {
        "encoding": "mapping",
        "key": "t_uint256",
        "label": "mapping(uint256 => struct StakingPoolv2.Stake)",
        "numberOfBytes": "32",
        "value": "t_struct(Stake)14367_storage"
      },
      "t_mapping(t_uint256,t_uint256)": {
        "encoding": "mapping",
        "key": "t_uint256",
        "label": "mapping(uint256 => uint256)",
        "numberOfBytes": "32",
        "value": "t_uint256"
      },
      "t_struct(Stake)14367_storage": {
        "encoding": "inplace",
        "label": "struct StakingPoolv2.Stake",
        "members": [
          {
            "astId": 14356,
            "contract": "contracts/StakingPoolv2.sol:StakingPoolv2",
            "label": "tokenId",
            "offset": 0,
            "slot": "0",
            "type": "t_uint256"
          },
          {
            "astId": 14358,
            "contract": "contracts/StakingPoolv2.sol:StakingPoolv2",
            "label": "owner",
            "offset": 0,
            "slot": "1",
            "type": "t_address"
          },
          {
            "astId": 14360,
            "contract": "contracts/StakingPoolv2.sol:StakingPoolv2",
            "label": "value",
            "offset": 0,
            "slot": "2",
            "type": "t_uint256"
          },
          {
            "astId": 14362,
            "contract": "contracts/StakingPoolv2.sol:StakingPoolv2",
            "label": "lastClaimTime",
            "offset": 0,
            "slot": "3",
            "type": "t_uint256"
          },
          {
            "astId": 14364,
            "contract": "contracts/StakingPoolv2.sol:StakingPoolv2",
            "label": "startTime",
            "offset": 0,
            "slot": "4",
            "type": "t_uint256"
          },
          {
            "astId": 14366,
            "contract": "contracts/StakingPoolv2.sol:StakingPoolv2",
            "label": "stakedDuration",
            "offset": 0,
            "slot": "5",
            "type": "t_uint256"
          }
        ],
        "numberOfBytes": "192"
      },
      "t_uint256": {
        "encoding": "inplace",
        "label": "uint256",
        "numberOfBytes": "32"
      }
    }
  }
}