{
  "address": "0xbF29d06aCeF5381d4d6854e2f35A47013FCF36E3",
  "abi": [
    {
      "inputs": [
        {
          "internalType": "uint256",
          "name": "_maxBatchMintSize",
          "type": "uint256"
        },
        {
          "internalType": "address",
          "name": "_ores",
          "type": "address"
        }
      ],
      "stateMutability": "nonpayable",
      "type": "constructor"
    },
    {
      "anonymous": false,
      "inputs": [
        {
          "indexed": true,
          "internalType": "address",
          "name": "owner",
          "type": "address"
        },
        {
          "indexed": true,
          "internalType": "address",
          "name": "approved",
          "type": "address"
        },
        {
          "indexed": true,
          "internalType": "uint256",
          "name": "tokenId",
          "type": "uint256"
        }
      ],
      "name": "Approval",
      "type": "event"
    },
    {
      "anonymous": false,
      "inputs": [
        {
          "indexed": true,
          "internalType": "address",
          "name": "owner",
          "type": "address"
        },
        {
          "indexed": true,
          "internalType": "address",
          "name": "operator",
          "type": "address"
        },
        {
          "indexed": false,
          "internalType": "bool",
          "name": "approved",
          "type": "bool"
        }
      ],
      "name": "ApprovalForAll",
      "type": "event"
    },
    {
      "anonymous": false,
      "inputs": [
        {
          "indexed": true,
          "internalType": "address",
          "name": "previousOwner",
          "type": "address"
        },
        {
          "indexed": true,
          "internalType": "address",
          "name": "newOwner",
          "type": "address"
        }
      ],
      "name": "OwnershipTransferred",
      "type": "event"
    },
    {
      "anonymous": false,
      "inputs": [
        {
          "indexed": true,
          "internalType": "address",
          "name": "from",
          "type": "address"
        },
        {
          "indexed": true,
          "internalType": "address",
          "name": "to",
          "type": "address"
        },
        {
          "indexed": true,
          "internalType": "uint256",
          "name": "tokenId",
          "type": "uint256"
        }
      ],
      "name": "Transfer",
      "type": "event"
    },
    {
      "inputs": [],
      "name": "BURN_ADDRESS",
      "outputs": [
        {
          "internalType": "address",
          "name": "",
          "type": "address"
        }
      ],
      "stateMutability": "view",
      "type": "function"
    },
    {
      "inputs": [],
      "name": "MAX_MINT",
      "outputs": [
        {
          "internalType": "uint256",
          "name": "",
          "type": "uint256"
        }
      ],
      "stateMutability": "view",
      "type": "function"
    },
    {
      "inputs": [
        {
          "internalType": "address",
          "name": "to",
          "type": "address"
        },
        {
          "internalType": "uint256",
          "name": "tokenId",
          "type": "uint256"
        }
      ],
      "name": "approve",
      "outputs": [],
      "stateMutability": "nonpayable",
      "type": "function"
    },
    {
      "inputs": [
        {
          "internalType": "address",
          "name": "owner",
          "type": "address"
        }
      ],
      "name": "balanceOf",
      "outputs": [
        {
          "internalType": "uint256",
          "name": "",
          "type": "uint256"
        }
      ],
      "stateMutability": "view",
      "type": "function"
    },
    {
      "inputs": [
        {
          "internalType": "address",
          "name": "",
          "type": "address"
        }
      ],
      "name": "claimed",
      "outputs": [
        {
          "internalType": "bool",
          "name": "",
          "type": "bool"
        }
      ],
      "stateMutability": "view",
      "type": "function"
    },
    {
      "inputs": [
        {
          "internalType": "uint256",
          "name": "_numToMint",
          "type": "uint256"
        }
      ],
      "name": "costForMint",
      "outputs": [
        {
          "internalType": "uint256",
          "name": "",
          "type": "uint256"
        }
      ],
      "stateMutability": "view",
      "type": "function"
    },
    {
      "inputs": [
        {
          "internalType": "uint256",
          "name": "tokenId",
          "type": "uint256"
        }
      ],
      "name": "getApproved",
      "outputs": [
        {
          "internalType": "address",
          "name": "",
          "type": "address"
        }
      ],
      "stateMutability": "view",
      "type": "function"
    },
    {
      "inputs": [
        {
          "internalType": "address",
          "name": "owner",
          "type": "address"
        },
        {
          "internalType": "address",
          "name": "operator",
          "type": "address"
        }
      ],
      "name": "isApprovedForAll",
      "outputs": [
        {
          "internalType": "bool",
          "name": "",
          "type": "bool"
        }
      ],
      "stateMutability": "view",
      "type": "function"
    },
    {
      "inputs": [],
      "name": "maxCountPerClaim",
      "outputs": [
        {
          "internalType": "uint256",
          "name": "",
          "type": "uint256"
        }
      ],
      "stateMutability": "view",
      "type": "function"
    },
    {
      "inputs": [
        {
          "internalType": "uint256",
          "name": "numberOfTokens",
          "type": "uint256"
        }
      ],
      "name": "mint",
      "outputs": [],
      "stateMutability": "payable",
      "type": "function"
    },
    {
      "inputs": [],
      "name": "mintCost",
      "outputs": [
        {
          "internalType": "uint256",
          "name": "",
          "type": "uint256"
        }
      ],
      "stateMutability": "view",
      "type": "function"
    },
    {
      "inputs": [],
      "name": "name",
      "outputs": [
        {
          "internalType": "string",
          "name": "",
          "type": "string"
        }
      ],
      "stateMutability": "view",
      "type": "function"
    },
    {
      "inputs": [],
      "name": "nextOwnerToExplicitlySet",
      "outputs": [
        {
          "internalType": "uint256",
          "name": "",
          "type": "uint256"
        }
      ],
      "stateMutability": "view",
      "type": "function"
    },
    {
      "inputs": [],
      "name": "ores",
      "outputs": [
        {
          "internalType": "address",
          "name": "",
          "type": "address"
        }
      ],
      "stateMutability": "view",
      "type": "function"
    },
    {
      "inputs": [],
      "name": "owner",
      "outputs": [
        {
          "internalType": "address",
          "name": "",
          "type": "address"
        }
      ],
      "stateMutability": "view",
      "type": "function"
    },
    {
      "inputs": [
        {
          "internalType": "uint256",
          "name": "tokenId",
          "type": "uint256"
        }
      ],
      "name": "ownerOf",
      "outputs": [
        {
          "internalType": "address",
          "name": "",
          "type": "address"
        }
      ],
      "stateMutability": "view",
      "type": "function"
    },
    {
      "inputs": [],
      "name": "renounceOwnership",
      "outputs": [],
      "stateMutability": "nonpayable",
      "type": "function"
    },
    {
      "inputs": [
        {
          "internalType": "address",
          "name": "from",
          "type": "address"
        },
        {
          "internalType": "address",
          "name": "to",
          "type": "address"
        },
        {
          "internalType": "uint256",
          "name": "tokenId",
          "type": "uint256"
        }
      ],
      "name": "safeTransferFrom",
      "outputs": [],
      "stateMutability": "nonpayable",
      "type": "function"
    },
    {
      "inputs": [
        {
          "internalType": "address",
          "name": "from",
          "type": "address"
        },
        {
          "internalType": "address",
          "name": "to",
          "type": "address"
        },
        {
          "internalType": "uint256",
          "name": "tokenId",
          "type": "uint256"
        },
        {
          "internalType": "bytes",
          "name": "_data",
          "type": "bytes"
        }
      ],
      "name": "safeTransferFrom",
      "outputs": [],
      "stateMutability": "nonpayable",
      "type": "function"
    },
    {
      "inputs": [
        {
          "internalType": "bool",
          "name": "isActive",
          "type": "bool"
        }
      ],
      "name": "setActive",
      "outputs": [],
      "stateMutability": "nonpayable",
      "type": "function"
    },
    {
      "inputs": [
        {
          "internalType": "address",
          "name": "operator",
          "type": "address"
        },
        {
          "internalType": "bool",
          "name": "approved",
          "type": "bool"
        }
      ],
      "name": "setApprovalForAll",
      "outputs": [],
      "stateMutability": "nonpayable",
      "type": "function"
    },
    {
      "inputs": [
        {
          "internalType": "uint256",
          "name": "_maxMint",
          "type": "uint256"
        }
      ],
      "name": "setMaxMint",
      "outputs": [],
      "stateMutability": "nonpayable",
      "type": "function"
    },
    {
      "inputs": [
        {
          "internalType": "uint256",
          "name": "_mintCost",
          "type": "uint256"
        }
      ],
      "name": "setMintCost",
      "outputs": [],
      "stateMutability": "nonpayable",
      "type": "function"
    },
    {
      "inputs": [
        {
          "internalType": "string",
          "name": "URI",
          "type": "string"
        }
      ],
      "name": "setTokenBaseURI",
      "outputs": [],
      "stateMutability": "nonpayable",
      "type": "function"
    },
    {
      "inputs": [
        {
          "internalType": "bytes4",
          "name": "interfaceId",
          "type": "bytes4"
        }
      ],
      "name": "supportsInterface",
      "outputs": [
        {
          "internalType": "bool",
          "name": "",
          "type": "bool"
        }
      ],
      "stateMutability": "view",
      "type": "function"
    },
    {
      "inputs": [],
      "name": "symbol",
      "outputs": [
        {
          "internalType": "string",
          "name": "",
          "type": "string"
        }
      ],
      "stateMutability": "view",
      "type": "function"
    },
    {
      "inputs": [
        {
          "internalType": "uint256",
          "name": "index",
          "type": "uint256"
        }
      ],
      "name": "tokenByIndex",
      "outputs": [
        {
          "internalType": "uint256",
          "name": "",
          "type": "uint256"
        }
      ],
      "stateMutability": "view",
      "type": "function"
    },
    {
      "inputs": [
        {
          "internalType": "address",
          "name": "owner",
          "type": "address"
        },
        {
          "internalType": "uint256",
          "name": "index",
          "type": "uint256"
        }
      ],
      "name": "tokenOfOwnerByIndex",
      "outputs": [
        {
          "internalType": "uint256",
          "name": "",
          "type": "uint256"
        }
      ],
      "stateMutability": "view",
      "type": "function"
    },
    {
      "inputs": [
        {
          "internalType": "uint256",
          "name": "tokenId",
          "type": "uint256"
        }
      ],
      "name": "tokenURI",
      "outputs": [
        {
          "internalType": "string",
          "name": "",
          "type": "string"
        }
      ],
      "stateMutability": "view",
      "type": "function"
    },
    {
      "inputs": [],
      "name": "totalMinted",
      "outputs": [
        {
          "internalType": "uint256",
          "name": "",
          "type": "uint256"
        }
      ],
      "stateMutability": "view",
      "type": "function"
    },
    {
      "inputs": [],
      "name": "totalSupply",
      "outputs": [
        {
          "internalType": "uint256",
          "name": "",
          "type": "uint256"
        }
      ],
      "stateMutability": "view",
      "type": "function"
    },
    {
      "inputs": [
        {
          "internalType": "address",
          "name": "from",
          "type": "address"
        },
        {
          "internalType": "address",
          "name": "to",
          "type": "address"
        },
        {
          "internalType": "uint256",
          "name": "tokenId",
          "type": "uint256"
        }
      ],
      "name": "transferFrom",
      "outputs": [],
      "stateMutability": "nonpayable",
      "type": "function"
    },
    {
      "inputs": [
        {
          "internalType": "address",
          "name": "newOwner",
          "type": "address"
        }
      ],
      "name": "transferOwnership",
      "outputs": [],
      "stateMutability": "nonpayable",
      "type": "function"
    },
    {
      "stateMutability": "payable",
      "type": "receive"
    }
  ],
  "transactionHash": "0x2c90e1f4cdd0b7109638af05c24e8add35f865b2a5166ab5d689ab8305a6c8f1",
  "args": [
    10,
    "0x1090d5041621aB9636A9c4b7AE7b98CA0C4d3B76"
  ],
  "numDeployments": 1,
  "solcInputHash": "fd8581ec6eceb019f3f58122fd0d164d",
  "bytecode": "0x600180805560006008819055600a805460ff19169055600b80546001600160a01b03191661dead179055610514600c55600d91909155690cb49b44ba602d800000600e55600f81905560c0604081905260a08290526200006391601091906200020b565b503480156200007157600080fd5b5060405162002667380380620026678339810160408190526200009491620002b1565b604051806040016040528060078152602001665465737445676760c81b815250604051806040016040528060078152602001665465737445676760c81b81525083620000ef620000e9620001b760201b60201c565b620001bb565b60008111620001545760405162461bcd60e51b815260206004820152602760248201527f455243373231413a206d61782062617463682073697a65206d757374206265206044820152666e6f6e7a65726f60c81b606482015260840160405180910390fd5b8251620001699060029060208601906200020b565b5081516200017f9060039060208501906200020b565b5060805250506001600955600a80546001600160a01b0390921661010002610100600160a81b0319909216919091179055506200032b565b3390565b600080546001600160a01b038381166001600160a01b0319831681178455604051919092169283917f8be0079c531659141344cd1fd0a4f28419497f9722a3daafe3b4186f6b6457e09190a35050565b8280546200021990620002ee565b90600052602060002090601f0160209004810192826200023d576000855562000288565b82601f106200025857805160ff191683800117855562000288565b8280016001018555821562000288579182015b82811115620002885782518255916020019190600101906200026b565b50620002969291506200029a565b5090565b5b808211156200029657600081556001016200029b565b60008060408385031215620002c4578182fd5b825160208401519092506001600160a01b0381168114620002e3578182fd5b809150509250929050565b6002810460018216806200030357607f821691505b602082108114156200032557634e487b7160e01b600052602260045260246000fd5b50919050565b608051612312620003556000396000818161151f01528181611549015261195601526123126000f3fe6080604052600436106101f25760003560e01c80638ef79e911161010d578063c87b56dd116100a0578063e985e9c51161006f578063e985e9c514610571578063ecc5fe30146105ba578063f0292a03146105df578063f2fde38b146105f5578063fccc281314610615576101f9565b8063c87b56dd146104f5578063c884ef8314610515578063d7224ba014610545578063d8fee6bf1461055b576101f9565b8063a2309ff8116100dc578063a2309ff814610489578063acec338a1461049f578063b88d4fde146104bf578063bdb4b848146104df576101f9565b80638ef79e911461042157806395d89b4114610441578063a0712d6814610456578063a22cb46514610469576101f9565b806342842e0e1161018557806370a082311161015457806370a08231146103ae578063715018a6146103ce5780638545f4ea146103e35780638da5cb5b14610403576101f9565b806342842e0e1461032e5780634f6ccce71461034e578063547520fe1461036e5780636352211e1461038e576101f9565b806318160ddd116101c157806318160ddd146102af57806323b872dd146102ce57806327ed69d2146102ee5780632f745c591461030e576101f9565b806301ffc9a7146101fe57806306fdde0314610233578063081812fc14610255578063095ea7b31461028d576101f9565b366101f957005b600080fd5b34801561020a57600080fd5b5061021e610219366004611f62565b610635565b60405190151581526020015b60405180910390f35b34801561023f57600080fd5b506102486106a4565b60405161022a9190612090565b34801561026157600080fd5b50610275610270366004611fe0565b610736565b6040516001600160a01b03909116815260200161022a565b34801561029957600080fd5b506102ad6102a8366004611f1f565b6107c6565b005b3480156102bb57600080fd5b506001545b60405190815260200161022a565b3480156102da57600080fd5b506102ad6102e9366004611e42565b6108de565b3480156102fa57600080fd5b506102c0610309366004611fe0565b6108e9565b34801561031a57600080fd5b506102c0610329366004611f1f565b6108f9565b34801561033a57600080fd5b506102ad610349366004611e42565b610a78565b34801561035a57600080fd5b506102c0610369366004611fe0565b610a93565b34801561037a57600080fd5b506102ad610389366004611fe0565b610afc565b34801561039a57600080fd5b506102756103a9366004611fe0565b610b2b565b3480156103ba57600080fd5b506102c06103c9366004611df6565b610b3d565b3480156103da57600080fd5b506102ad610bce565b3480156103ef57600080fd5b506102ad6103fe366004611fe0565b610c04565b34801561040f57600080fd5b506000546001600160a01b0316610275565b34801561042d57600080fd5b506102ad61043c366004611f9a565b610c33565b34801561044d57600080fd5b50610248610c74565b6102ad610464366004611fe0565b610c83565b34801561047557600080fd5b506102ad610484366004611ef6565b610e95565b34801561049557600080fd5b506102c0600f5481565b3480156104ab57600080fd5b506102ad6104ba366004611f48565b610f67565b3480156104cb57600080fd5b506102ad6104da366004611e7d565b610fa4565b3480156104eb57600080fd5b506102c0600e5481565b34801561050157600080fd5b50610248610510366004611fe0565b610fdd565b34801561052157600080fd5b5061021e610530366004611df6565b60116020526000908152604090205460ff1681565b34801561055157600080fd5b506102c060085481565b34801561056757600080fd5b506102c0600d5481565b34801561057d57600080fd5b5061021e61058c366004611e10565b6001600160a01b03918216600090815260076020908152604080832093909416825291909152205460ff1690565b3480156105c657600080fd5b50600a546102759061010090046001600160a01b031681565b3480156105eb57600080fd5b506102c0600c5481565b34801561060157600080fd5b506102ad610610366004611df6565b610fe8565b34801561062157600080fd5b50600b54610275906001600160a01b031681565b60006001600160e01b031982166380ac58cd60e01b148061066657506001600160e01b03198216635b5e139f60e01b145b8061068157506001600160e01b0319821663780e9d6360e01b145b8061069c57506301ffc9a760e01b6001600160e01b03198316145b90505b919050565b6060600280546106b39061221a565b80601f01602080910402602001604051908101604052809291908181526020018280546106df9061221a565b801561072c5780601f106107015761010080835404028352916020019161072c565b820191906000526020600020905b81548152906001019060200180831161070f57829003601f168201915b5050505050905090565b6000610743826001541190565b6107aa5760405162461bcd60e51b815260206004820152602d60248201527f455243373231413a20617070726f76656420717565727920666f72206e6f6e6560448201526c3c34b9ba32b73a103a37b5b2b760991b60648201526084015b60405180910390fd5b506000908152600660205260409020546001600160a01b031690565b60006107d182610b2b565b9050806001600160a01b0316836001600160a01b031614156108405760405162461bcd60e51b815260206004820152602260248201527f455243373231413a20617070726f76616c20746f2063757272656e74206f776e60448201526132b960f11b60648201526084016107a1565b336001600160a01b038216148061085c575061085c813361058c565b6108ce5760405162461bcd60e51b815260206004820152603960248201527f455243373231413a20617070726f76652063616c6c6572206973206e6f74206f60448201527f776e6572206e6f7220617070726f76656420666f7220616c6c0000000000000060648201526084016107a1565b6108d9838383611083565b505050565b6108d98383836110df565b600e5460009061069c908361148a565b600061090483610b3d565b821061095d5760405162461bcd60e51b815260206004820152602260248201527f455243373231413a206f776e657220696e646578206f7574206f6620626f756e604482015261647360f01b60648201526084016107a1565b600061096860015490565b905060008060005b83811015610a12576000818152600460209081526040918290208251808401909352546001600160a01b038116808452600160a01b90910467ffffffffffffffff1691830191909152156109c357805192505b876001600160a01b0316836001600160a01b031614156109ff57868414156109f157509350610a7292505050565b836109fb81612255565b9450505b5080610a0a81612255565b915050610970565b5060405162461bcd60e51b815260206004820152602e60248201527f455243373231413a20756e61626c6520746f2067657420746f6b656e206f662060448201526d0deeedccae440c4f240d2dcc8caf60931b60648201526084016107a1565b92915050565b6108d983838360405180602001604052806000815250610fa4565b6000610a9e60015490565b8210610af85760405162461bcd60e51b815260206004820152602360248201527f455243373231413a20676c6f62616c20696e646578206f7574206f6620626f756044820152626e647360e81b60648201526084016107a1565b5090565b6000546001600160a01b03163314610b265760405162461bcd60e51b81526004016107a1906120a3565b600c55565b6000610b368261149d565b5192915050565b60006001600160a01b038216610ba95760405162461bcd60e51b815260206004820152602b60248201527f455243373231413a2062616c616e636520717565727920666f7220746865207a60448201526a65726f206164647265737360a81b60648201526084016107a1565b506001600160a01b03166000908152600560205260409020546001600160801b031690565b6000546001600160a01b03163314610bf85760405162461bcd60e51b81526004016107a1906120a3565b610c026000611649565b565b6000546001600160a01b03163314610c2e5760405162461bcd60e51b81526004016107a1906120a3565b600e55565b6000546001600160a01b03163314610c5d5760405162461bcd60e51b81526004016107a1906120a3565b8051610c70906010906020840190611cc9565b5050565b6060600380546106b39061221a565b600a5460ff168015610c985750600c54600f54105b610cd15760405162461bcd60e51b815260206004820152600a6024820152696e6f742061637469766560b01b60448201526064016107a1565b60026009541415610d245760405162461bcd60e51b815260206004820152601f60248201527f5265656e7472616e637947756172643a207265656e7472616e742063616c6c0060448201526064016107a1565b600260095580610d635760405162461bcd60e51b815260206004820152600a6024820152691e995c9bc818dbdd5b9d60b21b60448201526064016107a1565b600d54811115610db55760405162461bcd60e51b815260206004820152601c60248201527f6578636565646564206d6178206c696d69742070657220636c61696d0000000060448201526064016107a1565b600f54600c54610dc491611699565b811115610e055760405162461bcd60e51b815260206004820152600f60248201526e6e6f7420656e6f756768206e66747360881b60448201526064016107a1565b3360009081526011602052604090205460ff1615610e575760405162461bcd60e51b815260206004820152600f60248201526e105b1c9958591e4818db185a5b5959608a1b60448201526064016107a1565b610e6133826116a5565b80600f54610e6f919061214d565b600f5550336000908152601160205260409020805460ff19166001908117909155600955565b6001600160a01b038216331415610eee5760405162461bcd60e51b815260206004820152601a60248201527f455243373231413a20617070726f766520746f2063616c6c657200000000000060448201526064016107a1565b3360008181526007602090815260408083206001600160a01b0387168085529252909120805460ff1916841515179055906001600160a01b03167f17307eab39ab6107e8899845ad3d59bd9653f200f220920489ca2b5937696c3183604051610f5b911515815260200190565b60405180910390a35050565b6000546001600160a01b03163314610f915760405162461bcd60e51b81526004016107a1906120a3565b600a805460ff1916911515919091179055565b610faf8484846110df565b610fbb848484846116bf565b610fd75760405162461bcd60e51b81526004016107a1906120d8565b50505050565b606061069c826117cd565b6000546001600160a01b031633146110125760405162461bcd60e51b81526004016107a1906120a3565b6001600160a01b0381166110775760405162461bcd60e51b815260206004820152602660248201527f4f776e61626c653a206e6577206f776e657220697320746865207a65726f206160448201526564647265737360d01b60648201526084016107a1565b61108081611649565b50565b60008281526006602052604080822080546001600160a01b0319166001600160a01b0387811691821790925591518593918516917f8c5be1e5ebec7d5bd14f71427d1e84f3dd0314c0f7b2291e5b200ac8c7c3b92591a4505050565b60006110ea8261149d565b80519091506000906001600160a01b0316336001600160a01b0316148061112157503361111684610736565b6001600160a01b0316145b8061113357508151611133903361058c565b90508061119d5760405162461bcd60e51b815260206004820152603260248201527f455243373231413a207472616e736665722063616c6c6572206973206e6f74206044820152711bdddb995c881b9bdc88185c1c1c9bdd995960721b60648201526084016107a1565b846001600160a01b031682600001516001600160a01b0316146112115760405162461bcd60e51b815260206004820152602660248201527f455243373231413a207472616e736665722066726f6d20696e636f72726563746044820152651037bbb732b960d11b60648201526084016107a1565b6001600160a01b0384166112755760405162461bcd60e51b815260206004820152602560248201527f455243373231413a207472616e7366657220746f20746865207a65726f206164604482015264647265737360d81b60648201526084016107a1565b6112856000848460000151611083565b6001600160a01b03851660009081526005602052604081208054600192906112b79084906001600160801b0316612198565b82546101009290920a6001600160801b038181021990931691831602179091556001600160a01b038616600090815260056020526040812080546001945090926113039185911661212b565b82546001600160801b039182166101009390930a9283029190920219909116179055506040805180820182526001600160a01b03808716825267ffffffffffffffff428116602080850191825260008981526004909152948520935184549151909216600160a01b0267ffffffffffffffff60a01b19929093166001600160a01b0319909116171617905561139984600161214d565b6000818152600460205260409020549091506001600160a01b0316611440576113c3816001541190565b156114405760408051808201825284516001600160a01b03908116825260208087015167ffffffffffffffff90811682850190815260008781526004909352949091209251835494516001600160a01b031990951692169190911767ffffffffffffffff60a01b1916600160a01b93909116929092029190911790555b83856001600160a01b0316876001600160a01b03167fddf252ad1be2c89b69c2b068fc378daa952ba7f163c4a11628f55a4df523b3ef60405160405180910390a45b505050505050565b60006114968284612179565b9392505050565b60408051808201909152600080825260208201526114bc826001541190565b61151b5760405162461bcd60e51b815260206004820152602a60248201527f455243373231413a206f776e657220717565727920666f72206e6f6e657869736044820152693a32b73a103a37b5b2b760b11b60648201526084016107a1565b60007f0000000000000000000000000000000000000000000000000000000000000000831061157c5761156e7f0000000000000000000000000000000000000000000000000000000000000000846121c0565b61157990600161214d565b90505b825b8181106115e8576000818152600460209081526040918290208251808401909352546001600160a01b038116808452600160a01b90910467ffffffffffffffff1691830191909152156115d557925061069f915050565b50806115e081612203565b91505061157e565b5060405162461bcd60e51b815260206004820152602f60248201527f455243373231413a20756e61626c6520746f2064657465726d696e652074686560448201526e1037bbb732b91037b3103a37b5b2b760891b60648201526084016107a1565b600080546001600160a01b038381166001600160a01b0319831681178455604051919092169283917f8be0079c531659141344cd1fd0a4f28419497f9722a3daafe3b4186f6b6457e09190a35050565b600061149682846121c0565b610c70828260405180602001604052806000815250611899565b60006001600160a01b0384163b156117c157604051630a85bd0160e11b81526001600160a01b0385169063150b7a0290611703903390899088908890600401612053565b602060405180830381600087803b15801561171d57600080fd5b505af192505050801561174d575060408051601f3d908101601f1916820190925261174a91810190611f7e565b60015b6117a7573d80801561177b576040519150601f19603f3d011682016040523d82523d6000602084013e611780565b606091505b50805161179f5760405162461bcd60e51b81526004016107a1906120d8565b805181602001fd5b6001600160e01b031916630a85bd0160e11b1490506117c5565b5060015b949350505050565b60606117da826001541190565b61183e5760405162461bcd60e51b815260206004820152602f60248201527f4552433732314d657461646174613a2055524920717565727920666f72206e6f60448201526e3732bc34b9ba32b73a103a37b5b2b760891b60648201526084016107a1565b6000611848611b9f565b905060008151116118685760405180602001604052806000815250611496565b8061187284611bae565b604051602001611883929190612024565b6040516020818303038152906040529392505050565b6001546001600160a01b0384166118fc5760405162461bcd60e51b815260206004820152602160248201527f455243373231413a206d696e7420746f20746865207a65726f206164647265736044820152607360f81b60648201526084016107a1565b611907816001541190565b156119545760405162461bcd60e51b815260206004820152601d60248201527f455243373231413a20746f6b656e20616c7265616479206d696e74656400000060448201526064016107a1565b7f00000000000000000000000000000000000000000000000000000000000000008311156119cf5760405162461bcd60e51b815260206004820152602260248201527f455243373231413a207175616e7469747920746f206d696e7420746f6f2068696044820152610ced60f31b60648201526084016107a1565b6001600160a01b0384166000908152600560209081526040918290208251808401845290546001600160801b038082168352600160801b9091041691810191909152815180830190925280519091908190611a2b90879061212b565b6001600160801b03168152602001858360200151611a49919061212b565b6001600160801b039081169091526001600160a01b03808816600081815260056020908152604080832087518154988401518816600160801b029088166fffffffffffffffffffffffffffffffff1990991698909817909616969096179094558451808601865291825267ffffffffffffffff4281168386019081528883526004909552948120915182549451909516600160a01b0267ffffffffffffffff60a01b19959093166001600160a01b031990941693909317939093161790915582905b85811015611b945760405182906001600160a01b038916906000907fddf252ad1be2c89b69c2b068fc378daa952ba7f163c4a11628f55a4df523b3ef908290a4611b5860008884886116bf565b611b745760405162461bcd60e51b81526004016107a1906120d8565b81611b7e81612255565b9250508080611b8c90612255565b915050611b0b565b506001819055611482565b6060601080546106b39061221a565b606081611bd357506040805180820190915260018152600360fc1b602082015261069f565b8160005b8115611bfd5780611be781612255565b9150611bf69050600a83612165565b9150611bd7565b60008167ffffffffffffffff811115611c2657634e487b7160e01b600052604160045260246000fd5b6040519080825280601f01601f191660200182016040528015611c50576020820181803683370190505b5090505b84156117c557611c656001836121c0565b9150611c72600a86612270565b611c7d90603061214d565b60f81b818381518110611ca057634e487b7160e01b600052603260045260246000fd5b60200101906001600160f81b031916908160001a905350611cc2600a86612165565b9450611c54565b828054611cd59061221a565b90600052602060002090601f016020900481019282611cf75760008555611d3d565b82601f10611d1057805160ff1916838001178555611d3d565b82800160010185558215611d3d579182015b82811115611d3d578251825591602001919060010190611d22565b50610af89291505b80821115610af85760008155600101611d45565b600067ffffffffffffffff80841115611d7457611d746122b0565b604051601f8501601f19908116603f01168101908282118183101715611d9c57611d9c6122b0565b81604052809350858152868686011115611db557600080fd5b858560208301376000602087830101525050509392505050565b80356001600160a01b038116811461069f57600080fd5b8035801515811461069f57600080fd5b600060208284031215611e07578081fd5b61149682611dcf565b60008060408385031215611e22578081fd5b611e2b83611dcf565b9150611e3960208401611dcf565b90509250929050565b600080600060608486031215611e56578081fd5b611e5f84611dcf565b9250611e6d60208501611dcf565b9150604084013590509250925092565b60008060008060808587031215611e92578081fd5b611e9b85611dcf565b9350611ea960208601611dcf565b925060408501359150606085013567ffffffffffffffff811115611ecb578182fd5b8501601f81018713611edb578182fd5b611eea87823560208401611d59565b91505092959194509250565b60008060408385031215611f08578182fd5b611f1183611dcf565b9150611e3960208401611de6565b60008060408385031215611f31578182fd5b611f3a83611dcf565b946020939093013593505050565b600060208284031215611f59578081fd5b61149682611de6565b600060208284031215611f73578081fd5b8135611496816122c6565b600060208284031215611f8f578081fd5b8151611496816122c6565b600060208284031215611fab578081fd5b813567ffffffffffffffff811115611fc1578182fd5b8201601f81018413611fd1578182fd5b6117c584823560208401611d59565b600060208284031215611ff1578081fd5b5035919050565b600081518084526120108160208601602086016121d7565b601f01601f19169290920160200192915050565b600083516120368184602088016121d7565b83519083019061204a8183602088016121d7565b01949350505050565b6001600160a01b038581168252841660208201526040810183905260806060820181905260009061208690830184611ff8565b9695505050505050565b6000602082526114966020830184611ff8565b6020808252818101527f4f776e61626c653a2063616c6c6572206973206e6f7420746865206f776e6572604082015260600190565b60208082526033908201527f455243373231413a207472616e7366657220746f206e6f6e204552433732315260408201527232b1b2b4bb32b91034b6b83632b6b2b73a32b960691b606082015260800190565b60006001600160801b0380831681851680830382111561204a5761204a612284565b6000821982111561216057612160612284565b500190565b6000826121745761217461229a565b500490565b600081600019048311821515161561219357612193612284565b500290565b60006001600160801b03838116908316818110156121b8576121b8612284565b039392505050565b6000828210156121d2576121d2612284565b500390565b60005b838110156121f25781810151838201526020016121da565b83811115610fd75750506000910152565b60008161221257612212612284565b506000190190565b60028104600182168061222e57607f821691505b6020821081141561224f57634e487b7160e01b600052602260045260246000fd5b50919050565b600060001982141561226957612269612284565b5060010190565b60008261227f5761227f61229a565b500690565b634e487b7160e01b600052601160045260246000fd5b634e487b7160e01b600052601260045260246000fd5b634e487b7160e01b600052604160045260246000fd5b6001600160e01b03198116811461108057600080fdfea264697066735822122014544ebb8ee6a91f0045de94d17fcb7e59016e3b93bea7fce1eaeeccc99e7a5464736f6c63430008020033",
  "devdoc": {
    "kind": "dev",
    "methods": {
      "approve(address,uint256)": {
        "details": "See {IERC721-approve}."
      },
      "balanceOf(address)": {
        "details": "See {IERC721-balanceOf}."
      },
      "getApproved(uint256)": {
        "details": "See {IERC721-getApproved}."
      },
      "isApprovedForAll(address,address)": {
        "details": "See {IERC721-isApprovedForAll}."
      },
      "name()": {
        "details": "See {IERC721Metadata-name}."
      },
      "owner()": {
        "details": "Returns the address of the current owner."
      },
      "ownerOf(uint256)": {
        "details": "See {IERC721-ownerOf}."
      },
      "renounceOwnership()": {
        "details": "Leaves the contract without owner. It will not be possible to call `onlyOwner` functions anymore. Can only be called by the current owner. NOTE: Renouncing ownership will leave the contract without an owner, thereby removing any functionality that is only available to the owner."
      },
      "safeTransferFrom(address,address,uint256)": {
        "details": "See {IERC721-safeTransferFrom}."
      },
      "safeTransferFrom(address,address,uint256,bytes)": {
        "details": "See {IERC721-safeTransferFrom}."
      },
      "setApprovalForAll(address,bool)": {
        "details": "See {IERC721-setApprovalForAll}."
      },
      "supportsInterface(bytes4)": {
        "details": "See {IERC165-supportsInterface}."
      },
      "symbol()": {
        "details": "See {IERC721Metadata-symbol}."
      },
      "tokenByIndex(uint256)": {
        "details": "See {IERC721Enumerable-tokenByIndex}."
      },
      "tokenOfOwnerByIndex(address,uint256)": {
        "details": "See {IERC721Enumerable-tokenOfOwnerByIndex}. This read function is O(totalSupply). If calling from a separate contract, be sure to test gas first. It may also degrade with extremely large collection sizes (e.g >> 10000), test for your use case."
      },
      "tokenURI(uint256)": {
        "details": "See {IERC721Metadata-tokenURI}."
      },
      "totalSupply()": {
        "details": "See {IERC721Enumerable-totalSupply}."
      },
      "transferFrom(address,address,uint256)": {
        "details": "See {IERC721-transferFrom}."
      },
      "transferOwnership(address)": {
        "details": "Transfers ownership of the contract to a new account (`newOwner`). Can only be called by the current owner."
      }
    },
    "version": 1
  },
  "userdoc": {
    "kind": "user",
    "methods": {},
    "version": 1
  },
  "storageLayout": {
    "storage": [
      {
        "astId": 1512,
        "contract": "contracts/TestEgg.sol:TestEgg",
        "label": "_owner",
        "offset": 0,
        "slot": "0",
        "type": "t_address"
      },
      {
        "astId": 13409,
        "contract": "contracts/TestEgg.sol:TestEgg",
        "label": "currentIndex",
        "offset": 0,
        "slot": "1",
        "type": "t_uint256"
      },
      {
        "astId": 13413,
        "contract": "contracts/TestEgg.sol:TestEgg",
        "label": "_name",
        "offset": 0,
        "slot": "2",
        "type": "t_string_storage"
      },
      {
        "astId": 13415,
        "contract": "contracts/TestEgg.sol:TestEgg",
        "label": "_symbol",
        "offset": 0,
        "slot": "3",
        "type": "t_string_storage"
      },
      {
        "astId": 13420,
        "contract": "contracts/TestEgg.sol:TestEgg",
        "label": "_ownerships",
        "offset": 0,
        "slot": "4",
        "type": "t_mapping(t_uint256,t_struct(TokenOwnership)13401_storage)"
      },
      {
        "astId": 13425,
        "contract": "contracts/TestEgg.sol:TestEgg",
        "label": "_addressData",
        "offset": 0,
        "slot": "5",
        "type": "t_mapping(t_address,t_struct(AddressData)13406_storage)"
      },
      {
        "astId": 13429,
        "contract": "contracts/TestEgg.sol:TestEgg",
        "label": "_tokenApprovals",
        "offset": 0,
        "slot": "6",
        "type": "t_mapping(t_uint256,t_address)"
      },
      {
        "astId": 13435,
        "contract": "contracts/TestEgg.sol:TestEgg",
        "label": "_operatorApprovals",
        "offset": 0,
        "slot": "7",
        "type": "t_mapping(t_address,t_mapping(t_address,t_bool))"
      },
      {
        "astId": 14365,
        "contract": "contracts/TestEgg.sol:TestEgg",
        "label": "nextOwnerToExplicitlySet",
        "offset": 0,
        "slot": "8",
        "type": "t_uint256"
      },
      {
        "astId": 1712,
        "contract": "contracts/TestEgg.sol:TestEgg",
        "label": "_status",
        "offset": 0,
        "slot": "9",
        "type": "t_uint256"
      },
      {
        "astId": 11950,
        "contract": "contracts/TestEgg.sol:TestEgg",
        "label": "_isActive",
        "offset": 0,
        "slot": "10",
        "type": "t_bool"
      },
      {
        "astId": 11952,
        "contract": "contracts/TestEgg.sol:TestEgg",
        "label": "ores",
        "offset": 1,
        "slot": "10",
        "type": "t_address"
      },
      {
        "astId": 11955,
        "contract": "contracts/TestEgg.sol:TestEgg",
        "label": "BURN_ADDRESS",
        "offset": 0,
        "slot": "11",
        "type": "t_address"
      },
      {
        "astId": 11958,
        "contract": "contracts/TestEgg.sol:TestEgg",
        "label": "MAX_MINT",
        "offset": 0,
        "slot": "12",
        "type": "t_uint256"
      },
      {
        "astId": 11961,
        "contract": "contracts/TestEgg.sol:TestEgg",
        "label": "maxCountPerClaim",
        "offset": 0,
        "slot": "13",
        "type": "t_uint256"
      },
      {
        "astId": 11964,
        "contract": "contracts/TestEgg.sol:TestEgg",
        "label": "mintCost",
        "offset": 0,
        "slot": "14",
        "type": "t_uint256"
      },
      {
        "astId": 11967,
        "contract": "contracts/TestEgg.sol:TestEgg",
        "label": "totalMinted",
        "offset": 0,
        "slot": "15",
        "type": "t_uint256"
      },
      {
        "astId": 11970,
        "contract": "contracts/TestEgg.sol:TestEgg",
        "label": "_tokenBaseURI",
        "offset": 0,
        "slot": "16",
        "type": "t_string_storage"
      },
      {
        "astId": 11974,
        "contract": "contracts/TestEgg.sol:TestEgg",
        "label": "claimed",
        "offset": 0,
        "slot": "17",
        "type": "t_mapping(t_address,t_bool)"
      }
    ],
    "types": {
      "t_address": {
        "encoding": "inplace",
        "label": "address",
        "numberOfBytes": "20"
      },
      "t_bool": {
        "encoding": "inplace",
        "label": "bool",
        "numberOfBytes": "1"
      },
      "t_mapping(t_address,t_bool)": {
        "encoding": "mapping",
        "key": "t_address",
        "label": "mapping(address => bool)",
        "numberOfBytes": "32",
        "value": "t_bool"
      },
      "t_mapping(t_address,t_mapping(t_address,t_bool))": {
        "encoding": "mapping",
        "key": "t_address",
        "label": "mapping(address => mapping(address => bool))",
        "numberOfBytes": "32",
        "value": "t_mapping(t_address,t_bool)"
      },
      "t_mapping(t_address,t_struct(AddressData)13406_storage)": {
        "encoding": "mapping",
        "key": "t_address",
        "label": "mapping(address => struct ERC721A.AddressData)",
        "numberOfBytes": "32",
        "value": "t_struct(AddressData)13406_storage"
      },
      "t_mapping(t_uint256,t_address)": {
        "encoding": "mapping",
        "key": "t_uint256",
        "label": "mapping(uint256 => address)",
        "numberOfBytes": "32",
        "value": "t_address"
      },
      "t_mapping(t_uint256,t_struct(TokenOwnership)13401_storage)": {
        "encoding": "mapping",
        "key": "t_uint256",
        "label": "mapping(uint256 => struct ERC721A.TokenOwnership)",
        "numberOfBytes": "32",
        "value": "t_struct(TokenOwnership)13401_storage"
      },
      "t_string_storage": {
        "encoding": "bytes",
        "label": "string",
        "numberOfBytes": "32"
      },
      "t_struct(AddressData)13406_storage": {
        "encoding": "inplace",
        "label": "struct ERC721A.AddressData",
        "members": [
          {
            "astId": 13403,
            "contract": "contracts/TestEgg.sol:TestEgg",
            "label": "balance",
            "offset": 0,
            "slot": "0",
            "type": "t_uint128"
          },
          {
            "astId": 13405,
            "contract": "contracts/TestEgg.sol:TestEgg",
            "label": "numberMinted",
            "offset": 16,
            "slot": "0",
            "type": "t_uint128"
          }
        ],
        "numberOfBytes": "32"
      },
      "t_struct(TokenOwnership)13401_storage": {
        "encoding": "inplace",
        "label": "struct ERC721A.TokenOwnership",
        "members": [
          {
            "astId": 13398,
            "contract": "contracts/TestEgg.sol:TestEgg",
            "label": "addr",
            "offset": 0,
            "slot": "0",
            "type": "t_address"
          },
          {
            "astId": 13400,
            "contract": "contracts/TestEgg.sol:TestEgg",
            "label": "startTimestamp",
            "offset": 20,
            "slot": "0",
            "type": "t_uint64"
          }
        ],
        "numberOfBytes": "32"
      },
      "t_uint128": {
        "encoding": "inplace",
        "label": "uint128",
        "numberOfBytes": "16"
      },
      "t_uint256": {
        "encoding": "inplace",
        "label": "uint256",
        "numberOfBytes": "32"
      },
      "t_uint64": {
        "encoding": "inplace",
        "label": "uint64",
        "numberOfBytes": "8"
      }
    }
  }
}